{
	"data": {
		"bytecode": {
			"linkReferences": {},
			"object": "608060405260006013553480156200001657600080fd5b5060405162002e3338038062002e338339810160408190526200003991620001b1565b6002620000478b8262000350565b506003620000568a8262000350565b50600488905560056200006a888262000350565b50600686905560076200007e868262000350565b50600893909355600180546001600160a01b03199081166001600160a01b0394851617909155600080548216928416929092179091556009805490911691909216179055506200041c945050505050565b634e487b7160e01b600052604160045260246000fd5b600082601f830112620000f757600080fd5b81516001600160401b0380821115620001145762000114620000cf565b604051601f8301601f19908116603f011681019082821181831017156200013f576200013f620000cf565b816040528381526020925086838588010111156200015c57600080fd5b600091505b8382101562000180578582018301518183018401529082019062000161565b600093810190920192909252949350505050565b80516001600160a01b0381168114620001ac57600080fd5b919050565b6000806000806000806000806000806101408b8d031215620001d257600080fd5b8a516001600160401b0380821115620001ea57600080fd5b620001f88e838f01620000e5565b9b5060208d01519150808211156200020f57600080fd5b6200021d8e838f01620000e5565b9a5060408d0151995060608d01519150808211156200023b57600080fd5b620002498e838f01620000e5565b985060808d0151975060a08d01519150808211156200026757600080fd5b50620002768d828e01620000e5565b95505060c08b015193506200028e60e08c0162000194565b92506200029f6101008c0162000194565b9150620002b06101208c0162000194565b90509295989b9194979a5092959850565b600181811c90821680620002d657607f821691505b602082108103620002f757634e487b7160e01b600052602260045260246000fd5b50919050565b601f8211156200034b57600081815260208120601f850160051c81016020861015620003265750805b601f850160051c820191505b81811015620003475782815560010162000332565b5050505b505050565b81516001600160401b038111156200036c576200036c620000cf565b62000384816200037d8454620002c1565b84620002fd565b602080601f831160018114620003bc5760008415620003a35750858301515b600019600386901b1c1916600185901b17855562000347565b600085815260208120601f198616915b82811015620003ed57888601518255948401946001909101908401620003cc565b50858210156200040c5787850151600019600388901b60f8161c191681555b5050505050600190811b01905550565b612a07806200042c6000396000f3fe608060405234801561001057600080fd5b50600436106100f45760003560e01c8063ae4e0f9111610097578063e5975bdc11610066578063e5975bdc1461022a578063e6bd5d721461023d578063e9c64a8214610250578063f8876a891461025857600080fd5b8063ae4e0f91146101c4578063b743e8eb146101d7578063cfc3a126146101f7578063d0a4d8fa1461020a57600080fd5b80636f027b22116100d35780636f027b2214610134578063701230571461015d5780637f66ad2b14610170578063ab3a74251461019157600080fd5b80620b8088146100f95780631d3e963b1461010e5780632fcb6aae14610121575b600080fd5b61010c610107366004612398565b61026d565b005b61010c61011c36600461240c565b610682565b61010c61012f366004612435565b610835565b61014761014236600461240c565b610a02565b60405161015491906124b1565b60405180910390f35b61010c61016b366004612513565b610af1565b61018361017e366004612535565b610ba6565b604051908152602001610154565b6101b461019f36600461255f565b60156020526000908152604090205460ff1681565b6040519015158152602001610154565b61010c6101d236600461257a565b610bd7565b6101836101e536600461255f565b60146020526000908152604090205481565b61010c610205366004612513565b610d37565b61021d61021836600461240c565b610d91565b60405161015491906125cd565b61010c61023836600461255f565b610e36565b61010c61024b36600461257a565b610f07565b6101836110eb565b610260611198565b60405161015491906125e0565b6000604051806101c00160405280336001600160a01b03168152602001856001600160a01b0316815260200184815260200183815260200160011515815260200160045467ffffffffffffffff8111156102c9576102c96122f5565b6040519080825280602002602001820160405280156102f2578160200160208202803683370190505b50815260200160045467ffffffffffffffff811115610313576103136122f5565b60405190808252806020026020018201604052801561033c578160200160208202803683370190505b50815260200160045467ffffffffffffffff81111561035d5761035d6122f5565b60405190808252806020026020018201604052801561039057816020015b606081526020019060019003908161037b5790505b50815260200160065467ffffffffffffffff8111156103b1576103b16122f5565b6040519080825280602002602001820160405280156103da578160200160208202803683370190505b50815260200160065467ffffffffffffffff8111156103fb576103fb6122f5565b604051908082528060200260200182016040528015610424578160200160208202803683370190505b50815260200160065467ffffffffffffffff811115610445576104456122f5565b60405190808252806020026020018201604052801561047857816020015b60608152602001906001900390816104635790505b50815260200160008152602001600081526020016000801b815250905060003384846040516020016104ac9392919061263a565b60408051808303601f1901815291815281516020928301206000818152600d8452829020855181546001600160a01b03199081166001600160a01b039283161783559487015160018301805490961691161790935590840151909250839190600282019061051a9082612708565b506060820151600382019061052f9082612708565b50608082015160048201805460ff191691151591909117905560a08201518051610563916005840191602090910190612107565b5060c0820151805161057f91600684019160209091019061216c565b5060e0820151805161059b91600784019160209091019061221b565b5061010082015180516105b8916008840191602090910190612107565b5061012082015180516105d591600984019160209091019061216c565b5061014082015180516105f291600a84019160209091019061221b565b50610160820151600b8201805460ff1916600183600381111561061757610617612624565b021790555061018082015181600c01556101a082015181600d0155905050610659600d60008381526020019081526020016000206005016000600454846111f9565b6000818152600d6020526040902060065461067b9160080190600190846111f9565b5050505050565b6000818152600d6020526040902061069982611757565b6002600b82015460ff1660038111156106b4576106b4612624565b03610724577f67324375b186d4640ca05ca31a82195dbec7ac98fd8f931969a0b19867aa13e3604051610718906020808252601c908201527f546865206d616e75736372697074207761732061636365707465642e00000000604082015260600190565b60405180910390a15050565b6001600b82015460ff16600381111561073f5761073f612624565b036107a3577f67324375b186d4640ca05ca31a82195dbec7ac98fd8f931969a0b19867aa13e3604051610718906020808252601c908201527f546865206d616e75736372697074207761732072656a65637465642e00000000604082015260600190565b6003600b82015460ff1660038111156107be576107be612624565b03610831577f67324375b186d4640ca05ca31a82195dbec7ac98fd8f931969a0b19867aa13e36040516107189060208082526026908201527f546865206d616e757363726970742072657175696572657320736f6d6520636860408201526530b733b2b99760d11b606082015260800190565b5050565b6000828152600d60205260408120908080805b60058501548110156108af57336001600160a01b0316856005018281548110610873576108736127c8565b6000918252602090912001546001600160a01b03160361089d5760019350600192508091506108af565b806108a7816127f4565b915050610848565b50826109215760005b600885015481101561091f57336001600160a01b03168560080182815481106108e3576108e36127c8565b6000918252602090912001546001600160a01b03160361090d57600193506000925080915061091f565b80610917816127f4565b9150506108b8565b505b826109865760405162461bcd60e51b815260206004820152602a60248201527f596f7520617265206e6f74206120726576696577657220666f722074686973206044820152691b585b9d5cd8dc9a5c1d60b21b60648201526084015b60405180910390fd5b84156109ed578180156109e75750604051630544950560e41b60208201526024016040516020818303038152906040528051906020012060076040516020016109cf919061280d565b60405160208183030381529060405280519060200120145b506109fa565b6109fa86838360016118b9565b505050505050565b6060600d6000838152602001908152602001600020600701805480602002602001604051908101604052809291908181526020016000905b82821015610ae6578382906000526020600020018054610a5990612688565b80601f0160208091040260200160405190810160405280929190818152602001828054610a8590612688565b8015610ad25780601f10610aa757610100808354040283529160200191610ad2565b820191906000526020600020905b815481529060010190602001808311610ab557829003601f168201915b505050505081526020019060010190610a3a565b505050509050919050565b60005460405163423b9ed160e11b81526001600160a01b03909116906384773da290610b24903390600290600401612883565b600060405180830381600087803b158015610b3e57600080fd5b505af1158015610b52573d6000803e3d6000fd5b50505050801515600103610ba357600a80546001810182556000919091527fc65a7bb8d6351c1cf70c95a316cc6a92839c986682d98bc35f958f4883f9d2a80180546001600160a01b031916331790555b50565b600e6020528160005260406000208181548110610bc257600080fd5b90600052602060002001600091509150505481565b6000838152600d6020526040812090805b6005830154811015610c4857336001600160a01b0316836005018281548110610c1357610c136127c8565b6000918252602090912001546001600160a01b031603610c365760019150610c48565b80610c40816127f4565b915050610be8565b5080610cac5760405162461bcd60e51b815260206004820152602d60248201527f596f7520617265206e6f742070617274206f662074686520666972737420677260448201526c6f75702072657669657765727360981b606482015260840161097d565b600682018054600181018255600091825260209182902091810490910180548692601f166101000a60ff81021990911690836003811115610cef57610cef612624565b02179055506007820180546001810182556000918252602090912001610d158482612708565b50600182600c016000828254610d2b919061291e565b90915550505050505050565b801515600103610d8657600a80546001810182556000919091527fc65a7bb8d6351c1cf70c95a316cc6a92839c986682d98bc35f958f4883f9d2a80180546001600160a01b0319163317905550565b610ba3600a33611924565b6000818152600d60205260409020600301805460609190610db190612688565b80601f0160208091040260200160405190810160405280929190818152602001828054610ddd90612688565b8015610e2a5780601f10610dff57610100808354040283529160200191610e2a565b820191906000526020600020905b815481529060010190602001808311610e0d57829003601f168201915b50505050509050919050565b6009546001600160a01b03163314610ea05760405162461bcd60e51b815260206004820152602760248201527f4f6e6c792074686520636f6e7472616374206f776e65722063616e2061646420604482015266656469746f727360c81b606482015260840161097d565b600f805460018181019092557f8d1108e10bcb7c27dddfc02ed9d693a074039d026cf4ea4240b40f7d581ac8020180546001600160a01b039093166001600160a01b031990931683179055600091825260106020526040909120805460ff19169091179055565b6000838152600d6020526040812090805b6008830154811015610f7857336001600160a01b0316836008018281548110610f4357610f436127c8565b6000918252602090912001546001600160a01b031603610f665760019150610f78565b80610f70816127f4565b915050610f18565b5080610fde5760405162461bcd60e51b815260206004820152602f60248201527f596f7520617265206e6f742070617274206f6620746865207365636f6e64206760448201526e3937bab8103932bb34b2bbb2b9399760891b606482015260840161097d565b6004546000868152600d60205260409020600c015410156110515760405162461bcd60e51b815260206004820152602760248201527f54686520317374207265766965772070726f63656573206973206e6f74206f7660448201526632b9103cb2ba1760c91b606482015260840161097d565b600982018054600181018255600091825260209182902091810490910180548692601f166101000a60ff8102199091169083600381111561109457611094612624565b0217905550600a8201805460018101825560009182526020909120016110ba8482612708565b506004546006546110cb919061291e565b6000868152600d60205260409020600c01540361067b5761067b85610682565b6013546004546012546000929161110191612937565b1161114e5760405162461bcd60e51b815260206004820152601c60248201527f4e6f20726576696577206f70656e696e677320617661696c61626c6500000000604482015260640161097d565b600160136000828254611161919061291e565b909155505060045460135460129161117891612964565b81548110611188576111886127c8565b9060005260206000200154905090565b336000908152600e60209081526040918290208054835181840281018401909452808452606093928301828280156111ef57602002820191906000526020600020905b8154815260200190600101908083116111db575b5050505050905090565b60006003805461120890612688565b80601f016020809104026020016040519081016040528092919081815260200182805461123490612688565b80156112815780601f1061125657610100808354040283529160200191611281565b820191906000526020600020905b81548152906001019060200180831161126457829003601f168201915b50505050509050831561131c576005805461129b90612688565b80601f01602080910402602001604051908101604052809291908181526020018280546112c790612688565b80156113145780601f106112e957610100808354040283529160200191611314565b820191906000526020600020905b8154815290600101906020018083116112f757829003601f168201915b505050505090505b6040516552616e646f6d60d01b602082015260260160405160208183030381529060405280519060200120816040516020016113589190612978565b60405160208183030381529060405280519060200120036113835761137e858484611a32565b61067b565b60405165526174696e6760d01b602082015260260160405160208183030381529060405280519060200120816040516020016113bf9190612978565b60405160208183030381529060405280519060200120036113eb576113e5858484611b71565b5061067b565b6040516522b234ba37b960d11b602082015260260160405160208183030381529060405280519060200120816040516020016114279190612978565b604051602081830303815290604052805190602001200361144c5761137e8583612034565b6040516a2232b9b4b3b730ba34b7b760a91b6020820152602b01604051602081830303815290604052805190602001208160405160200161148d9190612978565b604051602081830303815290604052805190602001200361156a576114e182601180546001810182556000919091527f31ecc21a745e3968a04e9570e4425bc18fa8019c68028196b546d1669c200c680155565b7f22f448a9d055998f7efc999aa4081dd835921a7b44f977951f7d001e2e48155b60405161155d9060208082526034908201527f41206e65772070726f63657373206e65656473206120656469746f7220746f2060408201527361737369676e207468652072657669657765727360601b606082015260800190565b60405180910390a161067b565b6040516a2837b9ba3ab630ba34b7b760a91b6020820152602b0160405160208183030381529060405280519060200120816040516020016115ab9190612978565b604051602081830303815290604052805190602001200361067b57836116895761160482601280546001810182556000919091527fbb8a6a4669ba250d26cd7a459eca9d215f8307e33aebe50379bc5a3617ec34440155565b7f22f448a9d055998f7efc999aa4081dd835921a7b44f977951f7d001e2e48155b60405161155d906020808252603f908201527f41206e65772070726f6365737320697320617661696c61626c6520746f20706f60408201527f7374756c61746520696e2061204669727374205265766965772047726f757000606082015260800190565b6116c282601280546001810182556000919091527fbb8a6a4669ba250d26cd7a459eca9d215f8307e33aebe50379bc5a3617ec34440155565b7f22f448a9d055998f7efc999aa4081dd835921a7b44f977951f7d001e2e48155b60405161174890602080825260409082018190527f41206e65772070726f6365737320697320617661696c61626c6520746f20706f908201527f7374756c61746520696e2061205365636f6e64205265766965772047726f7570606082015260800190565b60405180910390a15050505050565b6000818152600d6020526040808220815160028082526060820190935290929181602001602082028036833701905050905060005b600983015481101561181957818360090182815481106117ae576117ae6127c8565b90600052602060002090602091828204019190069054906101000a900460ff1660038111156117df576117df612624565b815181106117ef576117ef6127c8565b602002602001018051809190611804906127f4565b90525080611811816127f4565b91505061178c565b5060008060005b835181101561187c578284828151811061183c5761183c6127c8565b6020026020010151111561186a5783818151811061185c5761185c6127c8565b602002602001015192508091505b80611874816127f4565b915050611820565b5080600381111561188f5761188f612624565b600b8501805460ff191660018360038111156118ad576118ad612624565b02179055505050505050565b6000848152600d6020526040812090846118d657816008016118db565b816005015b905061190d818286815481106118f3576118f36127c8565b6000918252602090912001546001600160a01b0316611924565b841561191b8282868a6111f9565b50505050505050565b60005b8254811015611a2d57816001600160a01b031683828154811061194c5761194c6127c8565b6000918252602090912001546001600160a01b031603611a1b578254839061197690600190612994565b81548110611986576119866127c8565b9060005260206000200160009054906101000a90046001600160a01b03168382815481106119b6576119b66127c8565b9060005260206000200160006101000a8154816001600160a01b0302191690836001600160a01b03160217905550828054806119f4576119f46129a7565b600082815260209020810160001990810180546001600160a01b0319169055019055505050565b80611a25816127f4565b915050611927565b505050565b600a548210611a7a5760405162461bcd60e51b81526020600482015260146024820152734e6f7420656e6f7567682072657669657765727360601b604482015260640161097d565b60005b82811015611b6b57600a546040805142602082015260009291016040516020818303038152906040528051906020012060001c611aba91906129bd565b905084600a8281548110611ad057611ad06127c8565b60009182526020808320909101548354600181018555938352912090910180546001600160a01b0319166001600160a01b03909216919091179055600a8054611b58919083908110611b2457611b246127c8565b60009182526020808320909101546001600160a01b03168252600e8152604082208054600181018255908352912001849055565b5080611b63816127f4565b915050611a7d565b50505050565b600a5460609060008167ffffffffffffffff811115611b9257611b926122f5565b604051908082528060200260200182016040528015611bbb578160200160208202803683370190505b50905060005b82811015611c3657600a8181548110611bdc57611bdc6127c8565b9060005260206000200160009054906101000a90046001600160a01b0316828281518110611c0c57611c0c6127c8565b6001600160a01b039092166020928302919091019091015280611c2e816127f4565b915050611bc1565b5060005b8281108015611c4857508581105b15611f5e57600060146000600a600081548110611c6757611c676127c8565b60009182526020808320909101546001600160a01b03168352820192909252604001812054600a8054919350908290611ca257611ca26127c8565b6000918252602090912001546001600160a01b0316905060015b600a54811015611dce578260146000600a8481548110611cde57611cde6127c8565b60009182526020808320909101546001600160a01b03168352820192909252604001902054118015611d4b575060156000600a8381548110611d2257611d226127c8565b60009182526020808320909101546001600160a01b0316835282019290925260400190205460ff165b15611dbc5760146000600a8381548110611d6757611d676127c8565b60009182526020808320909101546001600160a01b03168352820192909252604001902054600a80549194509082908110611da457611da46127c8565b6000918252602090912001546001600160a01b031691505b80611dc6816127f4565b915050611cbc565b5080898481548110611de257611de26127c8565b600091825260208083209190910180546001600160a01b0319166001600160a01b039485161790559183168152600e82526040812080546001810182559082529190200187905560005b600a54811015611f4857816001600160a01b0316600a8281548110611e5357611e536127c8565b6000918252602090912001546001600160a01b031603611f3657600a54611e7c90600190612994565b811015611efe57600a8054611e9390600190612994565b81548110611ea357611ea36127c8565b600091825260209091200154600a80546001600160a01b039092169183908110611ecf57611ecf6127c8565b9060005260206000200160006101000a8154816001600160a01b0302191690836001600160a01b031602179055505b600a805480611f0f57611f0f6129a7565b600082815260209020810160001990810180546001600160a01b0319169055019055611f48565b80611f40816127f4565b915050611e2c565b5050508080611f56906127f4565b915050611c3a565b5060005b82811015611fd257818181518110611f7c57611f7c6127c8565b6020026020010151600a8281548110611f9757611f976127c8565b600091825260209091200180546001600160a01b0319166001600160a01b039290921691909117905580611fca816127f4565b915050611f62565b5085546040805160208084028201810190925282815291889183018282801561202457602002820191906000526020600020905b81546001600160a01b03168152600190910190602001808311612006575b5050505050925050509392505050565b600f546040805142602082015260009291016040516020818303038152906040528051906020012060001c61206991906129bd565b905082600f828154811061207f5761207f6127c8565b60009182526020808320909101548354600181018555938352912090910180546001600160a01b0319166001600160a01b03909216919091179055600f8054611a2d9190839081106120d3576120d36127c8565b60009182526020808320909101546001600160a01b03168252600e8152604082208054600181018255908352912001839055565b82805482825590600052602060002090810192821561215c579160200282015b8281111561215c57825182546001600160a01b0319166001600160a01b03909116178255602090920191600190910190612127565b5061216892915061226d565b5090565b82805482825590600052602060002090601f0160209004810192821561215c5791602002820160005b838211156121e157835183826101000a81548160ff021916908360038111156121c0576121c0612624565b02179055509260200192600101602081600001049283019260010302612195565b801561220e5782816101000a81549060ff02191690556001016020816000010492830192600103026121e1565b505061216892915061226d565b828054828255906000526020600020908101928215612261579160200282015b8281111561226157825182906122519082612708565b509160200191906001019061223b565b50612168929150612282565b5b80821115612168576000815560010161226e565b80821115612168576000612296828261229f565b50600101612282565b5080546122ab90612688565b6000825580601f106122bb575050565b601f016020900490600052602060002090810190610ba3919061226d565b80356001600160a01b03811681146122f057600080fd5b919050565b634e487b7160e01b600052604160045260246000fd5b600082601f83011261231c57600080fd5b813567ffffffffffffffff80821115612337576123376122f5565b604051601f8301601f19908116603f0116810190828211818310171561235f5761235f6122f5565b8160405283815286602085880101111561237857600080fd5b836020870160208301376000602085830101528094505050505092915050565b6000806000606084860312156123ad57600080fd5b6123b6846122d9565b9250602084013567ffffffffffffffff808211156123d357600080fd5b6123df8783880161230b565b935060408601359150808211156123f557600080fd5b506124028682870161230b565b9150509250925092565b60006020828403121561241e57600080fd5b5035919050565b803580151581146122f057600080fd5b6000806040838503121561244857600080fd5b8235915061245860208401612425565b90509250929050565b60005b8381101561247c578181015183820152602001612464565b50506000910152565b6000815180845261249d816020860160208601612461565b601f01601f19169290920160200192915050565b6000602080830181845280855180835260408601915060408160051b870101925083870160005b8281101561250657603f198886030184526124f4858351612485565b945092850192908501906001016124d8565b5092979650505050505050565b60006020828403121561252557600080fd5b61252e82612425565b9392505050565b6000806040838503121561254857600080fd5b612551836122d9565b946020939093013593505050565b60006020828403121561257157600080fd5b61252e826122d9565b60008060006060848603121561258f57600080fd5b833592506020840135600481106125a557600080fd5b9150604084013567ffffffffffffffff8111156125c157600080fd5b6124028682870161230b565b60208152600061252e6020830184612485565b6020808252825182820181905260009190848201906040850190845b81811015612618578351835292840192918401916001016125fc565b50909695505050505050565b634e487b7160e01b600052602160045260246000fd5b6bffffffffffffffffffffffff198460601b16815260008351612664816014850160208801612461565b83519083019061267b816014840160208801612461565b0160140195945050505050565b600181811c9082168061269c57607f821691505b6020821081036126bc57634e487b7160e01b600052602260045260246000fd5b50919050565b601f821115611a2d57600081815260208120601f850160051c810160208610156126e95750805b601f850160051c820191505b818110156109fa578281556001016126f5565b815167ffffffffffffffff811115612722576127226122f5565b612736816127308454612688565b846126c2565b602080601f83116001811461276b57600084156127535750858301515b600019600386901b1c1916600185901b1785556109fa565b600085815260208120601f198616915b8281101561279a5788860151825594840194600190910190840161277b565b50858210156127b85787850151600019600388901b60f8161c191681555b5050505050600190811b01905550565b634e487b7160e01b600052603260045260246000fd5b634e487b7160e01b600052601160045260246000fd5b600060018201612806576128066127de565b5060010190565b600080835461281b81612688565b60018281168015612833576001811461284857612877565b60ff1984168752821515830287019450612877565b8760005260208060002060005b8581101561286e5781548a820152908401908201612855565b50505082870194505b50929695505050505050565b60018060a01b038316815260006020604081840152600084546128a581612688565b80604087015260606001808416600081146128c757600181146128e15761290f565b60ff1985168984015283151560051b89018301955061290f565b896000528660002060005b858110156129075781548b82018601529083019088016128ec565b8a0184019650505b50939998505050505050505050565b80820180821115612931576129316127de565b92915050565b8082028115828204841417612931576129316127de565b634e487b7160e01b600052601260045260246000fd5b6000826129735761297361294e565b500490565b6000825161298a818460208701612461565b9190910192915050565b81810381811115612931576129316127de565b634e487b7160e01b600052603160045260246000fd5b6000826129cc576129cc61294e565b50069056fea2646970667358221220e0dc29e53ff97df9225841a9e4455a88cd510c7ca77ba699f211094528cac76064736f6c63430008130033",
			"opcodes": "PUSH1 0x80 PUSH1 0x40 MSTORE PUSH1 0x0 PUSH1 0x13 SSTORE CALLVALUE DUP1 ISZERO PUSH3 0x16 JUMPI PUSH1 0x0 DUP1 REVERT JUMPDEST POP PUSH1 0x40 MLOAD PUSH3 0x2E33 CODESIZE SUB DUP1 PUSH3 0x2E33 DUP4 CODECOPY DUP2 ADD PUSH1 0x40 DUP2 SWAP1 MSTORE PUSH3 0x39 SWAP2 PUSH3 0x1B1 JUMP JUMPDEST PUSH1 0x2 PUSH3 0x47 DUP12 DUP3 PUSH3 0x350 JUMP JUMPDEST POP PUSH1 0x3 PUSH3 0x56 DUP11 DUP3 PUSH3 0x350 JUMP JUMPDEST POP PUSH1 0x4 DUP9 SWAP1 SSTORE PUSH1 0x5 PUSH3 0x6A DUP9 DUP3 PUSH3 0x350 JUMP JUMPDEST POP PUSH1 0x6 DUP7 SWAP1 SSTORE PUSH1 0x7 PUSH3 0x7E DUP7 DUP3 PUSH3 0x350 JUMP JUMPDEST POP PUSH1 0x8 SWAP4 SWAP1 SWAP4 SSTORE PUSH1 0x1 DUP1 SLOAD PUSH1 0x1 PUSH1 0x1 PUSH1 0xA0 SHL SUB NOT SWAP1 DUP2 AND PUSH1 0x1 PUSH1 0x1 PUSH1 0xA0 SHL SUB SWAP5 DUP6 AND OR SWAP1 SWAP2 SSTORE PUSH1 0x0 DUP1 SLOAD DUP3 AND SWAP3 DUP5 AND SWAP3 SWAP1 SWAP3 OR SWAP1 SWAP2 SSTORE PUSH1 0x9 DUP1 SLOAD SWAP1 SWAP2 AND SWAP2 SWAP1 SWAP3 AND OR SWAP1 SSTORE POP PUSH3 0x41C SWAP5 POP POP POP POP POP JUMP JUMPDEST PUSH4 0x4E487B71 PUSH1 0xE0 SHL PUSH1 0x0 MSTORE PUSH1 0x41 PUSH1 0x4 MSTORE PUSH1 0x24 PUSH1 0x0 REVERT JUMPDEST PUSH1 0x0 DUP3 PUSH1 0x1F DUP4 ADD SLT PUSH3 0xF7 JUMPI PUSH1 0x0 DUP1 REVERT JUMPDEST DUP2 MLOAD PUSH1 0x1 PUSH1 0x1 PUSH1 0x40 SHL SUB DUP1 DUP3 GT ISZERO PUSH3 0x114 JUMPI PUSH3 0x114 PUSH3 0xCF JUMP JUMPDEST PUSH1 0x40 MLOAD PUSH1 0x1F DUP4 ADD PUSH1 0x1F NOT SWAP1 DUP2 AND PUSH1 0x3F ADD AND DUP2 ADD SWAP1 DUP3 DUP3 GT DUP2 DUP4 LT OR ISZERO PUSH3 0x13F JUMPI PUSH3 0x13F PUSH3 0xCF JUMP JUMPDEST DUP2 PUSH1 0x40 MSTORE DUP4 DUP2 MSTORE PUSH1 0x20 SWAP3 POP DUP7 DUP4 DUP6 DUP9 ADD ADD GT ISZERO PUSH3 0x15C JUMPI PUSH1 0x0 DUP1 REVERT JUMPDEST PUSH1 0x0 SWAP2 POP JUMPDEST DUP4 DUP3 LT ISZERO PUSH3 0x180 JUMPI DUP6 DUP3 ADD DUP4 ADD MLOAD DUP2 DUP4 ADD DUP5 ADD MSTORE SWAP1 DUP3 ADD SWAP1 PUSH3 0x161 JUMP JUMPDEST PUSH1 0x0 SWAP4 DUP2 ADD SWAP1 SWAP3 ADD SWAP3 SWAP1 SWAP3 MSTORE SWAP5 SWAP4 POP POP POP POP JUMP JUMPDEST DUP1 MLOAD PUSH1 0x1 PUSH1 0x1 PUSH1 0xA0 SHL SUB DUP2 AND DUP2 EQ PUSH3 0x1AC JUMPI PUSH1 0x0 DUP1 REVERT JUMPDEST SWAP2 SWAP1 POP JUMP JUMPDEST PUSH1 0x0 DUP1 PUSH1 0x0 DUP1 PUSH1 0x0 DUP1 PUSH1 0x0 DUP1 PUSH1 0x0 DUP1 PUSH2 0x140 DUP12 DUP14 SUB SLT ISZERO PUSH3 0x1D2 JUMPI PUSH1 0x0 DUP1 REVERT JUMPDEST DUP11 MLOAD PUSH1 0x1 PUSH1 0x1 PUSH1 0x40 SHL SUB DUP1 DUP3 GT ISZERO PUSH3 0x1EA JUMPI PUSH1 0x0 DUP1 REVERT JUMPDEST PUSH3 0x1F8 DUP15 DUP4 DUP16 ADD PUSH3 0xE5 JUMP JUMPDEST SWAP12 POP PUSH1 0x20 DUP14 ADD MLOAD SWAP2 POP DUP1 DUP3 GT ISZERO PUSH3 0x20F JUMPI PUSH1 0x0 DUP1 REVERT JUMPDEST PUSH3 0x21D DUP15 DUP4 DUP16 ADD PUSH3 0xE5 JUMP JUMPDEST SWAP11 POP PUSH1 0x40 DUP14 ADD MLOAD SWAP10 POP PUSH1 0x60 DUP14 ADD MLOAD SWAP2 POP DUP1 DUP3 GT ISZERO PUSH3 0x23B JUMPI PUSH1 0x0 DUP1 REVERT JUMPDEST PUSH3 0x249 DUP15 DUP4 DUP16 ADD PUSH3 0xE5 JUMP JUMPDEST SWAP9 POP PUSH1 0x80 DUP14 ADD MLOAD SWAP8 POP PUSH1 0xA0 DUP14 ADD MLOAD SWAP2 POP DUP1 DUP3 GT ISZERO PUSH3 0x267 JUMPI PUSH1 0x0 DUP1 REVERT JUMPDEST POP PUSH3 0x276 DUP14 DUP3 DUP15 ADD PUSH3 0xE5 JUMP JUMPDEST SWAP6 POP POP PUSH1 0xC0 DUP12 ADD MLOAD SWAP4 POP PUSH3 0x28E PUSH1 0xE0 DUP13 ADD PUSH3 0x194 JUMP JUMPDEST SWAP3 POP PUSH3 0x29F PUSH2 0x100 DUP13 ADD PUSH3 0x194 JUMP JUMPDEST SWAP2 POP PUSH3 0x2B0 PUSH2 0x120 DUP13 ADD PUSH3 0x194 JUMP JUMPDEST SWAP1 POP SWAP3 SWAP6 SWAP9 SWAP12 SWAP2 SWAP5 SWAP8 SWAP11 POP SWAP3 SWAP6 SWAP9 POP JUMP JUMPDEST PUSH1 0x1 DUP2 DUP2 SHR SWAP1 DUP3 AND DUP1 PUSH3 0x2D6 JUMPI PUSH1 0x7F DUP3 AND SWAP2 POP JUMPDEST PUSH1 0x20 DUP3 LT DUP2 SUB PUSH3 0x2F7 JUMPI PUSH4 0x4E487B71 PUSH1 0xE0 SHL PUSH1 0x0 MSTORE PUSH1 0x22 PUSH1 0x4 MSTORE PUSH1 0x24 PUSH1 0x0 REVERT JUMPDEST POP SWAP2 SWAP1 POP JUMP JUMPDEST PUSH1 0x1F DUP3 GT ISZERO PUSH3 0x34B JUMPI PUSH1 0x0 DUP2 DUP2 MSTORE PUSH1 0x20 DUP2 KECCAK256 PUSH1 0x1F DUP6 ADD PUSH1 0x5 SHR DUP2 ADD PUSH1 0x20 DUP7 LT ISZERO PUSH3 0x326 JUMPI POP DUP1 JUMPDEST PUSH1 0x1F DUP6 ADD PUSH1 0x5 SHR DUP3 ADD SWAP2 POP JUMPDEST DUP2 DUP2 LT ISZERO PUSH3 0x347 JUMPI DUP3 DUP2 SSTORE PUSH1 0x1 ADD PUSH3 0x332 JUMP JUMPDEST POP POP POP JUMPDEST POP POP POP JUMP JUMPDEST DUP2 MLOAD PUSH1 0x1 PUSH1 0x1 PUSH1 0x40 SHL SUB DUP2 GT ISZERO PUSH3 0x36C JUMPI PUSH3 0x36C PUSH3 0xCF JUMP JUMPDEST PUSH3 0x384 DUP2 PUSH3 0x37D DUP5 SLOAD PUSH3 0x2C1 JUMP JUMPDEST DUP5 PUSH3 0x2FD JUMP JUMPDEST PUSH1 0x20 DUP1 PUSH1 0x1F DUP4 GT PUSH1 0x1 DUP2 EQ PUSH3 0x3BC JUMPI PUSH1 0x0 DUP5 ISZERO PUSH3 0x3A3 JUMPI POP DUP6 DUP4 ADD MLOAD JUMPDEST PUSH1 0x0 NOT PUSH1 0x3 DUP7 SWAP1 SHL SHR NOT AND PUSH1 0x1 DUP6 SWAP1 SHL OR DUP6 SSTORE PUSH3 0x347 JUMP JUMPDEST PUSH1 0x0 DUP6 DUP2 MSTORE PUSH1 0x20 DUP2 KECCAK256 PUSH1 0x1F NOT DUP7 AND SWAP2 JUMPDEST DUP3 DUP2 LT ISZERO PUSH3 0x3ED JUMPI DUP9 DUP7 ADD MLOAD DUP3 SSTORE SWAP5 DUP5 ADD SWAP5 PUSH1 0x1 SWAP1 SWAP2 ADD SWAP1 DUP5 ADD PUSH3 0x3CC JUMP JUMPDEST POP DUP6 DUP3 LT ISZERO PUSH3 0x40C JUMPI DUP8 DUP6 ADD MLOAD PUSH1 0x0 NOT PUSH1 0x3 DUP9 SWAP1 SHL PUSH1 0xF8 AND SHR NOT AND DUP2 SSTORE JUMPDEST POP POP POP POP POP PUSH1 0x1 SWAP1 DUP2 SHL ADD SWAP1 SSTORE POP JUMP JUMPDEST PUSH2 0x2A07 DUP1 PUSH3 0x42C PUSH1 0x0 CODECOPY PUSH1 0x0 RETURN INVALID PUSH1 0x80 PUSH1 0x40 MSTORE CALLVALUE DUP1 ISZERO PUSH2 0x10 JUMPI PUSH1 0x0 DUP1 REVERT JUMPDEST POP PUSH1 0x4 CALLDATASIZE LT PUSH2 0xF4 JUMPI PUSH1 0x0 CALLDATALOAD PUSH1 0xE0 SHR DUP1 PUSH4 0xAE4E0F91 GT PUSH2 0x97 JUMPI DUP1 PUSH4 0xE5975BDC GT PUSH2 0x66 JUMPI DUP1 PUSH4 0xE5975BDC EQ PUSH2 0x22A JUMPI DUP1 PUSH4 0xE6BD5D72 EQ PUSH2 0x23D JUMPI DUP1 PUSH4 0xE9C64A82 EQ PUSH2 0x250 JUMPI DUP1 PUSH4 0xF8876A89 EQ PUSH2 0x258 JUMPI PUSH1 0x0 DUP1 REVERT JUMPDEST DUP1 PUSH4 0xAE4E0F91 EQ PUSH2 0x1C4 JUMPI DUP1 PUSH4 0xB743E8EB EQ PUSH2 0x1D7 JUMPI DUP1 PUSH4 0xCFC3A126 EQ PUSH2 0x1F7 JUMPI DUP1 PUSH4 0xD0A4D8FA EQ PUSH2 0x20A JUMPI PUSH1 0x0 DUP1 REVERT JUMPDEST DUP1 PUSH4 0x6F027B22 GT PUSH2 0xD3 JUMPI DUP1 PUSH4 0x6F027B22 EQ PUSH2 0x134 JUMPI DUP1 PUSH4 0x70123057 EQ PUSH2 0x15D JUMPI DUP1 PUSH4 0x7F66AD2B EQ PUSH2 0x170 JUMPI DUP1 PUSH4 0xAB3A7425 EQ PUSH2 0x191 JUMPI PUSH1 0x0 DUP1 REVERT JUMPDEST DUP1 PUSH3 0xB8088 EQ PUSH2 0xF9 JUMPI DUP1 PUSH4 0x1D3E963B EQ PUSH2 0x10E JUMPI DUP1 PUSH4 0x2FCB6AAE EQ PUSH2 0x121 JUMPI JUMPDEST PUSH1 0x0 DUP1 REVERT JUMPDEST PUSH2 0x10C PUSH2 0x107 CALLDATASIZE PUSH1 0x4 PUSH2 0x2398 JUMP JUMPDEST PUSH2 0x26D JUMP JUMPDEST STOP JUMPDEST PUSH2 0x10C PUSH2 0x11C CALLDATASIZE PUSH1 0x4 PUSH2 0x240C JUMP JUMPDEST PUSH2 0x682 JUMP JUMPDEST PUSH2 0x10C PUSH2 0x12F CALLDATASIZE PUSH1 0x4 PUSH2 0x2435 JUMP JUMPDEST PUSH2 0x835 JUMP JUMPDEST PUSH2 0x147 PUSH2 0x142 CALLDATASIZE PUSH1 0x4 PUSH2 0x240C JUMP JUMPDEST PUSH2 0xA02 JUMP JUMPDEST PUSH1 0x40 MLOAD PUSH2 0x154 SWAP2 SWAP1 PUSH2 0x24B1 JUMP JUMPDEST PUSH1 0x40 MLOAD DUP1 SWAP2 SUB SWAP1 RETURN JUMPDEST PUSH2 0x10C PUSH2 0x16B CALLDATASIZE PUSH1 0x4 PUSH2 0x2513 JUMP JUMPDEST PUSH2 0xAF1 JUMP JUMPDEST PUSH2 0x183 PUSH2 0x17E CALLDATASIZE PUSH1 0x4 PUSH2 0x2535 JUMP JUMPDEST PUSH2 0xBA6 JUMP JUMPDEST PUSH1 0x40 MLOAD SWAP1 DUP2 MSTORE PUSH1 0x20 ADD PUSH2 0x154 JUMP JUMPDEST PUSH2 0x1B4 PUSH2 0x19F CALLDATASIZE PUSH1 0x4 PUSH2 0x255F JUMP JUMPDEST PUSH1 0x15 PUSH1 0x20 MSTORE PUSH1 0x0 SWAP1 DUP2 MSTORE PUSH1 0x40 SWAP1 KECCAK256 SLOAD PUSH1 0xFF AND DUP2 JUMP JUMPDEST PUSH1 0x40 MLOAD SWAP1 ISZERO ISZERO DUP2 MSTORE PUSH1 0x20 ADD PUSH2 0x154 JUMP JUMPDEST PUSH2 0x10C PUSH2 0x1D2 CALLDATASIZE PUSH1 0x4 PUSH2 0x257A JUMP JUMPDEST PUSH2 0xBD7 JUMP JUMPDEST PUSH2 0x183 PUSH2 0x1E5 CALLDATASIZE PUSH1 0x4 PUSH2 0x255F JUMP JUMPDEST PUSH1 0x14 PUSH1 0x20 MSTORE PUSH1 0x0 SWAP1 DUP2 MSTORE PUSH1 0x40 SWAP1 KECCAK256 SLOAD DUP2 JUMP JUMPDEST PUSH2 0x10C PUSH2 0x205 CALLDATASIZE PUSH1 0x4 PUSH2 0x2513 JUMP JUMPDEST PUSH2 0xD37 JUMP JUMPDEST PUSH2 0x21D PUSH2 0x218 CALLDATASIZE PUSH1 0x4 PUSH2 0x240C JUMP JUMPDEST PUSH2 0xD91 JUMP JUMPDEST PUSH1 0x40 MLOAD PUSH2 0x154 SWAP2 SWAP1 PUSH2 0x25CD JUMP JUMPDEST PUSH2 0x10C PUSH2 0x238 CALLDATASIZE PUSH1 0x4 PUSH2 0x255F JUMP JUMPDEST PUSH2 0xE36 JUMP JUMPDEST PUSH2 0x10C PUSH2 0x24B CALLDATASIZE PUSH1 0x4 PUSH2 0x257A JUMP JUMPDEST PUSH2 0xF07 JUMP JUMPDEST PUSH2 0x183 PUSH2 0x10EB JUMP JUMPDEST PUSH2 0x260 PUSH2 0x1198 JUMP JUMPDEST PUSH1 0x40 MLOAD PUSH2 0x154 SWAP2 SWAP1 PUSH2 0x25E0 JUMP JUMPDEST PUSH1 0x0 PUSH1 0x40 MLOAD DUP1 PUSH2 0x1C0 ADD PUSH1 0x40 MSTORE DUP1 CALLER PUSH1 0x1 PUSH1 0x1 PUSH1 0xA0 SHL SUB AND DUP2 MSTORE PUSH1 0x20 ADD DUP6 PUSH1 0x1 PUSH1 0x1 PUSH1 0xA0 SHL SUB AND DUP2 MSTORE PUSH1 0x20 ADD DUP5 DUP2 MSTORE PUSH1 0x20 ADD DUP4 DUP2 MSTORE PUSH1 0x20 ADD PUSH1 0x1 ISZERO ISZERO DUP2 MSTORE PUSH1 0x20 ADD PUSH1 0x4 SLOAD PUSH8 0xFFFFFFFFFFFFFFFF DUP2 GT ISZERO PUSH2 0x2C9 JUMPI PUSH2 0x2C9 PUSH2 0x22F5 JUMP JUMPDEST PUSH1 0x40 MLOAD SWAP1 DUP1 DUP3 MSTORE DUP1 PUSH1 0x20 MUL PUSH1 0x20 ADD DUP3 ADD PUSH1 0x40 MSTORE DUP1 ISZERO PUSH2 0x2F2 JUMPI DUP2 PUSH1 0x20 ADD PUSH1 0x20 DUP3 MUL DUP1 CALLDATASIZE DUP4 CALLDATACOPY ADD SWAP1 POP JUMPDEST POP DUP2 MSTORE PUSH1 0x20 ADD PUSH1 0x4 SLOAD PUSH8 0xFFFFFFFFFFFFFFFF DUP2 GT ISZERO PUSH2 0x313 JUMPI PUSH2 0x313 PUSH2 0x22F5 JUMP JUMPDEST PUSH1 0x40 MLOAD SWAP1 DUP1 DUP3 MSTORE DUP1 PUSH1 0x20 MUL PUSH1 0x20 ADD DUP3 ADD PUSH1 0x40 MSTORE DUP1 ISZERO PUSH2 0x33C JUMPI DUP2 PUSH1 0x20 ADD PUSH1 0x20 DUP3 MUL DUP1 CALLDATASIZE DUP4 CALLDATACOPY ADD SWAP1 POP JUMPDEST POP DUP2 MSTORE PUSH1 0x20 ADD PUSH1 0x4 SLOAD PUSH8 0xFFFFFFFFFFFFFFFF DUP2 GT ISZERO PUSH2 0x35D JUMPI PUSH2 0x35D PUSH2 0x22F5 JUMP JUMPDEST PUSH1 0x40 MLOAD SWAP1 DUP1 DUP3 MSTORE DUP1 PUSH1 0x20 MUL PUSH1 0x20 ADD DUP3 ADD PUSH1 0x40 MSTORE DUP1 ISZERO PUSH2 0x390 JUMPI DUP2 PUSH1 0x20 ADD JUMPDEST PUSH1 0x60 DUP2 MSTORE PUSH1 0x20 ADD SWAP1 PUSH1 0x1 SWAP1 SUB SWAP1 DUP2 PUSH2 0x37B JUMPI SWAP1 POP JUMPDEST POP DUP2 MSTORE PUSH1 0x20 ADD PUSH1 0x6 SLOAD PUSH8 0xFFFFFFFFFFFFFFFF DUP2 GT ISZERO PUSH2 0x3B1 JUMPI PUSH2 0x3B1 PUSH2 0x22F5 JUMP JUMPDEST PUSH1 0x40 MLOAD SWAP1 DUP1 DUP3 MSTORE DUP1 PUSH1 0x20 MUL PUSH1 0x20 ADD DUP3 ADD PUSH1 0x40 MSTORE DUP1 ISZERO PUSH2 0x3DA JUMPI DUP2 PUSH1 0x20 ADD PUSH1 0x20 DUP3 MUL DUP1 CALLDATASIZE DUP4 CALLDATACOPY ADD SWAP1 POP JUMPDEST POP DUP2 MSTORE PUSH1 0x20 ADD PUSH1 0x6 SLOAD PUSH8 0xFFFFFFFFFFFFFFFF DUP2 GT ISZERO PUSH2 0x3FB JUMPI PUSH2 0x3FB PUSH2 0x22F5 JUMP JUMPDEST PUSH1 0x40 MLOAD SWAP1 DUP1 DUP3 MSTORE DUP1 PUSH1 0x20 MUL PUSH1 0x20 ADD DUP3 ADD PUSH1 0x40 MSTORE DUP1 ISZERO PUSH2 0x424 JUMPI DUP2 PUSH1 0x20 ADD PUSH1 0x20 DUP3 MUL DUP1 CALLDATASIZE DUP4 CALLDATACOPY ADD SWAP1 POP JUMPDEST POP DUP2 MSTORE PUSH1 0x20 ADD PUSH1 0x6 SLOAD PUSH8 0xFFFFFFFFFFFFFFFF DUP2 GT ISZERO PUSH2 0x445 JUMPI PUSH2 0x445 PUSH2 0x22F5 JUMP JUMPDEST PUSH1 0x40 MLOAD SWAP1 DUP1 DUP3 MSTORE DUP1 PUSH1 0x20 MUL PUSH1 0x20 ADD DUP3 ADD PUSH1 0x40 MSTORE DUP1 ISZERO PUSH2 0x478 JUMPI DUP2 PUSH1 0x20 ADD JUMPDEST PUSH1 0x60 DUP2 MSTORE PUSH1 0x20 ADD SWAP1 PUSH1 0x1 SWAP1 SUB SWAP1 DUP2 PUSH2 0x463 JUMPI SWAP1 POP JUMPDEST POP DUP2 MSTORE PUSH1 0x20 ADD PUSH1 0x0 DUP2 MSTORE PUSH1 0x20 ADD PUSH1 0x0 DUP2 MSTORE PUSH1 0x20 ADD PUSH1 0x0 DUP1 SHL DUP2 MSTORE POP SWAP1 POP PUSH1 0x0 CALLER DUP5 DUP5 PUSH1 0x40 MLOAD PUSH1 0x20 ADD PUSH2 0x4AC SWAP4 SWAP3 SWAP2 SWAP1 PUSH2 0x263A JUMP JUMPDEST PUSH1 0x40 DUP1 MLOAD DUP1 DUP4 SUB PUSH1 0x1F NOT ADD DUP2 MSTORE SWAP2 DUP2 MSTORE DUP2 MLOAD PUSH1 0x20 SWAP3 DUP4 ADD KECCAK256 PUSH1 0x0 DUP2 DUP2 MSTORE PUSH1 0xD DUP5 MSTORE DUP3 SWAP1 KECCAK256 DUP6 MLOAD DUP2 SLOAD PUSH1 0x1 PUSH1 0x1 PUSH1 0xA0 SHL SUB NOT SWAP1 DUP2 AND PUSH1 0x1 PUSH1 0x1 PUSH1 0xA0 SHL SUB SWAP3 DUP4 AND OR DUP4 SSTORE SWAP5 DUP8 ADD MLOAD PUSH1 0x1 DUP4 ADD DUP1 SLOAD SWAP1 SWAP7 AND SWAP2 AND OR SWAP1 SWAP4 SSTORE SWAP1 DUP5 ADD MLOAD SWAP1 SWAP3 POP DUP4 SWAP2 SWAP1 PUSH1 0x2 DUP3 ADD SWAP1 PUSH2 0x51A SWAP1 DUP3 PUSH2 0x2708 JUMP JUMPDEST POP PUSH1 0x60 DUP3 ADD MLOAD PUSH1 0x3 DUP3 ADD SWAP1 PUSH2 0x52F SWAP1 DUP3 PUSH2 0x2708 JUMP JUMPDEST POP PUSH1 0x80 DUP3 ADD MLOAD PUSH1 0x4 DUP3 ADD DUP1 SLOAD PUSH1 0xFF NOT AND SWAP2 ISZERO ISZERO SWAP2 SWAP1 SWAP2 OR SWAP1 SSTORE PUSH1 0xA0 DUP3 ADD MLOAD DUP1 MLOAD PUSH2 0x563 SWAP2 PUSH1 0x5 DUP5 ADD SWAP2 PUSH1 0x20 SWAP1 SWAP2 ADD SWAP1 PUSH2 0x2107 JUMP JUMPDEST POP PUSH1 0xC0 DUP3 ADD MLOAD DUP1 MLOAD PUSH2 0x57F SWAP2 PUSH1 0x6 DUP5 ADD SWAP2 PUSH1 0x20 SWAP1 SWAP2 ADD SWAP1 PUSH2 0x216C JUMP JUMPDEST POP PUSH1 0xE0 DUP3 ADD MLOAD DUP1 MLOAD PUSH2 0x59B SWAP2 PUSH1 0x7 DUP5 ADD SWAP2 PUSH1 0x20 SWAP1 SWAP2 ADD SWAP1 PUSH2 0x221B JUMP JUMPDEST POP PUSH2 0x100 DUP3 ADD MLOAD DUP1 MLOAD PUSH2 0x5B8 SWAP2 PUSH1 0x8 DUP5 ADD SWAP2 PUSH1 0x20 SWAP1 SWAP2 ADD SWAP1 PUSH2 0x2107 JUMP JUMPDEST POP PUSH2 0x120 DUP3 ADD MLOAD DUP1 MLOAD PUSH2 0x5D5 SWAP2 PUSH1 0x9 DUP5 ADD SWAP2 PUSH1 0x20 SWAP1 SWAP2 ADD SWAP1 PUSH2 0x216C JUMP JUMPDEST POP PUSH2 0x140 DUP3 ADD MLOAD DUP1 MLOAD PUSH2 0x5F2 SWAP2 PUSH1 0xA DUP5 ADD SWAP2 PUSH1 0x20 SWAP1 SWAP2 ADD SWAP1 PUSH2 0x221B JUMP JUMPDEST POP PUSH2 0x160 DUP3 ADD MLOAD PUSH1 0xB DUP3 ADD DUP1 SLOAD PUSH1 0xFF NOT AND PUSH1 0x1 DUP4 PUSH1 0x3 DUP2 GT ISZERO PUSH2 0x617 JUMPI PUSH2 0x617 PUSH2 0x2624 JUMP JUMPDEST MUL OR SWAP1 SSTORE POP PUSH2 0x180 DUP3 ADD MLOAD DUP2 PUSH1 0xC ADD SSTORE PUSH2 0x1A0 DUP3 ADD MLOAD DUP2 PUSH1 0xD ADD SSTORE SWAP1 POP POP PUSH2 0x659 PUSH1 0xD PUSH1 0x0 DUP4 DUP2 MSTORE PUSH1 0x20 ADD SWAP1 DUP2 MSTORE PUSH1 0x20 ADD PUSH1 0x0 KECCAK256 PUSH1 0x5 ADD PUSH1 0x0 PUSH1 0x4 SLOAD DUP5 PUSH2 0x11F9 JUMP JUMPDEST PUSH1 0x0 DUP2 DUP2 MSTORE PUSH1 0xD PUSH1 0x20 MSTORE PUSH1 0x40 SWAP1 KECCAK256 PUSH1 0x6 SLOAD PUSH2 0x67B SWAP2 PUSH1 0x8 ADD SWAP1 PUSH1 0x1 SWAP1 DUP5 PUSH2 0x11F9 JUMP JUMPDEST POP POP POP POP POP JUMP JUMPDEST PUSH1 0x0 DUP2 DUP2 MSTORE PUSH1 0xD PUSH1 0x20 MSTORE PUSH1 0x40 SWAP1 KECCAK256 PUSH2 0x699 DUP3 PUSH2 0x1757 JUMP JUMPDEST PUSH1 0x2 PUSH1 0xB DUP3 ADD SLOAD PUSH1 0xFF AND PUSH1 0x3 DUP2 GT ISZERO PUSH2 0x6B4 JUMPI PUSH2 0x6B4 PUSH2 0x2624 JUMP JUMPDEST SUB PUSH2 0x724 JUMPI PUSH32 0x67324375B186D4640CA05CA31A82195DBEC7AC98FD8F931969A0B19867AA13E3 PUSH1 0x40 MLOAD PUSH2 0x718 SWAP1 PUSH1 0x20 DUP1 DUP3 MSTORE PUSH1 0x1C SWAP1 DUP3 ADD MSTORE PUSH32 0x546865206D616E75736372697074207761732061636365707465642E00000000 PUSH1 0x40 DUP3 ADD MSTORE PUSH1 0x60 ADD SWAP1 JUMP JUMPDEST PUSH1 0x40 MLOAD DUP1 SWAP2 SUB SWAP1 LOG1 POP POP JUMP JUMPDEST PUSH1 0x1 PUSH1 0xB DUP3 ADD SLOAD PUSH1 0xFF AND PUSH1 0x3 DUP2 GT ISZERO PUSH2 0x73F JUMPI PUSH2 0x73F PUSH2 0x2624 JUMP JUMPDEST SUB PUSH2 0x7A3 JUMPI PUSH32 0x67324375B186D4640CA05CA31A82195DBEC7AC98FD8F931969A0B19867AA13E3 PUSH1 0x40 MLOAD PUSH2 0x718 SWAP1 PUSH1 0x20 DUP1 DUP3 MSTORE PUSH1 0x1C SWAP1 DUP3 ADD MSTORE PUSH32 0x546865206D616E75736372697074207761732072656A65637465642E00000000 PUSH1 0x40 DUP3 ADD MSTORE PUSH1 0x60 ADD SWAP1 JUMP JUMPDEST PUSH1 0x3 PUSH1 0xB DUP3 ADD SLOAD PUSH1 0xFF AND PUSH1 0x3 DUP2 GT ISZERO PUSH2 0x7BE JUMPI PUSH2 0x7BE PUSH2 0x2624 JUMP JUMPDEST SUB PUSH2 0x831 JUMPI PUSH32 0x67324375B186D4640CA05CA31A82195DBEC7AC98FD8F931969A0B19867AA13E3 PUSH1 0x40 MLOAD PUSH2 0x718 SWAP1 PUSH1 0x20 DUP1 DUP3 MSTORE PUSH1 0x26 SWAP1 DUP3 ADD MSTORE PUSH32 0x546865206D616E757363726970742072657175696572657320736F6D65206368 PUSH1 0x40 DUP3 ADD MSTORE PUSH6 0x30B733B2B997 PUSH1 0xD1 SHL PUSH1 0x60 DUP3 ADD MSTORE PUSH1 0x80 ADD SWAP1 JUMP JUMPDEST POP POP JUMP JUMPDEST PUSH1 0x0 DUP3 DUP2 MSTORE PUSH1 0xD PUSH1 0x20 MSTORE PUSH1 0x40 DUP2 KECCAK256 SWAP1 DUP1 DUP1 DUP1 JUMPDEST PUSH1 0x5 DUP6 ADD SLOAD DUP2 LT ISZERO PUSH2 0x8AF JUMPI CALLER PUSH1 0x1 PUSH1 0x1 PUSH1 0xA0 SHL SUB AND DUP6 PUSH1 0x5 ADD DUP3 DUP2 SLOAD DUP2 LT PUSH2 0x873 JUMPI PUSH2 0x873 PUSH2 0x27C8 JUMP JUMPDEST PUSH1 0x0 SWAP2 DUP3 MSTORE PUSH1 0x20 SWAP1 SWAP2 KECCAK256 ADD SLOAD PUSH1 0x1 PUSH1 0x1 PUSH1 0xA0 SHL SUB AND SUB PUSH2 0x89D JUMPI PUSH1 0x1 SWAP4 POP PUSH1 0x1 SWAP3 POP DUP1 SWAP2 POP PUSH2 0x8AF JUMP JUMPDEST DUP1 PUSH2 0x8A7 DUP2 PUSH2 0x27F4 JUMP JUMPDEST SWAP2 POP POP PUSH2 0x848 JUMP JUMPDEST POP DUP3 PUSH2 0x921 JUMPI PUSH1 0x0 JUMPDEST PUSH1 0x8 DUP6 ADD SLOAD DUP2 LT ISZERO PUSH2 0x91F JUMPI CALLER PUSH1 0x1 PUSH1 0x1 PUSH1 0xA0 SHL SUB AND DUP6 PUSH1 0x8 ADD DUP3 DUP2 SLOAD DUP2 LT PUSH2 0x8E3 JUMPI PUSH2 0x8E3 PUSH2 0x27C8 JUMP JUMPDEST PUSH1 0x0 SWAP2 DUP3 MSTORE PUSH1 0x20 SWAP1 SWAP2 KECCAK256 ADD SLOAD PUSH1 0x1 PUSH1 0x1 PUSH1 0xA0 SHL SUB AND SUB PUSH2 0x90D JUMPI PUSH1 0x1 SWAP4 POP PUSH1 0x0 SWAP3 POP DUP1 SWAP2 POP PUSH2 0x91F JUMP JUMPDEST DUP1 PUSH2 0x917 DUP2 PUSH2 0x27F4 JUMP JUMPDEST SWAP2 POP POP PUSH2 0x8B8 JUMP JUMPDEST POP JUMPDEST DUP3 PUSH2 0x986 JUMPI PUSH1 0x40 MLOAD PUSH3 0x461BCD PUSH1 0xE5 SHL DUP2 MSTORE PUSH1 0x20 PUSH1 0x4 DUP3 ADD MSTORE PUSH1 0x2A PUSH1 0x24 DUP3 ADD MSTORE PUSH32 0x596F7520617265206E6F74206120726576696577657220666F72207468697320 PUSH1 0x44 DUP3 ADD MSTORE PUSH10 0x1B585B9D5CD8DC9A5C1D PUSH1 0xB2 SHL PUSH1 0x64 DUP3 ADD MSTORE PUSH1 0x84 ADD JUMPDEST PUSH1 0x40 MLOAD DUP1 SWAP2 SUB SWAP1 REVERT JUMPDEST DUP5 ISZERO PUSH2 0x9ED JUMPI DUP2 DUP1 ISZERO PUSH2 0x9E7 JUMPI POP PUSH1 0x40 MLOAD PUSH4 0x5449505 PUSH1 0xE4 SHL PUSH1 0x20 DUP3 ADD MSTORE PUSH1 0x24 ADD PUSH1 0x40 MLOAD PUSH1 0x20 DUP2 DUP4 SUB SUB DUP2 MSTORE SWAP1 PUSH1 0x40 MSTORE DUP1 MLOAD SWAP1 PUSH1 0x20 ADD KECCAK256 PUSH1 0x7 PUSH1 0x40 MLOAD PUSH1 0x20 ADD PUSH2 0x9CF SWAP2 SWAP1 PUSH2 0x280D JUMP JUMPDEST PUSH1 0x40 MLOAD PUSH1 0x20 DUP2 DUP4 SUB SUB DUP2 MSTORE SWAP1 PUSH1 0x40 MSTORE DUP1 MLOAD SWAP1 PUSH1 0x20 ADD KECCAK256 EQ JUMPDEST POP PUSH2 0x9FA JUMP JUMPDEST PUSH2 0x9FA DUP7 DUP4 DUP4 PUSH1 0x1 PUSH2 0x18B9 JUMP JUMPDEST POP POP POP POP POP POP JUMP JUMPDEST PUSH1 0x60 PUSH1 0xD PUSH1 0x0 DUP4 DUP2 MSTORE PUSH1 0x20 ADD SWAP1 DUP2 MSTORE PUSH1 0x20 ADD PUSH1 0x0 KECCAK256 PUSH1 0x7 ADD DUP1 SLOAD DUP1 PUSH1 0x20 MUL PUSH1 0x20 ADD PUSH1 0x40 MLOAD SWAP1 DUP2 ADD PUSH1 0x40 MSTORE DUP1 SWAP3 SWAP2 SWAP1 DUP2 DUP2 MSTORE PUSH1 0x20 ADD PUSH1 0x0 SWAP1 JUMPDEST DUP3 DUP3 LT ISZERO PUSH2 0xAE6 JUMPI DUP4 DUP3 SWAP1 PUSH1 0x0 MSTORE PUSH1 0x20 PUSH1 0x0 KECCAK256 ADD DUP1 SLOAD PUSH2 0xA59 SWAP1 PUSH2 0x2688 JUMP JUMPDEST DUP1 PUSH1 0x1F ADD PUSH1 0x20 DUP1 SWAP2 DIV MUL PUSH1 0x20 ADD PUSH1 0x40 MLOAD SWAP1 DUP2 ADD PUSH1 0x40 MSTORE DUP1 SWAP3 SWAP2 SWAP1 DUP2 DUP2 MSTORE PUSH1 0x20 ADD DUP3 DUP1 SLOAD PUSH2 0xA85 SWAP1 PUSH2 0x2688 JUMP JUMPDEST DUP1 ISZERO PUSH2 0xAD2 JUMPI DUP1 PUSH1 0x1F LT PUSH2 0xAA7 JUMPI PUSH2 0x100 DUP1 DUP4 SLOAD DIV MUL DUP4 MSTORE SWAP2 PUSH1 0x20 ADD SWAP2 PUSH2 0xAD2 JUMP JUMPDEST DUP3 ADD SWAP2 SWAP1 PUSH1 0x0 MSTORE PUSH1 0x20 PUSH1 0x0 KECCAK256 SWAP1 JUMPDEST DUP2 SLOAD DUP2 MSTORE SWAP1 PUSH1 0x1 ADD SWAP1 PUSH1 0x20 ADD DUP1 DUP4 GT PUSH2 0xAB5 JUMPI DUP3 SWAP1 SUB PUSH1 0x1F AND DUP3 ADD SWAP2 JUMPDEST POP POP POP POP POP DUP2 MSTORE PUSH1 0x20 ADD SWAP1 PUSH1 0x1 ADD SWAP1 PUSH2 0xA3A JUMP JUMPDEST POP POP POP POP SWAP1 POP SWAP2 SWAP1 POP JUMP JUMPDEST PUSH1 0x0 SLOAD PUSH1 0x40 MLOAD PUSH4 0x423B9ED1 PUSH1 0xE1 SHL DUP2 MSTORE PUSH1 0x1 PUSH1 0x1 PUSH1 0xA0 SHL SUB SWAP1 SWAP2 AND SWAP1 PUSH4 0x84773DA2 SWAP1 PUSH2 0xB24 SWAP1 CALLER SWAP1 PUSH1 0x2 SWAP1 PUSH1 0x4 ADD PUSH2 0x2883 JUMP JUMPDEST PUSH1 0x0 PUSH1 0x40 MLOAD DUP1 DUP4 SUB DUP2 PUSH1 0x0 DUP8 DUP1 EXTCODESIZE ISZERO DUP1 ISZERO PUSH2 0xB3E JUMPI PUSH1 0x0 DUP1 REVERT JUMPDEST POP GAS CALL ISZERO DUP1 ISZERO PUSH2 0xB52 JUMPI RETURNDATASIZE PUSH1 0x0 DUP1 RETURNDATACOPY RETURNDATASIZE PUSH1 0x0 REVERT JUMPDEST POP POP POP POP DUP1 ISZERO ISZERO PUSH1 0x1 SUB PUSH2 0xBA3 JUMPI PUSH1 0xA DUP1 SLOAD PUSH1 0x1 DUP2 ADD DUP3 SSTORE PUSH1 0x0 SWAP2 SWAP1 SWAP2 MSTORE PUSH32 0xC65A7BB8D6351C1CF70C95A316CC6A92839C986682D98BC35F958F4883F9D2A8 ADD DUP1 SLOAD PUSH1 0x1 PUSH1 0x1 PUSH1 0xA0 SHL SUB NOT AND CALLER OR SWAP1 SSTORE JUMPDEST POP JUMP JUMPDEST PUSH1 0xE PUSH1 0x20 MSTORE DUP2 PUSH1 0x0 MSTORE PUSH1 0x40 PUSH1 0x0 KECCAK256 DUP2 DUP2 SLOAD DUP2 LT PUSH2 0xBC2 JUMPI PUSH1 0x0 DUP1 REVERT JUMPDEST SWAP1 PUSH1 0x0 MSTORE PUSH1 0x20 PUSH1 0x0 KECCAK256 ADD PUSH1 0x0 SWAP2 POP SWAP2 POP POP SLOAD DUP2 JUMP JUMPDEST PUSH1 0x0 DUP4 DUP2 MSTORE PUSH1 0xD PUSH1 0x20 MSTORE PUSH1 0x40 DUP2 KECCAK256 SWAP1 DUP1 JUMPDEST PUSH1 0x5 DUP4 ADD SLOAD DUP2 LT ISZERO PUSH2 0xC48 JUMPI CALLER PUSH1 0x1 PUSH1 0x1 PUSH1 0xA0 SHL SUB AND DUP4 PUSH1 0x5 ADD DUP3 DUP2 SLOAD DUP2 LT PUSH2 0xC13 JUMPI PUSH2 0xC13 PUSH2 0x27C8 JUMP JUMPDEST PUSH1 0x0 SWAP2 DUP3 MSTORE PUSH1 0x20 SWAP1 SWAP2 KECCAK256 ADD SLOAD PUSH1 0x1 PUSH1 0x1 PUSH1 0xA0 SHL SUB AND SUB PUSH2 0xC36 JUMPI PUSH1 0x1 SWAP2 POP PUSH2 0xC48 JUMP JUMPDEST DUP1 PUSH2 0xC40 DUP2 PUSH2 0x27F4 JUMP JUMPDEST SWAP2 POP POP PUSH2 0xBE8 JUMP JUMPDEST POP DUP1 PUSH2 0xCAC JUMPI PUSH1 0x40 MLOAD PUSH3 0x461BCD PUSH1 0xE5 SHL DUP2 MSTORE PUSH1 0x20 PUSH1 0x4 DUP3 ADD MSTORE PUSH1 0x2D PUSH1 0x24 DUP3 ADD MSTORE PUSH32 0x596F7520617265206E6F742070617274206F6620746865206669727374206772 PUSH1 0x44 DUP3 ADD MSTORE PUSH13 0x6F757020726576696577657273 PUSH1 0x98 SHL PUSH1 0x64 DUP3 ADD MSTORE PUSH1 0x84 ADD PUSH2 0x97D JUMP JUMPDEST PUSH1 0x6 DUP3 ADD DUP1 SLOAD PUSH1 0x1 DUP2 ADD DUP3 SSTORE PUSH1 0x0 SWAP2 DUP3 MSTORE PUSH1 0x20 SWAP2 DUP3 SWAP1 KECCAK256 SWAP2 DUP2 DIV SWAP1 SWAP2 ADD DUP1 SLOAD DUP7 SWAP3 PUSH1 0x1F AND PUSH2 0x100 EXP PUSH1 0xFF DUP2 MUL NOT SWAP1 SWAP2 AND SWAP1 DUP4 PUSH1 0x3 DUP2 GT ISZERO PUSH2 0xCEF JUMPI PUSH2 0xCEF PUSH2 0x2624 JUMP JUMPDEST MUL OR SWAP1 SSTORE POP PUSH1 0x7 DUP3 ADD DUP1 SLOAD PUSH1 0x1 DUP2 ADD DUP3 SSTORE PUSH1 0x0 SWAP2 DUP3 MSTORE PUSH1 0x20 SWAP1 SWAP2 KECCAK256 ADD PUSH2 0xD15 DUP5 DUP3 PUSH2 0x2708 JUMP JUMPDEST POP PUSH1 0x1 DUP3 PUSH1 0xC ADD PUSH1 0x0 DUP3 DUP3 SLOAD PUSH2 0xD2B SWAP2 SWAP1 PUSH2 0x291E JUMP JUMPDEST SWAP1 SWAP2 SSTORE POP POP POP POP POP POP POP JUMP JUMPDEST DUP1 ISZERO ISZERO PUSH1 0x1 SUB PUSH2 0xD86 JUMPI PUSH1 0xA DUP1 SLOAD PUSH1 0x1 DUP2 ADD DUP3 SSTORE PUSH1 0x0 SWAP2 SWAP1 SWAP2 MSTORE PUSH32 0xC65A7BB8D6351C1CF70C95A316CC6A92839C986682D98BC35F958F4883F9D2A8 ADD DUP1 SLOAD PUSH1 0x1 PUSH1 0x1 PUSH1 0xA0 SHL SUB NOT AND CALLER OR SWAP1 SSTORE POP JUMP JUMPDEST PUSH2 0xBA3 PUSH1 0xA CALLER PUSH2 0x1924 JUMP JUMPDEST PUSH1 0x0 DUP2 DUP2 MSTORE PUSH1 0xD PUSH1 0x20 MSTORE PUSH1 0x40 SWAP1 KECCAK256 PUSH1 0x3 ADD DUP1 SLOAD PUSH1 0x60 SWAP2 SWAP1 PUSH2 0xDB1 SWAP1 PUSH2 0x2688 JUMP JUMPDEST DUP1 PUSH1 0x1F ADD PUSH1 0x20 DUP1 SWAP2 DIV MUL PUSH1 0x20 ADD PUSH1 0x40 MLOAD SWAP1 DUP2 ADD PUSH1 0x40 MSTORE DUP1 SWAP3 SWAP2 SWAP1 DUP2 DUP2 MSTORE PUSH1 0x20 ADD DUP3 DUP1 SLOAD PUSH2 0xDDD SWAP1 PUSH2 0x2688 JUMP JUMPDEST DUP1 ISZERO PUSH2 0xE2A JUMPI DUP1 PUSH1 0x1F LT PUSH2 0xDFF JUMPI PUSH2 0x100 DUP1 DUP4 SLOAD DIV MUL DUP4 MSTORE SWAP2 PUSH1 0x20 ADD SWAP2 PUSH2 0xE2A JUMP JUMPDEST DUP3 ADD SWAP2 SWAP1 PUSH1 0x0 MSTORE PUSH1 0x20 PUSH1 0x0 KECCAK256 SWAP1 JUMPDEST DUP2 SLOAD DUP2 MSTORE SWAP1 PUSH1 0x1 ADD SWAP1 PUSH1 0x20 ADD DUP1 DUP4 GT PUSH2 0xE0D JUMPI DUP3 SWAP1 SUB PUSH1 0x1F AND DUP3 ADD SWAP2 JUMPDEST POP POP POP POP POP SWAP1 POP SWAP2 SWAP1 POP JUMP JUMPDEST PUSH1 0x9 SLOAD PUSH1 0x1 PUSH1 0x1 PUSH1 0xA0 SHL SUB AND CALLER EQ PUSH2 0xEA0 JUMPI PUSH1 0x40 MLOAD PUSH3 0x461BCD PUSH1 0xE5 SHL DUP2 MSTORE PUSH1 0x20 PUSH1 0x4 DUP3 ADD MSTORE PUSH1 0x27 PUSH1 0x24 DUP3 ADD MSTORE PUSH32 0x4F6E6C792074686520636F6E7472616374206F776E65722063616E2061646420 PUSH1 0x44 DUP3 ADD MSTORE PUSH7 0x656469746F7273 PUSH1 0xC8 SHL PUSH1 0x64 DUP3 ADD MSTORE PUSH1 0x84 ADD PUSH2 0x97D JUMP JUMPDEST PUSH1 0xF DUP1 SLOAD PUSH1 0x1 DUP2 DUP2 ADD SWAP1 SWAP3 SSTORE PUSH32 0x8D1108E10BCB7C27DDDFC02ED9D693A074039D026CF4EA4240B40F7D581AC802 ADD DUP1 SLOAD PUSH1 0x1 PUSH1 0x1 PUSH1 0xA0 SHL SUB SWAP1 SWAP4 AND PUSH1 0x1 PUSH1 0x1 PUSH1 0xA0 SHL SUB NOT SWAP1 SWAP4 AND DUP4 OR SWAP1 SSTORE PUSH1 0x0 SWAP2 DUP3 MSTORE PUSH1 0x10 PUSH1 0x20 MSTORE PUSH1 0x40 SWAP1 SWAP2 KECCAK256 DUP1 SLOAD PUSH1 0xFF NOT AND SWAP1 SWAP2 OR SWAP1 SSTORE JUMP JUMPDEST PUSH1 0x0 DUP4 DUP2 MSTORE PUSH1 0xD PUSH1 0x20 MSTORE PUSH1 0x40 DUP2 KECCAK256 SWAP1 DUP1 JUMPDEST PUSH1 0x8 DUP4 ADD SLOAD DUP2 LT ISZERO PUSH2 0xF78 JUMPI CALLER PUSH1 0x1 PUSH1 0x1 PUSH1 0xA0 SHL SUB AND DUP4 PUSH1 0x8 ADD DUP3 DUP2 SLOAD DUP2 LT PUSH2 0xF43 JUMPI PUSH2 0xF43 PUSH2 0x27C8 JUMP JUMPDEST PUSH1 0x0 SWAP2 DUP3 MSTORE PUSH1 0x20 SWAP1 SWAP2 KECCAK256 ADD SLOAD PUSH1 0x1 PUSH1 0x1 PUSH1 0xA0 SHL SUB AND SUB PUSH2 0xF66 JUMPI PUSH1 0x1 SWAP2 POP PUSH2 0xF78 JUMP JUMPDEST DUP1 PUSH2 0xF70 DUP2 PUSH2 0x27F4 JUMP JUMPDEST SWAP2 POP POP PUSH2 0xF18 JUMP JUMPDEST POP DUP1 PUSH2 0xFDE JUMPI PUSH1 0x40 MLOAD PUSH3 0x461BCD PUSH1 0xE5 SHL DUP2 MSTORE PUSH1 0x20 PUSH1 0x4 DUP3 ADD MSTORE PUSH1 0x2F PUSH1 0x24 DUP3 ADD MSTORE PUSH32 0x596F7520617265206E6F742070617274206F6620746865207365636F6E642067 PUSH1 0x44 DUP3 ADD MSTORE PUSH15 0x3937BAB8103932BB34B2BBB2B93997 PUSH1 0x89 SHL PUSH1 0x64 DUP3 ADD MSTORE PUSH1 0x84 ADD PUSH2 0x97D JUMP JUMPDEST PUSH1 0x4 SLOAD PUSH1 0x0 DUP7 DUP2 MSTORE PUSH1 0xD PUSH1 0x20 MSTORE PUSH1 0x40 SWAP1 KECCAK256 PUSH1 0xC ADD SLOAD LT ISZERO PUSH2 0x1051 JUMPI PUSH1 0x40 MLOAD PUSH3 0x461BCD PUSH1 0xE5 SHL DUP2 MSTORE PUSH1 0x20 PUSH1 0x4 DUP3 ADD MSTORE PUSH1 0x27 PUSH1 0x24 DUP3 ADD MSTORE PUSH32 0x54686520317374207265766965772070726F63656573206973206E6F74206F76 PUSH1 0x44 DUP3 ADD MSTORE PUSH7 0x32B9103CB2BA17 PUSH1 0xC9 SHL PUSH1 0x64 DUP3 ADD MSTORE PUSH1 0x84 ADD PUSH2 0x97D JUMP JUMPDEST PUSH1 0x9 DUP3 ADD DUP1 SLOAD PUSH1 0x1 DUP2 ADD DUP3 SSTORE PUSH1 0x0 SWAP2 DUP3 MSTORE PUSH1 0x20 SWAP2 DUP3 SWAP1 KECCAK256 SWAP2 DUP2 DIV SWAP1 SWAP2 ADD DUP1 SLOAD DUP7 SWAP3 PUSH1 0x1F AND PUSH2 0x100 EXP PUSH1 0xFF DUP2 MUL NOT SWAP1 SWAP2 AND SWAP1 DUP4 PUSH1 0x3 DUP2 GT ISZERO PUSH2 0x1094 JUMPI PUSH2 0x1094 PUSH2 0x2624 JUMP JUMPDEST MUL OR SWAP1 SSTORE POP PUSH1 0xA DUP3 ADD DUP1 SLOAD PUSH1 0x1 DUP2 ADD DUP3 SSTORE PUSH1 0x0 SWAP2 DUP3 MSTORE PUSH1 0x20 SWAP1 SWAP2 KECCAK256 ADD PUSH2 0x10BA DUP5 DUP3 PUSH2 0x2708 JUMP JUMPDEST POP PUSH1 0x4 SLOAD PUSH1 0x6 SLOAD PUSH2 0x10CB SWAP2 SWAP1 PUSH2 0x291E JUMP JUMPDEST PUSH1 0x0 DUP7 DUP2 MSTORE PUSH1 0xD PUSH1 0x20 MSTORE PUSH1 0x40 SWAP1 KECCAK256 PUSH1 0xC ADD SLOAD SUB PUSH2 0x67B JUMPI PUSH2 0x67B DUP6 PUSH2 0x682 JUMP JUMPDEST PUSH1 0x13 SLOAD PUSH1 0x4 SLOAD PUSH1 0x12 SLOAD PUSH1 0x0 SWAP3 SWAP2 PUSH2 0x1101 SWAP2 PUSH2 0x2937 JUMP JUMPDEST GT PUSH2 0x114E JUMPI PUSH1 0x40 MLOAD PUSH3 0x461BCD PUSH1 0xE5 SHL DUP2 MSTORE PUSH1 0x20 PUSH1 0x4 DUP3 ADD MSTORE PUSH1 0x1C PUSH1 0x24 DUP3 ADD MSTORE PUSH32 0x4E6F20726576696577206F70656E696E677320617661696C61626C6500000000 PUSH1 0x44 DUP3 ADD MSTORE PUSH1 0x64 ADD PUSH2 0x97D JUMP JUMPDEST PUSH1 0x1 PUSH1 0x13 PUSH1 0x0 DUP3 DUP3 SLOAD PUSH2 0x1161 SWAP2 SWAP1 PUSH2 0x291E JUMP JUMPDEST SWAP1 SWAP2 SSTORE POP POP PUSH1 0x4 SLOAD PUSH1 0x13 SLOAD PUSH1 0x12 SWAP2 PUSH2 0x1178 SWAP2 PUSH2 0x2964 JUMP JUMPDEST DUP2 SLOAD DUP2 LT PUSH2 0x1188 JUMPI PUSH2 0x1188 PUSH2 0x27C8 JUMP JUMPDEST SWAP1 PUSH1 0x0 MSTORE PUSH1 0x20 PUSH1 0x0 KECCAK256 ADD SLOAD SWAP1 POP SWAP1 JUMP JUMPDEST CALLER PUSH1 0x0 SWAP1 DUP2 MSTORE PUSH1 0xE PUSH1 0x20 SWAP1 DUP2 MSTORE PUSH1 0x40 SWAP2 DUP3 SWAP1 KECCAK256 DUP1 SLOAD DUP4 MLOAD DUP2 DUP5 MUL DUP2 ADD DUP5 ADD SWAP1 SWAP5 MSTORE DUP1 DUP5 MSTORE PUSH1 0x60 SWAP4 SWAP3 DUP4 ADD DUP3 DUP3 DUP1 ISZERO PUSH2 0x11EF JUMPI PUSH1 0x20 MUL DUP3 ADD SWAP2 SWAP1 PUSH1 0x0 MSTORE PUSH1 0x20 PUSH1 0x0 KECCAK256 SWAP1 JUMPDEST DUP2 SLOAD DUP2 MSTORE PUSH1 0x20 ADD SWAP1 PUSH1 0x1 ADD SWAP1 DUP1 DUP4 GT PUSH2 0x11DB JUMPI JUMPDEST POP POP POP POP POP SWAP1 POP SWAP1 JUMP JUMPDEST PUSH1 0x0 PUSH1 0x3 DUP1 SLOAD PUSH2 0x1208 SWAP1 PUSH2 0x2688 JUMP JUMPDEST DUP1 PUSH1 0x1F ADD PUSH1 0x20 DUP1 SWAP2 DIV MUL PUSH1 0x20 ADD PUSH1 0x40 MLOAD SWAP1 DUP2 ADD PUSH1 0x40 MSTORE DUP1 SWAP3 SWAP2 SWAP1 DUP2 DUP2 MSTORE PUSH1 0x20 ADD DUP3 DUP1 SLOAD PUSH2 0x1234 SWAP1 PUSH2 0x2688 JUMP JUMPDEST DUP1 ISZERO PUSH2 0x1281 JUMPI DUP1 PUSH1 0x1F LT PUSH2 0x1256 JUMPI PUSH2 0x100 DUP1 DUP4 SLOAD DIV MUL DUP4 MSTORE SWAP2 PUSH1 0x20 ADD SWAP2 PUSH2 0x1281 JUMP JUMPDEST DUP3 ADD SWAP2 SWAP1 PUSH1 0x0 MSTORE PUSH1 0x20 PUSH1 0x0 KECCAK256 SWAP1 JUMPDEST DUP2 SLOAD DUP2 MSTORE SWAP1 PUSH1 0x1 ADD SWAP1 PUSH1 0x20 ADD DUP1 DUP4 GT PUSH2 0x1264 JUMPI DUP3 SWAP1 SUB PUSH1 0x1F AND DUP3 ADD SWAP2 JUMPDEST POP POP POP POP POP SWAP1 POP DUP4 ISZERO PUSH2 0x131C JUMPI PUSH1 0x5 DUP1 SLOAD PUSH2 0x129B SWAP1 PUSH2 0x2688 JUMP JUMPDEST DUP1 PUSH1 0x1F ADD PUSH1 0x20 DUP1 SWAP2 DIV MUL PUSH1 0x20 ADD PUSH1 0x40 MLOAD SWAP1 DUP2 ADD PUSH1 0x40 MSTORE DUP1 SWAP3 SWAP2 SWAP1 DUP2 DUP2 MSTORE PUSH1 0x20 ADD DUP3 DUP1 SLOAD PUSH2 0x12C7 SWAP1 PUSH2 0x2688 JUMP JUMPDEST DUP1 ISZERO PUSH2 0x1314 JUMPI DUP1 PUSH1 0x1F LT PUSH2 0x12E9 JUMPI PUSH2 0x100 DUP1 DUP4 SLOAD DIV MUL DUP4 MSTORE SWAP2 PUSH1 0x20 ADD SWAP2 PUSH2 0x1314 JUMP JUMPDEST DUP3 ADD SWAP2 SWAP1 PUSH1 0x0 MSTORE PUSH1 0x20 PUSH1 0x0 KECCAK256 SWAP1 JUMPDEST DUP2 SLOAD DUP2 MSTORE SWAP1 PUSH1 0x1 ADD SWAP1 PUSH1 0x20 ADD DUP1 DUP4 GT PUSH2 0x12F7 JUMPI DUP3 SWAP1 SUB PUSH1 0x1F AND DUP3 ADD SWAP2 JUMPDEST POP POP POP POP POP SWAP1 POP JUMPDEST PUSH1 0x40 MLOAD PUSH6 0x52616E646F6D PUSH1 0xD0 SHL PUSH1 0x20 DUP3 ADD MSTORE PUSH1 0x26 ADD PUSH1 0x40 MLOAD PUSH1 0x20 DUP2 DUP4 SUB SUB DUP2 MSTORE SWAP1 PUSH1 0x40 MSTORE DUP1 MLOAD SWAP1 PUSH1 0x20 ADD KECCAK256 DUP2 PUSH1 0x40 MLOAD PUSH1 0x20 ADD PUSH2 0x1358 SWAP2 SWAP1 PUSH2 0x2978 JUMP JUMPDEST PUSH1 0x40 MLOAD PUSH1 0x20 DUP2 DUP4 SUB SUB DUP2 MSTORE SWAP1 PUSH1 0x40 MSTORE DUP1 MLOAD SWAP1 PUSH1 0x20 ADD KECCAK256 SUB PUSH2 0x1383 JUMPI PUSH2 0x137E DUP6 DUP5 DUP5 PUSH2 0x1A32 JUMP JUMPDEST PUSH2 0x67B JUMP JUMPDEST PUSH1 0x40 MLOAD PUSH6 0x526174696E67 PUSH1 0xD0 SHL PUSH1 0x20 DUP3 ADD MSTORE PUSH1 0x26 ADD PUSH1 0x40 MLOAD PUSH1 0x20 DUP2 DUP4 SUB SUB DUP2 MSTORE SWAP1 PUSH1 0x40 MSTORE DUP1 MLOAD SWAP1 PUSH1 0x20 ADD KECCAK256 DUP2 PUSH1 0x40 MLOAD PUSH1 0x20 ADD PUSH2 0x13BF SWAP2 SWAP1 PUSH2 0x2978 JUMP JUMPDEST PUSH1 0x40 MLOAD PUSH1 0x20 DUP2 DUP4 SUB SUB DUP2 MSTORE SWAP1 PUSH1 0x40 MSTORE DUP1 MLOAD SWAP1 PUSH1 0x20 ADD KECCAK256 SUB PUSH2 0x13EB JUMPI PUSH2 0x13E5 DUP6 DUP5 DUP5 PUSH2 0x1B71 JUMP JUMPDEST POP PUSH2 0x67B JUMP JUMPDEST PUSH1 0x40 MLOAD PUSH6 0x22B234BA37B9 PUSH1 0xD1 SHL PUSH1 0x20 DUP3 ADD MSTORE PUSH1 0x26 ADD PUSH1 0x40 MLOAD PUSH1 0x20 DUP2 DUP4 SUB SUB DUP2 MSTORE SWAP1 PUSH1 0x40 MSTORE DUP1 MLOAD SWAP1 PUSH1 0x20 ADD KECCAK256 DUP2 PUSH1 0x40 MLOAD PUSH1 0x20 ADD PUSH2 0x1427 SWAP2 SWAP1 PUSH2 0x2978 JUMP JUMPDEST PUSH1 0x40 MLOAD PUSH1 0x20 DUP2 DUP4 SUB SUB DUP2 MSTORE SWAP1 PUSH1 0x40 MSTORE DUP1 MLOAD SWAP1 PUSH1 0x20 ADD KECCAK256 SUB PUSH2 0x144C JUMPI PUSH2 0x137E DUP6 DUP4 PUSH2 0x2034 JUMP JUMPDEST PUSH1 0x40 MLOAD PUSH11 0x2232B9B4B3B730BA34B7B7 PUSH1 0xA9 SHL PUSH1 0x20 DUP3 ADD MSTORE PUSH1 0x2B ADD PUSH1 0x40 MLOAD PUSH1 0x20 DUP2 DUP4 SUB SUB DUP2 MSTORE SWAP1 PUSH1 0x40 MSTORE DUP1 MLOAD SWAP1 PUSH1 0x20 ADD KECCAK256 DUP2 PUSH1 0x40 MLOAD PUSH1 0x20 ADD PUSH2 0x148D SWAP2 SWAP1 PUSH2 0x2978 JUMP JUMPDEST PUSH1 0x40 MLOAD PUSH1 0x20 DUP2 DUP4 SUB SUB DUP2 MSTORE SWAP1 PUSH1 0x40 MSTORE DUP1 MLOAD SWAP1 PUSH1 0x20 ADD KECCAK256 SUB PUSH2 0x156A JUMPI PUSH2 0x14E1 DUP3 PUSH1 0x11 DUP1 SLOAD PUSH1 0x1 DUP2 ADD DUP3 SSTORE PUSH1 0x0 SWAP2 SWAP1 SWAP2 MSTORE PUSH32 0x31ECC21A745E3968A04E9570E4425BC18FA8019C68028196B546D1669C200C68 ADD SSTORE JUMP JUMPDEST PUSH32 0x22F448A9D055998F7EFC999AA4081DD835921A7B44F977951F7D001E2E48155B PUSH1 0x40 MLOAD PUSH2 0x155D SWAP1 PUSH1 0x20 DUP1 DUP3 MSTORE PUSH1 0x34 SWAP1 DUP3 ADD MSTORE PUSH32 0x41206E65772070726F63657373206E65656473206120656469746F7220746F20 PUSH1 0x40 DUP3 ADD MSTORE PUSH20 0x61737369676E2074686520726576696577657273 PUSH1 0x60 SHL PUSH1 0x60 DUP3 ADD MSTORE PUSH1 0x80 ADD SWAP1 JUMP JUMPDEST PUSH1 0x40 MLOAD DUP1 SWAP2 SUB SWAP1 LOG1 PUSH2 0x67B JUMP JUMPDEST PUSH1 0x40 MLOAD PUSH11 0x2837B9BA3AB630BA34B7B7 PUSH1 0xA9 SHL PUSH1 0x20 DUP3 ADD MSTORE PUSH1 0x2B ADD PUSH1 0x40 MLOAD PUSH1 0x20 DUP2 DUP4 SUB SUB DUP2 MSTORE SWAP1 PUSH1 0x40 MSTORE DUP1 MLOAD SWAP1 PUSH1 0x20 ADD KECCAK256 DUP2 PUSH1 0x40 MLOAD PUSH1 0x20 ADD PUSH2 0x15AB SWAP2 SWAP1 PUSH2 0x2978 JUMP JUMPDEST PUSH1 0x40 MLOAD PUSH1 0x20 DUP2 DUP4 SUB SUB DUP2 MSTORE SWAP1 PUSH1 0x40 MSTORE DUP1 MLOAD SWAP1 PUSH1 0x20 ADD KECCAK256 SUB PUSH2 0x67B JUMPI DUP4 PUSH2 0x1689 JUMPI PUSH2 0x1604 DUP3 PUSH1 0x12 DUP1 SLOAD PUSH1 0x1 DUP2 ADD DUP3 SSTORE PUSH1 0x0 SWAP2 SWAP1 SWAP2 MSTORE PUSH32 0xBB8A6A4669BA250D26CD7A459ECA9D215F8307E33AEBE50379BC5A3617EC3444 ADD SSTORE JUMP JUMPDEST PUSH32 0x22F448A9D055998F7EFC999AA4081DD835921A7B44F977951F7D001E2E48155B PUSH1 0x40 MLOAD PUSH2 0x155D SWAP1 PUSH1 0x20 DUP1 DUP3 MSTORE PUSH1 0x3F SWAP1 DUP3 ADD MSTORE PUSH32 0x41206E65772070726F6365737320697320617661696C61626C6520746F20706F PUSH1 0x40 DUP3 ADD MSTORE PUSH32 0x7374756C61746520696E2061204669727374205265766965772047726F757000 PUSH1 0x60 DUP3 ADD MSTORE PUSH1 0x80 ADD SWAP1 JUMP JUMPDEST PUSH2 0x16C2 DUP3 PUSH1 0x12 DUP1 SLOAD PUSH1 0x1 DUP2 ADD DUP3 SSTORE PUSH1 0x0 SWAP2 SWAP1 SWAP2 MSTORE PUSH32 0xBB8A6A4669BA250D26CD7A459ECA9D215F8307E33AEBE50379BC5A3617EC3444 ADD SSTORE JUMP JUMPDEST PUSH32 0x22F448A9D055998F7EFC999AA4081DD835921A7B44F977951F7D001E2E48155B PUSH1 0x40 MLOAD PUSH2 0x1748 SWAP1 PUSH1 0x20 DUP1 DUP3 MSTORE PUSH1 0x40 SWAP1 DUP3 ADD DUP2 SWAP1 MSTORE PUSH32 0x41206E65772070726F6365737320697320617661696C61626C6520746F20706F SWAP1 DUP3 ADD MSTORE PUSH32 0x7374756C61746520696E2061205365636F6E64205265766965772047726F7570 PUSH1 0x60 DUP3 ADD MSTORE PUSH1 0x80 ADD SWAP1 JUMP JUMPDEST PUSH1 0x40 MLOAD DUP1 SWAP2 SUB SWAP1 LOG1 POP POP POP POP POP JUMP JUMPDEST PUSH1 0x0 DUP2 DUP2 MSTORE PUSH1 0xD PUSH1 0x20 MSTORE PUSH1 0x40 DUP1 DUP3 KECCAK256 DUP2 MLOAD PUSH1 0x2 DUP1 DUP3 MSTORE PUSH1 0x60 DUP3 ADD SWAP1 SWAP4 MSTORE SWAP1 SWAP3 SWAP2 DUP2 PUSH1 0x20 ADD PUSH1 0x20 DUP3 MUL DUP1 CALLDATASIZE DUP4 CALLDATACOPY ADD SWAP1 POP POP SWAP1 POP PUSH1 0x0 JUMPDEST PUSH1 0x9 DUP4 ADD SLOAD DUP2 LT ISZERO PUSH2 0x1819 JUMPI DUP2 DUP4 PUSH1 0x9 ADD DUP3 DUP2 SLOAD DUP2 LT PUSH2 0x17AE JUMPI PUSH2 0x17AE PUSH2 0x27C8 JUMP JUMPDEST SWAP1 PUSH1 0x0 MSTORE PUSH1 0x20 PUSH1 0x0 KECCAK256 SWAP1 PUSH1 0x20 SWAP2 DUP3 DUP3 DIV ADD SWAP2 SWAP1 MOD SWAP1 SLOAD SWAP1 PUSH2 0x100 EXP SWAP1 DIV PUSH1 0xFF AND PUSH1 0x3 DUP2 GT ISZERO PUSH2 0x17DF JUMPI PUSH2 0x17DF PUSH2 0x2624 JUMP JUMPDEST DUP2 MLOAD DUP2 LT PUSH2 0x17EF JUMPI PUSH2 0x17EF PUSH2 0x27C8 JUMP JUMPDEST PUSH1 0x20 MUL PUSH1 0x20 ADD ADD DUP1 MLOAD DUP1 SWAP2 SWAP1 PUSH2 0x1804 SWAP1 PUSH2 0x27F4 JUMP JUMPDEST SWAP1 MSTORE POP DUP1 PUSH2 0x1811 DUP2 PUSH2 0x27F4 JUMP JUMPDEST SWAP2 POP POP PUSH2 0x178C JUMP JUMPDEST POP PUSH1 0x0 DUP1 PUSH1 0x0 JUMPDEST DUP4 MLOAD DUP2 LT ISZERO PUSH2 0x187C JUMPI DUP3 DUP5 DUP3 DUP2 MLOAD DUP2 LT PUSH2 0x183C JUMPI PUSH2 0x183C PUSH2 0x27C8 JUMP JUMPDEST PUSH1 0x20 MUL PUSH1 0x20 ADD ADD MLOAD GT ISZERO PUSH2 0x186A JUMPI DUP4 DUP2 DUP2 MLOAD DUP2 LT PUSH2 0x185C JUMPI PUSH2 0x185C PUSH2 0x27C8 JUMP JUMPDEST PUSH1 0x20 MUL PUSH1 0x20 ADD ADD MLOAD SWAP3 POP DUP1 SWAP2 POP JUMPDEST DUP1 PUSH2 0x1874 DUP2 PUSH2 0x27F4 JUMP JUMPDEST SWAP2 POP POP PUSH2 0x1820 JUMP JUMPDEST POP DUP1 PUSH1 0x3 DUP2 GT ISZERO PUSH2 0x188F JUMPI PUSH2 0x188F PUSH2 0x2624 JUMP JUMPDEST PUSH1 0xB DUP6 ADD DUP1 SLOAD PUSH1 0xFF NOT AND PUSH1 0x1 DUP4 PUSH1 0x3 DUP2 GT ISZERO PUSH2 0x18AD JUMPI PUSH2 0x18AD PUSH2 0x2624 JUMP JUMPDEST MUL OR SWAP1 SSTORE POP POP POP POP POP POP JUMP JUMPDEST PUSH1 0x0 DUP5 DUP2 MSTORE PUSH1 0xD PUSH1 0x20 MSTORE PUSH1 0x40 DUP2 KECCAK256 SWAP1 DUP5 PUSH2 0x18D6 JUMPI DUP2 PUSH1 0x8 ADD PUSH2 0x18DB JUMP JUMPDEST DUP2 PUSH1 0x5 ADD JUMPDEST SWAP1 POP PUSH2 0x190D DUP2 DUP3 DUP7 DUP2 SLOAD DUP2 LT PUSH2 0x18F3 JUMPI PUSH2 0x18F3 PUSH2 0x27C8 JUMP JUMPDEST PUSH1 0x0 SWAP2 DUP3 MSTORE PUSH1 0x20 SWAP1 SWAP2 KECCAK256 ADD SLOAD PUSH1 0x1 PUSH1 0x1 PUSH1 0xA0 SHL SUB AND PUSH2 0x1924 JUMP JUMPDEST DUP5 ISZERO PUSH2 0x191B DUP3 DUP3 DUP7 DUP11 PUSH2 0x11F9 JUMP JUMPDEST POP POP POP POP POP POP POP JUMP JUMPDEST PUSH1 0x0 JUMPDEST DUP3 SLOAD DUP2 LT ISZERO PUSH2 0x1A2D JUMPI DUP2 PUSH1 0x1 PUSH1 0x1 PUSH1 0xA0 SHL SUB AND DUP4 DUP3 DUP2 SLOAD DUP2 LT PUSH2 0x194C JUMPI PUSH2 0x194C PUSH2 0x27C8 JUMP JUMPDEST PUSH1 0x0 SWAP2 DUP3 MSTORE PUSH1 0x20 SWAP1 SWAP2 KECCAK256 ADD SLOAD PUSH1 0x1 PUSH1 0x1 PUSH1 0xA0 SHL SUB AND SUB PUSH2 0x1A1B JUMPI DUP3 SLOAD DUP4 SWAP1 PUSH2 0x1976 SWAP1 PUSH1 0x1 SWAP1 PUSH2 0x2994 JUMP JUMPDEST DUP2 SLOAD DUP2 LT PUSH2 0x1986 JUMPI PUSH2 0x1986 PUSH2 0x27C8 JUMP JUMPDEST SWAP1 PUSH1 0x0 MSTORE PUSH1 0x20 PUSH1 0x0 KECCAK256 ADD PUSH1 0x0 SWAP1 SLOAD SWAP1 PUSH2 0x100 EXP SWAP1 DIV PUSH1 0x1 PUSH1 0x1 PUSH1 0xA0 SHL SUB AND DUP4 DUP3 DUP2 SLOAD DUP2 LT PUSH2 0x19B6 JUMPI PUSH2 0x19B6 PUSH2 0x27C8 JUMP JUMPDEST SWAP1 PUSH1 0x0 MSTORE PUSH1 0x20 PUSH1 0x0 KECCAK256 ADD PUSH1 0x0 PUSH2 0x100 EXP DUP2 SLOAD DUP2 PUSH1 0x1 PUSH1 0x1 PUSH1 0xA0 SHL SUB MUL NOT AND SWAP1 DUP4 PUSH1 0x1 PUSH1 0x1 PUSH1 0xA0 SHL SUB AND MUL OR SWAP1 SSTORE POP DUP3 DUP1 SLOAD DUP1 PUSH2 0x19F4 JUMPI PUSH2 0x19F4 PUSH2 0x29A7 JUMP JUMPDEST PUSH1 0x0 DUP3 DUP2 MSTORE PUSH1 0x20 SWAP1 KECCAK256 DUP2 ADD PUSH1 0x0 NOT SWAP1 DUP2 ADD DUP1 SLOAD PUSH1 0x1 PUSH1 0x1 PUSH1 0xA0 SHL SUB NOT AND SWAP1 SSTORE ADD SWAP1 SSTORE POP POP POP JUMP JUMPDEST DUP1 PUSH2 0x1A25 DUP2 PUSH2 0x27F4 JUMP JUMPDEST SWAP2 POP POP PUSH2 0x1927 JUMP JUMPDEST POP POP POP JUMP JUMPDEST PUSH1 0xA SLOAD DUP3 LT PUSH2 0x1A7A JUMPI PUSH1 0x40 MLOAD PUSH3 0x461BCD PUSH1 0xE5 SHL DUP2 MSTORE PUSH1 0x20 PUSH1 0x4 DUP3 ADD MSTORE PUSH1 0x14 PUSH1 0x24 DUP3 ADD MSTORE PUSH20 0x4E6F7420656E6F75676820726576696577657273 PUSH1 0x60 SHL PUSH1 0x44 DUP3 ADD MSTORE PUSH1 0x64 ADD PUSH2 0x97D JUMP JUMPDEST PUSH1 0x0 JUMPDEST DUP3 DUP2 LT ISZERO PUSH2 0x1B6B JUMPI PUSH1 0xA SLOAD PUSH1 0x40 DUP1 MLOAD TIMESTAMP PUSH1 0x20 DUP3 ADD MSTORE PUSH1 0x0 SWAP3 SWAP2 ADD PUSH1 0x40 MLOAD PUSH1 0x20 DUP2 DUP4 SUB SUB DUP2 MSTORE SWAP1 PUSH1 0x40 MSTORE DUP1 MLOAD SWAP1 PUSH1 0x20 ADD KECCAK256 PUSH1 0x0 SHR PUSH2 0x1ABA SWAP2 SWAP1 PUSH2 0x29BD JUMP JUMPDEST SWAP1 POP DUP5 PUSH1 0xA DUP3 DUP2 SLOAD DUP2 LT PUSH2 0x1AD0 JUMPI PUSH2 0x1AD0 PUSH2 0x27C8 JUMP JUMPDEST PUSH1 0x0 SWAP2 DUP3 MSTORE PUSH1 0x20 DUP1 DUP4 KECCAK256 SWAP1 SWAP2 ADD SLOAD DUP4 SLOAD PUSH1 0x1 DUP2 ADD DUP6 SSTORE SWAP4 DUP4 MSTORE SWAP2 KECCAK256 SWAP1 SWAP2 ADD DUP1 SLOAD PUSH1 0x1 PUSH1 0x1 PUSH1 0xA0 SHL SUB NOT AND PUSH1 0x1 PUSH1 0x1 PUSH1 0xA0 SHL SUB SWAP1 SWAP3 AND SWAP2 SWAP1 SWAP2 OR SWAP1 SSTORE PUSH1 0xA DUP1 SLOAD PUSH2 0x1B58 SWAP2 SWAP1 DUP4 SWAP1 DUP2 LT PUSH2 0x1B24 JUMPI PUSH2 0x1B24 PUSH2 0x27C8 JUMP JUMPDEST PUSH1 0x0 SWAP2 DUP3 MSTORE PUSH1 0x20 DUP1 DUP4 KECCAK256 SWAP1 SWAP2 ADD SLOAD PUSH1 0x1 PUSH1 0x1 PUSH1 0xA0 SHL SUB AND DUP3 MSTORE PUSH1 0xE DUP2 MSTORE PUSH1 0x40 DUP3 KECCAK256 DUP1 SLOAD PUSH1 0x1 DUP2 ADD DUP3 SSTORE SWAP1 DUP4 MSTORE SWAP2 KECCAK256 ADD DUP5 SWAP1 SSTORE JUMP JUMPDEST POP DUP1 PUSH2 0x1B63 DUP2 PUSH2 0x27F4 JUMP JUMPDEST SWAP2 POP POP PUSH2 0x1A7D JUMP JUMPDEST POP POP POP POP JUMP JUMPDEST PUSH1 0xA SLOAD PUSH1 0x60 SWAP1 PUSH1 0x0 DUP2 PUSH8 0xFFFFFFFFFFFFFFFF DUP2 GT ISZERO PUSH2 0x1B92 JUMPI PUSH2 0x1B92 PUSH2 0x22F5 JUMP JUMPDEST PUSH1 0x40 MLOAD SWAP1 DUP1 DUP3 MSTORE DUP1 PUSH1 0x20 MUL PUSH1 0x20 ADD DUP3 ADD PUSH1 0x40 MSTORE DUP1 ISZERO PUSH2 0x1BBB JUMPI DUP2 PUSH1 0x20 ADD PUSH1 0x20 DUP3 MUL DUP1 CALLDATASIZE DUP4 CALLDATACOPY ADD SWAP1 POP JUMPDEST POP SWAP1 POP PUSH1 0x0 JUMPDEST DUP3 DUP2 LT ISZERO PUSH2 0x1C36 JUMPI PUSH1 0xA DUP2 DUP2 SLOAD DUP2 LT PUSH2 0x1BDC JUMPI PUSH2 0x1BDC PUSH2 0x27C8 JUMP JUMPDEST SWAP1 PUSH1 0x0 MSTORE PUSH1 0x20 PUSH1 0x0 KECCAK256 ADD PUSH1 0x0 SWAP1 SLOAD SWAP1 PUSH2 0x100 EXP SWAP1 DIV PUSH1 0x1 PUSH1 0x1 PUSH1 0xA0 SHL SUB AND DUP3 DUP3 DUP2 MLOAD DUP2 LT PUSH2 0x1C0C JUMPI PUSH2 0x1C0C PUSH2 0x27C8 JUMP JUMPDEST PUSH1 0x1 PUSH1 0x1 PUSH1 0xA0 SHL SUB SWAP1 SWAP3 AND PUSH1 0x20 SWAP3 DUP4 MUL SWAP2 SWAP1 SWAP2 ADD SWAP1 SWAP2 ADD MSTORE DUP1 PUSH2 0x1C2E DUP2 PUSH2 0x27F4 JUMP JUMPDEST SWAP2 POP POP PUSH2 0x1BC1 JUMP JUMPDEST POP PUSH1 0x0 JUMPDEST DUP3 DUP2 LT DUP1 ISZERO PUSH2 0x1C48 JUMPI POP DUP6 DUP2 LT JUMPDEST ISZERO PUSH2 0x1F5E JUMPI PUSH1 0x0 PUSH1 0x14 PUSH1 0x0 PUSH1 0xA PUSH1 0x0 DUP2 SLOAD DUP2 LT PUSH2 0x1C67 JUMPI PUSH2 0x1C67 PUSH2 0x27C8 JUMP JUMPDEST PUSH1 0x0 SWAP2 DUP3 MSTORE PUSH1 0x20 DUP1 DUP4 KECCAK256 SWAP1 SWAP2 ADD SLOAD PUSH1 0x1 PUSH1 0x1 PUSH1 0xA0 SHL SUB AND DUP4 MSTORE DUP3 ADD SWAP3 SWAP1 SWAP3 MSTORE PUSH1 0x40 ADD DUP2 KECCAK256 SLOAD PUSH1 0xA DUP1 SLOAD SWAP2 SWAP4 POP SWAP1 DUP3 SWAP1 PUSH2 0x1CA2 JUMPI PUSH2 0x1CA2 PUSH2 0x27C8 JUMP JUMPDEST PUSH1 0x0 SWAP2 DUP3 MSTORE PUSH1 0x20 SWAP1 SWAP2 KECCAK256 ADD SLOAD PUSH1 0x1 PUSH1 0x1 PUSH1 0xA0 SHL SUB AND SWAP1 POP PUSH1 0x1 JUMPDEST PUSH1 0xA SLOAD DUP2 LT ISZERO PUSH2 0x1DCE JUMPI DUP3 PUSH1 0x14 PUSH1 0x0 PUSH1 0xA DUP5 DUP2 SLOAD DUP2 LT PUSH2 0x1CDE JUMPI PUSH2 0x1CDE PUSH2 0x27C8 JUMP JUMPDEST PUSH1 0x0 SWAP2 DUP3 MSTORE PUSH1 0x20 DUP1 DUP4 KECCAK256 SWAP1 SWAP2 ADD SLOAD PUSH1 0x1 PUSH1 0x1 PUSH1 0xA0 SHL SUB AND DUP4 MSTORE DUP3 ADD SWAP3 SWAP1 SWAP3 MSTORE PUSH1 0x40 ADD SWAP1 KECCAK256 SLOAD GT DUP1 ISZERO PUSH2 0x1D4B JUMPI POP PUSH1 0x15 PUSH1 0x0 PUSH1 0xA DUP4 DUP2 SLOAD DUP2 LT PUSH2 0x1D22 JUMPI PUSH2 0x1D22 PUSH2 0x27C8 JUMP JUMPDEST PUSH1 0x0 SWAP2 DUP3 MSTORE PUSH1 0x20 DUP1 DUP4 KECCAK256 SWAP1 SWAP2 ADD SLOAD PUSH1 0x1 PUSH1 0x1 PUSH1 0xA0 SHL SUB AND DUP4 MSTORE DUP3 ADD SWAP3 SWAP1 SWAP3 MSTORE PUSH1 0x40 ADD SWAP1 KECCAK256 SLOAD PUSH1 0xFF AND JUMPDEST ISZERO PUSH2 0x1DBC JUMPI PUSH1 0x14 PUSH1 0x0 PUSH1 0xA DUP4 DUP2 SLOAD DUP2 LT PUSH2 0x1D67 JUMPI PUSH2 0x1D67 PUSH2 0x27C8 JUMP JUMPDEST PUSH1 0x0 SWAP2 DUP3 MSTORE PUSH1 0x20 DUP1 DUP4 KECCAK256 SWAP1 SWAP2 ADD SLOAD PUSH1 0x1 PUSH1 0x1 PUSH1 0xA0 SHL SUB AND DUP4 MSTORE DUP3 ADD SWAP3 SWAP1 SWAP3 MSTORE PUSH1 0x40 ADD SWAP1 KECCAK256 SLOAD PUSH1 0xA DUP1 SLOAD SWAP2 SWAP5 POP SWAP1 DUP3 SWAP1 DUP2 LT PUSH2 0x1DA4 JUMPI PUSH2 0x1DA4 PUSH2 0x27C8 JUMP JUMPDEST PUSH1 0x0 SWAP2 DUP3 MSTORE PUSH1 0x20 SWAP1 SWAP2 KECCAK256 ADD SLOAD PUSH1 0x1 PUSH1 0x1 PUSH1 0xA0 SHL SUB AND SWAP2 POP JUMPDEST DUP1 PUSH2 0x1DC6 DUP2 PUSH2 0x27F4 JUMP JUMPDEST SWAP2 POP POP PUSH2 0x1CBC JUMP JUMPDEST POP DUP1 DUP10 DUP5 DUP2 SLOAD DUP2 LT PUSH2 0x1DE2 JUMPI PUSH2 0x1DE2 PUSH2 0x27C8 JUMP JUMPDEST PUSH1 0x0 SWAP2 DUP3 MSTORE PUSH1 0x20 DUP1 DUP4 KECCAK256 SWAP2 SWAP1 SWAP2 ADD DUP1 SLOAD PUSH1 0x1 PUSH1 0x1 PUSH1 0xA0 SHL SUB NOT AND PUSH1 0x1 PUSH1 0x1 PUSH1 0xA0 SHL SUB SWAP5 DUP6 AND OR SWAP1 SSTORE SWAP2 DUP4 AND DUP2 MSTORE PUSH1 0xE DUP3 MSTORE PUSH1 0x40 DUP2 KECCAK256 DUP1 SLOAD PUSH1 0x1 DUP2 ADD DUP3 SSTORE SWAP1 DUP3 MSTORE SWAP2 SWAP1 KECCAK256 ADD DUP8 SWAP1 SSTORE PUSH1 0x0 JUMPDEST PUSH1 0xA SLOAD DUP2 LT ISZERO PUSH2 0x1F48 JUMPI DUP2 PUSH1 0x1 PUSH1 0x1 PUSH1 0xA0 SHL SUB AND PUSH1 0xA DUP3 DUP2 SLOAD DUP2 LT PUSH2 0x1E53 JUMPI PUSH2 0x1E53 PUSH2 0x27C8 JUMP JUMPDEST PUSH1 0x0 SWAP2 DUP3 MSTORE PUSH1 0x20 SWAP1 SWAP2 KECCAK256 ADD SLOAD PUSH1 0x1 PUSH1 0x1 PUSH1 0xA0 SHL SUB AND SUB PUSH2 0x1F36 JUMPI PUSH1 0xA SLOAD PUSH2 0x1E7C SWAP1 PUSH1 0x1 SWAP1 PUSH2 0x2994 JUMP JUMPDEST DUP2 LT ISZERO PUSH2 0x1EFE JUMPI PUSH1 0xA DUP1 SLOAD PUSH2 0x1E93 SWAP1 PUSH1 0x1 SWAP1 PUSH2 0x2994 JUMP JUMPDEST DUP2 SLOAD DUP2 LT PUSH2 0x1EA3 JUMPI PUSH2 0x1EA3 PUSH2 0x27C8 JUMP JUMPDEST PUSH1 0x0 SWAP2 DUP3 MSTORE PUSH1 0x20 SWAP1 SWAP2 KECCAK256 ADD SLOAD PUSH1 0xA DUP1 SLOAD PUSH1 0x1 PUSH1 0x1 PUSH1 0xA0 SHL SUB SWAP1 SWAP3 AND SWAP2 DUP4 SWAP1 DUP2 LT PUSH2 0x1ECF JUMPI PUSH2 0x1ECF PUSH2 0x27C8 JUMP JUMPDEST SWAP1 PUSH1 0x0 MSTORE PUSH1 0x20 PUSH1 0x0 KECCAK256 ADD PUSH1 0x0 PUSH2 0x100 EXP DUP2 SLOAD DUP2 PUSH1 0x1 PUSH1 0x1 PUSH1 0xA0 SHL SUB MUL NOT AND SWAP1 DUP4 PUSH1 0x1 PUSH1 0x1 PUSH1 0xA0 SHL SUB AND MUL OR SWAP1 SSTORE POP JUMPDEST PUSH1 0xA DUP1 SLOAD DUP1 PUSH2 0x1F0F JUMPI PUSH2 0x1F0F PUSH2 0x29A7 JUMP JUMPDEST PUSH1 0x0 DUP3 DUP2 MSTORE PUSH1 0x20 SWAP1 KECCAK256 DUP2 ADD PUSH1 0x0 NOT SWAP1 DUP2 ADD DUP1 SLOAD PUSH1 0x1 PUSH1 0x1 PUSH1 0xA0 SHL SUB NOT AND SWAP1 SSTORE ADD SWAP1 SSTORE PUSH2 0x1F48 JUMP JUMPDEST DUP1 PUSH2 0x1F40 DUP2 PUSH2 0x27F4 JUMP JUMPDEST SWAP2 POP POP PUSH2 0x1E2C JUMP JUMPDEST POP POP POP DUP1 DUP1 PUSH2 0x1F56 SWAP1 PUSH2 0x27F4 JUMP JUMPDEST SWAP2 POP POP PUSH2 0x1C3A JUMP JUMPDEST POP PUSH1 0x0 JUMPDEST DUP3 DUP2 LT ISZERO PUSH2 0x1FD2 JUMPI DUP2 DUP2 DUP2 MLOAD DUP2 LT PUSH2 0x1F7C JUMPI PUSH2 0x1F7C PUSH2 0x27C8 JUMP JUMPDEST PUSH1 0x20 MUL PUSH1 0x20 ADD ADD MLOAD PUSH1 0xA DUP3 DUP2 SLOAD DUP2 LT PUSH2 0x1F97 JUMPI PUSH2 0x1F97 PUSH2 0x27C8 JUMP JUMPDEST PUSH1 0x0 SWAP2 DUP3 MSTORE PUSH1 0x20 SWAP1 SWAP2 KECCAK256 ADD DUP1 SLOAD PUSH1 0x1 PUSH1 0x1 PUSH1 0xA0 SHL SUB NOT AND PUSH1 0x1 PUSH1 0x1 PUSH1 0xA0 SHL SUB SWAP3 SWAP1 SWAP3 AND SWAP2 SWAP1 SWAP2 OR SWAP1 SSTORE DUP1 PUSH2 0x1FCA DUP2 PUSH2 0x27F4 JUMP JUMPDEST SWAP2 POP POP PUSH2 0x1F62 JUMP JUMPDEST POP DUP6 SLOAD PUSH1 0x40 DUP1 MLOAD PUSH1 0x20 DUP1 DUP5 MUL DUP3 ADD DUP2 ADD SWAP1 SWAP3 MSTORE DUP3 DUP2 MSTORE SWAP2 DUP9 SWAP2 DUP4 ADD DUP3 DUP3 DUP1 ISZERO PUSH2 0x2024 JUMPI PUSH1 0x20 MUL DUP3 ADD SWAP2 SWAP1 PUSH1 0x0 MSTORE PUSH1 0x20 PUSH1 0x0 KECCAK256 SWAP1 JUMPDEST DUP2 SLOAD PUSH1 0x1 PUSH1 0x1 PUSH1 0xA0 SHL SUB AND DUP2 MSTORE PUSH1 0x1 SWAP1 SWAP2 ADD SWAP1 PUSH1 0x20 ADD DUP1 DUP4 GT PUSH2 0x2006 JUMPI JUMPDEST POP POP POP POP POP SWAP3 POP POP POP SWAP4 SWAP3 POP POP POP JUMP JUMPDEST PUSH1 0xF SLOAD PUSH1 0x40 DUP1 MLOAD TIMESTAMP PUSH1 0x20 DUP3 ADD MSTORE PUSH1 0x0 SWAP3 SWAP2 ADD PUSH1 0x40 MLOAD PUSH1 0x20 DUP2 DUP4 SUB SUB DUP2 MSTORE SWAP1 PUSH1 0x40 MSTORE DUP1 MLOAD SWAP1 PUSH1 0x20 ADD KECCAK256 PUSH1 0x0 SHR PUSH2 0x2069 SWAP2 SWAP1 PUSH2 0x29BD JUMP JUMPDEST SWAP1 POP DUP3 PUSH1 0xF DUP3 DUP2 SLOAD DUP2 LT PUSH2 0x207F JUMPI PUSH2 0x207F PUSH2 0x27C8 JUMP JUMPDEST PUSH1 0x0 SWAP2 DUP3 MSTORE PUSH1 0x20 DUP1 DUP4 KECCAK256 SWAP1 SWAP2 ADD SLOAD DUP4 SLOAD PUSH1 0x1 DUP2 ADD DUP6 SSTORE SWAP4 DUP4 MSTORE SWAP2 KECCAK256 SWAP1 SWAP2 ADD DUP1 SLOAD PUSH1 0x1 PUSH1 0x1 PUSH1 0xA0 SHL SUB NOT AND PUSH1 0x1 PUSH1 0x1 PUSH1 0xA0 SHL SUB SWAP1 SWAP3 AND SWAP2 SWAP1 SWAP2 OR SWAP1 SSTORE PUSH1 0xF DUP1 SLOAD PUSH2 0x1A2D SWAP2 SWAP1 DUP4 SWAP1 DUP2 LT PUSH2 0x20D3 JUMPI PUSH2 0x20D3 PUSH2 0x27C8 JUMP JUMPDEST PUSH1 0x0 SWAP2 DUP3 MSTORE PUSH1 0x20 DUP1 DUP4 KECCAK256 SWAP1 SWAP2 ADD SLOAD PUSH1 0x1 PUSH1 0x1 PUSH1 0xA0 SHL SUB AND DUP3 MSTORE PUSH1 0xE DUP2 MSTORE PUSH1 0x40 DUP3 KECCAK256 DUP1 SLOAD PUSH1 0x1 DUP2 ADD DUP3 SSTORE SWAP1 DUP4 MSTORE SWAP2 KECCAK256 ADD DUP4 SWAP1 SSTORE JUMP JUMPDEST DUP3 DUP1 SLOAD DUP3 DUP3 SSTORE SWAP1 PUSH1 0x0 MSTORE PUSH1 0x20 PUSH1 0x0 KECCAK256 SWAP1 DUP2 ADD SWAP3 DUP3 ISZERO PUSH2 0x215C JUMPI SWAP2 PUSH1 0x20 MUL DUP3 ADD JUMPDEST DUP3 DUP2 GT ISZERO PUSH2 0x215C JUMPI DUP3 MLOAD DUP3 SLOAD PUSH1 0x1 PUSH1 0x1 PUSH1 0xA0 SHL SUB NOT AND PUSH1 0x1 PUSH1 0x1 PUSH1 0xA0 SHL SUB SWAP1 SWAP2 AND OR DUP3 SSTORE PUSH1 0x20 SWAP1 SWAP3 ADD SWAP2 PUSH1 0x1 SWAP1 SWAP2 ADD SWAP1 PUSH2 0x2127 JUMP JUMPDEST POP PUSH2 0x2168 SWAP3 SWAP2 POP PUSH2 0x226D JUMP JUMPDEST POP SWAP1 JUMP JUMPDEST DUP3 DUP1 SLOAD DUP3 DUP3 SSTORE SWAP1 PUSH1 0x0 MSTORE PUSH1 0x20 PUSH1 0x0 KECCAK256 SWAP1 PUSH1 0x1F ADD PUSH1 0x20 SWAP1 DIV DUP2 ADD SWAP3 DUP3 ISZERO PUSH2 0x215C JUMPI SWAP2 PUSH1 0x20 MUL DUP3 ADD PUSH1 0x0 JUMPDEST DUP4 DUP3 GT ISZERO PUSH2 0x21E1 JUMPI DUP4 MLOAD DUP4 DUP3 PUSH2 0x100 EXP DUP2 SLOAD DUP2 PUSH1 0xFF MUL NOT AND SWAP1 DUP4 PUSH1 0x3 DUP2 GT ISZERO PUSH2 0x21C0 JUMPI PUSH2 0x21C0 PUSH2 0x2624 JUMP JUMPDEST MUL OR SWAP1 SSTORE POP SWAP3 PUSH1 0x20 ADD SWAP3 PUSH1 0x1 ADD PUSH1 0x20 DUP2 PUSH1 0x0 ADD DIV SWAP3 DUP4 ADD SWAP3 PUSH1 0x1 SUB MUL PUSH2 0x2195 JUMP JUMPDEST DUP1 ISZERO PUSH2 0x220E JUMPI DUP3 DUP2 PUSH2 0x100 EXP DUP2 SLOAD SWAP1 PUSH1 0xFF MUL NOT AND SWAP1 SSTORE PUSH1 0x1 ADD PUSH1 0x20 DUP2 PUSH1 0x0 ADD DIV SWAP3 DUP4 ADD SWAP3 PUSH1 0x1 SUB MUL PUSH2 0x21E1 JUMP JUMPDEST POP POP PUSH2 0x2168 SWAP3 SWAP2 POP PUSH2 0x226D JUMP JUMPDEST DUP3 DUP1 SLOAD DUP3 DUP3 SSTORE SWAP1 PUSH1 0x0 MSTORE PUSH1 0x20 PUSH1 0x0 KECCAK256 SWAP1 DUP2 ADD SWAP3 DUP3 ISZERO PUSH2 0x2261 JUMPI SWAP2 PUSH1 0x20 MUL DUP3 ADD JUMPDEST DUP3 DUP2 GT ISZERO PUSH2 0x2261 JUMPI DUP3 MLOAD DUP3 SWAP1 PUSH2 0x2251 SWAP1 DUP3 PUSH2 0x2708 JUMP JUMPDEST POP SWAP2 PUSH1 0x20 ADD SWAP2 SWAP1 PUSH1 0x1 ADD SWAP1 PUSH2 0x223B JUMP JUMPDEST POP PUSH2 0x2168 SWAP3 SWAP2 POP PUSH2 0x2282 JUMP JUMPDEST JUMPDEST DUP1 DUP3 GT ISZERO PUSH2 0x2168 JUMPI PUSH1 0x0 DUP2 SSTORE PUSH1 0x1 ADD PUSH2 0x226E JUMP JUMPDEST DUP1 DUP3 GT ISZERO PUSH2 0x2168 JUMPI PUSH1 0x0 PUSH2 0x2296 DUP3 DUP3 PUSH2 0x229F JUMP JUMPDEST POP PUSH1 0x1 ADD PUSH2 0x2282 JUMP JUMPDEST POP DUP1 SLOAD PUSH2 0x22AB SWAP1 PUSH2 0x2688 JUMP JUMPDEST PUSH1 0x0 DUP3 SSTORE DUP1 PUSH1 0x1F LT PUSH2 0x22BB JUMPI POP POP JUMP JUMPDEST PUSH1 0x1F ADD PUSH1 0x20 SWAP1 DIV SWAP1 PUSH1 0x0 MSTORE PUSH1 0x20 PUSH1 0x0 KECCAK256 SWAP1 DUP2 ADD SWAP1 PUSH2 0xBA3 SWAP2 SWAP1 PUSH2 0x226D JUMP JUMPDEST DUP1 CALLDATALOAD PUSH1 0x1 PUSH1 0x1 PUSH1 0xA0 SHL SUB DUP2 AND DUP2 EQ PUSH2 0x22F0 JUMPI PUSH1 0x0 DUP1 REVERT JUMPDEST SWAP2 SWAP1 POP JUMP JUMPDEST PUSH4 0x4E487B71 PUSH1 0xE0 SHL PUSH1 0x0 MSTORE PUSH1 0x41 PUSH1 0x4 MSTORE PUSH1 0x24 PUSH1 0x0 REVERT JUMPDEST PUSH1 0x0 DUP3 PUSH1 0x1F DUP4 ADD SLT PUSH2 0x231C JUMPI PUSH1 0x0 DUP1 REVERT JUMPDEST DUP2 CALLDATALOAD PUSH8 0xFFFFFFFFFFFFFFFF DUP1 DUP3 GT ISZERO PUSH2 0x2337 JUMPI PUSH2 0x2337 PUSH2 0x22F5 JUMP JUMPDEST PUSH1 0x40 MLOAD PUSH1 0x1F DUP4 ADD PUSH1 0x1F NOT SWAP1 DUP2 AND PUSH1 0x3F ADD AND DUP2 ADD SWAP1 DUP3 DUP3 GT DUP2 DUP4 LT OR ISZERO PUSH2 0x235F JUMPI PUSH2 0x235F PUSH2 0x22F5 JUMP JUMPDEST DUP2 PUSH1 0x40 MSTORE DUP4 DUP2 MSTORE DUP7 PUSH1 0x20 DUP6 DUP9 ADD ADD GT ISZERO PUSH2 0x2378 JUMPI PUSH1 0x0 DUP1 REVERT JUMPDEST DUP4 PUSH1 0x20 DUP8 ADD PUSH1 0x20 DUP4 ADD CALLDATACOPY PUSH1 0x0 PUSH1 0x20 DUP6 DUP4 ADD ADD MSTORE DUP1 SWAP5 POP POP POP POP POP SWAP3 SWAP2 POP POP JUMP JUMPDEST PUSH1 0x0 DUP1 PUSH1 0x0 PUSH1 0x60 DUP5 DUP7 SUB SLT ISZERO PUSH2 0x23AD JUMPI PUSH1 0x0 DUP1 REVERT JUMPDEST PUSH2 0x23B6 DUP5 PUSH2 0x22D9 JUMP JUMPDEST SWAP3 POP PUSH1 0x20 DUP5 ADD CALLDATALOAD PUSH8 0xFFFFFFFFFFFFFFFF DUP1 DUP3 GT ISZERO PUSH2 0x23D3 JUMPI PUSH1 0x0 DUP1 REVERT JUMPDEST PUSH2 0x23DF DUP8 DUP4 DUP9 ADD PUSH2 0x230B JUMP JUMPDEST SWAP4 POP PUSH1 0x40 DUP7 ADD CALLDATALOAD SWAP2 POP DUP1 DUP3 GT ISZERO PUSH2 0x23F5 JUMPI PUSH1 0x0 DUP1 REVERT JUMPDEST POP PUSH2 0x2402 DUP7 DUP3 DUP8 ADD PUSH2 0x230B JUMP JUMPDEST SWAP2 POP POP SWAP3 POP SWAP3 POP SWAP3 JUMP JUMPDEST PUSH1 0x0 PUSH1 0x20 DUP3 DUP5 SUB SLT ISZERO PUSH2 0x241E JUMPI PUSH1 0x0 DUP1 REVERT JUMPDEST POP CALLDATALOAD SWAP2 SWAP1 POP JUMP JUMPDEST DUP1 CALLDATALOAD DUP1 ISZERO ISZERO DUP2 EQ PUSH2 0x22F0 JUMPI PUSH1 0x0 DUP1 REVERT JUMPDEST PUSH1 0x0 DUP1 PUSH1 0x40 DUP4 DUP6 SUB SLT ISZERO PUSH2 0x2448 JUMPI PUSH1 0x0 DUP1 REVERT JUMPDEST DUP3 CALLDATALOAD SWAP2 POP PUSH2 0x2458 PUSH1 0x20 DUP5 ADD PUSH2 0x2425 JUMP JUMPDEST SWAP1 POP SWAP3 POP SWAP3 SWAP1 POP JUMP JUMPDEST PUSH1 0x0 JUMPDEST DUP4 DUP2 LT ISZERO PUSH2 0x247C JUMPI DUP2 DUP2 ADD MLOAD DUP4 DUP3 ADD MSTORE PUSH1 0x20 ADD PUSH2 0x2464 JUMP JUMPDEST POP POP PUSH1 0x0 SWAP2 ADD MSTORE JUMP JUMPDEST PUSH1 0x0 DUP2 MLOAD DUP1 DUP5 MSTORE PUSH2 0x249D DUP2 PUSH1 0x20 DUP7 ADD PUSH1 0x20 DUP7 ADD PUSH2 0x2461 JUMP JUMPDEST PUSH1 0x1F ADD PUSH1 0x1F NOT AND SWAP3 SWAP1 SWAP3 ADD PUSH1 0x20 ADD SWAP3 SWAP2 POP POP JUMP JUMPDEST PUSH1 0x0 PUSH1 0x20 DUP1 DUP4 ADD DUP2 DUP5 MSTORE DUP1 DUP6 MLOAD DUP1 DUP4 MSTORE PUSH1 0x40 DUP7 ADD SWAP2 POP PUSH1 0x40 DUP2 PUSH1 0x5 SHL DUP8 ADD ADD SWAP3 POP DUP4 DUP8 ADD PUSH1 0x0 JUMPDEST DUP3 DUP2 LT ISZERO PUSH2 0x2506 JUMPI PUSH1 0x3F NOT DUP9 DUP7 SUB ADD DUP5 MSTORE PUSH2 0x24F4 DUP6 DUP4 MLOAD PUSH2 0x2485 JUMP JUMPDEST SWAP5 POP SWAP3 DUP6 ADD SWAP3 SWAP1 DUP6 ADD SWAP1 PUSH1 0x1 ADD PUSH2 0x24D8 JUMP JUMPDEST POP SWAP3 SWAP8 SWAP7 POP POP POP POP POP POP POP JUMP JUMPDEST PUSH1 0x0 PUSH1 0x20 DUP3 DUP5 SUB SLT ISZERO PUSH2 0x2525 JUMPI PUSH1 0x0 DUP1 REVERT JUMPDEST PUSH2 0x252E DUP3 PUSH2 0x2425 JUMP JUMPDEST SWAP4 SWAP3 POP POP POP JUMP JUMPDEST PUSH1 0x0 DUP1 PUSH1 0x40 DUP4 DUP6 SUB SLT ISZERO PUSH2 0x2548 JUMPI PUSH1 0x0 DUP1 REVERT JUMPDEST PUSH2 0x2551 DUP4 PUSH2 0x22D9 JUMP JUMPDEST SWAP5 PUSH1 0x20 SWAP4 SWAP1 SWAP4 ADD CALLDATALOAD SWAP4 POP POP POP JUMP JUMPDEST PUSH1 0x0 PUSH1 0x20 DUP3 DUP5 SUB SLT ISZERO PUSH2 0x2571 JUMPI PUSH1 0x0 DUP1 REVERT JUMPDEST PUSH2 0x252E DUP3 PUSH2 0x22D9 JUMP JUMPDEST PUSH1 0x0 DUP1 PUSH1 0x0 PUSH1 0x60 DUP5 DUP7 SUB SLT ISZERO PUSH2 0x258F JUMPI PUSH1 0x0 DUP1 REVERT JUMPDEST DUP4 CALLDATALOAD SWAP3 POP PUSH1 0x20 DUP5 ADD CALLDATALOAD PUSH1 0x4 DUP2 LT PUSH2 0x25A5 JUMPI PUSH1 0x0 DUP1 REVERT JUMPDEST SWAP2 POP PUSH1 0x40 DUP5 ADD CALLDATALOAD PUSH8 0xFFFFFFFFFFFFFFFF DUP2 GT ISZERO PUSH2 0x25C1 JUMPI PUSH1 0x0 DUP1 REVERT JUMPDEST PUSH2 0x2402 DUP7 DUP3 DUP8 ADD PUSH2 0x230B JUMP JUMPDEST PUSH1 0x20 DUP2 MSTORE PUSH1 0x0 PUSH2 0x252E PUSH1 0x20 DUP4 ADD DUP5 PUSH2 0x2485 JUMP JUMPDEST PUSH1 0x20 DUP1 DUP3 MSTORE DUP3 MLOAD DUP3 DUP3 ADD DUP2 SWAP1 MSTORE PUSH1 0x0 SWAP2 SWAP1 DUP5 DUP3 ADD SWAP1 PUSH1 0x40 DUP6 ADD SWAP1 DUP5 JUMPDEST DUP2 DUP2 LT ISZERO PUSH2 0x2618 JUMPI DUP4 MLOAD DUP4 MSTORE SWAP3 DUP5 ADD SWAP3 SWAP2 DUP5 ADD SWAP2 PUSH1 0x1 ADD PUSH2 0x25FC JUMP JUMPDEST POP SWAP1 SWAP7 SWAP6 POP POP POP POP POP POP JUMP JUMPDEST PUSH4 0x4E487B71 PUSH1 0xE0 SHL PUSH1 0x0 MSTORE PUSH1 0x21 PUSH1 0x4 MSTORE PUSH1 0x24 PUSH1 0x0 REVERT JUMPDEST PUSH12 0xFFFFFFFFFFFFFFFFFFFFFFFF NOT DUP5 PUSH1 0x60 SHL AND DUP2 MSTORE PUSH1 0x0 DUP4 MLOAD PUSH2 0x2664 DUP2 PUSH1 0x14 DUP6 ADD PUSH1 0x20 DUP9 ADD PUSH2 0x2461 JUMP JUMPDEST DUP4 MLOAD SWAP1 DUP4 ADD SWAP1 PUSH2 0x267B DUP2 PUSH1 0x14 DUP5 ADD PUSH1 0x20 DUP9 ADD PUSH2 0x2461 JUMP JUMPDEST ADD PUSH1 0x14 ADD SWAP6 SWAP5 POP POP POP POP POP JUMP JUMPDEST PUSH1 0x1 DUP2 DUP2 SHR SWAP1 DUP3 AND DUP1 PUSH2 0x269C JUMPI PUSH1 0x7F DUP3 AND SWAP2 POP JUMPDEST PUSH1 0x20 DUP3 LT DUP2 SUB PUSH2 0x26BC JUMPI PUSH4 0x4E487B71 PUSH1 0xE0 SHL PUSH1 0x0 MSTORE PUSH1 0x22 PUSH1 0x4 MSTORE PUSH1 0x24 PUSH1 0x0 REVERT JUMPDEST POP SWAP2 SWAP1 POP JUMP JUMPDEST PUSH1 0x1F DUP3 GT ISZERO PUSH2 0x1A2D JUMPI PUSH1 0x0 DUP2 DUP2 MSTORE PUSH1 0x20 DUP2 KECCAK256 PUSH1 0x1F DUP6 ADD PUSH1 0x5 SHR DUP2 ADD PUSH1 0x20 DUP7 LT ISZERO PUSH2 0x26E9 JUMPI POP DUP1 JUMPDEST PUSH1 0x1F DUP6 ADD PUSH1 0x5 SHR DUP3 ADD SWAP2 POP JUMPDEST DUP2 DUP2 LT ISZERO PUSH2 0x9FA JUMPI DUP3 DUP2 SSTORE PUSH1 0x1 ADD PUSH2 0x26F5 JUMP JUMPDEST DUP2 MLOAD PUSH8 0xFFFFFFFFFFFFFFFF DUP2 GT ISZERO PUSH2 0x2722 JUMPI PUSH2 0x2722 PUSH2 0x22F5 JUMP JUMPDEST PUSH2 0x2736 DUP2 PUSH2 0x2730 DUP5 SLOAD PUSH2 0x2688 JUMP JUMPDEST DUP5 PUSH2 0x26C2 JUMP JUMPDEST PUSH1 0x20 DUP1 PUSH1 0x1F DUP4 GT PUSH1 0x1 DUP2 EQ PUSH2 0x276B JUMPI PUSH1 0x0 DUP5 ISZERO PUSH2 0x2753 JUMPI POP DUP6 DUP4 ADD MLOAD JUMPDEST PUSH1 0x0 NOT PUSH1 0x3 DUP7 SWAP1 SHL SHR NOT AND PUSH1 0x1 DUP6 SWAP1 SHL OR DUP6 SSTORE PUSH2 0x9FA JUMP JUMPDEST PUSH1 0x0 DUP6 DUP2 MSTORE PUSH1 0x20 DUP2 KECCAK256 PUSH1 0x1F NOT DUP7 AND SWAP2 JUMPDEST DUP3 DUP2 LT ISZERO PUSH2 0x279A JUMPI DUP9 DUP7 ADD MLOAD DUP3 SSTORE SWAP5 DUP5 ADD SWAP5 PUSH1 0x1 SWAP1 SWAP2 ADD SWAP1 DUP5 ADD PUSH2 0x277B JUMP JUMPDEST POP DUP6 DUP3 LT ISZERO PUSH2 0x27B8 JUMPI DUP8 DUP6 ADD MLOAD PUSH1 0x0 NOT PUSH1 0x3 DUP9 SWAP1 SHL PUSH1 0xF8 AND SHR NOT AND DUP2 SSTORE JUMPDEST POP POP POP POP POP PUSH1 0x1 SWAP1 DUP2 SHL ADD SWAP1 SSTORE POP JUMP JUMPDEST PUSH4 0x4E487B71 PUSH1 0xE0 SHL PUSH1 0x0 MSTORE PUSH1 0x32 PUSH1 0x4 MSTORE PUSH1 0x24 PUSH1 0x0 REVERT JUMPDEST PUSH4 0x4E487B71 PUSH1 0xE0 SHL PUSH1 0x0 MSTORE PUSH1 0x11 PUSH1 0x4 MSTORE PUSH1 0x24 PUSH1 0x0 REVERT JUMPDEST PUSH1 0x0 PUSH1 0x1 DUP3 ADD PUSH2 0x2806 JUMPI PUSH2 0x2806 PUSH2 0x27DE JUMP JUMPDEST POP PUSH1 0x1 ADD SWAP1 JUMP JUMPDEST PUSH1 0x0 DUP1 DUP4 SLOAD PUSH2 0x281B DUP2 PUSH2 0x2688 JUMP JUMPDEST PUSH1 0x1 DUP3 DUP2 AND DUP1 ISZERO PUSH2 0x2833 JUMPI PUSH1 0x1 DUP2 EQ PUSH2 0x2848 JUMPI PUSH2 0x2877 JUMP JUMPDEST PUSH1 0xFF NOT DUP5 AND DUP8 MSTORE DUP3 ISZERO ISZERO DUP4 MUL DUP8 ADD SWAP5 POP PUSH2 0x2877 JUMP JUMPDEST DUP8 PUSH1 0x0 MSTORE PUSH1 0x20 DUP1 PUSH1 0x0 KECCAK256 PUSH1 0x0 JUMPDEST DUP6 DUP2 LT ISZERO PUSH2 0x286E JUMPI DUP2 SLOAD DUP11 DUP3 ADD MSTORE SWAP1 DUP5 ADD SWAP1 DUP3 ADD PUSH2 0x2855 JUMP JUMPDEST POP POP POP DUP3 DUP8 ADD SWAP5 POP JUMPDEST POP SWAP3 SWAP7 SWAP6 POP POP POP POP POP POP JUMP JUMPDEST PUSH1 0x1 DUP1 PUSH1 0xA0 SHL SUB DUP4 AND DUP2 MSTORE PUSH1 0x0 PUSH1 0x20 PUSH1 0x40 DUP2 DUP5 ADD MSTORE PUSH1 0x0 DUP5 SLOAD PUSH2 0x28A5 DUP2 PUSH2 0x2688 JUMP JUMPDEST DUP1 PUSH1 0x40 DUP8 ADD MSTORE PUSH1 0x60 PUSH1 0x1 DUP1 DUP5 AND PUSH1 0x0 DUP2 EQ PUSH2 0x28C7 JUMPI PUSH1 0x1 DUP2 EQ PUSH2 0x28E1 JUMPI PUSH2 0x290F JUMP JUMPDEST PUSH1 0xFF NOT DUP6 AND DUP10 DUP5 ADD MSTORE DUP4 ISZERO ISZERO PUSH1 0x5 SHL DUP10 ADD DUP4 ADD SWAP6 POP PUSH2 0x290F JUMP JUMPDEST DUP10 PUSH1 0x0 MSTORE DUP7 PUSH1 0x0 KECCAK256 PUSH1 0x0 JUMPDEST DUP6 DUP2 LT ISZERO PUSH2 0x2907 JUMPI DUP2 SLOAD DUP12 DUP3 ADD DUP7 ADD MSTORE SWAP1 DUP4 ADD SWAP1 DUP9 ADD PUSH2 0x28EC JUMP JUMPDEST DUP11 ADD DUP5 ADD SWAP7 POP POP JUMPDEST POP SWAP4 SWAP10 SWAP9 POP POP POP POP POP POP POP POP POP JUMP JUMPDEST DUP1 DUP3 ADD DUP1 DUP3 GT ISZERO PUSH2 0x2931 JUMPI PUSH2 0x2931 PUSH2 0x27DE JUMP JUMPDEST SWAP3 SWAP2 POP POP JUMP JUMPDEST DUP1 DUP3 MUL DUP2 ISZERO DUP3 DUP3 DIV DUP5 EQ OR PUSH2 0x2931 JUMPI PUSH2 0x2931 PUSH2 0x27DE JUMP JUMPDEST PUSH4 0x4E487B71 PUSH1 0xE0 SHL PUSH1 0x0 MSTORE PUSH1 0x12 PUSH1 0x4 MSTORE PUSH1 0x24 PUSH1 0x0 REVERT JUMPDEST PUSH1 0x0 DUP3 PUSH2 0x2973 JUMPI PUSH2 0x2973 PUSH2 0x294E JUMP JUMPDEST POP DIV SWAP1 JUMP JUMPDEST PUSH1 0x0 DUP3 MLOAD PUSH2 0x298A DUP2 DUP5 PUSH1 0x20 DUP8 ADD PUSH2 0x2461 JUMP JUMPDEST SWAP2 SWAP1 SWAP2 ADD SWAP3 SWAP2 POP POP JUMP JUMPDEST DUP2 DUP2 SUB DUP2 DUP2 GT ISZERO PUSH2 0x2931 JUMPI PUSH2 0x2931 PUSH2 0x27DE JUMP JUMPDEST PUSH4 0x4E487B71 PUSH1 0xE0 SHL PUSH1 0x0 MSTORE PUSH1 0x31 PUSH1 0x4 MSTORE PUSH1 0x24 PUSH1 0x0 REVERT JUMPDEST PUSH1 0x0 DUP3 PUSH2 0x29CC JUMPI PUSH2 0x29CC PUSH2 0x294E JUMP JUMPDEST POP MOD SWAP1 JUMP INVALID LOG2 PUSH5 0x6970667358 0x22 SLT KECCAK256 0xE0 0xDC 0x29 0xE5 EXTCODEHASH 0xF9 PUSH30 0xF9225841A9E4455A88CD510C7CA77BA699F211094528CAC76064736F6C63 NUMBER STOP ADDMOD SGT STOP CALLER "
		},
		"gasEstimates": {
			"creation": {
				"codeDepositCost": "2151800",
				"executionCost": "infinite",
				"totalCost": "infinite"
			},
			"external": {
				"Enrol(bool)": "infinite",
				"ReviewersRatings(address)": "2564",
				"UpdateReviewerState(bool)": "infinite",
				"UploadManuscript(address,string,string)": "infinite",
				"acceptOrRejectReview(bytes32,bool)": "infinite",
				"addEditor(address)": "75253",
				"availability(address)": "2620",
				"finalizeReview(bytes32)": "infinite",
				"get1gReviewFile(bytes32)": "infinite",
				"getManuscriptFile(bytes32)": "infinite",
				"getSelectedManuscriptProcesses()": "infinite",
				"postulate()": "infinite",
				"reviewerSelectedManuscripts(address,uint256)": "4811",
				"submitFirstGroupReview(bytes32,uint8,string)": "infinite",
				"submitSecondGroupReview(bytes32,uint8,string)": "infinite"
			},
			"internal": {
				"EditorSelection(address[] storage pointer,bytes32)": "infinite",
				"RGSelection(address[] storage pointer,bool,uint256,bytes32)": "infinite",
				"RandomSelection(address[] storage pointer,uint256,bytes32)": "infinite",
				"RatingSelection(address[] storage pointer,uint256,bytes32)": "infinite",
				"_addReviewerToSelectedManuscripts(address,bytes32)": "infinite",
				"addReviewers(address[] storage pointer,bytes32)": "infinite",
				"analyzeSGDecisions(bytes32)": "infinite",
				"createReviewOpenings(bytes32)": "infinite",
				"createReviewOpeningsForAssign(bytes32)": "infinite",
				"rate(address,uint256)": "infinite",
				"removeItem(address[] storage pointer,address)": "infinite",
				"replaceReviewer(bytes32,bool,uint256,uint256)": "infinite"
			}
		},
		"methodIdentifiers": {
			"Enrol(bool)": "70123057",
			"ReviewersRatings(address)": "b743e8eb",
			"UpdateReviewerState(bool)": "cfc3a126",
			"UploadManuscript(address,string,string)": "000b8088",
			"acceptOrRejectReview(bytes32,bool)": "2fcb6aae",
			"addEditor(address)": "e5975bdc",
			"availability(address)": "ab3a7425",
			"finalizeReview(bytes32)": "1d3e963b",
			"get1gReviewFile(bytes32)": "6f027b22",
			"getManuscriptFile(bytes32)": "d0a4d8fa",
			"getSelectedManuscriptProcesses()": "f8876a89",
			"postulate()": "e9c64a82",
			"reviewerSelectedManuscripts(address,uint256)": "7f66ad2b",
			"submitFirstGroupReview(bytes32,uint8,string)": "ae4e0f91",
			"submitSecondGroupReview(bytes32,uint8,string)": "e6bd5d72"
		}
	},
	"abi": [
		{
			"inputs": [
				{
					"internalType": "string",
					"name": "_name",
					"type": "string"
				},
				{
					"internalType": "string",
					"name": "_fgsp",
					"type": "string"
				},
				{
					"internalType": "uint256",
					"name": "_n1",
					"type": "uint256"
				},
				{
					"internalType": "string",
					"name": "_sgsp",
					"type": "string"
				},
				{
					"internalType": "uint256",
					"name": "_n2",
					"type": "uint256"
				},
				{
					"internalType": "string",
					"name": "_ip",
					"type": "string"
				},
				{
					"internalType": "uint256",
					"name": "_cost",
					"type": "uint256"
				},
				{
					"internalType": "address",
					"name": "_token",
					"type": "address"
				},
				{
					"internalType": "address",
					"name": "_community",
					"type": "address"
				},
				{
					"internalType": "address",
					"name": "_owner",
					"type": "address"
				}
			],
			"stateMutability": "nonpayable",
			"type": "constructor"
		},
		{
			"anonymous": false,
			"inputs": [
				{
					"indexed": false,
					"internalType": "string",
					"name": "state",
					"type": "string"
				}
			],
			"name": "ManuscriptProcessCompleted",
			"type": "event"
		},
		{
			"anonymous": false,
			"inputs": [
				{
					"indexed": false,
					"internalType": "string",
					"name": "processType",
					"type": "string"
				}
			],
			"name": "NewProcessAvailable",
			"type": "event"
		},
		{
			"inputs": [
				{
					"internalType": "bool",
					"name": "_Reviewer",
					"type": "bool"
				}
			],
			"name": "Enrol",
			"outputs": [],
			"stateMutability": "nonpayable",
			"type": "function"
		},
		{
			"inputs": [
				{
					"internalType": "address",
					"name": "",
					"type": "address"
				}
			],
			"name": "ReviewersRatings",
			"outputs": [
				{
					"internalType": "uint256",
					"name": "",
					"type": "uint256"
				}
			],
			"stateMutability": "view",
			"type": "function"
		},
		{
			"inputs": [
				{
					"internalType": "bool",
					"name": "_Reviewer",
					"type": "bool"
				}
			],
			"name": "UpdateReviewerState",
			"outputs": [],
			"stateMutability": "nonpayable",
			"type": "function"
		},
		{
			"inputs": [
				{
					"internalType": "address",
					"name": "_authors",
					"type": "address"
				},
				{
					"internalType": "string",
					"name": "_title",
					"type": "string"
				},
				{
					"internalType": "string",
					"name": "_filelink",
					"type": "string"
				}
			],
			"name": "UploadManuscript",
			"outputs": [],
			"stateMutability": "nonpayable",
			"type": "function"
		},
		{
			"inputs": [
				{
					"internalType": "bytes32",
					"name": "manuscriptHash",
					"type": "bytes32"
				},
				{
					"internalType": "bool",
					"name": "accept",
					"type": "bool"
				}
			],
			"name": "acceptOrRejectReview",
			"outputs": [],
			"stateMutability": "nonpayable",
			"type": "function"
		},
		{
			"inputs": [
				{
					"internalType": "address",
					"name": "newEditor",
					"type": "address"
				}
			],
			"name": "addEditor",
			"outputs": [],
			"stateMutability": "nonpayable",
			"type": "function"
		},
		{
			"inputs": [
				{
					"internalType": "address",
					"name": "",
					"type": "address"
				}
			],
			"name": "availability",
			"outputs": [
				{
					"internalType": "bool",
					"name": "",
					"type": "bool"
				}
			],
			"stateMutability": "view",
			"type": "function"
		},
		{
			"inputs": [
				{
					"internalType": "bytes32",
					"name": "manuscriptHash",
					"type": "bytes32"
				}
			],
			"name": "finalizeReview",
			"outputs": [],
			"stateMutability": "nonpayable",
			"type": "function"
		},
		{
			"inputs": [
				{
					"internalType": "bytes32",
					"name": "manuscriptHash",
					"type": "bytes32"
				}
			],
			"name": "get1gReviewFile",
			"outputs": [
				{
					"internalType": "string[]",
					"name": "",
					"type": "string[]"
				}
			],
			"stateMutability": "view",
			"type": "function"
		},
		{
			"inputs": [
				{
					"internalType": "bytes32",
					"name": "manuscriptHash",
					"type": "bytes32"
				}
			],
			"name": "getManuscriptFile",
			"outputs": [
				{
					"internalType": "string",
					"name": "",
					"type": "string"
				}
			],
			"stateMutability": "view",
			"type": "function"
		},
		{
			"inputs": [],
			"name": "getSelectedManuscriptProcesses",
			"outputs": [
				{
					"internalType": "bytes32[]",
					"name": "",
					"type": "bytes32[]"
				}
			],
			"stateMutability": "view",
			"type": "function"
		},
		{
			"inputs": [],
			"name": "postulate",
			"outputs": [
				{
					"internalType": "bytes32",
					"name": "",
					"type": "bytes32"
				}
			],
			"stateMutability": "nonpayable",
			"type": "function"
		},
		{
			"inputs": [
				{
					"internalType": "address",
					"name": "",
					"type": "address"
				},
				{
					"internalType": "uint256",
					"name": "",
					"type": "uint256"
				}
			],
			"name": "reviewerSelectedManuscripts",
			"outputs": [
				{
					"internalType": "bytes32",
					"name": "",
					"type": "bytes32"
				}
			],
			"stateMutability": "view",
			"type": "function"
		},
		{
			"inputs": [
				{
					"internalType": "bytes32",
					"name": "manuscriptHash",
					"type": "bytes32"
				},
				{
					"internalType": "enum JPRI.ManuscriptDecision",
					"name": "decision",
					"type": "uint8"
				},
				{
					"internalType": "string",
					"name": "decisionLink",
					"type": "string"
				}
			],
			"name": "submitFirstGroupReview",
			"outputs": [],
			"stateMutability": "nonpayable",
			"type": "function"
		},
		{
			"inputs": [
				{
					"internalType": "bytes32",
					"name": "manuscriptHash",
					"type": "bytes32"
				},
				{
					"internalType": "enum JPRI.ManuscriptDecision",
					"name": "decision",
					"type": "uint8"
				},
				{
					"internalType": "string",
					"name": "decisionLink",
					"type": "string"
				}
			],
			"name": "submitSecondGroupReview",
			"outputs": [],
			"stateMutability": "nonpayable",
			"type": "function"
		}
	]
}