{
	"data": {
		"bytecode": {
			"linkReferences": {},
			"object": "608060405260006005553480156200001657600080fd5b5060405162000025906200007e565b62000030906200008c565b604051809103906000f0801580156200004d573d6000803e3d6000fd5b50600080546001600160a01b03929092166001600160a01b03199283161790556001805490911630179055620000c7565b610b9a806200561783390190565b60408082526006908201526554484553495360d01b60608201526080602082018190526003908201526254485360e81b60a082015260c00190565b61554080620000d76000396000f3fe6080604052600436106200010a5760003560e01c80639cbf93181162000097578063e15764c51162000061578063e15764c514620002e5578063eb3c3551146200030a578063fb765d36146200032f578063ff4d8efc1462000369576200010a565b80639cbf9318146200023a578063c2cba3061462000274578063cf609734146200028c578063da75e25314620002b1576200010a565b80635328af4311620000d95780635328af4314620001bf57806366d11c1a14620001d757806384773da214620001fe57806389749adb1462000223576200010a565b80630317cdd7146200010f57806323a98950146200013f57806341afe459146200016657806345877e29146200019a575b600080fd5b3480156200011c57600080fd5b5062000127620003a0565b60405162000136919062002428565b60405180910390f35b3480156200014c57600080fd5b50620001646200015e36600462001c5b565b62000430565b005b3480156200017357600080fd5b506200018b6200018536600462001c2d565b6200063f565b60405162000136919062001f69565b348015620001a757600080fd5b5062000164620001b936600462001ada565b6200065f565b348015620001cc57600080fd5b50620001276200073b565b348015620001e457600080fd5b50620001ef6200076e565b60405162000136919062001ea1565b3480156200020b57600080fd5b50620001646200021d36600462001a0b565b62000772565b620001646200023436600462001bfb565b620007b3565b3480156200024757600080fd5b506200025f6200025936600462001bfb565b620008d5565b60405162000136979695949392919062001ee3565b3480156200028157600080fd5b50620001ef62000aca565b3480156200029957600080fd5b50620001ef620002ab36600462001c8c565b62000ad9565b348015620002be57600080fd5b50620002d6620002d036600462001bfb565b62000d35565b60405162000136919062001f74565b348015620002f257600080fd5b50620001646200030436600462001b58565b62000f63565b3480156200031757600080fd5b50620001276200032936600462001a7c565b62001182565b3480156200033c57600080fd5b50620003546200034e366004620019e7565b6200131e565b60405162000136979695949392919062001fdc565b3480156200037657600080fd5b506200038e62000388366004620019e7565b62001598565b60405162000136949392919062001f89565b600080546001546040516370a0823160e01b81526001600160a01b03928316926370a0823192620003d79291169060040162001ea1565b60206040518083038186803b158015620003f057600080fd5b505afa15801562000405573d6000803e3d6000fd5b505050506040513d601f19601f820116820180604052508101906200042b919062001c14565b905090565b33600090815260026020526040812080546200044c90620024c7565b905011620004775760405162461bcd60e51b81526004016200046e906200223e565b60405180910390fd5b600082815260066020908152604080832033845290915290205460ff1615620004b45760405162461bcd60e51b81526004016200046e90620020ed565b60008281526003602081905260409091200154603c90620004d690426200247a565b101562000603577f6c180928be1ac02f8c055438cb4a657fc31dccda4a3e76f60fe7d779a7bffcd38160405160200162000511919062001db3565b6040516020818303038152906040528051906020012014156200055e576000828152600360205260408120600501805460019290620005529084906200243d565b90915550620005d99050565b7fbd0da0f9c6d36a9d96477453a9e08711ee8fb693472064712c7148a396d94d6e8160405160200162000592919062001db3565b604051602081830303815290604052805190602001201415620005d9576000828152600360205260408120600601805460019290620005d39084906200243d565b90915550505b60008281526006602090815260408083203384529091529020805460ff191660011790556200063b565b7fcf9c51addc90d65d2ef7f835f9009907c7f54a2dd386e4cbf6b4b6869c090188604051620006329062002185565b60405180910390a15b5050565b600660209081526000928352604080842090915290825290205460ff1681565b33600090815260026020526040812080546200067b90620024c7565b9050116200069d5760405162461bcd60e51b81526004016200046e9062002159565b825115620006cf573360009081526002602090815260409091208451620006cd926001909201918601906200178f565b505b81511562000701573360009081526002602081815260409092208451620006ff939190920191908501906200178f565b505b6001811515148062000711575080155b156200073657336000908152600260205260409020600301805460ff19168215151790555b505050565b600080546040516370a0823160e01b81526001600160a01b03909116906370a0823190620003d790339060040162001ea1565b3090565b6001600160a01b038216600090815260026020908152604082206004018054600181018255908352918190208351620007369391909101918401906200178f565b6000620007c08262001773565b905080341015620007e55760405162461bcd60e51b81526004016200046e906200227f565b336108fc620007f583346200247a565b6040518115909202916000818181858888f193505050501580156200081e573d6000803e3d6000fd5b5062000829620003a0565b8211156200084b5760405162461bcd60e51b81526004016200046e9062002124565b60005460405163a9059cbb60e01b81526001600160a01b039091169063a9059cbb906200087f903390869060040162001f50565b602060405180830381600087803b1580156200089a57600080fd5b505af1158015620008af573d6000803e3d6000fd5b505050506040513d601f19601f8201168201806040525081019062000736919062001a5d565b600360205260009081526040902080546001820180546001600160a01b0390921692916200090390620024c7565b80601f01602080910402602001604051908101604052809291908181526020018280546200093190620024c7565b8015620009825780601f10620009565761010080835404028352916020019162000982565b820191906000526020600020905b8154815290600101906020018083116200096457829003601f168201915b5050505050908060020180546200099990620024c7565b80601f0160208091040260200160405190810160405280929190818152602001828054620009c790620024c7565b801562000a185780601f10620009ec5761010080835404028352916020019162000a18565b820191906000526020600020905b815481529060010190602001808311620009fa57829003601f168201915b50505050509080600301549080600401805462000a3590620024c7565b80601f016020809104026020016040519081016040528092919081815260200182805462000a6390620024c7565b801562000ab45780601f1062000a885761010080835404028352916020019162000ab4565b820191906000526020600020905b81548152906001019060200180831162000a9657829003601f168201915b5050505050908060050154908060060154905087565b6000546001600160a01b031690565b600060405160200162000aec9062001e76565b60408051601f19818403018152828252805160209182012060008d81526003835292909220919262000b2392600401910162001dd1565b604051602081830303815290604052805190602001201462000b595760405162461bcd60e51b81526004016200046e90620023a3565b3360405160200162000b6c919062001d96565b60408051601f19818403018152828252805160209182012060008d8152600383529290922054919262000baa926001600160a01b0316910162001d96565b604051602081830303815290604052805190602001201462000be05760405162461bcd60e51b81526004016200046e9062002333565b60006040518060e001604052808a815260200189815260200188815260200187815260200186815260200185815260200184815250905060008989898989898960008054906101000a90046001600160a01b0316303360405162000c44906200181e565b62000c599a9998979695949392919062002052565b604051809103906000f08015801562000c76573d6000803e3d6000fd5b506001600160a01b0381166000908152600460209081526040909120845180519394508593919262000cae928492909101906200178f565b50602082810151805162000cc992600185019201906200178f565b50604082015160028201556060820151805162000cf19160038401916020909101906200178f565b506080820151600482015560a0820151805162000d199160058401916020909101906200178f565b5060c091909101516006909101559a9950505050505050505050565b3360009081526002602052604081208054606092919062000d5690620024c7565b90501162000d785760405162461bcd60e51b81526004016200046e90620022c7565b60008281526003602081905260409091200154603c9062000d9a90426200247a565b1015801562000e04575060405160200162000db59062001e8a565b60408051601f19818403018152828252805160209182012060008681526003835292909220919262000dec92600401910162001dd1565b60405160208183030381529060405280519060200120145b1562000eb95760008281526003602052604090206006810154600590910154111562000e745760408051808201825260088152671858d8d95c1d195960c21b60208083019182526000868152600390915292909220905162000e6d92600490920191906200178f565b5062000eb9565b60408051808201825260088152671c995a9958dd195960c21b60208083019182526000868152600390915292909220905162000eb792600490920191906200178f565b505b6000828152600360205260409020600401805462000ed790620024c7565b80601f016020809104026020016040519081016040528092919081815260200182805462000f0590620024c7565b801562000f565780601f1062000f2a5761010080835404028352916020019162000f56565b820191906000526020600020905b81548152906001019060200180831162000f3857829003601f168201915b505050505090505b919050565b336000908152600260205260409020805462000f7f90620024c7565b15905062000fa15760405162461bcd60e51b81526004016200046e90620023f1565b600084511162000fc55760405162461bcd60e51b81526004016200046e90620022fc565b600083511162000fe95760405162461bcd60e51b81526004016200046e9062002374565b60008251116200100d5760405162461bcd60e51b81526004016200046e9062002374565b8015806200101d57506001811515145b6200103c5760405162461bcd60e51b81526004016200046e90620021bc565b604080516101008101825285815260208082018690528183018590528315156060838101919091526080830181905260a0830181905260c0830181905260e0830181905233600090815260028352939093208251805185948594859491938493620010ab92849201906200178f565b506020828101518051620010c692600185019201906200178f565b5060408201518051620010e49160028401916020909101906200178f565b50606082015160038201805460ff1916911515919091179055608082015180516200111a9160048401916020909101906200182c565b5060a08201518051620011389160058401916020909101906200188c565b5060c08201518051620011569160068401916020909101906200188c565b5060e08201518051620011749160078401916020909101906200188c565b505050505050505050505050565b3360009081526002602052604081208054829190620011a190620024c7565b905011620011c35760405162461bcd60e51b81526004016200046e90620021f3565b6040805160e08101825233815260208082018690528183018590524260608301528251808401909352600b83526a696e2070726f677265737360a81b908301526080810191909152600060a0820181905260c082018190526005805491600191906200123083856200243d565b90915550506000818152600360209081526040909120835181546001600160a01b0319166001600160a01b0390911617815583820151805185936200127d9260018501929101906200178f565b50604082015180516200129b9160028401916020909101906200178f565b506060820151600382015560808201518051620012c39160048401916020909101906200178f565b5060a0820151816005015560c082015181600601559050507f4db365c2520fe2602893f913acb1a43ed0358de14c9f9973af39db8f5898ebbf33866040516200130e92919062001eb5565b60405180910390a1949350505050565b6004602052600090815260409020805481906200133b90620024c7565b80601f01602080910402602001604051908101604052809291908181526020018280546200136990620024c7565b8015620013ba5780601f106200138e57610100808354040283529160200191620013ba565b820191906000526020600020905b8154815290600101906020018083116200139c57829003601f168201915b505050505090806001018054620013d190620024c7565b80601f0160208091040260200160405190810160405280929190818152602001828054620013ff90620024c7565b8015620014505780601f10620014245761010080835404028352916020019162001450565b820191906000526020600020905b8154815290600101906020018083116200143257829003601f168201915b5050505050908060020154908060030180546200146d90620024c7565b80601f01602080910402602001604051908101604052809291908181526020018280546200149b90620024c7565b8015620014ec5780601f10620014c057610100808354040283529160200191620014ec565b820191906000526020600020905b815481529060010190602001808311620014ce57829003601f168201915b5050505050908060040154908060050180546200150990620024c7565b80601f01602080910402602001604051908101604052809291908181526020018280546200153790620024c7565b8015620015885780601f106200155c5761010080835404028352916020019162001588565b820191906000526020600020905b8154815290600101906020018083116200156a57829003601f168201915b5050505050908060060154905087565b600260205260009081526040902080548190620015b590620024c7565b80601f0160208091040260200160405190810160405280929190818152602001828054620015e390620024c7565b8015620016345780601f10620016085761010080835404028352916020019162001634565b820191906000526020600020905b8154815290600101906020018083116200161657829003601f168201915b5050505050908060010180546200164b90620024c7565b80601f01602080910402602001604051908101604052809291908181526020018280546200167990620024c7565b8015620016ca5780601f106200169e57610100808354040283529160200191620016ca565b820191906000526020600020905b815481529060010190602001808311620016ac57829003601f168201915b505050505090806002018054620016e190620024c7565b80601f01602080910402602001604051908101604052809291908181526020018280546200170f90620024c7565b8015620017605780601f10620017345761010080835404028352916020019162001760565b820191906000526020600020905b8154815290600101906020018083116200174257829003601f168201915b5050506003909301549192505060ff1684565b60006200178982670de0b6b3a764000062002458565b92915050565b8280546200179d90620024c7565b90600052602060002090601f016020900481019282620017c157600085556200180c565b82601f10620017dc57805160ff19168380011785556200180c565b828001600101855582156200180c579182015b828111156200180c578251825591602001919060010190620017ef565b506200181a929150620018c9565b5090565b612fcb806200254083390190565b8280548282559060005260206000209081019282156200187e579160200282015b828111156200187e57825180516200186d9184916020909101906200178f565b50916020019190600101906200184d565b506200181a929150620018e0565b8280548282559060005260206000209081019282156200180c57916020028201828111156200180c578251825591602001919060010190620017ef565b5b808211156200181a5760008155600101620018ca565b808211156200181a576000620018f7828262001901565b50600101620018e0565b5080546200190f90620024c7565b6000825580601f1062001923575062001943565b601f016020900490600052602060002090810190620019439190620018c9565b50565b80356001600160a01b038116811462000f5e57600080fd5b600082601f8301126200196f578081fd5b813567ffffffffffffffff808211156200198d576200198d6200251a565b604051601f8301601f191681016020018281118282101715620019b457620019b46200251a565b604052828152848301602001861015620019cc578384fd5b82602086016020830137918201602001929092529392505050565b600060208284031215620019f9578081fd5b62001a048262001946565b9392505050565b6000806040838503121562001a1e578081fd5b62001a298362001946565b9150602083013567ffffffffffffffff81111562001a45578182fd5b62001a53858286016200195e565b9150509250929050565b60006020828403121562001a6f578081fd5b815162001a048162002530565b6000806040838503121562001a8f578182fd5b823567ffffffffffffffff8082111562001aa7578384fd5b62001ab5868387016200195e565b9350602085013591508082111562001acb578283fd5b5062001a53858286016200195e565b60008060006060848603121562001aef578081fd5b833567ffffffffffffffff8082111562001b07578283fd5b62001b15878388016200195e565b9450602086013591508082111562001b2b578283fd5b5062001b3a868287016200195e565b925050604084013562001b4d8162002530565b809150509250925092565b6000806000806080858703121562001b6e578081fd5b843567ffffffffffffffff8082111562001b86578283fd5b62001b94888389016200195e565b9550602087013591508082111562001baa578283fd5b62001bb8888389016200195e565b9450604087013591508082111562001bce578283fd5b5062001bdd878288016200195e565b925050606085013562001bf08162002530565b939692955090935050565b60006020828403121562001c0d578081fd5b5035919050565b60006020828403121562001c26578081fd5b5051919050565b6000806040838503121562001c40578182fd5b8235915062001c526020840162001946565b90509250929050565b6000806040838503121562001c6e578182fd5b82359150602083013567ffffffffffffffff81111562001a45578182fd5b600080600080600080600080610100898b03121562001ca9578384fd5b88359750602089013567ffffffffffffffff8082111562001cc8578586fd5b62001cd68c838d016200195e565b985060408b013591508082111562001cec578586fd5b62001cfa8c838d016200195e565b975060608b0135965060808b013591508082111562001d17578586fd5b62001d258c838d016200195e565b955060a08b0135945060c08b013591508082111562001d42578384fd5b5062001d518b828c016200195e565b92505060e089013590509295985092959890939650565b6000815180845262001d8281602086016020860162002494565b601f01601f19169290920160200192915050565b60609190911b6bffffffffffffffffffffffff1916815260140190565b6000825162001dc781846020870162002494565b9190910192915050565b815460009081906002810460018083168062001dee57607f831692505b602080841082141562001e0f57634e487b7160e01b87526022600452602487fd5b81801562001e26576001811462001e385762001e68565b60ff1986168952848901965062001e68565b62001e438a62002431565b885b8681101562001e605781548b82015290850190830162001e45565b505084890196505b509498975050505050505050565b671858d8d95c1d195960c21b815260080190565b6a696e2070726f677265737360a81b8152600b0190565b6001600160a01b0391909116815260200190565b6001600160a01b038316815260406020820181905260009062001edb9083018462001d68565b949350505050565b6001600160a01b038816815260e06020820181905260009062001f099083018962001d68565b828103604084015262001f1d818962001d68565b9050866060840152828103608084015262001f39818762001d68565b60a0840195909552505060c0015295945050505050565b6001600160a01b03929092168252602082015260400190565b901515815260200190565b60006020825262001a04602083018462001d68565b60006080825262001f9e608083018762001d68565b828103602084015262001fb2818762001d68565b9050828103604084015262001fc8818662001d68565b915050821515606083015295945050505050565b600060e0825262001ff160e083018a62001d68565b828103602084015262002005818a62001d68565b9050876040840152828103606084015262002021818862001d68565b905085608084015282810360a08401526200203d818662001d68565b9150508260c083015298975050505050505050565b6000610140808352620020688184018e62001d68565b905082810360208401526200207e818d62001d68565b90508a604084015282810360608401526200209a818b62001d68565b905088608084015282810360a0840152620020b6818962001d68565b60c084019790975250506001600160a01b0393841660e0820152918316610100830152909116610120909101529695505050505050565b60208082526017908201527f596f75206861766520616c726561647920766f7465642e000000000000000000604082015260600190565b6020808252818101527f4275792061207375697461626c65206e756d626572206f6620546f6b656e732e604082015260600190565b602080825260129082015271155cd95c88191bd95cc81b9bdd08195e1a5d60721b604082015260600190565b60208082526019908201527f7468652074696d6520746f20766f7465206973206f7665722e00000000000000604082015260600190565b6020808252601c908201527f52657669736f7220726f6c652063616e6e6f7420626520626c616e6b00000000604082015260600190565b6020808252602b908201527f596f75206e65656420746f206265207265676973746572656420746f20646f2060408201526a1d1a19481c995c5d595cdd60aa1b606082015260800190565b60208082526021908201527f596f75206e65656420746f206265207265676973746572656420746f20766f746040820152606560f81b606082015260800190565b60208082526028908201527f427579206c65737320546f6b656e73206f72207061792077697468206d6f72656040820152671022ba3432b9399760c11b606082015260800190565b6020808252818101527f596f75206e65656420746f206265207265676973746572656420746f20736565604082015260600190565b60208082526019908201527f46756c6c206e616d652063616e6e6f7420626520656d70747900000000000000604082015260600190565b60208082526021908201527f596f7520617265206e6f7420746865206a6f75726e616c2072657175657374656040820152603960f91b606082015260800190565b602080825260159082015274456d61696c2063616e6e6f7420626520656d70747960581b604082015260600190565b6020808252602e908201527f596f7572204a6f75726e616c207265717565737420686173206e6f742062656560408201526d1b881858d8d95c1d1959081e595d60921b606082015260800190565b6020808252601a908201527f5573657220697320616c72656164792072656769737465726564000000000000604082015260600190565b90815260200190565b60009081526020902090565b6000821982111562002453576200245362002504565b500190565b600081600019048311821515161562002475576200247562002504565b500290565b6000828210156200248f576200248f62002504565b500390565b60005b83811015620024b157818101518382015260200162002497565b83811115620024c1576000848401525b50505050565b600281046001821680620024dc57607f821691505b60208210811415620024fe57634e487b7160e01b600052602260045260246000fd5b50919050565b634e487b7160e01b600052601160045260246000fd5b634e487b7160e01b600052604160045260246000fd5b80151581146200194357600080fdfe608060405260006013553480156200001657600080fd5b5060405162002fcb38038062002fcb833981016040819052620000399162000259565b89516200004e9060029060208d0190620000eb565b508851620000649060039060208c0190620000eb565b50600488905586516200007f9060059060208a0190620000eb565b50600686905584516200009a906007906020880190620000eb565b50600893909355600180546001600160a01b03199081166001600160a01b039485161790915560008054821692841692909217909155600980549091169190921617905550620003b7945050505050565b828054620000f99062000364565b90600052602060002090601f0160209004810192826200011d576000855562000168565b82601f106200013857805160ff191683800117855562000168565b8280016001018555821562000168579182015b82811115620001685782518255916020019190600101906200014b565b50620001769291506200017a565b5090565b5b808211156200017657600081556001016200017b565b80516001600160a01b0381168114620001a957600080fd5b919050565b600082601f830112620001bf578081fd5b81516001600160401b0380821115620001dc57620001dc620003a1565b6040516020601f8401601f1916820181018381118382101715620002045762000204620003a1565b60405283825285840181018710156200021b578485fd5b8492505b838310156200023e57858301810151828401820152918201916200021f565b838311156200024f57848185840101525b5095945050505050565b6000806000806000806000806000806101408b8d03121562000279578586fd5b8a516001600160401b038082111562000290578788fd5b6200029e8e838f01620001ae565b9b5060208d0151915080821115620002b4578788fd5b620002c28e838f01620001ae565b9a5060408d0151995060608d0151915080821115620002df578788fd5b620002ed8e838f01620001ae565b985060808d0151975060a08d01519150808211156200030a578687fd5b50620003198d828e01620001ae565b95505060c08b015193506200033160e08c0162000191565b9250620003426101008c0162000191565b9150620003536101208c0162000191565b90509295989b9194979a5092959850565b6002810460018216806200037957607f821691505b602082108114156200039b57634e487b7160e01b600052602260045260246000fd5b50919050565b634e487b7160e01b600052604160045260246000fd5b612c0480620003c76000396000f3fe608060405234801561001057600080fd5b50600436106100f45760003560e01c8063ae4e0f9111610097578063e5975bdc11610066578063e5975bdc14610209578063e6bd5d721461021c578063e9c64a821461022f578063f8876a8914610237576100f4565b8063ae4e0f91146101b0578063b743e8eb146101c3578063cfc3a126146101d6578063d0a4d8fa146101e9576100f4565b80636f027b22116100d35780636f027b2214610134578063701230571461015d5780637f66ad2b14610170578063ab3a742514610190576100f4565b80620b8088146100f95780631d3e963b1461010e5780632fcb6aae14610121575b600080fd5b61010c610107366004612322565b61024c565b005b61010c61011c3660046123d6565b6106ce565b61010c61012f3660046123ee565b610813565b6101476101423660046123d6565b610963565b604051610154919061266e565b60405180910390f35b61010c61016b3660046123bc565b610a53565b61018361017e366004612393565b610b09565b6040516101549190612563565b6101a361019e366004612301565b610b3a565b60405161015491906126ce565b61010c6101be366004612419565b610b4f565b6101836101d1366004612301565b610c90565b61010c6101e43660046123bc565b610ca2565b6101fc6101f73660046123d6565b610cff565b60405161015491906126d9565b61010c610217366004612301565b610da4565b61010c61022a366004612419565b610e35565b610183610fb9565b61023f611044565b604051610154919061262a565b6000604051806101c00160405280336001600160a01b03168152602001856001600160a01b0316815260200184815260200183815260200160011515815260200160045467ffffffffffffffff8111156102b657634e487b7160e01b600052604160045260246000fd5b6040519080825280602002602001820160405280156102df578160200160208202803683370190505b50815260200160045467ffffffffffffffff81111561030e57634e487b7160e01b600052604160045260246000fd5b604051908082528060200260200182016040528015610337578160200160208202803683370190505b50815260200160045467ffffffffffffffff81111561036657634e487b7160e01b600052604160045260246000fd5b60405190808252806020026020018201604052801561039957816020015b60608152602001906001900390816103845790505b50815260200160065467ffffffffffffffff8111156103c857634e487b7160e01b600052604160045260246000fd5b6040519080825280602002602001820160405280156103f1578160200160208202803683370190505b50815260200160065467ffffffffffffffff81111561042057634e487b7160e01b600052604160045260246000fd5b604051908082528060200260200182016040528015610449578160200160208202803683370190505b50815260200160065467ffffffffffffffff81111561047857634e487b7160e01b600052604160045260246000fd5b6040519080825280602002602001820160405280156104ab57816020015b60608152602001906001900390816104965790505b50815260200160008152602001600081526020016000801b815250905060003384846040516020016104df93929190612495565b60408051601f1981840301815291815281516020928301206000818152600d8452829020855181546001600160a01b039182166001600160a01b031991821617835587860151600184018054919093169116179055918501518051919450859361055192600285019290910190611ffc565b506060820151805161056d916003840191602090910190611ffc565b50608082015160048201805460ff191691151591909117905560a082015180516105a1916005840191602090910190612080565b5060c082015180516105bd9160068401916020909101906120d5565b5060e082015180516105d9916007840191602090910190612192565b5061010082015180516105f6916008840191602090910190612080565b5061012082015180516106139160098401916020909101906120d5565b50610140820151805161063091600a840191602090910190612192565b50610160820151600b8201805460ff1916600183600381111561066357634e487b7160e01b600052602160045260246000fd5b021790555061018082015181600c01556101a082015181600d01559050506106a5600d60008381526020019081526020016000206005016000600454846110a5565b6000818152600d602052604090206006546106c79160080190600190846110a5565b5050505050565b6000818152600d602052604090206106e582611450565b6002600b82015460ff16600381111561070e57634e487b7160e01b600052602160045260246000fd5b141561074e577f67324375b186d4640ca05ca31a82195dbec7ac98fd8f931969a0b19867aa13e3604051610741906128db565b60405180910390a161080f565b6001600b82015460ff16600381111561077757634e487b7160e01b600052602160045260246000fd5b14156107aa577f67324375b186d4640ca05ca31a82195dbec7ac98fd8f931969a0b19867aa13e360405161074190612a04565b6003600b82015460ff1660038111156107d357634e487b7160e01b600052602160045260246000fd5b141561080f577f67324375b186d4640ca05ca31a82195dbec7ac98fd8f931969a0b19867aa13e360405161080690612912565b60405180910390a15b5050565b6000828152600d60205260408120908080805b600585015481101561089c57336001600160a01b031685600501828154811061085f57634e487b7160e01b600052603260045260246000fd5b6000918252602090912001546001600160a01b0316141561088a57600193506001925080915061089c565b8061089481612b5d565b915050610826565b508261091d5760005b600885015481101561091b57336001600160a01b03168560080182815481106108de57634e487b7160e01b600052603260045260246000fd5b6000918252602090912001546001600160a01b0316141561090957600193506000925080915061091b565b8061091381612b5d565b9150506108a5565b505b826109435760405162461bcd60e51b815260040161093a90612834565b60405180910390fd5b841561094e5761095b565b61095b8683836001611614565b505050505050565b6060600d6000838152602001908152602001600020600701805480602002602001604051908101604052809291908181526020016000905b82821015610a475783829060005260206000200180546109ba90612b22565b80601f01602080910402602001604051908101604052809291908181526020018280546109e690612b22565b8015610a335780601f10610a0857610100808354040283529160200191610a33565b820191906000526020600020905b815481529060010190602001808311610a1657829003601f168201915b50505050508152602001906001019061099b565b5050505090505b919050565b60005460405163423b9ed160e11b81526001600160a01b03909116906384773da290610a8690339060029060040161256c565b600060405180830381600087803b158015610aa057600080fd5b505af1158015610ab4573d6000803e3d6000fd5b5050505080151560011415610b0657600a80546001810182556000919091527fc65a7bb8d6351c1cf70c95a316cc6a92839c986682d98bc35f958f4883f9d2a80180546001600160a01b031916331790555b50565b600e6020528160005260406000208181548110610b2557600080fd5b90600052602060002001600091509150505481565b60156020526000908152604090205460ff1681565b6000838152600d6020526040812090805b6005830154811015610bcf57336001600160a01b0316836005018281548110610b9957634e487b7160e01b600052603260045260246000fd5b6000918252602090912001546001600160a01b03161415610bbd5760019150610bcf565b80610bc781612b5d565b915050610b60565b5080610bed5760405162461bcd60e51b815260040161093a90612a3b565b600682018054600181018255600091825260209182902091810490910180548692601f166101000a60ff81021990911690836003811115610c3e57634e487b7160e01b600052602160045260246000fd5b021790555060078201805460018101825560009182526020918290208551610c6e93919092019190860190611ffc565b50600182600c016000828254610c849190612a94565b90915550505050505050565b60146020526000908152604090205481565b60018115151415610cf457600a80546001810182556000919091527fc65a7bb8d6351c1cf70c95a316cc6a92839c986682d98bc35f958f4883f9d2a80180546001600160a01b03191633179055610b06565b610b06600a3361168d565b6000818152600d60205260409020600301805460609190610d1f90612b22565b80601f0160208091040260200160405190810160405280929190818152602001828054610d4b90612b22565b8015610d985780601f10610d6d57610100808354040283529160200191610d98565b820191906000526020600020905b815481529060010190602001808311610d7b57829003601f168201915b50505050509050919050565b6009546001600160a01b03163314610dce5760405162461bcd60e51b815260040161093a906126ec565b600f805460018181019092557f8d1108e10bcb7c27dddfc02ed9d693a074039d026cf4ea4240b40f7d581ac8020180546001600160a01b039093166001600160a01b031990931683179055600091825260106020526040909120805460ff19169091179055565b6000838152600d6020526040812090805b6008830154811015610eb557336001600160a01b0316836008018281548110610e7f57634e487b7160e01b600052603260045260246000fd5b6000918252602090912001546001600160a01b03161415610ea35760019150610eb5565b80610ead81612b5d565b915050610e46565b5080610ed35760405162461bcd60e51b815260040161093a90612733565b6004546000868152600d60205260409020600c01541015610f065760405162461bcd60e51b815260040161093a90612986565b600982018054600181018255600091825260209182902091810490910180548692601f166101000a60ff81021990911690836003811115610f5757634e487b7160e01b600052602160045260246000fd5b0217905550600a8201805460018101825560009182526020918290208551610f8793919092019190860190611ffc565b50600454600654610f989190612a94565b6000868152600d60205260409020600c015414156106c7576106c7856106ce565b60135460045460125460009291610fcf91612ac0565b11610fec5760405162461bcd60e51b815260040161093a906129cd565b600160136000828254610fff9190612a94565b909155505060045460135460129161101691612aac565b8154811061103457634e487b7160e01b600052603260045260246000fd5b9060005260206000200154905090565b336000908152600e602090815260409182902080548351818402810184019094528084526060939283018282801561109b57602002820191906000526020600020905b815481526020019060010190808311611087575b5050505050905090565b6000600380546110b490612b22565b80601f01602080910402602001604051908101604052809291908181526020018280546110e090612b22565b801561112d5780601f106111025761010080835404028352916020019161112d565b820191906000526020600020905b81548152906001019060200180831161111057829003601f168201915b5050505050905083156111c8576005805461114790612b22565b80601f016020809104026020016040519081016040528092919081815260200182805461117390612b22565b80156111c05780601f10611195576101008083540402835291602001916111c0565b820191906000526020600020905b8154815290600101906020018083116111a357829003601f168201915b505050505090505b6040516020016111d7906124ff565b60405160208183030381529060405280519060200120816040516020016111fe91906124e3565b60405160208183030381529060405280519060200120141561122a576112258584846117d4565b6106c7565b60405160200161123990612551565b604051602081830303815290604052805190602001208160405160200161126091906124e3565b60405160208183030381529060405280519060200120141561128d576112878584846118f5565b506106c7565b60405160200161129c90612511565b60405160208183030381529060405280519060200120816040516020016112c391906124e3565b6040516020818303038152906040528051906020012014156112e9576112258583611e8a565b6040516020016112f890612523565b604051602081830303815290604052805190602001208160405160200161131f91906124e3565b60405160208183030381529060405280519060200120141561137e5761134482611f66565b7f22f448a9d055998f7efc999aa4081dd835921a7b44f977951f7d001e2e48155b60405161137190612782565b60405180910390a16106c7565b60405160200161138d9061253a565b60405160208183030381529060405280519060200120816040516020016113b491906124e3565b6040516020818303038152906040528051906020012014156106c7578361140b576113de82611f9b565b7f22f448a9d055998f7efc999aa4081dd835921a7b44f977951f7d001e2e48155b6040516113719061287e565b61141482611f9b565b7f22f448a9d055998f7efc999aa4081dd835921a7b44f977951f7d001e2e48155b604051611441906127d6565b60405180910390a15050505050565b6000818152600d6020526040808220815160028082526060820190935290929181602001602082028036833701905050905060005b600983015481101561153c57818360090182815481106114b557634e487b7160e01b600052603260045260246000fd5b90600052602060002090602091828204019190069054906101000a900460ff1660038111156114f457634e487b7160e01b600052602160045260246000fd5b8151811061151257634e487b7160e01b600052603260045260246000fd5b60200260200101805180919061152790612b5d565b9052508061153481612b5d565b915050611485565b5060008060005b83518110156115bb578284828151811061156d57634e487b7160e01b600052603260045260246000fd5b602002602001015111156115a95783818151811061159b57634e487b7160e01b600052603260045260246000fd5b602002602001015192508091505b806115b381612b5d565b915050611543565b508060038111156115dc57634e487b7160e01b600052602160045260246000fd5b600b8501805460ff1916600183600381111561160857634e487b7160e01b600052602160045260246000fd5b02179055505050505050565b6000848152600d6020526040812090846116315781600801611636565b816005015b90506116768182868154811061165c57634e487b7160e01b600052603260045260246000fd5b6000918252602090912001546001600160a01b031661168d565b84156116848282868a6110a5565b50505050505050565b60005b82548110156117cf57816001600160a01b03168382815481106116c357634e487b7160e01b600052603260045260246000fd5b6000918252602090912001546001600160a01b031614156117bd57825483906116ee90600190612adf565b8154811061170c57634e487b7160e01b600052603260045260246000fd5b9060005260206000200160009054906101000a90046001600160a01b031683828154811061174a57634e487b7160e01b600052603260045260246000fd5b9060005260206000200160006101000a8154816001600160a01b0302191690836001600160a01b031602179055508280548061179657634e487b7160e01b600052603160045260246000fd5b600082815260209020810160001990810180546001600160a01b03191690550190556117cf565b806117c781612b5d565b915050611690565b505050565b600a5482106117f55760405162461bcd60e51b815260040161093a90612958565b60005b828110156118ef57600a5460405160009190611818904290602001612563565b6040516020818303038152906040528051906020012060001c61183b9190612b78565b905084600a828154811061185f57634e487b7160e01b600052603260045260246000fd5b60009182526020808320909101548354600181018555938352912090910180546001600160a01b0319166001600160a01b03909216919091179055600a80546118dc9190839081106118c157634e487b7160e01b600052603260045260246000fd5b6000918252602090912001546001600160a01b031684611fd0565b50806118e781612b5d565b9150506117f8565b50505050565b600a5460609060008167ffffffffffffffff81111561192457634e487b7160e01b600052604160045260246000fd5b60405190808252806020026020018201604052801561194d578160200160208202803683370190505b50905060005b828110156119e457600a818154811061197c57634e487b7160e01b600052603260045260246000fd5b9060005260206000200160009054906101000a90046001600160a01b03168282815181106119ba57634e487b7160e01b600052603260045260246000fd5b6001600160a01b0390921660209283029190910190910152806119dc81612b5d565b915050611953565b5060005b82811080156119f657508581105b15611d9857600060146000600a600081548110611a2357634e487b7160e01b600052603260045260246000fd5b60009182526020808320909101546001600160a01b03168352820192909252604001812054600a8054919350908290611a6c57634e487b7160e01b600052603260045260246000fd5b6000918252602090912001546001600160a01b0316905060015b600a54811015611bd0578260146000600a8481548110611ab657634e487b7160e01b600052603260045260246000fd5b60009182526020808320909101546001600160a01b03168352820192909252604001902054118015611b31575060156000600a8381548110611b0857634e487b7160e01b600052603260045260246000fd5b60009182526020808320909101546001600160a01b0316835282019290925260400190205460ff165b15611bbe5760146000600a8381548110611b5b57634e487b7160e01b600052603260045260246000fd5b60009182526020808320909101546001600160a01b03168352820192909252604001902054600a80549194509082908110611ba657634e487b7160e01b600052603260045260246000fd5b6000918252602090912001546001600160a01b031691505b80611bc881612b5d565b915050611a86565b5080898481548110611bf257634e487b7160e01b600052603260045260246000fd5b9060005260206000200160006101000a8154816001600160a01b0302191690836001600160a01b03160217905550611c2a8188611fd0565b60005b600a54811015611d8257816001600160a01b0316600a8281548110611c6257634e487b7160e01b600052603260045260246000fd5b6000918252602090912001546001600160a01b03161415611d7057600a54611c8c90600190612adf565b811015611d2a57600a8054611ca390600190612adf565b81548110611cc157634e487b7160e01b600052603260045260246000fd5b600091825260209091200154600a80546001600160a01b039092169183908110611cfb57634e487b7160e01b600052603260045260246000fd5b9060005260206000200160006101000a8154816001600160a01b0302191690836001600160a01b031602179055505b600a805480611d4957634e487b7160e01b600052603160045260246000fd5b600082815260209020810160001990810180546001600160a01b0319169055019055611d82565b80611d7a81612b5d565b915050611c2d565b5050508080611d9090612b5d565b9150506119e8565b5060005b82811015611e2857818181518110611dc457634e487b7160e01b600052603260045260246000fd5b6020026020010151600a8281548110611ded57634e487b7160e01b600052603260045260246000fd5b600091825260209091200180546001600160a01b0319166001600160a01b039290921691909117905580611e2081612b5d565b915050611d9c565b50855460408051602080840282018101909252828152918891830182828015611e7a57602002820191906000526020600020905b81546001600160a01b03168152600190910190602001808311611e5c575b5050505050925050509392505050565b600f5460405160009190611ea2904290602001612563565b6040516020818303038152906040528051906020012060001c611ec59190612b78565b905082600f8281548110611ee957634e487b7160e01b600052603260045260246000fd5b60009182526020808320909101548354600181018555938352912090910180546001600160a01b0319166001600160a01b03909216919091179055600f80546117cf919083908110611f4b57634e487b7160e01b600052603260045260246000fd5b6000918252602090912001546001600160a01b031683611fd0565b601180546001810182556000919091527f31ecc21a745e3968a04e9570e4425bc18fa8019c68028196b546d1669c200c680155565b601280546001810182556000919091527fbb8a6a4669ba250d26cd7a459eca9d215f8307e33aebe50379bc5a3617ec34440155565b6001600160a01b039091166000908152600e602090815260408220805460018101825590835291200155565b82805461200890612b22565b90600052602060002090601f01602090048101928261202a5760008555612070565b82601f1061204357805160ff1916838001178555612070565b82800160010185558215612070579182015b82811115612070578251825591602001919060010190612055565b5061207c9291506121eb565b5090565b828054828255906000526020600020908101928215612070579160200282015b8281111561207057825182546001600160a01b0319166001600160a01b039091161782556020909201916001909101906120a0565b82805482825590600052602060002090601f016020900481019282156120705791602002820160005b8382111561215857835183826101000a81548160ff0219169083600381111561213757634e487b7160e01b600052602160045260246000fd5b021790555092602001926001016020816000010492830192600103026120fe565b80156121855782816101000a81549060ff0219169055600101602081600001049283019260010302612158565b505061207c9291506121eb565b8280548282559060005260206000209081019282156121df579160200282015b828111156121df57825180516121cf918491602090910190611ffc565b50916020019190600101906121b2565b5061207c929150612200565b5b8082111561207c57600081556001016121ec565b8082111561207c576000612214828261221d565b50600101612200565b50805461222990612b22565b6000825580601f1061223b5750610b06565b601f016020900490600052602060002090810190610b0691906121eb565b80356001600160a01b0381168114610a4e57600080fd5b80358015158114610a4e57600080fd5b600082601f830112612290578081fd5b813567ffffffffffffffff808211156122ab576122ab612bb8565b604051601f8301601f1916810160200182811182821017156122cf576122cf612bb8565b6040528281528483016020018610156122e6578384fd5b82602086016020830137918201602001929092529392505050565b600060208284031215612312578081fd5b61231b82612259565b9392505050565b600080600060608486031215612336578182fd5b61233f84612259565b9250602084013567ffffffffffffffff8082111561235b578384fd5b61236787838801612280565b9350604086013591508082111561237c578283fd5b5061238986828701612280565b9150509250925092565b600080604083850312156123a5578182fd5b6123ae83612259565b946020939093013593505050565b6000602082840312156123cd578081fd5b61231b82612270565b6000602082840312156123e7578081fd5b5035919050565b60008060408385031215612400578182fd5b8235915061241060208401612270565b90509250929050565b60008060006060848603121561242d578283fd5b83359250602084013560048110612442578283fd5b9150604084013567ffffffffffffffff81111561245d578182fd5b61238986828701612280565b60008151808452612481816020860160208601612af6565b601f01601f19169290920160200192915050565b60006bffffffffffffffffffffffff198560601b16825283516124bf816014850160208801612af6565b8351908301906124d6816014840160208801612af6565b0160140195945050505050565b600082516124f5818460208701612af6565b9190910192915050565b6552616e646f6d60d01b815260060190565b6522b234ba37b960d11b815260060190565b6a2232b9b4b3b730ba34b7b760a91b8152600b0190565b6a2837b9ba3ab630ba34b7b760a91b8152600b0190565b65526174696e6760d01b815260060190565b90815260200190565b6001600160a01b038316815260406020808301919091528254600091908290600281046001828116806125a057607f831692505b8583108114156125be57634e487b7160e01b87526022600452602487fd5b6125cb8360408a01612563565b8180156125df57600181146125f05761261a565b60ff1986168252878201965061261a565b6125f98b612a88565b895b86811015612614578154848201529085019089016125fb565b83019750505b50949a9950505050505050505050565b6020808252825182820181905260009190848201906040850190845b8181101561266257835183529284019291840191600101612646565b50909695505050505050565b6000602080830181845280855180835260408601915060408482028701019250838701855b828110156126c157603f198886030184526126af858351612469565b94509285019290850190600101612693565b5092979650505050505050565b901515815260200190565b60006020825261231b6020830184612469565b60208082526027908201527f4f6e6c792074686520636f6e7472616374206f776e65722063616e2061646420604082015266656469746f727360c81b606082015260800190565b6020808252602f908201527f596f7520617265206e6f742070617274206f6620746865207365636f6e64206760408201526e3937bab8103932bb34b2bbb2b9399760891b606082015260800190565b60208082526034908201527f41206e65772070726f63657373206e65656473206120656469746f7220746f2060408201527361737369676e207468652072657669657765727360601b606082015260800190565b602080825260409082018190527f41206e65772070726f6365737320697320617661696c61626c6520746f20706f908201527f7374756c61746520696e2061205365636f6e64205265766965772047726f7570606082015260800190565b6020808252602a908201527f596f7520617265206e6f74206120726576696577657220666f722074686973206040820152691b585b9d5cd8dc9a5c1d60b21b606082015260800190565b6020808252603f908201527f41206e65772070726f6365737320697320617661696c61626c6520746f20706f60408201527f7374756c61746520696e2061204669727374205265766965772047726f757000606082015260800190565b6020808252601c908201527f546865206d616e75736372697074207761732061636365707465642e00000000604082015260600190565b60208082526026908201527f546865206d616e757363726970742072657175696572657320736f6d6520636860408201526530b733b2b99760d11b606082015260800190565b6020808252601490820152734e6f7420656e6f7567682072657669657765727360601b604082015260600190565b60208082526027908201527f54686520317374207265766965772070726f63656573206973206e6f74206f7660408201526632b9103cb2ba1760c91b606082015260800190565b6020808252601c908201527f4e6f20726576696577206f70656e696e677320617661696c61626c6500000000604082015260600190565b6020808252601c908201527f546865206d616e75736372697074207761732072656a65637465642e00000000604082015260600190565b6020808252602d908201527f596f7520617265206e6f742070617274206f662074686520666972737420677260408201526c6f75702072657669657765727360981b606082015260800190565b60009081526020902090565b60008219821115612aa757612aa7612b8c565b500190565b600082612abb57612abb612ba2565b500490565b6000816000190483118215151615612ada57612ada612b8c565b500290565b600082821015612af157612af1612b8c565b500390565b60005b83811015612b11578181015183820152602001612af9565b838111156118ef5750506000910152565b600281046001821680612b3657607f821691505b60208210811415612b5757634e487b7160e01b600052602260045260246000fd5b50919050565b6000600019821415612b7157612b71612b8c565b5060010190565b600082612b8757612b87612ba2565b500690565b634e487b7160e01b600052601160045260246000fd5b634e487b7160e01b600052601260045260246000fd5b634e487b7160e01b600052604160045260246000fdfea2646970667358221220ba3d04fe17dc71a0bbfe17732a3aea8d4da8f5f23925738cdcabc79004b5cb2064736f6c63430008000033a26469706673582212208159f3bc12788e61c78a2105361a25034c1a4066c1ed906e2469b59ea5d02a5664736f6c6343000800003360806040523480156200001157600080fd5b5060405162000b9a38038062000b9a8339810160408190526200003491620001b9565b81516200004990600390602085019062000068565b5080516200005f90600490602084019062000068565b50505062000273565b828054620000769062000220565b90600052602060002090601f0160209004810192826200009a5760008555620000e5565b82601f10620000b557805160ff1916838001178555620000e5565b82800160010185558215620000e5579182015b82811115620000e5578251825591602001919060010190620000c8565b50620000f3929150620000f7565b5090565b5b80821115620000f35760008155600101620000f8565b600082601f8301126200011f578081fd5b81516001600160401b03808211156200013c576200013c6200025d565b6040516020601f8401601f19168201810183811183821017156200016457620001646200025d565b60405283825285840181018710156200017b578485fd5b8492505b838310156200019e57858301810151828401820152918201916200017f565b83831115620001af57848185840101525b5095945050505050565b60008060408385031215620001cc578182fd5b82516001600160401b0380821115620001e3578384fd5b620001f1868387016200010e565b9350602085015191508082111562000207578283fd5b5062000216858286016200010e565b9150509250929050565b6002810460018216806200023557607f821691505b602082108114156200025757634e487b7160e01b600052602260045260246000fd5b50919050565b634e487b7160e01b600052604160045260246000fd5b61091780620002836000396000f3fe608060405234801561001057600080fd5b50600436106100a95760003560e01c80633950935111610071578063395093511461012957806370a082311461013c57806395d89b411461014f578063a457c2d714610157578063a9059cbb1461016a578063dd62ed3e1461017d576100a9565b806306fdde03146100ae578063095ea7b3146100cc57806318160ddd146100ec57806323b872dd14610101578063313ce56714610114575b600080fd5b6100b6610190565b6040516100c39190610648565b60405180910390f35b6100df6100da366004610614565b610222565b6040516100c3919061063d565b6100f4610244565b6040516100c3919061086b565b6100df61010f3660046105d9565b61024a565b61011c610278565b6040516100c39190610874565b6100df610137366004610614565b61027d565b6100f461014a366004610586565b6102a9565b6100b66102c8565b6100df610165366004610614565b6102d7565b6100df610178366004610614565b610328565b6100f461018b3660046105a7565b610340565b60606003805461019f906108a6565b80601f01602080910402602001604051908101604052809291908181526020018280546101cb906108a6565b80156102185780601f106101ed57610100808354040283529160200191610218565b820191906000526020600020905b8154815290600101906020018083116101fb57829003601f168201915b5050505050905090565b60008061022d61036b565b905061023a81858561036f565b5060019392505050565b60025490565b60008061025561036b565b9050610262858285610423565b61026d85858561046d565b506001949350505050565b601290565b60008061028861036b565b905061023a81858561029a8589610340565b6102a49190610882565b61036f565b6001600160a01b0381166000908152602081905260409020545b919050565b60606004805461019f906108a6565b6000806102e261036b565b905060006102f08286610340565b90508381101561031b5760405162461bcd60e51b815260040161031290610826565b60405180910390fd5b61026d828686840361036f565b60008061033361036b565b905061023a81858561046d565b6001600160a01b03918216600090815260016020908152604080832093909416825291909152205490565b3390565b6001600160a01b0383166103955760405162461bcd60e51b8152600401610312906107e2565b6001600160a01b0382166103bb5760405162461bcd60e51b8152600401610312906106de565b6001600160a01b0380841660008181526001602090815260408083209487168084529490915290819020849055517f8c5be1e5ebec7d5bd14f71427d1e84f3dd0314c0f7b2291e5b200ac8c7c3b9259061041690859061086b565b60405180910390a3505050565b600061042f8484610340565b90506000198114610467578181101561045a5760405162461bcd60e51b815260040161031290610720565b610467848484840361036f565b50505050565b6001600160a01b0383166104935760405162461bcd60e51b81526004016103129061079d565b6001600160a01b0382166104b95760405162461bcd60e51b81526004016103129061069b565b6104c483838361056a565b6001600160a01b038316600090815260208190526040902054818110156104fd5760405162461bcd60e51b815260040161031290610757565b6001600160a01b0380851660008181526020819052604080822086860390559286168082529083902080548601905591517fddf252ad1be2c89b69c2b068fc378daa952ba7f163c4a11628f55a4df523b3ef9061055b90869061086b565b60405180910390a36104678484845b505050565b80356001600160a01b03811681146102c357600080fd5b600060208284031215610597578081fd5b6105a08261056f565b9392505050565b600080604083850312156105b9578081fd5b6105c28361056f565b91506105d06020840161056f565b90509250929050565b6000806000606084860312156105ed578081fd5b6105f68461056f565b92506106046020850161056f565b9150604084013590509250925092565b60008060408385031215610626578182fd5b61062f8361056f565b946020939093013593505050565b901515815260200190565b6000602080835283518082850152825b8181101561067457858101830151858201604001528201610658565b818111156106855783604083870101525b50601f01601f1916929092016040019392505050565b60208082526023908201527f45524332303a207472616e7366657220746f20746865207a65726f206164647260408201526265737360e81b606082015260800190565b60208082526022908201527f45524332303a20617070726f766520746f20746865207a65726f206164647265604082015261737360f01b606082015260800190565b6020808252601d908201527f45524332303a20696e73756666696369656e7420616c6c6f77616e6365000000604082015260600190565b60208082526026908201527f45524332303a207472616e7366657220616d6f756e7420657863656564732062604082015265616c616e636560d01b606082015260800190565b60208082526025908201527f45524332303a207472616e736665722066726f6d20746865207a65726f206164604082015264647265737360d81b606082015260800190565b60208082526024908201527f45524332303a20617070726f76652066726f6d20746865207a65726f206164646040820152637265737360e01b606082015260800190565b60208082526025908201527f45524332303a2064656372656173656420616c6c6f77616e63652062656c6f77604082015264207a65726f60d81b606082015260800190565b90815260200190565b60ff91909116815260200190565b600082198211156108a157634e487b7160e01b81526011600452602481fd5b500190565b6002810460018216806108ba57607f821691505b602082108114156108db57634e487b7160e01b600052602260045260246000fd5b5091905056fea2646970667358221220374e45a48c2c48ad0ecd7c35a6668683ed15f0ef4c0ba4b17ed4e99b25b17cea64736f6c63430008000033",
			"opcodes": "PUSH1 0x80 PUSH1 0x40 MSTORE PUSH1 0x0 PUSH1 0x5 SSTORE CALLVALUE DUP1 ISZERO PUSH3 0x16 JUMPI PUSH1 0x0 DUP1 REVERT JUMPDEST POP PUSH1 0x40 MLOAD PUSH3 0x25 SWAP1 PUSH3 0x7E JUMP JUMPDEST PUSH3 0x30 SWAP1 PUSH3 0x8C JUMP JUMPDEST PUSH1 0x40 MLOAD DUP1 SWAP2 SUB SWAP1 PUSH1 0x0 CREATE DUP1 ISZERO DUP1 ISZERO PUSH3 0x4D JUMPI RETURNDATASIZE PUSH1 0x0 DUP1 RETURNDATACOPY RETURNDATASIZE PUSH1 0x0 REVERT JUMPDEST POP PUSH1 0x0 DUP1 SLOAD PUSH1 0x1 PUSH1 0x1 PUSH1 0xA0 SHL SUB SWAP3 SWAP1 SWAP3 AND PUSH1 0x1 PUSH1 0x1 PUSH1 0xA0 SHL SUB NOT SWAP3 DUP4 AND OR SWAP1 SSTORE PUSH1 0x1 DUP1 SLOAD SWAP1 SWAP2 AND ADDRESS OR SWAP1 SSTORE PUSH3 0xC7 JUMP JUMPDEST PUSH2 0xB9A DUP1 PUSH3 0x5617 DUP4 CODECOPY ADD SWAP1 JUMP JUMPDEST PUSH1 0x40 DUP1 DUP3 MSTORE PUSH1 0x6 SWAP1 DUP3 ADD MSTORE PUSH6 0x544845534953 PUSH1 0xD0 SHL PUSH1 0x60 DUP3 ADD MSTORE PUSH1 0x80 PUSH1 0x20 DUP3 ADD DUP2 SWAP1 MSTORE PUSH1 0x3 SWAP1 DUP3 ADD MSTORE PUSH3 0x544853 PUSH1 0xE8 SHL PUSH1 0xA0 DUP3 ADD MSTORE PUSH1 0xC0 ADD SWAP1 JUMP JUMPDEST PUSH2 0x5540 DUP1 PUSH3 0xD7 PUSH1 0x0 CODECOPY PUSH1 0x0 RETURN INVALID PUSH1 0x80 PUSH1 0x40 MSTORE PUSH1 0x4 CALLDATASIZE LT PUSH3 0x10A JUMPI PUSH1 0x0 CALLDATALOAD PUSH1 0xE0 SHR DUP1 PUSH4 0x9CBF9318 GT PUSH3 0x97 JUMPI DUP1 PUSH4 0xE15764C5 GT PUSH3 0x61 JUMPI DUP1 PUSH4 0xE15764C5 EQ PUSH3 0x2E5 JUMPI DUP1 PUSH4 0xEB3C3551 EQ PUSH3 0x30A JUMPI DUP1 PUSH4 0xFB765D36 EQ PUSH3 0x32F JUMPI DUP1 PUSH4 0xFF4D8EFC EQ PUSH3 0x369 JUMPI PUSH3 0x10A JUMP JUMPDEST DUP1 PUSH4 0x9CBF9318 EQ PUSH3 0x23A JUMPI DUP1 PUSH4 0xC2CBA306 EQ PUSH3 0x274 JUMPI DUP1 PUSH4 0xCF609734 EQ PUSH3 0x28C JUMPI DUP1 PUSH4 0xDA75E253 EQ PUSH3 0x2B1 JUMPI PUSH3 0x10A JUMP JUMPDEST DUP1 PUSH4 0x5328AF43 GT PUSH3 0xD9 JUMPI DUP1 PUSH4 0x5328AF43 EQ PUSH3 0x1BF JUMPI DUP1 PUSH4 0x66D11C1A EQ PUSH3 0x1D7 JUMPI DUP1 PUSH4 0x84773DA2 EQ PUSH3 0x1FE JUMPI DUP1 PUSH4 0x89749ADB EQ PUSH3 0x223 JUMPI PUSH3 0x10A JUMP JUMPDEST DUP1 PUSH4 0x317CDD7 EQ PUSH3 0x10F JUMPI DUP1 PUSH4 0x23A98950 EQ PUSH3 0x13F JUMPI DUP1 PUSH4 0x41AFE459 EQ PUSH3 0x166 JUMPI DUP1 PUSH4 0x45877E29 EQ PUSH3 0x19A JUMPI JUMPDEST PUSH1 0x0 DUP1 REVERT JUMPDEST CALLVALUE DUP1 ISZERO PUSH3 0x11C JUMPI PUSH1 0x0 DUP1 REVERT JUMPDEST POP PUSH3 0x127 PUSH3 0x3A0 JUMP JUMPDEST PUSH1 0x40 MLOAD PUSH3 0x136 SWAP2 SWAP1 PUSH3 0x2428 JUMP JUMPDEST PUSH1 0x40 MLOAD DUP1 SWAP2 SUB SWAP1 RETURN JUMPDEST CALLVALUE DUP1 ISZERO PUSH3 0x14C JUMPI PUSH1 0x0 DUP1 REVERT JUMPDEST POP PUSH3 0x164 PUSH3 0x15E CALLDATASIZE PUSH1 0x4 PUSH3 0x1C5B JUMP JUMPDEST PUSH3 0x430 JUMP JUMPDEST STOP JUMPDEST CALLVALUE DUP1 ISZERO PUSH3 0x173 JUMPI PUSH1 0x0 DUP1 REVERT JUMPDEST POP PUSH3 0x18B PUSH3 0x185 CALLDATASIZE PUSH1 0x4 PUSH3 0x1C2D JUMP JUMPDEST PUSH3 0x63F JUMP JUMPDEST PUSH1 0x40 MLOAD PUSH3 0x136 SWAP2 SWAP1 PUSH3 0x1F69 JUMP JUMPDEST CALLVALUE DUP1 ISZERO PUSH3 0x1A7 JUMPI PUSH1 0x0 DUP1 REVERT JUMPDEST POP PUSH3 0x164 PUSH3 0x1B9 CALLDATASIZE PUSH1 0x4 PUSH3 0x1ADA JUMP JUMPDEST PUSH3 0x65F JUMP JUMPDEST CALLVALUE DUP1 ISZERO PUSH3 0x1CC JUMPI PUSH1 0x0 DUP1 REVERT JUMPDEST POP PUSH3 0x127 PUSH3 0x73B JUMP JUMPDEST CALLVALUE DUP1 ISZERO PUSH3 0x1E4 JUMPI PUSH1 0x0 DUP1 REVERT JUMPDEST POP PUSH3 0x1EF PUSH3 0x76E JUMP JUMPDEST PUSH1 0x40 MLOAD PUSH3 0x136 SWAP2 SWAP1 PUSH3 0x1EA1 JUMP JUMPDEST CALLVALUE DUP1 ISZERO PUSH3 0x20B JUMPI PUSH1 0x0 DUP1 REVERT JUMPDEST POP PUSH3 0x164 PUSH3 0x21D CALLDATASIZE PUSH1 0x4 PUSH3 0x1A0B JUMP JUMPDEST PUSH3 0x772 JUMP JUMPDEST PUSH3 0x164 PUSH3 0x234 CALLDATASIZE PUSH1 0x4 PUSH3 0x1BFB JUMP JUMPDEST PUSH3 0x7B3 JUMP JUMPDEST CALLVALUE DUP1 ISZERO PUSH3 0x247 JUMPI PUSH1 0x0 DUP1 REVERT JUMPDEST POP PUSH3 0x25F PUSH3 0x259 CALLDATASIZE PUSH1 0x4 PUSH3 0x1BFB JUMP JUMPDEST PUSH3 0x8D5 JUMP JUMPDEST PUSH1 0x40 MLOAD PUSH3 0x136 SWAP8 SWAP7 SWAP6 SWAP5 SWAP4 SWAP3 SWAP2 SWAP1 PUSH3 0x1EE3 JUMP JUMPDEST CALLVALUE DUP1 ISZERO PUSH3 0x281 JUMPI PUSH1 0x0 DUP1 REVERT JUMPDEST POP PUSH3 0x1EF PUSH3 0xACA JUMP JUMPDEST CALLVALUE DUP1 ISZERO PUSH3 0x299 JUMPI PUSH1 0x0 DUP1 REVERT JUMPDEST POP PUSH3 0x1EF PUSH3 0x2AB CALLDATASIZE PUSH1 0x4 PUSH3 0x1C8C JUMP JUMPDEST PUSH3 0xAD9 JUMP JUMPDEST CALLVALUE DUP1 ISZERO PUSH3 0x2BE JUMPI PUSH1 0x0 DUP1 REVERT JUMPDEST POP PUSH3 0x2D6 PUSH3 0x2D0 CALLDATASIZE PUSH1 0x4 PUSH3 0x1BFB JUMP JUMPDEST PUSH3 0xD35 JUMP JUMPDEST PUSH1 0x40 MLOAD PUSH3 0x136 SWAP2 SWAP1 PUSH3 0x1F74 JUMP JUMPDEST CALLVALUE DUP1 ISZERO PUSH3 0x2F2 JUMPI PUSH1 0x0 DUP1 REVERT JUMPDEST POP PUSH3 0x164 PUSH3 0x304 CALLDATASIZE PUSH1 0x4 PUSH3 0x1B58 JUMP JUMPDEST PUSH3 0xF63 JUMP JUMPDEST CALLVALUE DUP1 ISZERO PUSH3 0x317 JUMPI PUSH1 0x0 DUP1 REVERT JUMPDEST POP PUSH3 0x127 PUSH3 0x329 CALLDATASIZE PUSH1 0x4 PUSH3 0x1A7C JUMP JUMPDEST PUSH3 0x1182 JUMP JUMPDEST CALLVALUE DUP1 ISZERO PUSH3 0x33C JUMPI PUSH1 0x0 DUP1 REVERT JUMPDEST POP PUSH3 0x354 PUSH3 0x34E CALLDATASIZE PUSH1 0x4 PUSH3 0x19E7 JUMP JUMPDEST PUSH3 0x131E JUMP JUMPDEST PUSH1 0x40 MLOAD PUSH3 0x136 SWAP8 SWAP7 SWAP6 SWAP5 SWAP4 SWAP3 SWAP2 SWAP1 PUSH3 0x1FDC JUMP JUMPDEST CALLVALUE DUP1 ISZERO PUSH3 0x376 JUMPI PUSH1 0x0 DUP1 REVERT JUMPDEST POP PUSH3 0x38E PUSH3 0x388 CALLDATASIZE PUSH1 0x4 PUSH3 0x19E7 JUMP JUMPDEST PUSH3 0x1598 JUMP JUMPDEST PUSH1 0x40 MLOAD PUSH3 0x136 SWAP5 SWAP4 SWAP3 SWAP2 SWAP1 PUSH3 0x1F89 JUMP JUMPDEST PUSH1 0x0 DUP1 SLOAD PUSH1 0x1 SLOAD PUSH1 0x40 MLOAD PUSH4 0x70A08231 PUSH1 0xE0 SHL DUP2 MSTORE PUSH1 0x1 PUSH1 0x1 PUSH1 0xA0 SHL SUB SWAP3 DUP4 AND SWAP3 PUSH4 0x70A08231 SWAP3 PUSH3 0x3D7 SWAP3 SWAP2 AND SWAP1 PUSH1 0x4 ADD PUSH3 0x1EA1 JUMP JUMPDEST PUSH1 0x20 PUSH1 0x40 MLOAD DUP1 DUP4 SUB DUP2 DUP7 DUP1 EXTCODESIZE ISZERO DUP1 ISZERO PUSH3 0x3F0 JUMPI PUSH1 0x0 DUP1 REVERT JUMPDEST POP GAS STATICCALL ISZERO DUP1 ISZERO PUSH3 0x405 JUMPI RETURNDATASIZE PUSH1 0x0 DUP1 RETURNDATACOPY RETURNDATASIZE PUSH1 0x0 REVERT JUMPDEST POP POP POP POP PUSH1 0x40 MLOAD RETURNDATASIZE PUSH1 0x1F NOT PUSH1 0x1F DUP3 ADD AND DUP3 ADD DUP1 PUSH1 0x40 MSTORE POP DUP2 ADD SWAP1 PUSH3 0x42B SWAP2 SWAP1 PUSH3 0x1C14 JUMP JUMPDEST SWAP1 POP SWAP1 JUMP JUMPDEST CALLER PUSH1 0x0 SWAP1 DUP2 MSTORE PUSH1 0x2 PUSH1 0x20 MSTORE PUSH1 0x40 DUP2 KECCAK256 DUP1 SLOAD PUSH3 0x44C SWAP1 PUSH3 0x24C7 JUMP JUMPDEST SWAP1 POP GT PUSH3 0x477 JUMPI PUSH1 0x40 MLOAD PUSH3 0x461BCD PUSH1 0xE5 SHL DUP2 MSTORE PUSH1 0x4 ADD PUSH3 0x46E SWAP1 PUSH3 0x223E JUMP JUMPDEST PUSH1 0x40 MLOAD DUP1 SWAP2 SUB SWAP1 REVERT JUMPDEST PUSH1 0x0 DUP3 DUP2 MSTORE PUSH1 0x6 PUSH1 0x20 SWAP1 DUP2 MSTORE PUSH1 0x40 DUP1 DUP4 KECCAK256 CALLER DUP5 MSTORE SWAP1 SWAP2 MSTORE SWAP1 KECCAK256 SLOAD PUSH1 0xFF AND ISZERO PUSH3 0x4B4 JUMPI PUSH1 0x40 MLOAD PUSH3 0x461BCD PUSH1 0xE5 SHL DUP2 MSTORE PUSH1 0x4 ADD PUSH3 0x46E SWAP1 PUSH3 0x20ED JUMP JUMPDEST PUSH1 0x0 DUP3 DUP2 MSTORE PUSH1 0x3 PUSH1 0x20 DUP2 SWAP1 MSTORE PUSH1 0x40 SWAP1 SWAP2 KECCAK256 ADD SLOAD PUSH1 0x3C SWAP1 PUSH3 0x4D6 SWAP1 TIMESTAMP PUSH3 0x247A JUMP JUMPDEST LT ISZERO PUSH3 0x603 JUMPI PUSH32 0x6C180928BE1AC02F8C055438CB4A657FC31DCCDA4A3E76F60FE7D779A7BFFCD3 DUP2 PUSH1 0x40 MLOAD PUSH1 0x20 ADD PUSH3 0x511 SWAP2 SWAP1 PUSH3 0x1DB3 JUMP JUMPDEST PUSH1 0x40 MLOAD PUSH1 0x20 DUP2 DUP4 SUB SUB DUP2 MSTORE SWAP1 PUSH1 0x40 MSTORE DUP1 MLOAD SWAP1 PUSH1 0x20 ADD KECCAK256 EQ ISZERO PUSH3 0x55E JUMPI PUSH1 0x0 DUP3 DUP2 MSTORE PUSH1 0x3 PUSH1 0x20 MSTORE PUSH1 0x40 DUP2 KECCAK256 PUSH1 0x5 ADD DUP1 SLOAD PUSH1 0x1 SWAP3 SWAP1 PUSH3 0x552 SWAP1 DUP5 SWAP1 PUSH3 0x243D JUMP JUMPDEST SWAP1 SWAP2 SSTORE POP PUSH3 0x5D9 SWAP1 POP JUMP JUMPDEST PUSH32 0xBD0DA0F9C6D36A9D96477453A9E08711EE8FB693472064712C7148A396D94D6E DUP2 PUSH1 0x40 MLOAD PUSH1 0x20 ADD PUSH3 0x592 SWAP2 SWAP1 PUSH3 0x1DB3 JUMP JUMPDEST PUSH1 0x40 MLOAD PUSH1 0x20 DUP2 DUP4 SUB SUB DUP2 MSTORE SWAP1 PUSH1 0x40 MSTORE DUP1 MLOAD SWAP1 PUSH1 0x20 ADD KECCAK256 EQ ISZERO PUSH3 0x5D9 JUMPI PUSH1 0x0 DUP3 DUP2 MSTORE PUSH1 0x3 PUSH1 0x20 MSTORE PUSH1 0x40 DUP2 KECCAK256 PUSH1 0x6 ADD DUP1 SLOAD PUSH1 0x1 SWAP3 SWAP1 PUSH3 0x5D3 SWAP1 DUP5 SWAP1 PUSH3 0x243D JUMP JUMPDEST SWAP1 SWAP2 SSTORE POP POP JUMPDEST PUSH1 0x0 DUP3 DUP2 MSTORE PUSH1 0x6 PUSH1 0x20 SWAP1 DUP2 MSTORE PUSH1 0x40 DUP1 DUP4 KECCAK256 CALLER DUP5 MSTORE SWAP1 SWAP2 MSTORE SWAP1 KECCAK256 DUP1 SLOAD PUSH1 0xFF NOT AND PUSH1 0x1 OR SWAP1 SSTORE PUSH3 0x63B JUMP JUMPDEST PUSH32 0xCF9C51ADDC90D65D2EF7F835F9009907C7F54A2DD386E4CBF6B4B6869C090188 PUSH1 0x40 MLOAD PUSH3 0x632 SWAP1 PUSH3 0x2185 JUMP JUMPDEST PUSH1 0x40 MLOAD DUP1 SWAP2 SUB SWAP1 LOG1 JUMPDEST POP POP JUMP JUMPDEST PUSH1 0x6 PUSH1 0x20 SWAP1 DUP2 MSTORE PUSH1 0x0 SWAP3 DUP4 MSTORE PUSH1 0x40 DUP1 DUP5 KECCAK256 SWAP1 SWAP2 MSTORE SWAP1 DUP3 MSTORE SWAP1 KECCAK256 SLOAD PUSH1 0xFF AND DUP2 JUMP JUMPDEST CALLER PUSH1 0x0 SWAP1 DUP2 MSTORE PUSH1 0x2 PUSH1 0x20 MSTORE PUSH1 0x40 DUP2 KECCAK256 DUP1 SLOAD PUSH3 0x67B SWAP1 PUSH3 0x24C7 JUMP JUMPDEST SWAP1 POP GT PUSH3 0x69D JUMPI PUSH1 0x40 MLOAD PUSH3 0x461BCD PUSH1 0xE5 SHL DUP2 MSTORE PUSH1 0x4 ADD PUSH3 0x46E SWAP1 PUSH3 0x2159 JUMP JUMPDEST DUP3 MLOAD ISZERO PUSH3 0x6CF JUMPI CALLER PUSH1 0x0 SWAP1 DUP2 MSTORE PUSH1 0x2 PUSH1 0x20 SWAP1 DUP2 MSTORE PUSH1 0x40 SWAP1 SWAP2 KECCAK256 DUP5 MLOAD PUSH3 0x6CD SWAP3 PUSH1 0x1 SWAP1 SWAP3 ADD SWAP2 DUP7 ADD SWAP1 PUSH3 0x178F JUMP JUMPDEST POP JUMPDEST DUP2 MLOAD ISZERO PUSH3 0x701 JUMPI CALLER PUSH1 0x0 SWAP1 DUP2 MSTORE PUSH1 0x2 PUSH1 0x20 DUP2 DUP2 MSTORE PUSH1 0x40 SWAP1 SWAP3 KECCAK256 DUP5 MLOAD PUSH3 0x6FF SWAP4 SWAP2 SWAP1 SWAP3 ADD SWAP2 SWAP1 DUP6 ADD SWAP1 PUSH3 0x178F JUMP JUMPDEST POP JUMPDEST PUSH1 0x1 DUP2 ISZERO ISZERO EQ DUP1 PUSH3 0x711 JUMPI POP DUP1 ISZERO JUMPDEST ISZERO PUSH3 0x736 JUMPI CALLER PUSH1 0x0 SWAP1 DUP2 MSTORE PUSH1 0x2 PUSH1 0x20 MSTORE PUSH1 0x40 SWAP1 KECCAK256 PUSH1 0x3 ADD DUP1 SLOAD PUSH1 0xFF NOT AND DUP3 ISZERO ISZERO OR SWAP1 SSTORE JUMPDEST POP POP POP JUMP JUMPDEST PUSH1 0x0 DUP1 SLOAD PUSH1 0x40 MLOAD PUSH4 0x70A08231 PUSH1 0xE0 SHL DUP2 MSTORE PUSH1 0x1 PUSH1 0x1 PUSH1 0xA0 SHL SUB SWAP1 SWAP2 AND SWAP1 PUSH4 0x70A08231 SWAP1 PUSH3 0x3D7 SWAP1 CALLER SWAP1 PUSH1 0x4 ADD PUSH3 0x1EA1 JUMP JUMPDEST ADDRESS SWAP1 JUMP JUMPDEST PUSH1 0x1 PUSH1 0x1 PUSH1 0xA0 SHL SUB DUP3 AND PUSH1 0x0 SWAP1 DUP2 MSTORE PUSH1 0x2 PUSH1 0x20 SWAP1 DUP2 MSTORE PUSH1 0x40 DUP3 KECCAK256 PUSH1 0x4 ADD DUP1 SLOAD PUSH1 0x1 DUP2 ADD DUP3 SSTORE SWAP1 DUP4 MSTORE SWAP2 DUP2 SWAP1 KECCAK256 DUP4 MLOAD PUSH3 0x736 SWAP4 SWAP2 SWAP1 SWAP2 ADD SWAP2 DUP5 ADD SWAP1 PUSH3 0x178F JUMP JUMPDEST PUSH1 0x0 PUSH3 0x7C0 DUP3 PUSH3 0x1773 JUMP JUMPDEST SWAP1 POP DUP1 CALLVALUE LT ISZERO PUSH3 0x7E5 JUMPI PUSH1 0x40 MLOAD PUSH3 0x461BCD PUSH1 0xE5 SHL DUP2 MSTORE PUSH1 0x4 ADD PUSH3 0x46E SWAP1 PUSH3 0x227F JUMP JUMPDEST CALLER PUSH2 0x8FC PUSH3 0x7F5 DUP4 CALLVALUE PUSH3 0x247A JUMP JUMPDEST PUSH1 0x40 MLOAD DUP2 ISZERO SWAP1 SWAP3 MUL SWAP2 PUSH1 0x0 DUP2 DUP2 DUP2 DUP6 DUP9 DUP9 CALL SWAP4 POP POP POP POP ISZERO DUP1 ISZERO PUSH3 0x81E JUMPI RETURNDATASIZE PUSH1 0x0 DUP1 RETURNDATACOPY RETURNDATASIZE PUSH1 0x0 REVERT JUMPDEST POP PUSH3 0x829 PUSH3 0x3A0 JUMP JUMPDEST DUP3 GT ISZERO PUSH3 0x84B JUMPI PUSH1 0x40 MLOAD PUSH3 0x461BCD PUSH1 0xE5 SHL DUP2 MSTORE PUSH1 0x4 ADD PUSH3 0x46E SWAP1 PUSH3 0x2124 JUMP JUMPDEST PUSH1 0x0 SLOAD PUSH1 0x40 MLOAD PUSH4 0xA9059CBB PUSH1 0xE0 SHL DUP2 MSTORE PUSH1 0x1 PUSH1 0x1 PUSH1 0xA0 SHL SUB SWAP1 SWAP2 AND SWAP1 PUSH4 0xA9059CBB SWAP1 PUSH3 0x87F SWAP1 CALLER SWAP1 DUP7 SWAP1 PUSH1 0x4 ADD PUSH3 0x1F50 JUMP JUMPDEST PUSH1 0x20 PUSH1 0x40 MLOAD DUP1 DUP4 SUB DUP2 PUSH1 0x0 DUP8 DUP1 EXTCODESIZE ISZERO DUP1 ISZERO PUSH3 0x89A JUMPI PUSH1 0x0 DUP1 REVERT JUMPDEST POP GAS CALL ISZERO DUP1 ISZERO PUSH3 0x8AF JUMPI RETURNDATASIZE PUSH1 0x0 DUP1 RETURNDATACOPY RETURNDATASIZE PUSH1 0x0 REVERT JUMPDEST POP POP POP POP PUSH1 0x40 MLOAD RETURNDATASIZE PUSH1 0x1F NOT PUSH1 0x1F DUP3 ADD AND DUP3 ADD DUP1 PUSH1 0x40 MSTORE POP DUP2 ADD SWAP1 PUSH3 0x736 SWAP2 SWAP1 PUSH3 0x1A5D JUMP JUMPDEST PUSH1 0x3 PUSH1 0x20 MSTORE PUSH1 0x0 SWAP1 DUP2 MSTORE PUSH1 0x40 SWAP1 KECCAK256 DUP1 SLOAD PUSH1 0x1 DUP3 ADD DUP1 SLOAD PUSH1 0x1 PUSH1 0x1 PUSH1 0xA0 SHL SUB SWAP1 SWAP3 AND SWAP3 SWAP2 PUSH3 0x903 SWAP1 PUSH3 0x24C7 JUMP JUMPDEST DUP1 PUSH1 0x1F ADD PUSH1 0x20 DUP1 SWAP2 DIV MUL PUSH1 0x20 ADD PUSH1 0x40 MLOAD SWAP1 DUP2 ADD PUSH1 0x40 MSTORE DUP1 SWAP3 SWAP2 SWAP1 DUP2 DUP2 MSTORE PUSH1 0x20 ADD DUP3 DUP1 SLOAD PUSH3 0x931 SWAP1 PUSH3 0x24C7 JUMP JUMPDEST DUP1 ISZERO PUSH3 0x982 JUMPI DUP1 PUSH1 0x1F LT PUSH3 0x956 JUMPI PUSH2 0x100 DUP1 DUP4 SLOAD DIV MUL DUP4 MSTORE SWAP2 PUSH1 0x20 ADD SWAP2 PUSH3 0x982 JUMP JUMPDEST DUP3 ADD SWAP2 SWAP1 PUSH1 0x0 MSTORE PUSH1 0x20 PUSH1 0x0 KECCAK256 SWAP1 JUMPDEST DUP2 SLOAD DUP2 MSTORE SWAP1 PUSH1 0x1 ADD SWAP1 PUSH1 0x20 ADD DUP1 DUP4 GT PUSH3 0x964 JUMPI DUP3 SWAP1 SUB PUSH1 0x1F AND DUP3 ADD SWAP2 JUMPDEST POP POP POP POP POP SWAP1 DUP1 PUSH1 0x2 ADD DUP1 SLOAD PUSH3 0x999 SWAP1 PUSH3 0x24C7 JUMP JUMPDEST DUP1 PUSH1 0x1F ADD PUSH1 0x20 DUP1 SWAP2 DIV MUL PUSH1 0x20 ADD PUSH1 0x40 MLOAD SWAP1 DUP2 ADD PUSH1 0x40 MSTORE DUP1 SWAP3 SWAP2 SWAP1 DUP2 DUP2 MSTORE PUSH1 0x20 ADD DUP3 DUP1 SLOAD PUSH3 0x9C7 SWAP1 PUSH3 0x24C7 JUMP JUMPDEST DUP1 ISZERO PUSH3 0xA18 JUMPI DUP1 PUSH1 0x1F LT PUSH3 0x9EC JUMPI PUSH2 0x100 DUP1 DUP4 SLOAD DIV MUL DUP4 MSTORE SWAP2 PUSH1 0x20 ADD SWAP2 PUSH3 0xA18 JUMP JUMPDEST DUP3 ADD SWAP2 SWAP1 PUSH1 0x0 MSTORE PUSH1 0x20 PUSH1 0x0 KECCAK256 SWAP1 JUMPDEST DUP2 SLOAD DUP2 MSTORE SWAP1 PUSH1 0x1 ADD SWAP1 PUSH1 0x20 ADD DUP1 DUP4 GT PUSH3 0x9FA JUMPI DUP3 SWAP1 SUB PUSH1 0x1F AND DUP3 ADD SWAP2 JUMPDEST POP POP POP POP POP SWAP1 DUP1 PUSH1 0x3 ADD SLOAD SWAP1 DUP1 PUSH1 0x4 ADD DUP1 SLOAD PUSH3 0xA35 SWAP1 PUSH3 0x24C7 JUMP JUMPDEST DUP1 PUSH1 0x1F ADD PUSH1 0x20 DUP1 SWAP2 DIV MUL PUSH1 0x20 ADD PUSH1 0x40 MLOAD SWAP1 DUP2 ADD PUSH1 0x40 MSTORE DUP1 SWAP3 SWAP2 SWAP1 DUP2 DUP2 MSTORE PUSH1 0x20 ADD DUP3 DUP1 SLOAD PUSH3 0xA63 SWAP1 PUSH3 0x24C7 JUMP JUMPDEST DUP1 ISZERO PUSH3 0xAB4 JUMPI DUP1 PUSH1 0x1F LT PUSH3 0xA88 JUMPI PUSH2 0x100 DUP1 DUP4 SLOAD DIV MUL DUP4 MSTORE SWAP2 PUSH1 0x20 ADD SWAP2 PUSH3 0xAB4 JUMP JUMPDEST DUP3 ADD SWAP2 SWAP1 PUSH1 0x0 MSTORE PUSH1 0x20 PUSH1 0x0 KECCAK256 SWAP1 JUMPDEST DUP2 SLOAD DUP2 MSTORE SWAP1 PUSH1 0x1 ADD SWAP1 PUSH1 0x20 ADD DUP1 DUP4 GT PUSH3 0xA96 JUMPI DUP3 SWAP1 SUB PUSH1 0x1F AND DUP3 ADD SWAP2 JUMPDEST POP POP POP POP POP SWAP1 DUP1 PUSH1 0x5 ADD SLOAD SWAP1 DUP1 PUSH1 0x6 ADD SLOAD SWAP1 POP DUP8 JUMP JUMPDEST PUSH1 0x0 SLOAD PUSH1 0x1 PUSH1 0x1 PUSH1 0xA0 SHL SUB AND SWAP1 JUMP JUMPDEST PUSH1 0x0 PUSH1 0x40 MLOAD PUSH1 0x20 ADD PUSH3 0xAEC SWAP1 PUSH3 0x1E76 JUMP JUMPDEST PUSH1 0x40 DUP1 MLOAD PUSH1 0x1F NOT DUP2 DUP5 SUB ADD DUP2 MSTORE DUP3 DUP3 MSTORE DUP1 MLOAD PUSH1 0x20 SWAP2 DUP3 ADD KECCAK256 PUSH1 0x0 DUP14 DUP2 MSTORE PUSH1 0x3 DUP4 MSTORE SWAP3 SWAP1 SWAP3 KECCAK256 SWAP2 SWAP3 PUSH3 0xB23 SWAP3 PUSH1 0x4 ADD SWAP2 ADD PUSH3 0x1DD1 JUMP JUMPDEST PUSH1 0x40 MLOAD PUSH1 0x20 DUP2 DUP4 SUB SUB DUP2 MSTORE SWAP1 PUSH1 0x40 MSTORE DUP1 MLOAD SWAP1 PUSH1 0x20 ADD KECCAK256 EQ PUSH3 0xB59 JUMPI PUSH1 0x40 MLOAD PUSH3 0x461BCD PUSH1 0xE5 SHL DUP2 MSTORE PUSH1 0x4 ADD PUSH3 0x46E SWAP1 PUSH3 0x23A3 JUMP JUMPDEST CALLER PUSH1 0x40 MLOAD PUSH1 0x20 ADD PUSH3 0xB6C SWAP2 SWAP1 PUSH3 0x1D96 JUMP JUMPDEST PUSH1 0x40 DUP1 MLOAD PUSH1 0x1F NOT DUP2 DUP5 SUB ADD DUP2 MSTORE DUP3 DUP3 MSTORE DUP1 MLOAD PUSH1 0x20 SWAP2 DUP3 ADD KECCAK256 PUSH1 0x0 DUP14 DUP2 MSTORE PUSH1 0x3 DUP4 MSTORE SWAP3 SWAP1 SWAP3 KECCAK256 SLOAD SWAP2 SWAP3 PUSH3 0xBAA SWAP3 PUSH1 0x1 PUSH1 0x1 PUSH1 0xA0 SHL SUB AND SWAP2 ADD PUSH3 0x1D96 JUMP JUMPDEST PUSH1 0x40 MLOAD PUSH1 0x20 DUP2 DUP4 SUB SUB DUP2 MSTORE SWAP1 PUSH1 0x40 MSTORE DUP1 MLOAD SWAP1 PUSH1 0x20 ADD KECCAK256 EQ PUSH3 0xBE0 JUMPI PUSH1 0x40 MLOAD PUSH3 0x461BCD PUSH1 0xE5 SHL DUP2 MSTORE PUSH1 0x4 ADD PUSH3 0x46E SWAP1 PUSH3 0x2333 JUMP JUMPDEST PUSH1 0x0 PUSH1 0x40 MLOAD DUP1 PUSH1 0xE0 ADD PUSH1 0x40 MSTORE DUP1 DUP11 DUP2 MSTORE PUSH1 0x20 ADD DUP10 DUP2 MSTORE PUSH1 0x20 ADD DUP9 DUP2 MSTORE PUSH1 0x20 ADD DUP8 DUP2 MSTORE PUSH1 0x20 ADD DUP7 DUP2 MSTORE PUSH1 0x20 ADD DUP6 DUP2 MSTORE PUSH1 0x20 ADD DUP5 DUP2 MSTORE POP SWAP1 POP PUSH1 0x0 DUP10 DUP10 DUP10 DUP10 DUP10 DUP10 DUP10 PUSH1 0x0 DUP1 SLOAD SWAP1 PUSH2 0x100 EXP SWAP1 DIV PUSH1 0x1 PUSH1 0x1 PUSH1 0xA0 SHL SUB AND ADDRESS CALLER PUSH1 0x40 MLOAD PUSH3 0xC44 SWAP1 PUSH3 0x181E JUMP JUMPDEST PUSH3 0xC59 SWAP11 SWAP10 SWAP9 SWAP8 SWAP7 SWAP6 SWAP5 SWAP4 SWAP3 SWAP2 SWAP1 PUSH3 0x2052 JUMP JUMPDEST PUSH1 0x40 MLOAD DUP1 SWAP2 SUB SWAP1 PUSH1 0x0 CREATE DUP1 ISZERO DUP1 ISZERO PUSH3 0xC76 JUMPI RETURNDATASIZE PUSH1 0x0 DUP1 RETURNDATACOPY RETURNDATASIZE PUSH1 0x0 REVERT JUMPDEST POP PUSH1 0x1 PUSH1 0x1 PUSH1 0xA0 SHL SUB DUP2 AND PUSH1 0x0 SWAP1 DUP2 MSTORE PUSH1 0x4 PUSH1 0x20 SWAP1 DUP2 MSTORE PUSH1 0x40 SWAP1 SWAP2 KECCAK256 DUP5 MLOAD DUP1 MLOAD SWAP4 SWAP5 POP DUP6 SWAP4 SWAP2 SWAP3 PUSH3 0xCAE SWAP3 DUP5 SWAP3 SWAP1 SWAP2 ADD SWAP1 PUSH3 0x178F JUMP JUMPDEST POP PUSH1 0x20 DUP3 DUP2 ADD MLOAD DUP1 MLOAD PUSH3 0xCC9 SWAP3 PUSH1 0x1 DUP6 ADD SWAP3 ADD SWAP1 PUSH3 0x178F JUMP JUMPDEST POP PUSH1 0x40 DUP3 ADD MLOAD PUSH1 0x2 DUP3 ADD SSTORE PUSH1 0x60 DUP3 ADD MLOAD DUP1 MLOAD PUSH3 0xCF1 SWAP2 PUSH1 0x3 DUP5 ADD SWAP2 PUSH1 0x20 SWAP1 SWAP2 ADD SWAP1 PUSH3 0x178F JUMP JUMPDEST POP PUSH1 0x80 DUP3 ADD MLOAD PUSH1 0x4 DUP3 ADD SSTORE PUSH1 0xA0 DUP3 ADD MLOAD DUP1 MLOAD PUSH3 0xD19 SWAP2 PUSH1 0x5 DUP5 ADD SWAP2 PUSH1 0x20 SWAP1 SWAP2 ADD SWAP1 PUSH3 0x178F JUMP JUMPDEST POP PUSH1 0xC0 SWAP2 SWAP1 SWAP2 ADD MLOAD PUSH1 0x6 SWAP1 SWAP2 ADD SSTORE SWAP11 SWAP10 POP POP POP POP POP POP POP POP POP POP JUMP JUMPDEST CALLER PUSH1 0x0 SWAP1 DUP2 MSTORE PUSH1 0x2 PUSH1 0x20 MSTORE PUSH1 0x40 DUP2 KECCAK256 DUP1 SLOAD PUSH1 0x60 SWAP3 SWAP2 SWAP1 PUSH3 0xD56 SWAP1 PUSH3 0x24C7 JUMP JUMPDEST SWAP1 POP GT PUSH3 0xD78 JUMPI PUSH1 0x40 MLOAD PUSH3 0x461BCD PUSH1 0xE5 SHL DUP2 MSTORE PUSH1 0x4 ADD PUSH3 0x46E SWAP1 PUSH3 0x22C7 JUMP JUMPDEST PUSH1 0x0 DUP3 DUP2 MSTORE PUSH1 0x3 PUSH1 0x20 DUP2 SWAP1 MSTORE PUSH1 0x40 SWAP1 SWAP2 KECCAK256 ADD SLOAD PUSH1 0x3C SWAP1 PUSH3 0xD9A SWAP1 TIMESTAMP PUSH3 0x247A JUMP JUMPDEST LT ISZERO DUP1 ISZERO PUSH3 0xE04 JUMPI POP PUSH1 0x40 MLOAD PUSH1 0x20 ADD PUSH3 0xDB5 SWAP1 PUSH3 0x1E8A JUMP JUMPDEST PUSH1 0x40 DUP1 MLOAD PUSH1 0x1F NOT DUP2 DUP5 SUB ADD DUP2 MSTORE DUP3 DUP3 MSTORE DUP1 MLOAD PUSH1 0x20 SWAP2 DUP3 ADD KECCAK256 PUSH1 0x0 DUP7 DUP2 MSTORE PUSH1 0x3 DUP4 MSTORE SWAP3 SWAP1 SWAP3 KECCAK256 SWAP2 SWAP3 PUSH3 0xDEC SWAP3 PUSH1 0x4 ADD SWAP2 ADD PUSH3 0x1DD1 JUMP JUMPDEST PUSH1 0x40 MLOAD PUSH1 0x20 DUP2 DUP4 SUB SUB DUP2 MSTORE SWAP1 PUSH1 0x40 MSTORE DUP1 MLOAD SWAP1 PUSH1 0x20 ADD KECCAK256 EQ JUMPDEST ISZERO PUSH3 0xEB9 JUMPI PUSH1 0x0 DUP3 DUP2 MSTORE PUSH1 0x3 PUSH1 0x20 MSTORE PUSH1 0x40 SWAP1 KECCAK256 PUSH1 0x6 DUP2 ADD SLOAD PUSH1 0x5 SWAP1 SWAP2 ADD SLOAD GT ISZERO PUSH3 0xE74 JUMPI PUSH1 0x40 DUP1 MLOAD DUP1 DUP3 ADD DUP3 MSTORE PUSH1 0x8 DUP2 MSTORE PUSH8 0x1858D8D95C1D1959 PUSH1 0xC2 SHL PUSH1 0x20 DUP1 DUP4 ADD SWAP2 DUP3 MSTORE PUSH1 0x0 DUP7 DUP2 MSTORE PUSH1 0x3 SWAP1 SWAP2 MSTORE SWAP3 SWAP1 SWAP3 KECCAK256 SWAP1 MLOAD PUSH3 0xE6D SWAP3 PUSH1 0x4 SWAP1 SWAP3 ADD SWAP2 SWAP1 PUSH3 0x178F JUMP JUMPDEST POP PUSH3 0xEB9 JUMP JUMPDEST PUSH1 0x40 DUP1 MLOAD DUP1 DUP3 ADD DUP3 MSTORE PUSH1 0x8 DUP2 MSTORE PUSH8 0x1C995A9958DD1959 PUSH1 0xC2 SHL PUSH1 0x20 DUP1 DUP4 ADD SWAP2 DUP3 MSTORE PUSH1 0x0 DUP7 DUP2 MSTORE PUSH1 0x3 SWAP1 SWAP2 MSTORE SWAP3 SWAP1 SWAP3 KECCAK256 SWAP1 MLOAD PUSH3 0xEB7 SWAP3 PUSH1 0x4 SWAP1 SWAP3 ADD SWAP2 SWAP1 PUSH3 0x178F JUMP JUMPDEST POP JUMPDEST PUSH1 0x0 DUP3 DUP2 MSTORE PUSH1 0x3 PUSH1 0x20 MSTORE PUSH1 0x40 SWAP1 KECCAK256 PUSH1 0x4 ADD DUP1 SLOAD PUSH3 0xED7 SWAP1 PUSH3 0x24C7 JUMP JUMPDEST DUP1 PUSH1 0x1F ADD PUSH1 0x20 DUP1 SWAP2 DIV MUL PUSH1 0x20 ADD PUSH1 0x40 MLOAD SWAP1 DUP2 ADD PUSH1 0x40 MSTORE DUP1 SWAP3 SWAP2 SWAP1 DUP2 DUP2 MSTORE PUSH1 0x20 ADD DUP3 DUP1 SLOAD PUSH3 0xF05 SWAP1 PUSH3 0x24C7 JUMP JUMPDEST DUP1 ISZERO PUSH3 0xF56 JUMPI DUP1 PUSH1 0x1F LT PUSH3 0xF2A JUMPI PUSH2 0x100 DUP1 DUP4 SLOAD DIV MUL DUP4 MSTORE SWAP2 PUSH1 0x20 ADD SWAP2 PUSH3 0xF56 JUMP JUMPDEST DUP3 ADD SWAP2 SWAP1 PUSH1 0x0 MSTORE PUSH1 0x20 PUSH1 0x0 KECCAK256 SWAP1 JUMPDEST DUP2 SLOAD DUP2 MSTORE SWAP1 PUSH1 0x1 ADD SWAP1 PUSH1 0x20 ADD DUP1 DUP4 GT PUSH3 0xF38 JUMPI DUP3 SWAP1 SUB PUSH1 0x1F AND DUP3 ADD SWAP2 JUMPDEST POP POP POP POP POP SWAP1 POP JUMPDEST SWAP2 SWAP1 POP JUMP JUMPDEST CALLER PUSH1 0x0 SWAP1 DUP2 MSTORE PUSH1 0x2 PUSH1 0x20 MSTORE PUSH1 0x40 SWAP1 KECCAK256 DUP1 SLOAD PUSH3 0xF7F SWAP1 PUSH3 0x24C7 JUMP JUMPDEST ISZERO SWAP1 POP PUSH3 0xFA1 JUMPI PUSH1 0x40 MLOAD PUSH3 0x461BCD PUSH1 0xE5 SHL DUP2 MSTORE PUSH1 0x4 ADD PUSH3 0x46E SWAP1 PUSH3 0x23F1 JUMP JUMPDEST PUSH1 0x0 DUP5 MLOAD GT PUSH3 0xFC5 JUMPI PUSH1 0x40 MLOAD PUSH3 0x461BCD PUSH1 0xE5 SHL DUP2 MSTORE PUSH1 0x4 ADD PUSH3 0x46E SWAP1 PUSH3 0x22FC JUMP JUMPDEST PUSH1 0x0 DUP4 MLOAD GT PUSH3 0xFE9 JUMPI PUSH1 0x40 MLOAD PUSH3 0x461BCD PUSH1 0xE5 SHL DUP2 MSTORE PUSH1 0x4 ADD PUSH3 0x46E SWAP1 PUSH3 0x2374 JUMP JUMPDEST PUSH1 0x0 DUP3 MLOAD GT PUSH3 0x100D JUMPI PUSH1 0x40 MLOAD PUSH3 0x461BCD PUSH1 0xE5 SHL DUP2 MSTORE PUSH1 0x4 ADD PUSH3 0x46E SWAP1 PUSH3 0x2374 JUMP JUMPDEST DUP1 ISZERO DUP1 PUSH3 0x101D JUMPI POP PUSH1 0x1 DUP2 ISZERO ISZERO EQ JUMPDEST PUSH3 0x103C JUMPI PUSH1 0x40 MLOAD PUSH3 0x461BCD PUSH1 0xE5 SHL DUP2 MSTORE PUSH1 0x4 ADD PUSH3 0x46E SWAP1 PUSH3 0x21BC JUMP JUMPDEST PUSH1 0x40 DUP1 MLOAD PUSH2 0x100 DUP2 ADD DUP3 MSTORE DUP6 DUP2 MSTORE PUSH1 0x20 DUP1 DUP3 ADD DUP7 SWAP1 MSTORE DUP2 DUP4 ADD DUP6 SWAP1 MSTORE DUP4 ISZERO ISZERO PUSH1 0x60 DUP4 DUP2 ADD SWAP2 SWAP1 SWAP2 MSTORE PUSH1 0x80 DUP4 ADD DUP2 SWAP1 MSTORE PUSH1 0xA0 DUP4 ADD DUP2 SWAP1 MSTORE PUSH1 0xC0 DUP4 ADD DUP2 SWAP1 MSTORE PUSH1 0xE0 DUP4 ADD DUP2 SWAP1 MSTORE CALLER PUSH1 0x0 SWAP1 DUP2 MSTORE PUSH1 0x2 DUP4 MSTORE SWAP4 SWAP1 SWAP4 KECCAK256 DUP3 MLOAD DUP1 MLOAD DUP6 SWAP5 DUP6 SWAP5 DUP6 SWAP5 SWAP2 SWAP4 DUP5 SWAP4 PUSH3 0x10AB SWAP3 DUP5 SWAP3 ADD SWAP1 PUSH3 0x178F JUMP JUMPDEST POP PUSH1 0x20 DUP3 DUP2 ADD MLOAD DUP1 MLOAD PUSH3 0x10C6 SWAP3 PUSH1 0x1 DUP6 ADD SWAP3 ADD SWAP1 PUSH3 0x178F JUMP JUMPDEST POP PUSH1 0x40 DUP3 ADD MLOAD DUP1 MLOAD PUSH3 0x10E4 SWAP2 PUSH1 0x2 DUP5 ADD SWAP2 PUSH1 0x20 SWAP1 SWAP2 ADD SWAP1 PUSH3 0x178F JUMP JUMPDEST POP PUSH1 0x60 DUP3 ADD MLOAD PUSH1 0x3 DUP3 ADD DUP1 SLOAD PUSH1 0xFF NOT AND SWAP2 ISZERO ISZERO SWAP2 SWAP1 SWAP2 OR SWAP1 SSTORE PUSH1 0x80 DUP3 ADD MLOAD DUP1 MLOAD PUSH3 0x111A SWAP2 PUSH1 0x4 DUP5 ADD SWAP2 PUSH1 0x20 SWAP1 SWAP2 ADD SWAP1 PUSH3 0x182C JUMP JUMPDEST POP PUSH1 0xA0 DUP3 ADD MLOAD DUP1 MLOAD PUSH3 0x1138 SWAP2 PUSH1 0x5 DUP5 ADD SWAP2 PUSH1 0x20 SWAP1 SWAP2 ADD SWAP1 PUSH3 0x188C JUMP JUMPDEST POP PUSH1 0xC0 DUP3 ADD MLOAD DUP1 MLOAD PUSH3 0x1156 SWAP2 PUSH1 0x6 DUP5 ADD SWAP2 PUSH1 0x20 SWAP1 SWAP2 ADD SWAP1 PUSH3 0x188C JUMP JUMPDEST POP PUSH1 0xE0 DUP3 ADD MLOAD DUP1 MLOAD PUSH3 0x1174 SWAP2 PUSH1 0x7 DUP5 ADD SWAP2 PUSH1 0x20 SWAP1 SWAP2 ADD SWAP1 PUSH3 0x188C JUMP JUMPDEST POP POP POP POP POP POP POP POP POP POP POP POP JUMP JUMPDEST CALLER PUSH1 0x0 SWAP1 DUP2 MSTORE PUSH1 0x2 PUSH1 0x20 MSTORE PUSH1 0x40 DUP2 KECCAK256 DUP1 SLOAD DUP3 SWAP2 SWAP1 PUSH3 0x11A1 SWAP1 PUSH3 0x24C7 JUMP JUMPDEST SWAP1 POP GT PUSH3 0x11C3 JUMPI PUSH1 0x40 MLOAD PUSH3 0x461BCD PUSH1 0xE5 SHL DUP2 MSTORE PUSH1 0x4 ADD PUSH3 0x46E SWAP1 PUSH3 0x21F3 JUMP JUMPDEST PUSH1 0x40 DUP1 MLOAD PUSH1 0xE0 DUP2 ADD DUP3 MSTORE CALLER DUP2 MSTORE PUSH1 0x20 DUP1 DUP3 ADD DUP7 SWAP1 MSTORE DUP2 DUP4 ADD DUP6 SWAP1 MSTORE TIMESTAMP PUSH1 0x60 DUP4 ADD MSTORE DUP3 MLOAD DUP1 DUP5 ADD SWAP1 SWAP4 MSTORE PUSH1 0xB DUP4 MSTORE PUSH11 0x696E2070726F6772657373 PUSH1 0xA8 SHL SWAP1 DUP4 ADD MSTORE PUSH1 0x80 DUP2 ADD SWAP2 SWAP1 SWAP2 MSTORE PUSH1 0x0 PUSH1 0xA0 DUP3 ADD DUP2 SWAP1 MSTORE PUSH1 0xC0 DUP3 ADD DUP2 SWAP1 MSTORE PUSH1 0x5 DUP1 SLOAD SWAP2 PUSH1 0x1 SWAP2 SWAP1 PUSH3 0x1230 DUP4 DUP6 PUSH3 0x243D JUMP JUMPDEST SWAP1 SWAP2 SSTORE POP POP PUSH1 0x0 DUP2 DUP2 MSTORE PUSH1 0x3 PUSH1 0x20 SWAP1 DUP2 MSTORE PUSH1 0x40 SWAP1 SWAP2 KECCAK256 DUP4 MLOAD DUP2 SLOAD PUSH1 0x1 PUSH1 0x1 PUSH1 0xA0 SHL SUB NOT AND PUSH1 0x1 PUSH1 0x1 PUSH1 0xA0 SHL SUB SWAP1 SWAP2 AND OR DUP2 SSTORE DUP4 DUP3 ADD MLOAD DUP1 MLOAD DUP6 SWAP4 PUSH3 0x127D SWAP3 PUSH1 0x1 DUP6 ADD SWAP3 SWAP2 ADD SWAP1 PUSH3 0x178F JUMP JUMPDEST POP PUSH1 0x40 DUP3 ADD MLOAD DUP1 MLOAD PUSH3 0x129B SWAP2 PUSH1 0x2 DUP5 ADD SWAP2 PUSH1 0x20 SWAP1 SWAP2 ADD SWAP1 PUSH3 0x178F JUMP JUMPDEST POP PUSH1 0x60 DUP3 ADD MLOAD PUSH1 0x3 DUP3 ADD SSTORE PUSH1 0x80 DUP3 ADD MLOAD DUP1 MLOAD PUSH3 0x12C3 SWAP2 PUSH1 0x4 DUP5 ADD SWAP2 PUSH1 0x20 SWAP1 SWAP2 ADD SWAP1 PUSH3 0x178F JUMP JUMPDEST POP PUSH1 0xA0 DUP3 ADD MLOAD DUP2 PUSH1 0x5 ADD SSTORE PUSH1 0xC0 DUP3 ADD MLOAD DUP2 PUSH1 0x6 ADD SSTORE SWAP1 POP POP PUSH32 0x4DB365C2520FE2602893F913ACB1A43ED0358DE14C9F9973AF39DB8F5898EBBF CALLER DUP7 PUSH1 0x40 MLOAD PUSH3 0x130E SWAP3 SWAP2 SWAP1 PUSH3 0x1EB5 JUMP JUMPDEST PUSH1 0x40 MLOAD DUP1 SWAP2 SUB SWAP1 LOG1 SWAP5 SWAP4 POP POP POP POP JUMP JUMPDEST PUSH1 0x4 PUSH1 0x20 MSTORE PUSH1 0x0 SWAP1 DUP2 MSTORE PUSH1 0x40 SWAP1 KECCAK256 DUP1 SLOAD DUP2 SWAP1 PUSH3 0x133B SWAP1 PUSH3 0x24C7 JUMP JUMPDEST DUP1 PUSH1 0x1F ADD PUSH1 0x20 DUP1 SWAP2 DIV MUL PUSH1 0x20 ADD PUSH1 0x40 MLOAD SWAP1 DUP2 ADD PUSH1 0x40 MSTORE DUP1 SWAP3 SWAP2 SWAP1 DUP2 DUP2 MSTORE PUSH1 0x20 ADD DUP3 DUP1 SLOAD PUSH3 0x1369 SWAP1 PUSH3 0x24C7 JUMP JUMPDEST DUP1 ISZERO PUSH3 0x13BA JUMPI DUP1 PUSH1 0x1F LT PUSH3 0x138E JUMPI PUSH2 0x100 DUP1 DUP4 SLOAD DIV MUL DUP4 MSTORE SWAP2 PUSH1 0x20 ADD SWAP2 PUSH3 0x13BA JUMP JUMPDEST DUP3 ADD SWAP2 SWAP1 PUSH1 0x0 MSTORE PUSH1 0x20 PUSH1 0x0 KECCAK256 SWAP1 JUMPDEST DUP2 SLOAD DUP2 MSTORE SWAP1 PUSH1 0x1 ADD SWAP1 PUSH1 0x20 ADD DUP1 DUP4 GT PUSH3 0x139C JUMPI DUP3 SWAP1 SUB PUSH1 0x1F AND DUP3 ADD SWAP2 JUMPDEST POP POP POP POP POP SWAP1 DUP1 PUSH1 0x1 ADD DUP1 SLOAD PUSH3 0x13D1 SWAP1 PUSH3 0x24C7 JUMP JUMPDEST DUP1 PUSH1 0x1F ADD PUSH1 0x20 DUP1 SWAP2 DIV MUL PUSH1 0x20 ADD PUSH1 0x40 MLOAD SWAP1 DUP2 ADD PUSH1 0x40 MSTORE DUP1 SWAP3 SWAP2 SWAP1 DUP2 DUP2 MSTORE PUSH1 0x20 ADD DUP3 DUP1 SLOAD PUSH3 0x13FF SWAP1 PUSH3 0x24C7 JUMP JUMPDEST DUP1 ISZERO PUSH3 0x1450 JUMPI DUP1 PUSH1 0x1F LT PUSH3 0x1424 JUMPI PUSH2 0x100 DUP1 DUP4 SLOAD DIV MUL DUP4 MSTORE SWAP2 PUSH1 0x20 ADD SWAP2 PUSH3 0x1450 JUMP JUMPDEST DUP3 ADD SWAP2 SWAP1 PUSH1 0x0 MSTORE PUSH1 0x20 PUSH1 0x0 KECCAK256 SWAP1 JUMPDEST DUP2 SLOAD DUP2 MSTORE SWAP1 PUSH1 0x1 ADD SWAP1 PUSH1 0x20 ADD DUP1 DUP4 GT PUSH3 0x1432 JUMPI DUP3 SWAP1 SUB PUSH1 0x1F AND DUP3 ADD SWAP2 JUMPDEST POP POP POP POP POP SWAP1 DUP1 PUSH1 0x2 ADD SLOAD SWAP1 DUP1 PUSH1 0x3 ADD DUP1 SLOAD PUSH3 0x146D SWAP1 PUSH3 0x24C7 JUMP JUMPDEST DUP1 PUSH1 0x1F ADD PUSH1 0x20 DUP1 SWAP2 DIV MUL PUSH1 0x20 ADD PUSH1 0x40 MLOAD SWAP1 DUP2 ADD PUSH1 0x40 MSTORE DUP1 SWAP3 SWAP2 SWAP1 DUP2 DUP2 MSTORE PUSH1 0x20 ADD DUP3 DUP1 SLOAD PUSH3 0x149B SWAP1 PUSH3 0x24C7 JUMP JUMPDEST DUP1 ISZERO PUSH3 0x14EC JUMPI DUP1 PUSH1 0x1F LT PUSH3 0x14C0 JUMPI PUSH2 0x100 DUP1 DUP4 SLOAD DIV MUL DUP4 MSTORE SWAP2 PUSH1 0x20 ADD SWAP2 PUSH3 0x14EC JUMP JUMPDEST DUP3 ADD SWAP2 SWAP1 PUSH1 0x0 MSTORE PUSH1 0x20 PUSH1 0x0 KECCAK256 SWAP1 JUMPDEST DUP2 SLOAD DUP2 MSTORE SWAP1 PUSH1 0x1 ADD SWAP1 PUSH1 0x20 ADD DUP1 DUP4 GT PUSH3 0x14CE JUMPI DUP3 SWAP1 SUB PUSH1 0x1F AND DUP3 ADD SWAP2 JUMPDEST POP POP POP POP POP SWAP1 DUP1 PUSH1 0x4 ADD SLOAD SWAP1 DUP1 PUSH1 0x5 ADD DUP1 SLOAD PUSH3 0x1509 SWAP1 PUSH3 0x24C7 JUMP JUMPDEST DUP1 PUSH1 0x1F ADD PUSH1 0x20 DUP1 SWAP2 DIV MUL PUSH1 0x20 ADD PUSH1 0x40 MLOAD SWAP1 DUP2 ADD PUSH1 0x40 MSTORE DUP1 SWAP3 SWAP2 SWAP1 DUP2 DUP2 MSTORE PUSH1 0x20 ADD DUP3 DUP1 SLOAD PUSH3 0x1537 SWAP1 PUSH3 0x24C7 JUMP JUMPDEST DUP1 ISZERO PUSH3 0x1588 JUMPI DUP1 PUSH1 0x1F LT PUSH3 0x155C JUMPI PUSH2 0x100 DUP1 DUP4 SLOAD DIV MUL DUP4 MSTORE SWAP2 PUSH1 0x20 ADD SWAP2 PUSH3 0x1588 JUMP JUMPDEST DUP3 ADD SWAP2 SWAP1 PUSH1 0x0 MSTORE PUSH1 0x20 PUSH1 0x0 KECCAK256 SWAP1 JUMPDEST DUP2 SLOAD DUP2 MSTORE SWAP1 PUSH1 0x1 ADD SWAP1 PUSH1 0x20 ADD DUP1 DUP4 GT PUSH3 0x156A JUMPI DUP3 SWAP1 SUB PUSH1 0x1F AND DUP3 ADD SWAP2 JUMPDEST POP POP POP POP POP SWAP1 DUP1 PUSH1 0x6 ADD SLOAD SWAP1 POP DUP8 JUMP JUMPDEST PUSH1 0x2 PUSH1 0x20 MSTORE PUSH1 0x0 SWAP1 DUP2 MSTORE PUSH1 0x40 SWAP1 KECCAK256 DUP1 SLOAD DUP2 SWAP1 PUSH3 0x15B5 SWAP1 PUSH3 0x24C7 JUMP JUMPDEST DUP1 PUSH1 0x1F ADD PUSH1 0x20 DUP1 SWAP2 DIV MUL PUSH1 0x20 ADD PUSH1 0x40 MLOAD SWAP1 DUP2 ADD PUSH1 0x40 MSTORE DUP1 SWAP3 SWAP2 SWAP1 DUP2 DUP2 MSTORE PUSH1 0x20 ADD DUP3 DUP1 SLOAD PUSH3 0x15E3 SWAP1 PUSH3 0x24C7 JUMP JUMPDEST DUP1 ISZERO PUSH3 0x1634 JUMPI DUP1 PUSH1 0x1F LT PUSH3 0x1608 JUMPI PUSH2 0x100 DUP1 DUP4 SLOAD DIV MUL DUP4 MSTORE SWAP2 PUSH1 0x20 ADD SWAP2 PUSH3 0x1634 JUMP JUMPDEST DUP3 ADD SWAP2 SWAP1 PUSH1 0x0 MSTORE PUSH1 0x20 PUSH1 0x0 KECCAK256 SWAP1 JUMPDEST DUP2 SLOAD DUP2 MSTORE SWAP1 PUSH1 0x1 ADD SWAP1 PUSH1 0x20 ADD DUP1 DUP4 GT PUSH3 0x1616 JUMPI DUP3 SWAP1 SUB PUSH1 0x1F AND DUP3 ADD SWAP2 JUMPDEST POP POP POP POP POP SWAP1 DUP1 PUSH1 0x1 ADD DUP1 SLOAD PUSH3 0x164B SWAP1 PUSH3 0x24C7 JUMP JUMPDEST DUP1 PUSH1 0x1F ADD PUSH1 0x20 DUP1 SWAP2 DIV MUL PUSH1 0x20 ADD PUSH1 0x40 MLOAD SWAP1 DUP2 ADD PUSH1 0x40 MSTORE DUP1 SWAP3 SWAP2 SWAP1 DUP2 DUP2 MSTORE PUSH1 0x20 ADD DUP3 DUP1 SLOAD PUSH3 0x1679 SWAP1 PUSH3 0x24C7 JUMP JUMPDEST DUP1 ISZERO PUSH3 0x16CA JUMPI DUP1 PUSH1 0x1F LT PUSH3 0x169E JUMPI PUSH2 0x100 DUP1 DUP4 SLOAD DIV MUL DUP4 MSTORE SWAP2 PUSH1 0x20 ADD SWAP2 PUSH3 0x16CA JUMP JUMPDEST DUP3 ADD SWAP2 SWAP1 PUSH1 0x0 MSTORE PUSH1 0x20 PUSH1 0x0 KECCAK256 SWAP1 JUMPDEST DUP2 SLOAD DUP2 MSTORE SWAP1 PUSH1 0x1 ADD SWAP1 PUSH1 0x20 ADD DUP1 DUP4 GT PUSH3 0x16AC JUMPI DUP3 SWAP1 SUB PUSH1 0x1F AND DUP3 ADD SWAP2 JUMPDEST POP POP POP POP POP SWAP1 DUP1 PUSH1 0x2 ADD DUP1 SLOAD PUSH3 0x16E1 SWAP1 PUSH3 0x24C7 JUMP JUMPDEST DUP1 PUSH1 0x1F ADD PUSH1 0x20 DUP1 SWAP2 DIV MUL PUSH1 0x20 ADD PUSH1 0x40 MLOAD SWAP1 DUP2 ADD PUSH1 0x40 MSTORE DUP1 SWAP3 SWAP2 SWAP1 DUP2 DUP2 MSTORE PUSH1 0x20 ADD DUP3 DUP1 SLOAD PUSH3 0x170F SWAP1 PUSH3 0x24C7 JUMP JUMPDEST DUP1 ISZERO PUSH3 0x1760 JUMPI DUP1 PUSH1 0x1F LT PUSH3 0x1734 JUMPI PUSH2 0x100 DUP1 DUP4 SLOAD DIV MUL DUP4 MSTORE SWAP2 PUSH1 0x20 ADD SWAP2 PUSH3 0x1760 JUMP JUMPDEST DUP3 ADD SWAP2 SWAP1 PUSH1 0x0 MSTORE PUSH1 0x20 PUSH1 0x0 KECCAK256 SWAP1 JUMPDEST DUP2 SLOAD DUP2 MSTORE SWAP1 PUSH1 0x1 ADD SWAP1 PUSH1 0x20 ADD DUP1 DUP4 GT PUSH3 0x1742 JUMPI DUP3 SWAP1 SUB PUSH1 0x1F AND DUP3 ADD SWAP2 JUMPDEST POP POP POP PUSH1 0x3 SWAP1 SWAP4 ADD SLOAD SWAP2 SWAP3 POP POP PUSH1 0xFF AND DUP5 JUMP JUMPDEST PUSH1 0x0 PUSH3 0x1789 DUP3 PUSH8 0xDE0B6B3A7640000 PUSH3 0x2458 JUMP JUMPDEST SWAP3 SWAP2 POP POP JUMP JUMPDEST DUP3 DUP1 SLOAD PUSH3 0x179D SWAP1 PUSH3 0x24C7 JUMP JUMPDEST SWAP1 PUSH1 0x0 MSTORE PUSH1 0x20 PUSH1 0x0 KECCAK256 SWAP1 PUSH1 0x1F ADD PUSH1 0x20 SWAP1 DIV DUP2 ADD SWAP3 DUP3 PUSH3 0x17C1 JUMPI PUSH1 0x0 DUP6 SSTORE PUSH3 0x180C JUMP JUMPDEST DUP3 PUSH1 0x1F LT PUSH3 0x17DC JUMPI DUP1 MLOAD PUSH1 0xFF NOT AND DUP4 DUP1 ADD OR DUP6 SSTORE PUSH3 0x180C JUMP JUMPDEST DUP3 DUP1 ADD PUSH1 0x1 ADD DUP6 SSTORE DUP3 ISZERO PUSH3 0x180C JUMPI SWAP2 DUP3 ADD JUMPDEST DUP3 DUP2 GT ISZERO PUSH3 0x180C JUMPI DUP3 MLOAD DUP3 SSTORE SWAP2 PUSH1 0x20 ADD SWAP2 SWAP1 PUSH1 0x1 ADD SWAP1 PUSH3 0x17EF JUMP JUMPDEST POP PUSH3 0x181A SWAP3 SWAP2 POP PUSH3 0x18C9 JUMP JUMPDEST POP SWAP1 JUMP JUMPDEST PUSH2 0x2FCB DUP1 PUSH3 0x2540 DUP4 CODECOPY ADD SWAP1 JUMP JUMPDEST DUP3 DUP1 SLOAD DUP3 DUP3 SSTORE SWAP1 PUSH1 0x0 MSTORE PUSH1 0x20 PUSH1 0x0 KECCAK256 SWAP1 DUP2 ADD SWAP3 DUP3 ISZERO PUSH3 0x187E JUMPI SWAP2 PUSH1 0x20 MUL DUP3 ADD JUMPDEST DUP3 DUP2 GT ISZERO PUSH3 0x187E JUMPI DUP3 MLOAD DUP1 MLOAD PUSH3 0x186D SWAP2 DUP5 SWAP2 PUSH1 0x20 SWAP1 SWAP2 ADD SWAP1 PUSH3 0x178F JUMP JUMPDEST POP SWAP2 PUSH1 0x20 ADD SWAP2 SWAP1 PUSH1 0x1 ADD SWAP1 PUSH3 0x184D JUMP JUMPDEST POP PUSH3 0x181A SWAP3 SWAP2 POP PUSH3 0x18E0 JUMP JUMPDEST DUP3 DUP1 SLOAD DUP3 DUP3 SSTORE SWAP1 PUSH1 0x0 MSTORE PUSH1 0x20 PUSH1 0x0 KECCAK256 SWAP1 DUP2 ADD SWAP3 DUP3 ISZERO PUSH3 0x180C JUMPI SWAP2 PUSH1 0x20 MUL DUP3 ADD DUP3 DUP2 GT ISZERO PUSH3 0x180C JUMPI DUP3 MLOAD DUP3 SSTORE SWAP2 PUSH1 0x20 ADD SWAP2 SWAP1 PUSH1 0x1 ADD SWAP1 PUSH3 0x17EF JUMP JUMPDEST JUMPDEST DUP1 DUP3 GT ISZERO PUSH3 0x181A JUMPI PUSH1 0x0 DUP2 SSTORE PUSH1 0x1 ADD PUSH3 0x18CA JUMP JUMPDEST DUP1 DUP3 GT ISZERO PUSH3 0x181A JUMPI PUSH1 0x0 PUSH3 0x18F7 DUP3 DUP3 PUSH3 0x1901 JUMP JUMPDEST POP PUSH1 0x1 ADD PUSH3 0x18E0 JUMP JUMPDEST POP DUP1 SLOAD PUSH3 0x190F SWAP1 PUSH3 0x24C7 JUMP JUMPDEST PUSH1 0x0 DUP3 SSTORE DUP1 PUSH1 0x1F LT PUSH3 0x1923 JUMPI POP PUSH3 0x1943 JUMP JUMPDEST PUSH1 0x1F ADD PUSH1 0x20 SWAP1 DIV SWAP1 PUSH1 0x0 MSTORE PUSH1 0x20 PUSH1 0x0 KECCAK256 SWAP1 DUP2 ADD SWAP1 PUSH3 0x1943 SWAP2 SWAP1 PUSH3 0x18C9 JUMP JUMPDEST POP JUMP JUMPDEST DUP1 CALLDATALOAD PUSH1 0x1 PUSH1 0x1 PUSH1 0xA0 SHL SUB DUP2 AND DUP2 EQ PUSH3 0xF5E JUMPI PUSH1 0x0 DUP1 REVERT JUMPDEST PUSH1 0x0 DUP3 PUSH1 0x1F DUP4 ADD SLT PUSH3 0x196F JUMPI DUP1 DUP2 REVERT JUMPDEST DUP2 CALLDATALOAD PUSH8 0xFFFFFFFFFFFFFFFF DUP1 DUP3 GT ISZERO PUSH3 0x198D JUMPI PUSH3 0x198D PUSH3 0x251A JUMP JUMPDEST PUSH1 0x40 MLOAD PUSH1 0x1F DUP4 ADD PUSH1 0x1F NOT AND DUP2 ADD PUSH1 0x20 ADD DUP3 DUP2 GT DUP3 DUP3 LT OR ISZERO PUSH3 0x19B4 JUMPI PUSH3 0x19B4 PUSH3 0x251A JUMP JUMPDEST PUSH1 0x40 MSTORE DUP3 DUP2 MSTORE DUP5 DUP4 ADD PUSH1 0x20 ADD DUP7 LT ISZERO PUSH3 0x19CC JUMPI DUP4 DUP5 REVERT JUMPDEST DUP3 PUSH1 0x20 DUP7 ADD PUSH1 0x20 DUP4 ADD CALLDATACOPY SWAP2 DUP3 ADD PUSH1 0x20 ADD SWAP3 SWAP1 SWAP3 MSTORE SWAP4 SWAP3 POP POP POP JUMP JUMPDEST PUSH1 0x0 PUSH1 0x20 DUP3 DUP5 SUB SLT ISZERO PUSH3 0x19F9 JUMPI DUP1 DUP2 REVERT JUMPDEST PUSH3 0x1A04 DUP3 PUSH3 0x1946 JUMP JUMPDEST SWAP4 SWAP3 POP POP POP JUMP JUMPDEST PUSH1 0x0 DUP1 PUSH1 0x40 DUP4 DUP6 SUB SLT ISZERO PUSH3 0x1A1E JUMPI DUP1 DUP2 REVERT JUMPDEST PUSH3 0x1A29 DUP4 PUSH3 0x1946 JUMP JUMPDEST SWAP2 POP PUSH1 0x20 DUP4 ADD CALLDATALOAD PUSH8 0xFFFFFFFFFFFFFFFF DUP2 GT ISZERO PUSH3 0x1A45 JUMPI DUP2 DUP3 REVERT JUMPDEST PUSH3 0x1A53 DUP6 DUP3 DUP7 ADD PUSH3 0x195E JUMP JUMPDEST SWAP2 POP POP SWAP3 POP SWAP3 SWAP1 POP JUMP JUMPDEST PUSH1 0x0 PUSH1 0x20 DUP3 DUP5 SUB SLT ISZERO PUSH3 0x1A6F JUMPI DUP1 DUP2 REVERT JUMPDEST DUP2 MLOAD PUSH3 0x1A04 DUP2 PUSH3 0x2530 JUMP JUMPDEST PUSH1 0x0 DUP1 PUSH1 0x40 DUP4 DUP6 SUB SLT ISZERO PUSH3 0x1A8F JUMPI DUP2 DUP3 REVERT JUMPDEST DUP3 CALLDATALOAD PUSH8 0xFFFFFFFFFFFFFFFF DUP1 DUP3 GT ISZERO PUSH3 0x1AA7 JUMPI DUP4 DUP5 REVERT JUMPDEST PUSH3 0x1AB5 DUP7 DUP4 DUP8 ADD PUSH3 0x195E JUMP JUMPDEST SWAP4 POP PUSH1 0x20 DUP6 ADD CALLDATALOAD SWAP2 POP DUP1 DUP3 GT ISZERO PUSH3 0x1ACB JUMPI DUP3 DUP4 REVERT JUMPDEST POP PUSH3 0x1A53 DUP6 DUP3 DUP7 ADD PUSH3 0x195E JUMP JUMPDEST PUSH1 0x0 DUP1 PUSH1 0x0 PUSH1 0x60 DUP5 DUP7 SUB SLT ISZERO PUSH3 0x1AEF JUMPI DUP1 DUP2 REVERT JUMPDEST DUP4 CALLDATALOAD PUSH8 0xFFFFFFFFFFFFFFFF DUP1 DUP3 GT ISZERO PUSH3 0x1B07 JUMPI DUP3 DUP4 REVERT JUMPDEST PUSH3 0x1B15 DUP8 DUP4 DUP9 ADD PUSH3 0x195E JUMP JUMPDEST SWAP5 POP PUSH1 0x20 DUP7 ADD CALLDATALOAD SWAP2 POP DUP1 DUP3 GT ISZERO PUSH3 0x1B2B JUMPI DUP3 DUP4 REVERT JUMPDEST POP PUSH3 0x1B3A DUP7 DUP3 DUP8 ADD PUSH3 0x195E JUMP JUMPDEST SWAP3 POP POP PUSH1 0x40 DUP5 ADD CALLDATALOAD PUSH3 0x1B4D DUP2 PUSH3 0x2530 JUMP JUMPDEST DUP1 SWAP2 POP POP SWAP3 POP SWAP3 POP SWAP3 JUMP JUMPDEST PUSH1 0x0 DUP1 PUSH1 0x0 DUP1 PUSH1 0x80 DUP6 DUP8 SUB SLT ISZERO PUSH3 0x1B6E JUMPI DUP1 DUP2 REVERT JUMPDEST DUP5 CALLDATALOAD PUSH8 0xFFFFFFFFFFFFFFFF DUP1 DUP3 GT ISZERO PUSH3 0x1B86 JUMPI DUP3 DUP4 REVERT JUMPDEST PUSH3 0x1B94 DUP9 DUP4 DUP10 ADD PUSH3 0x195E JUMP JUMPDEST SWAP6 POP PUSH1 0x20 DUP8 ADD CALLDATALOAD SWAP2 POP DUP1 DUP3 GT ISZERO PUSH3 0x1BAA JUMPI DUP3 DUP4 REVERT JUMPDEST PUSH3 0x1BB8 DUP9 DUP4 DUP10 ADD PUSH3 0x195E JUMP JUMPDEST SWAP5 POP PUSH1 0x40 DUP8 ADD CALLDATALOAD SWAP2 POP DUP1 DUP3 GT ISZERO PUSH3 0x1BCE JUMPI DUP3 DUP4 REVERT JUMPDEST POP PUSH3 0x1BDD DUP8 DUP3 DUP9 ADD PUSH3 0x195E JUMP JUMPDEST SWAP3 POP POP PUSH1 0x60 DUP6 ADD CALLDATALOAD PUSH3 0x1BF0 DUP2 PUSH3 0x2530 JUMP JUMPDEST SWAP4 SWAP7 SWAP3 SWAP6 POP SWAP1 SWAP4 POP POP JUMP JUMPDEST PUSH1 0x0 PUSH1 0x20 DUP3 DUP5 SUB SLT ISZERO PUSH3 0x1C0D JUMPI DUP1 DUP2 REVERT JUMPDEST POP CALLDATALOAD SWAP2 SWAP1 POP JUMP JUMPDEST PUSH1 0x0 PUSH1 0x20 DUP3 DUP5 SUB SLT ISZERO PUSH3 0x1C26 JUMPI DUP1 DUP2 REVERT JUMPDEST POP MLOAD SWAP2 SWAP1 POP JUMP JUMPDEST PUSH1 0x0 DUP1 PUSH1 0x40 DUP4 DUP6 SUB SLT ISZERO PUSH3 0x1C40 JUMPI DUP2 DUP3 REVERT JUMPDEST DUP3 CALLDATALOAD SWAP2 POP PUSH3 0x1C52 PUSH1 0x20 DUP5 ADD PUSH3 0x1946 JUMP JUMPDEST SWAP1 POP SWAP3 POP SWAP3 SWAP1 POP JUMP JUMPDEST PUSH1 0x0 DUP1 PUSH1 0x40 DUP4 DUP6 SUB SLT ISZERO PUSH3 0x1C6E JUMPI DUP2 DUP3 REVERT JUMPDEST DUP3 CALLDATALOAD SWAP2 POP PUSH1 0x20 DUP4 ADD CALLDATALOAD PUSH8 0xFFFFFFFFFFFFFFFF DUP2 GT ISZERO PUSH3 0x1A45 JUMPI DUP2 DUP3 REVERT JUMPDEST PUSH1 0x0 DUP1 PUSH1 0x0 DUP1 PUSH1 0x0 DUP1 PUSH1 0x0 DUP1 PUSH2 0x100 DUP10 DUP12 SUB SLT ISZERO PUSH3 0x1CA9 JUMPI DUP4 DUP5 REVERT JUMPDEST DUP9 CALLDATALOAD SWAP8 POP PUSH1 0x20 DUP10 ADD CALLDATALOAD PUSH8 0xFFFFFFFFFFFFFFFF DUP1 DUP3 GT ISZERO PUSH3 0x1CC8 JUMPI DUP6 DUP7 REVERT JUMPDEST PUSH3 0x1CD6 DUP13 DUP4 DUP14 ADD PUSH3 0x195E JUMP JUMPDEST SWAP9 POP PUSH1 0x40 DUP12 ADD CALLDATALOAD SWAP2 POP DUP1 DUP3 GT ISZERO PUSH3 0x1CEC JUMPI DUP6 DUP7 REVERT JUMPDEST PUSH3 0x1CFA DUP13 DUP4 DUP14 ADD PUSH3 0x195E JUMP JUMPDEST SWAP8 POP PUSH1 0x60 DUP12 ADD CALLDATALOAD SWAP7 POP PUSH1 0x80 DUP12 ADD CALLDATALOAD SWAP2 POP DUP1 DUP3 GT ISZERO PUSH3 0x1D17 JUMPI DUP6 DUP7 REVERT JUMPDEST PUSH3 0x1D25 DUP13 DUP4 DUP14 ADD PUSH3 0x195E JUMP JUMPDEST SWAP6 POP PUSH1 0xA0 DUP12 ADD CALLDATALOAD SWAP5 POP PUSH1 0xC0 DUP12 ADD CALLDATALOAD SWAP2 POP DUP1 DUP3 GT ISZERO PUSH3 0x1D42 JUMPI DUP4 DUP5 REVERT JUMPDEST POP PUSH3 0x1D51 DUP12 DUP3 DUP13 ADD PUSH3 0x195E JUMP JUMPDEST SWAP3 POP POP PUSH1 0xE0 DUP10 ADD CALLDATALOAD SWAP1 POP SWAP3 SWAP6 SWAP9 POP SWAP3 SWAP6 SWAP9 SWAP1 SWAP4 SWAP7 POP JUMP JUMPDEST PUSH1 0x0 DUP2 MLOAD DUP1 DUP5 MSTORE PUSH3 0x1D82 DUP2 PUSH1 0x20 DUP7 ADD PUSH1 0x20 DUP7 ADD PUSH3 0x2494 JUMP JUMPDEST PUSH1 0x1F ADD PUSH1 0x1F NOT AND SWAP3 SWAP1 SWAP3 ADD PUSH1 0x20 ADD SWAP3 SWAP2 POP POP JUMP JUMPDEST PUSH1 0x60 SWAP2 SWAP1 SWAP2 SHL PUSH12 0xFFFFFFFFFFFFFFFFFFFFFFFF NOT AND DUP2 MSTORE PUSH1 0x14 ADD SWAP1 JUMP JUMPDEST PUSH1 0x0 DUP3 MLOAD PUSH3 0x1DC7 DUP2 DUP5 PUSH1 0x20 DUP8 ADD PUSH3 0x2494 JUMP JUMPDEST SWAP2 SWAP1 SWAP2 ADD SWAP3 SWAP2 POP POP JUMP JUMPDEST DUP2 SLOAD PUSH1 0x0 SWAP1 DUP2 SWAP1 PUSH1 0x2 DUP2 DIV PUSH1 0x1 DUP1 DUP4 AND DUP1 PUSH3 0x1DEE JUMPI PUSH1 0x7F DUP4 AND SWAP3 POP JUMPDEST PUSH1 0x20 DUP1 DUP5 LT DUP3 EQ ISZERO PUSH3 0x1E0F JUMPI PUSH4 0x4E487B71 PUSH1 0xE0 SHL DUP8 MSTORE PUSH1 0x22 PUSH1 0x4 MSTORE PUSH1 0x24 DUP8 REVERT JUMPDEST DUP2 DUP1 ISZERO PUSH3 0x1E26 JUMPI PUSH1 0x1 DUP2 EQ PUSH3 0x1E38 JUMPI PUSH3 0x1E68 JUMP JUMPDEST PUSH1 0xFF NOT DUP7 AND DUP10 MSTORE DUP5 DUP10 ADD SWAP7 POP PUSH3 0x1E68 JUMP JUMPDEST PUSH3 0x1E43 DUP11 PUSH3 0x2431 JUMP JUMPDEST DUP9 JUMPDEST DUP7 DUP2 LT ISZERO PUSH3 0x1E60 JUMPI DUP2 SLOAD DUP12 DUP3 ADD MSTORE SWAP1 DUP6 ADD SWAP1 DUP4 ADD PUSH3 0x1E45 JUMP JUMPDEST POP POP DUP5 DUP10 ADD SWAP7 POP JUMPDEST POP SWAP5 SWAP9 SWAP8 POP POP POP POP POP POP POP POP JUMP JUMPDEST PUSH8 0x1858D8D95C1D1959 PUSH1 0xC2 SHL DUP2 MSTORE PUSH1 0x8 ADD SWAP1 JUMP JUMPDEST PUSH11 0x696E2070726F6772657373 PUSH1 0xA8 SHL DUP2 MSTORE PUSH1 0xB ADD SWAP1 JUMP JUMPDEST PUSH1 0x1 PUSH1 0x1 PUSH1 0xA0 SHL SUB SWAP2 SWAP1 SWAP2 AND DUP2 MSTORE PUSH1 0x20 ADD SWAP1 JUMP JUMPDEST PUSH1 0x1 PUSH1 0x1 PUSH1 0xA0 SHL SUB DUP4 AND DUP2 MSTORE PUSH1 0x40 PUSH1 0x20 DUP3 ADD DUP2 SWAP1 MSTORE PUSH1 0x0 SWAP1 PUSH3 0x1EDB SWAP1 DUP4 ADD DUP5 PUSH3 0x1D68 JUMP JUMPDEST SWAP5 SWAP4 POP POP POP POP JUMP JUMPDEST PUSH1 0x1 PUSH1 0x1 PUSH1 0xA0 SHL SUB DUP9 AND DUP2 MSTORE PUSH1 0xE0 PUSH1 0x20 DUP3 ADD DUP2 SWAP1 MSTORE PUSH1 0x0 SWAP1 PUSH3 0x1F09 SWAP1 DUP4 ADD DUP10 PUSH3 0x1D68 JUMP JUMPDEST DUP3 DUP2 SUB PUSH1 0x40 DUP5 ADD MSTORE PUSH3 0x1F1D DUP2 DUP10 PUSH3 0x1D68 JUMP JUMPDEST SWAP1 POP DUP7 PUSH1 0x60 DUP5 ADD MSTORE DUP3 DUP2 SUB PUSH1 0x80 DUP5 ADD MSTORE PUSH3 0x1F39 DUP2 DUP8 PUSH3 0x1D68 JUMP JUMPDEST PUSH1 0xA0 DUP5 ADD SWAP6 SWAP1 SWAP6 MSTORE POP POP PUSH1 0xC0 ADD MSTORE SWAP6 SWAP5 POP POP POP POP POP JUMP JUMPDEST PUSH1 0x1 PUSH1 0x1 PUSH1 0xA0 SHL SUB SWAP3 SWAP1 SWAP3 AND DUP3 MSTORE PUSH1 0x20 DUP3 ADD MSTORE PUSH1 0x40 ADD SWAP1 JUMP JUMPDEST SWAP1 ISZERO ISZERO DUP2 MSTORE PUSH1 0x20 ADD SWAP1 JUMP JUMPDEST PUSH1 0x0 PUSH1 0x20 DUP3 MSTORE PUSH3 0x1A04 PUSH1 0x20 DUP4 ADD DUP5 PUSH3 0x1D68 JUMP JUMPDEST PUSH1 0x0 PUSH1 0x80 DUP3 MSTORE PUSH3 0x1F9E PUSH1 0x80 DUP4 ADD DUP8 PUSH3 0x1D68 JUMP JUMPDEST DUP3 DUP2 SUB PUSH1 0x20 DUP5 ADD MSTORE PUSH3 0x1FB2 DUP2 DUP8 PUSH3 0x1D68 JUMP JUMPDEST SWAP1 POP DUP3 DUP2 SUB PUSH1 0x40 DUP5 ADD MSTORE PUSH3 0x1FC8 DUP2 DUP7 PUSH3 0x1D68 JUMP JUMPDEST SWAP2 POP POP DUP3 ISZERO ISZERO PUSH1 0x60 DUP4 ADD MSTORE SWAP6 SWAP5 POP POP POP POP POP JUMP JUMPDEST PUSH1 0x0 PUSH1 0xE0 DUP3 MSTORE PUSH3 0x1FF1 PUSH1 0xE0 DUP4 ADD DUP11 PUSH3 0x1D68 JUMP JUMPDEST DUP3 DUP2 SUB PUSH1 0x20 DUP5 ADD MSTORE PUSH3 0x2005 DUP2 DUP11 PUSH3 0x1D68 JUMP JUMPDEST SWAP1 POP DUP8 PUSH1 0x40 DUP5 ADD MSTORE DUP3 DUP2 SUB PUSH1 0x60 DUP5 ADD MSTORE PUSH3 0x2021 DUP2 DUP9 PUSH3 0x1D68 JUMP JUMPDEST SWAP1 POP DUP6 PUSH1 0x80 DUP5 ADD MSTORE DUP3 DUP2 SUB PUSH1 0xA0 DUP5 ADD MSTORE PUSH3 0x203D DUP2 DUP7 PUSH3 0x1D68 JUMP JUMPDEST SWAP2 POP POP DUP3 PUSH1 0xC0 DUP4 ADD MSTORE SWAP9 SWAP8 POP POP POP POP POP POP POP POP JUMP JUMPDEST PUSH1 0x0 PUSH2 0x140 DUP1 DUP4 MSTORE PUSH3 0x2068 DUP2 DUP5 ADD DUP15 PUSH3 0x1D68 JUMP JUMPDEST SWAP1 POP DUP3 DUP2 SUB PUSH1 0x20 DUP5 ADD MSTORE PUSH3 0x207E DUP2 DUP14 PUSH3 0x1D68 JUMP JUMPDEST SWAP1 POP DUP11 PUSH1 0x40 DUP5 ADD MSTORE DUP3 DUP2 SUB PUSH1 0x60 DUP5 ADD MSTORE PUSH3 0x209A DUP2 DUP12 PUSH3 0x1D68 JUMP JUMPDEST SWAP1 POP DUP9 PUSH1 0x80 DUP5 ADD MSTORE DUP3 DUP2 SUB PUSH1 0xA0 DUP5 ADD MSTORE PUSH3 0x20B6 DUP2 DUP10 PUSH3 0x1D68 JUMP JUMPDEST PUSH1 0xC0 DUP5 ADD SWAP8 SWAP1 SWAP8 MSTORE POP POP PUSH1 0x1 PUSH1 0x1 PUSH1 0xA0 SHL SUB SWAP4 DUP5 AND PUSH1 0xE0 DUP3 ADD MSTORE SWAP2 DUP4 AND PUSH2 0x100 DUP4 ADD MSTORE SWAP1 SWAP2 AND PUSH2 0x120 SWAP1 SWAP2 ADD MSTORE SWAP7 SWAP6 POP POP POP POP POP POP JUMP JUMPDEST PUSH1 0x20 DUP1 DUP3 MSTORE PUSH1 0x17 SWAP1 DUP3 ADD MSTORE PUSH32 0x596F75206861766520616C726561647920766F7465642E000000000000000000 PUSH1 0x40 DUP3 ADD MSTORE PUSH1 0x60 ADD SWAP1 JUMP JUMPDEST PUSH1 0x20 DUP1 DUP3 MSTORE DUP2 DUP2 ADD MSTORE PUSH32 0x4275792061207375697461626C65206E756D626572206F6620546F6B656E732E PUSH1 0x40 DUP3 ADD MSTORE PUSH1 0x60 ADD SWAP1 JUMP JUMPDEST PUSH1 0x20 DUP1 DUP3 MSTORE PUSH1 0x12 SWAP1 DUP3 ADD MSTORE PUSH18 0x155CD95C88191BD95CC81B9BDD08195E1A5D PUSH1 0x72 SHL PUSH1 0x40 DUP3 ADD MSTORE PUSH1 0x60 ADD SWAP1 JUMP JUMPDEST PUSH1 0x20 DUP1 DUP3 MSTORE PUSH1 0x19 SWAP1 DUP3 ADD MSTORE PUSH32 0x7468652074696D6520746F20766F7465206973206F7665722E00000000000000 PUSH1 0x40 DUP3 ADD MSTORE PUSH1 0x60 ADD SWAP1 JUMP JUMPDEST PUSH1 0x20 DUP1 DUP3 MSTORE PUSH1 0x1C SWAP1 DUP3 ADD MSTORE PUSH32 0x52657669736F7220726F6C652063616E6E6F7420626520626C616E6B00000000 PUSH1 0x40 DUP3 ADD MSTORE PUSH1 0x60 ADD SWAP1 JUMP JUMPDEST PUSH1 0x20 DUP1 DUP3 MSTORE PUSH1 0x2B SWAP1 DUP3 ADD MSTORE PUSH32 0x596F75206E65656420746F206265207265676973746572656420746F20646F20 PUSH1 0x40 DUP3 ADD MSTORE PUSH11 0x1D1A19481C995C5D595CDD PUSH1 0xAA SHL PUSH1 0x60 DUP3 ADD MSTORE PUSH1 0x80 ADD SWAP1 JUMP JUMPDEST PUSH1 0x20 DUP1 DUP3 MSTORE PUSH1 0x21 SWAP1 DUP3 ADD MSTORE PUSH32 0x596F75206E65656420746F206265207265676973746572656420746F20766F74 PUSH1 0x40 DUP3 ADD MSTORE PUSH1 0x65 PUSH1 0xF8 SHL PUSH1 0x60 DUP3 ADD MSTORE PUSH1 0x80 ADD SWAP1 JUMP JUMPDEST PUSH1 0x20 DUP1 DUP3 MSTORE PUSH1 0x28 SWAP1 DUP3 ADD MSTORE PUSH32 0x427579206C65737320546F6B656E73206F72207061792077697468206D6F7265 PUSH1 0x40 DUP3 ADD MSTORE PUSH8 0x1022BA3432B93997 PUSH1 0xC1 SHL PUSH1 0x60 DUP3 ADD MSTORE PUSH1 0x80 ADD SWAP1 JUMP JUMPDEST PUSH1 0x20 DUP1 DUP3 MSTORE DUP2 DUP2 ADD MSTORE PUSH32 0x596F75206E65656420746F206265207265676973746572656420746F20736565 PUSH1 0x40 DUP3 ADD MSTORE PUSH1 0x60 ADD SWAP1 JUMP JUMPDEST PUSH1 0x20 DUP1 DUP3 MSTORE PUSH1 0x19 SWAP1 DUP3 ADD MSTORE PUSH32 0x46756C6C206E616D652063616E6E6F7420626520656D70747900000000000000 PUSH1 0x40 DUP3 ADD MSTORE PUSH1 0x60 ADD SWAP1 JUMP JUMPDEST PUSH1 0x20 DUP1 DUP3 MSTORE PUSH1 0x21 SWAP1 DUP3 ADD MSTORE PUSH32 0x596F7520617265206E6F7420746865206A6F75726E616C207265717565737465 PUSH1 0x40 DUP3 ADD MSTORE PUSH1 0x39 PUSH1 0xF9 SHL PUSH1 0x60 DUP3 ADD MSTORE PUSH1 0x80 ADD SWAP1 JUMP JUMPDEST PUSH1 0x20 DUP1 DUP3 MSTORE PUSH1 0x15 SWAP1 DUP3 ADD MSTORE PUSH21 0x456D61696C2063616E6E6F7420626520656D707479 PUSH1 0x58 SHL PUSH1 0x40 DUP3 ADD MSTORE PUSH1 0x60 ADD SWAP1 JUMP JUMPDEST PUSH1 0x20 DUP1 DUP3 MSTORE PUSH1 0x2E SWAP1 DUP3 ADD MSTORE PUSH32 0x596F7572204A6F75726E616C207265717565737420686173206E6F7420626565 PUSH1 0x40 DUP3 ADD MSTORE PUSH14 0x1B881858D8D95C1D1959081E595D PUSH1 0x92 SHL PUSH1 0x60 DUP3 ADD MSTORE PUSH1 0x80 ADD SWAP1 JUMP JUMPDEST PUSH1 0x20 DUP1 DUP3 MSTORE PUSH1 0x1A SWAP1 DUP3 ADD MSTORE PUSH32 0x5573657220697320616C72656164792072656769737465726564000000000000 PUSH1 0x40 DUP3 ADD MSTORE PUSH1 0x60 ADD SWAP1 JUMP JUMPDEST SWAP1 DUP2 MSTORE PUSH1 0x20 ADD SWAP1 JUMP JUMPDEST PUSH1 0x0 SWAP1 DUP2 MSTORE PUSH1 0x20 SWAP1 KECCAK256 SWAP1 JUMP JUMPDEST PUSH1 0x0 DUP3 NOT DUP3 GT ISZERO PUSH3 0x2453 JUMPI PUSH3 0x2453 PUSH3 0x2504 JUMP JUMPDEST POP ADD SWAP1 JUMP JUMPDEST PUSH1 0x0 DUP2 PUSH1 0x0 NOT DIV DUP4 GT DUP3 ISZERO ISZERO AND ISZERO PUSH3 0x2475 JUMPI PUSH3 0x2475 PUSH3 0x2504 JUMP JUMPDEST POP MUL SWAP1 JUMP JUMPDEST PUSH1 0x0 DUP3 DUP3 LT ISZERO PUSH3 0x248F JUMPI PUSH3 0x248F PUSH3 0x2504 JUMP JUMPDEST POP SUB SWAP1 JUMP JUMPDEST PUSH1 0x0 JUMPDEST DUP4 DUP2 LT ISZERO PUSH3 0x24B1 JUMPI DUP2 DUP2 ADD MLOAD DUP4 DUP3 ADD MSTORE PUSH1 0x20 ADD PUSH3 0x2497 JUMP JUMPDEST DUP4 DUP2 GT ISZERO PUSH3 0x24C1 JUMPI PUSH1 0x0 DUP5 DUP5 ADD MSTORE JUMPDEST POP POP POP POP JUMP JUMPDEST PUSH1 0x2 DUP2 DIV PUSH1 0x1 DUP3 AND DUP1 PUSH3 0x24DC JUMPI PUSH1 0x7F DUP3 AND SWAP2 POP JUMPDEST PUSH1 0x20 DUP3 LT DUP2 EQ ISZERO PUSH3 0x24FE JUMPI PUSH4 0x4E487B71 PUSH1 0xE0 SHL PUSH1 0x0 MSTORE PUSH1 0x22 PUSH1 0x4 MSTORE PUSH1 0x24 PUSH1 0x0 REVERT JUMPDEST POP SWAP2 SWAP1 POP JUMP JUMPDEST PUSH4 0x4E487B71 PUSH1 0xE0 SHL PUSH1 0x0 MSTORE PUSH1 0x11 PUSH1 0x4 MSTORE PUSH1 0x24 PUSH1 0x0 REVERT JUMPDEST PUSH4 0x4E487B71 PUSH1 0xE0 SHL PUSH1 0x0 MSTORE PUSH1 0x41 PUSH1 0x4 MSTORE PUSH1 0x24 PUSH1 0x0 REVERT JUMPDEST DUP1 ISZERO ISZERO DUP2 EQ PUSH3 0x1943 JUMPI PUSH1 0x0 DUP1 REVERT INVALID PUSH1 0x80 PUSH1 0x40 MSTORE PUSH1 0x0 PUSH1 0x13 SSTORE CALLVALUE DUP1 ISZERO PUSH3 0x16 JUMPI PUSH1 0x0 DUP1 REVERT JUMPDEST POP PUSH1 0x40 MLOAD PUSH3 0x2FCB CODESIZE SUB DUP1 PUSH3 0x2FCB DUP4 CODECOPY DUP2 ADD PUSH1 0x40 DUP2 SWAP1 MSTORE PUSH3 0x39 SWAP2 PUSH3 0x259 JUMP JUMPDEST DUP10 MLOAD PUSH3 0x4E SWAP1 PUSH1 0x2 SWAP1 PUSH1 0x20 DUP14 ADD SWAP1 PUSH3 0xEB JUMP JUMPDEST POP DUP9 MLOAD PUSH3 0x64 SWAP1 PUSH1 0x3 SWAP1 PUSH1 0x20 DUP13 ADD SWAP1 PUSH3 0xEB JUMP JUMPDEST POP PUSH1 0x4 DUP9 SWAP1 SSTORE DUP7 MLOAD PUSH3 0x7F SWAP1 PUSH1 0x5 SWAP1 PUSH1 0x20 DUP11 ADD SWAP1 PUSH3 0xEB JUMP JUMPDEST POP PUSH1 0x6 DUP7 SWAP1 SSTORE DUP5 MLOAD PUSH3 0x9A SWAP1 PUSH1 0x7 SWAP1 PUSH1 0x20 DUP9 ADD SWAP1 PUSH3 0xEB JUMP JUMPDEST POP PUSH1 0x8 SWAP4 SWAP1 SWAP4 SSTORE PUSH1 0x1 DUP1 SLOAD PUSH1 0x1 PUSH1 0x1 PUSH1 0xA0 SHL SUB NOT SWAP1 DUP2 AND PUSH1 0x1 PUSH1 0x1 PUSH1 0xA0 SHL SUB SWAP5 DUP6 AND OR SWAP1 SWAP2 SSTORE PUSH1 0x0 DUP1 SLOAD DUP3 AND SWAP3 DUP5 AND SWAP3 SWAP1 SWAP3 OR SWAP1 SWAP2 SSTORE PUSH1 0x9 DUP1 SLOAD SWAP1 SWAP2 AND SWAP2 SWAP1 SWAP3 AND OR SWAP1 SSTORE POP PUSH3 0x3B7 SWAP5 POP POP POP POP POP JUMP JUMPDEST DUP3 DUP1 SLOAD PUSH3 0xF9 SWAP1 PUSH3 0x364 JUMP JUMPDEST SWAP1 PUSH1 0x0 MSTORE PUSH1 0x20 PUSH1 0x0 KECCAK256 SWAP1 PUSH1 0x1F ADD PUSH1 0x20 SWAP1 DIV DUP2 ADD SWAP3 DUP3 PUSH3 0x11D JUMPI PUSH1 0x0 DUP6 SSTORE PUSH3 0x168 JUMP JUMPDEST DUP3 PUSH1 0x1F LT PUSH3 0x138 JUMPI DUP1 MLOAD PUSH1 0xFF NOT AND DUP4 DUP1 ADD OR DUP6 SSTORE PUSH3 0x168 JUMP JUMPDEST DUP3 DUP1 ADD PUSH1 0x1 ADD DUP6 SSTORE DUP3 ISZERO PUSH3 0x168 JUMPI SWAP2 DUP3 ADD JUMPDEST DUP3 DUP2 GT ISZERO PUSH3 0x168 JUMPI DUP3 MLOAD DUP3 SSTORE SWAP2 PUSH1 0x20 ADD SWAP2 SWAP1 PUSH1 0x1 ADD SWAP1 PUSH3 0x14B JUMP JUMPDEST POP PUSH3 0x176 SWAP3 SWAP2 POP PUSH3 0x17A JUMP JUMPDEST POP SWAP1 JUMP JUMPDEST JUMPDEST DUP1 DUP3 GT ISZERO PUSH3 0x176 JUMPI PUSH1 0x0 DUP2 SSTORE PUSH1 0x1 ADD PUSH3 0x17B JUMP JUMPDEST DUP1 MLOAD PUSH1 0x1 PUSH1 0x1 PUSH1 0xA0 SHL SUB DUP2 AND DUP2 EQ PUSH3 0x1A9 JUMPI PUSH1 0x0 DUP1 REVERT JUMPDEST SWAP2 SWAP1 POP JUMP JUMPDEST PUSH1 0x0 DUP3 PUSH1 0x1F DUP4 ADD SLT PUSH3 0x1BF JUMPI DUP1 DUP2 REVERT JUMPDEST DUP2 MLOAD PUSH1 0x1 PUSH1 0x1 PUSH1 0x40 SHL SUB DUP1 DUP3 GT ISZERO PUSH3 0x1DC JUMPI PUSH3 0x1DC PUSH3 0x3A1 JUMP JUMPDEST PUSH1 0x40 MLOAD PUSH1 0x20 PUSH1 0x1F DUP5 ADD PUSH1 0x1F NOT AND DUP3 ADD DUP2 ADD DUP4 DUP2 GT DUP4 DUP3 LT OR ISZERO PUSH3 0x204 JUMPI PUSH3 0x204 PUSH3 0x3A1 JUMP JUMPDEST PUSH1 0x40 MSTORE DUP4 DUP3 MSTORE DUP6 DUP5 ADD DUP2 ADD DUP8 LT ISZERO PUSH3 0x21B JUMPI DUP5 DUP6 REVERT JUMPDEST DUP5 SWAP3 POP JUMPDEST DUP4 DUP4 LT ISZERO PUSH3 0x23E JUMPI DUP6 DUP4 ADD DUP2 ADD MLOAD DUP3 DUP5 ADD DUP3 ADD MSTORE SWAP2 DUP3 ADD SWAP2 PUSH3 0x21F JUMP JUMPDEST DUP4 DUP4 GT ISZERO PUSH3 0x24F JUMPI DUP5 DUP2 DUP6 DUP5 ADD ADD MSTORE JUMPDEST POP SWAP6 SWAP5 POP POP POP POP POP JUMP JUMPDEST PUSH1 0x0 DUP1 PUSH1 0x0 DUP1 PUSH1 0x0 DUP1 PUSH1 0x0 DUP1 PUSH1 0x0 DUP1 PUSH2 0x140 DUP12 DUP14 SUB SLT ISZERO PUSH3 0x279 JUMPI DUP6 DUP7 REVERT JUMPDEST DUP11 MLOAD PUSH1 0x1 PUSH1 0x1 PUSH1 0x40 SHL SUB DUP1 DUP3 GT ISZERO PUSH3 0x290 JUMPI DUP8 DUP9 REVERT JUMPDEST PUSH3 0x29E DUP15 DUP4 DUP16 ADD PUSH3 0x1AE JUMP JUMPDEST SWAP12 POP PUSH1 0x20 DUP14 ADD MLOAD SWAP2 POP DUP1 DUP3 GT ISZERO PUSH3 0x2B4 JUMPI DUP8 DUP9 REVERT JUMPDEST PUSH3 0x2C2 DUP15 DUP4 DUP16 ADD PUSH3 0x1AE JUMP JUMPDEST SWAP11 POP PUSH1 0x40 DUP14 ADD MLOAD SWAP10 POP PUSH1 0x60 DUP14 ADD MLOAD SWAP2 POP DUP1 DUP3 GT ISZERO PUSH3 0x2DF JUMPI DUP8 DUP9 REVERT JUMPDEST PUSH3 0x2ED DUP15 DUP4 DUP16 ADD PUSH3 0x1AE JUMP JUMPDEST SWAP9 POP PUSH1 0x80 DUP14 ADD MLOAD SWAP8 POP PUSH1 0xA0 DUP14 ADD MLOAD SWAP2 POP DUP1 DUP3 GT ISZERO PUSH3 0x30A JUMPI DUP7 DUP8 REVERT JUMPDEST POP PUSH3 0x319 DUP14 DUP3 DUP15 ADD PUSH3 0x1AE JUMP JUMPDEST SWAP6 POP POP PUSH1 0xC0 DUP12 ADD MLOAD SWAP4 POP PUSH3 0x331 PUSH1 0xE0 DUP13 ADD PUSH3 0x191 JUMP JUMPDEST SWAP3 POP PUSH3 0x342 PUSH2 0x100 DUP13 ADD PUSH3 0x191 JUMP JUMPDEST SWAP2 POP PUSH3 0x353 PUSH2 0x120 DUP13 ADD PUSH3 0x191 JUMP JUMPDEST SWAP1 POP SWAP3 SWAP6 SWAP9 SWAP12 SWAP2 SWAP5 SWAP8 SWAP11 POP SWAP3 SWAP6 SWAP9 POP JUMP JUMPDEST PUSH1 0x2 DUP2 DIV PUSH1 0x1 DUP3 AND DUP1 PUSH3 0x379 JUMPI PUSH1 0x7F DUP3 AND SWAP2 POP JUMPDEST PUSH1 0x20 DUP3 LT DUP2 EQ ISZERO PUSH3 0x39B JUMPI PUSH4 0x4E487B71 PUSH1 0xE0 SHL PUSH1 0x0 MSTORE PUSH1 0x22 PUSH1 0x4 MSTORE PUSH1 0x24 PUSH1 0x0 REVERT JUMPDEST POP SWAP2 SWAP1 POP JUMP JUMPDEST PUSH4 0x4E487B71 PUSH1 0xE0 SHL PUSH1 0x0 MSTORE PUSH1 0x41 PUSH1 0x4 MSTORE PUSH1 0x24 PUSH1 0x0 REVERT JUMPDEST PUSH2 0x2C04 DUP1 PUSH3 0x3C7 PUSH1 0x0 CODECOPY PUSH1 0x0 RETURN INVALID PUSH1 0x80 PUSH1 0x40 MSTORE CALLVALUE DUP1 ISZERO PUSH2 0x10 JUMPI PUSH1 0x0 DUP1 REVERT JUMPDEST POP PUSH1 0x4 CALLDATASIZE LT PUSH2 0xF4 JUMPI PUSH1 0x0 CALLDATALOAD PUSH1 0xE0 SHR DUP1 PUSH4 0xAE4E0F91 GT PUSH2 0x97 JUMPI DUP1 PUSH4 0xE5975BDC GT PUSH2 0x66 JUMPI DUP1 PUSH4 0xE5975BDC EQ PUSH2 0x209 JUMPI DUP1 PUSH4 0xE6BD5D72 EQ PUSH2 0x21C JUMPI DUP1 PUSH4 0xE9C64A82 EQ PUSH2 0x22F JUMPI DUP1 PUSH4 0xF8876A89 EQ PUSH2 0x237 JUMPI PUSH2 0xF4 JUMP JUMPDEST DUP1 PUSH4 0xAE4E0F91 EQ PUSH2 0x1B0 JUMPI DUP1 PUSH4 0xB743E8EB EQ PUSH2 0x1C3 JUMPI DUP1 PUSH4 0xCFC3A126 EQ PUSH2 0x1D6 JUMPI DUP1 PUSH4 0xD0A4D8FA EQ PUSH2 0x1E9 JUMPI PUSH2 0xF4 JUMP JUMPDEST DUP1 PUSH4 0x6F027B22 GT PUSH2 0xD3 JUMPI DUP1 PUSH4 0x6F027B22 EQ PUSH2 0x134 JUMPI DUP1 PUSH4 0x70123057 EQ PUSH2 0x15D JUMPI DUP1 PUSH4 0x7F66AD2B EQ PUSH2 0x170 JUMPI DUP1 PUSH4 0xAB3A7425 EQ PUSH2 0x190 JUMPI PUSH2 0xF4 JUMP JUMPDEST DUP1 PUSH3 0xB8088 EQ PUSH2 0xF9 JUMPI DUP1 PUSH4 0x1D3E963B EQ PUSH2 0x10E JUMPI DUP1 PUSH4 0x2FCB6AAE EQ PUSH2 0x121 JUMPI JUMPDEST PUSH1 0x0 DUP1 REVERT JUMPDEST PUSH2 0x10C PUSH2 0x107 CALLDATASIZE PUSH1 0x4 PUSH2 0x2322 JUMP JUMPDEST PUSH2 0x24C JUMP JUMPDEST STOP JUMPDEST PUSH2 0x10C PUSH2 0x11C CALLDATASIZE PUSH1 0x4 PUSH2 0x23D6 JUMP JUMPDEST PUSH2 0x6CE JUMP JUMPDEST PUSH2 0x10C PUSH2 0x12F CALLDATASIZE PUSH1 0x4 PUSH2 0x23EE JUMP JUMPDEST PUSH2 0x813 JUMP JUMPDEST PUSH2 0x147 PUSH2 0x142 CALLDATASIZE PUSH1 0x4 PUSH2 0x23D6 JUMP JUMPDEST PUSH2 0x963 JUMP JUMPDEST PUSH1 0x40 MLOAD PUSH2 0x154 SWAP2 SWAP1 PUSH2 0x266E JUMP JUMPDEST PUSH1 0x40 MLOAD DUP1 SWAP2 SUB SWAP1 RETURN JUMPDEST PUSH2 0x10C PUSH2 0x16B CALLDATASIZE PUSH1 0x4 PUSH2 0x23BC JUMP JUMPDEST PUSH2 0xA53 JUMP JUMPDEST PUSH2 0x183 PUSH2 0x17E CALLDATASIZE PUSH1 0x4 PUSH2 0x2393 JUMP JUMPDEST PUSH2 0xB09 JUMP JUMPDEST PUSH1 0x40 MLOAD PUSH2 0x154 SWAP2 SWAP1 PUSH2 0x2563 JUMP JUMPDEST PUSH2 0x1A3 PUSH2 0x19E CALLDATASIZE PUSH1 0x4 PUSH2 0x2301 JUMP JUMPDEST PUSH2 0xB3A JUMP JUMPDEST PUSH1 0x40 MLOAD PUSH2 0x154 SWAP2 SWAP1 PUSH2 0x26CE JUMP JUMPDEST PUSH2 0x10C PUSH2 0x1BE CALLDATASIZE PUSH1 0x4 PUSH2 0x2419 JUMP JUMPDEST PUSH2 0xB4F JUMP JUMPDEST PUSH2 0x183 PUSH2 0x1D1 CALLDATASIZE PUSH1 0x4 PUSH2 0x2301 JUMP JUMPDEST PUSH2 0xC90 JUMP JUMPDEST PUSH2 0x10C PUSH2 0x1E4 CALLDATASIZE PUSH1 0x4 PUSH2 0x23BC JUMP JUMPDEST PUSH2 0xCA2 JUMP JUMPDEST PUSH2 0x1FC PUSH2 0x1F7 CALLDATASIZE PUSH1 0x4 PUSH2 0x23D6 JUMP JUMPDEST PUSH2 0xCFF JUMP JUMPDEST PUSH1 0x40 MLOAD PUSH2 0x154 SWAP2 SWAP1 PUSH2 0x26D9 JUMP JUMPDEST PUSH2 0x10C PUSH2 0x217 CALLDATASIZE PUSH1 0x4 PUSH2 0x2301 JUMP JUMPDEST PUSH2 0xDA4 JUMP JUMPDEST PUSH2 0x10C PUSH2 0x22A CALLDATASIZE PUSH1 0x4 PUSH2 0x2419 JUMP JUMPDEST PUSH2 0xE35 JUMP JUMPDEST PUSH2 0x183 PUSH2 0xFB9 JUMP JUMPDEST PUSH2 0x23F PUSH2 0x1044 JUMP JUMPDEST PUSH1 0x40 MLOAD PUSH2 0x154 SWAP2 SWAP1 PUSH2 0x262A JUMP JUMPDEST PUSH1 0x0 PUSH1 0x40 MLOAD DUP1 PUSH2 0x1C0 ADD PUSH1 0x40 MSTORE DUP1 CALLER PUSH1 0x1 PUSH1 0x1 PUSH1 0xA0 SHL SUB AND DUP2 MSTORE PUSH1 0x20 ADD DUP6 PUSH1 0x1 PUSH1 0x1 PUSH1 0xA0 SHL SUB AND DUP2 MSTORE PUSH1 0x20 ADD DUP5 DUP2 MSTORE PUSH1 0x20 ADD DUP4 DUP2 MSTORE PUSH1 0x20 ADD PUSH1 0x1 ISZERO ISZERO DUP2 MSTORE PUSH1 0x20 ADD PUSH1 0x4 SLOAD PUSH8 0xFFFFFFFFFFFFFFFF DUP2 GT ISZERO PUSH2 0x2B6 JUMPI PUSH4 0x4E487B71 PUSH1 0xE0 SHL PUSH1 0x0 MSTORE PUSH1 0x41 PUSH1 0x4 MSTORE PUSH1 0x24 PUSH1 0x0 REVERT JUMPDEST PUSH1 0x40 MLOAD SWAP1 DUP1 DUP3 MSTORE DUP1 PUSH1 0x20 MUL PUSH1 0x20 ADD DUP3 ADD PUSH1 0x40 MSTORE DUP1 ISZERO PUSH2 0x2DF JUMPI DUP2 PUSH1 0x20 ADD PUSH1 0x20 DUP3 MUL DUP1 CALLDATASIZE DUP4 CALLDATACOPY ADD SWAP1 POP JUMPDEST POP DUP2 MSTORE PUSH1 0x20 ADD PUSH1 0x4 SLOAD PUSH8 0xFFFFFFFFFFFFFFFF DUP2 GT ISZERO PUSH2 0x30E JUMPI PUSH4 0x4E487B71 PUSH1 0xE0 SHL PUSH1 0x0 MSTORE PUSH1 0x41 PUSH1 0x4 MSTORE PUSH1 0x24 PUSH1 0x0 REVERT JUMPDEST PUSH1 0x40 MLOAD SWAP1 DUP1 DUP3 MSTORE DUP1 PUSH1 0x20 MUL PUSH1 0x20 ADD DUP3 ADD PUSH1 0x40 MSTORE DUP1 ISZERO PUSH2 0x337 JUMPI DUP2 PUSH1 0x20 ADD PUSH1 0x20 DUP3 MUL DUP1 CALLDATASIZE DUP4 CALLDATACOPY ADD SWAP1 POP JUMPDEST POP DUP2 MSTORE PUSH1 0x20 ADD PUSH1 0x4 SLOAD PUSH8 0xFFFFFFFFFFFFFFFF DUP2 GT ISZERO PUSH2 0x366 JUMPI PUSH4 0x4E487B71 PUSH1 0xE0 SHL PUSH1 0x0 MSTORE PUSH1 0x41 PUSH1 0x4 MSTORE PUSH1 0x24 PUSH1 0x0 REVERT JUMPDEST PUSH1 0x40 MLOAD SWAP1 DUP1 DUP3 MSTORE DUP1 PUSH1 0x20 MUL PUSH1 0x20 ADD DUP3 ADD PUSH1 0x40 MSTORE DUP1 ISZERO PUSH2 0x399 JUMPI DUP2 PUSH1 0x20 ADD JUMPDEST PUSH1 0x60 DUP2 MSTORE PUSH1 0x20 ADD SWAP1 PUSH1 0x1 SWAP1 SUB SWAP1 DUP2 PUSH2 0x384 JUMPI SWAP1 POP JUMPDEST POP DUP2 MSTORE PUSH1 0x20 ADD PUSH1 0x6 SLOAD PUSH8 0xFFFFFFFFFFFFFFFF DUP2 GT ISZERO PUSH2 0x3C8 JUMPI PUSH4 0x4E487B71 PUSH1 0xE0 SHL PUSH1 0x0 MSTORE PUSH1 0x41 PUSH1 0x4 MSTORE PUSH1 0x24 PUSH1 0x0 REVERT JUMPDEST PUSH1 0x40 MLOAD SWAP1 DUP1 DUP3 MSTORE DUP1 PUSH1 0x20 MUL PUSH1 0x20 ADD DUP3 ADD PUSH1 0x40 MSTORE DUP1 ISZERO PUSH2 0x3F1 JUMPI DUP2 PUSH1 0x20 ADD PUSH1 0x20 DUP3 MUL DUP1 CALLDATASIZE DUP4 CALLDATACOPY ADD SWAP1 POP JUMPDEST POP DUP2 MSTORE PUSH1 0x20 ADD PUSH1 0x6 SLOAD PUSH8 0xFFFFFFFFFFFFFFFF DUP2 GT ISZERO PUSH2 0x420 JUMPI PUSH4 0x4E487B71 PUSH1 0xE0 SHL PUSH1 0x0 MSTORE PUSH1 0x41 PUSH1 0x4 MSTORE PUSH1 0x24 PUSH1 0x0 REVERT JUMPDEST PUSH1 0x40 MLOAD SWAP1 DUP1 DUP3 MSTORE DUP1 PUSH1 0x20 MUL PUSH1 0x20 ADD DUP3 ADD PUSH1 0x40 MSTORE DUP1 ISZERO PUSH2 0x449 JUMPI DUP2 PUSH1 0x20 ADD PUSH1 0x20 DUP3 MUL DUP1 CALLDATASIZE DUP4 CALLDATACOPY ADD SWAP1 POP JUMPDEST POP DUP2 MSTORE PUSH1 0x20 ADD PUSH1 0x6 SLOAD PUSH8 0xFFFFFFFFFFFFFFFF DUP2 GT ISZERO PUSH2 0x478 JUMPI PUSH4 0x4E487B71 PUSH1 0xE0 SHL PUSH1 0x0 MSTORE PUSH1 0x41 PUSH1 0x4 MSTORE PUSH1 0x24 PUSH1 0x0 REVERT JUMPDEST PUSH1 0x40 MLOAD SWAP1 DUP1 DUP3 MSTORE DUP1 PUSH1 0x20 MUL PUSH1 0x20 ADD DUP3 ADD PUSH1 0x40 MSTORE DUP1 ISZERO PUSH2 0x4AB JUMPI DUP2 PUSH1 0x20 ADD JUMPDEST PUSH1 0x60 DUP2 MSTORE PUSH1 0x20 ADD SWAP1 PUSH1 0x1 SWAP1 SUB SWAP1 DUP2 PUSH2 0x496 JUMPI SWAP1 POP JUMPDEST POP DUP2 MSTORE PUSH1 0x20 ADD PUSH1 0x0 DUP2 MSTORE PUSH1 0x20 ADD PUSH1 0x0 DUP2 MSTORE PUSH1 0x20 ADD PUSH1 0x0 DUP1 SHL DUP2 MSTORE POP SWAP1 POP PUSH1 0x0 CALLER DUP5 DUP5 PUSH1 0x40 MLOAD PUSH1 0x20 ADD PUSH2 0x4DF SWAP4 SWAP3 SWAP2 SWAP1 PUSH2 0x2495 JUMP JUMPDEST PUSH1 0x40 DUP1 MLOAD PUSH1 0x1F NOT DUP2 DUP5 SUB ADD DUP2 MSTORE SWAP2 DUP2 MSTORE DUP2 MLOAD PUSH1 0x20 SWAP3 DUP4 ADD KECCAK256 PUSH1 0x0 DUP2 DUP2 MSTORE PUSH1 0xD DUP5 MSTORE DUP3 SWAP1 KECCAK256 DUP6 MLOAD DUP2 SLOAD PUSH1 0x1 PUSH1 0x1 PUSH1 0xA0 SHL SUB SWAP2 DUP3 AND PUSH1 0x1 PUSH1 0x1 PUSH1 0xA0 SHL SUB NOT SWAP2 DUP3 AND OR DUP4 SSTORE DUP8 DUP7 ADD MLOAD PUSH1 0x1 DUP5 ADD DUP1 SLOAD SWAP2 SWAP1 SWAP4 AND SWAP2 AND OR SWAP1 SSTORE SWAP2 DUP6 ADD MLOAD DUP1 MLOAD SWAP2 SWAP5 POP DUP6 SWAP4 PUSH2 0x551 SWAP3 PUSH1 0x2 DUP6 ADD SWAP3 SWAP1 SWAP2 ADD SWAP1 PUSH2 0x1FFC JUMP JUMPDEST POP PUSH1 0x60 DUP3 ADD MLOAD DUP1 MLOAD PUSH2 0x56D SWAP2 PUSH1 0x3 DUP5 ADD SWAP2 PUSH1 0x20 SWAP1 SWAP2 ADD SWAP1 PUSH2 0x1FFC JUMP JUMPDEST POP PUSH1 0x80 DUP3 ADD MLOAD PUSH1 0x4 DUP3 ADD DUP1 SLOAD PUSH1 0xFF NOT AND SWAP2 ISZERO ISZERO SWAP2 SWAP1 SWAP2 OR SWAP1 SSTORE PUSH1 0xA0 DUP3 ADD MLOAD DUP1 MLOAD PUSH2 0x5A1 SWAP2 PUSH1 0x5 DUP5 ADD SWAP2 PUSH1 0x20 SWAP1 SWAP2 ADD SWAP1 PUSH2 0x2080 JUMP JUMPDEST POP PUSH1 0xC0 DUP3 ADD MLOAD DUP1 MLOAD PUSH2 0x5BD SWAP2 PUSH1 0x6 DUP5 ADD SWAP2 PUSH1 0x20 SWAP1 SWAP2 ADD SWAP1 PUSH2 0x20D5 JUMP JUMPDEST POP PUSH1 0xE0 DUP3 ADD MLOAD DUP1 MLOAD PUSH2 0x5D9 SWAP2 PUSH1 0x7 DUP5 ADD SWAP2 PUSH1 0x20 SWAP1 SWAP2 ADD SWAP1 PUSH2 0x2192 JUMP JUMPDEST POP PUSH2 0x100 DUP3 ADD MLOAD DUP1 MLOAD PUSH2 0x5F6 SWAP2 PUSH1 0x8 DUP5 ADD SWAP2 PUSH1 0x20 SWAP1 SWAP2 ADD SWAP1 PUSH2 0x2080 JUMP JUMPDEST POP PUSH2 0x120 DUP3 ADD MLOAD DUP1 MLOAD PUSH2 0x613 SWAP2 PUSH1 0x9 DUP5 ADD SWAP2 PUSH1 0x20 SWAP1 SWAP2 ADD SWAP1 PUSH2 0x20D5 JUMP JUMPDEST POP PUSH2 0x140 DUP3 ADD MLOAD DUP1 MLOAD PUSH2 0x630 SWAP2 PUSH1 0xA DUP5 ADD SWAP2 PUSH1 0x20 SWAP1 SWAP2 ADD SWAP1 PUSH2 0x2192 JUMP JUMPDEST POP PUSH2 0x160 DUP3 ADD MLOAD PUSH1 0xB DUP3 ADD DUP1 SLOAD PUSH1 0xFF NOT AND PUSH1 0x1 DUP4 PUSH1 0x3 DUP2 GT ISZERO PUSH2 0x663 JUMPI PUSH4 0x4E487B71 PUSH1 0xE0 SHL PUSH1 0x0 MSTORE PUSH1 0x21 PUSH1 0x4 MSTORE PUSH1 0x24 PUSH1 0x0 REVERT JUMPDEST MUL OR SWAP1 SSTORE POP PUSH2 0x180 DUP3 ADD MLOAD DUP2 PUSH1 0xC ADD SSTORE PUSH2 0x1A0 DUP3 ADD MLOAD DUP2 PUSH1 0xD ADD SSTORE SWAP1 POP POP PUSH2 0x6A5 PUSH1 0xD PUSH1 0x0 DUP4 DUP2 MSTORE PUSH1 0x20 ADD SWAP1 DUP2 MSTORE PUSH1 0x20 ADD PUSH1 0x0 KECCAK256 PUSH1 0x5 ADD PUSH1 0x0 PUSH1 0x4 SLOAD DUP5 PUSH2 0x10A5 JUMP JUMPDEST PUSH1 0x0 DUP2 DUP2 MSTORE PUSH1 0xD PUSH1 0x20 MSTORE PUSH1 0x40 SWAP1 KECCAK256 PUSH1 0x6 SLOAD PUSH2 0x6C7 SWAP2 PUSH1 0x8 ADD SWAP1 PUSH1 0x1 SWAP1 DUP5 PUSH2 0x10A5 JUMP JUMPDEST POP POP POP POP POP JUMP JUMPDEST PUSH1 0x0 DUP2 DUP2 MSTORE PUSH1 0xD PUSH1 0x20 MSTORE PUSH1 0x40 SWAP1 KECCAK256 PUSH2 0x6E5 DUP3 PUSH2 0x1450 JUMP JUMPDEST PUSH1 0x2 PUSH1 0xB DUP3 ADD SLOAD PUSH1 0xFF AND PUSH1 0x3 DUP2 GT ISZERO PUSH2 0x70E JUMPI PUSH4 0x4E487B71 PUSH1 0xE0 SHL PUSH1 0x0 MSTORE PUSH1 0x21 PUSH1 0x4 MSTORE PUSH1 0x24 PUSH1 0x0 REVERT JUMPDEST EQ ISZERO PUSH2 0x74E JUMPI PUSH32 0x67324375B186D4640CA05CA31A82195DBEC7AC98FD8F931969A0B19867AA13E3 PUSH1 0x40 MLOAD PUSH2 0x741 SWAP1 PUSH2 0x28DB JUMP JUMPDEST PUSH1 0x40 MLOAD DUP1 SWAP2 SUB SWAP1 LOG1 PUSH2 0x80F JUMP JUMPDEST PUSH1 0x1 PUSH1 0xB DUP3 ADD SLOAD PUSH1 0xFF AND PUSH1 0x3 DUP2 GT ISZERO PUSH2 0x777 JUMPI PUSH4 0x4E487B71 PUSH1 0xE0 SHL PUSH1 0x0 MSTORE PUSH1 0x21 PUSH1 0x4 MSTORE PUSH1 0x24 PUSH1 0x0 REVERT JUMPDEST EQ ISZERO PUSH2 0x7AA JUMPI PUSH32 0x67324375B186D4640CA05CA31A82195DBEC7AC98FD8F931969A0B19867AA13E3 PUSH1 0x40 MLOAD PUSH2 0x741 SWAP1 PUSH2 0x2A04 JUMP JUMPDEST PUSH1 0x3 PUSH1 0xB DUP3 ADD SLOAD PUSH1 0xFF AND PUSH1 0x3 DUP2 GT ISZERO PUSH2 0x7D3 JUMPI PUSH4 0x4E487B71 PUSH1 0xE0 SHL PUSH1 0x0 MSTORE PUSH1 0x21 PUSH1 0x4 MSTORE PUSH1 0x24 PUSH1 0x0 REVERT JUMPDEST EQ ISZERO PUSH2 0x80F JUMPI PUSH32 0x67324375B186D4640CA05CA31A82195DBEC7AC98FD8F931969A0B19867AA13E3 PUSH1 0x40 MLOAD PUSH2 0x806 SWAP1 PUSH2 0x2912 JUMP JUMPDEST PUSH1 0x40 MLOAD DUP1 SWAP2 SUB SWAP1 LOG1 JUMPDEST POP POP JUMP JUMPDEST PUSH1 0x0 DUP3 DUP2 MSTORE PUSH1 0xD PUSH1 0x20 MSTORE PUSH1 0x40 DUP2 KECCAK256 SWAP1 DUP1 DUP1 DUP1 JUMPDEST PUSH1 0x5 DUP6 ADD SLOAD DUP2 LT ISZERO PUSH2 0x89C JUMPI CALLER PUSH1 0x1 PUSH1 0x1 PUSH1 0xA0 SHL SUB AND DUP6 PUSH1 0x5 ADD DUP3 DUP2 SLOAD DUP2 LT PUSH2 0x85F JUMPI PUSH4 0x4E487B71 PUSH1 0xE0 SHL PUSH1 0x0 MSTORE PUSH1 0x32 PUSH1 0x4 MSTORE PUSH1 0x24 PUSH1 0x0 REVERT JUMPDEST PUSH1 0x0 SWAP2 DUP3 MSTORE PUSH1 0x20 SWAP1 SWAP2 KECCAK256 ADD SLOAD PUSH1 0x1 PUSH1 0x1 PUSH1 0xA0 SHL SUB AND EQ ISZERO PUSH2 0x88A JUMPI PUSH1 0x1 SWAP4 POP PUSH1 0x1 SWAP3 POP DUP1 SWAP2 POP PUSH2 0x89C JUMP JUMPDEST DUP1 PUSH2 0x894 DUP2 PUSH2 0x2B5D JUMP JUMPDEST SWAP2 POP POP PUSH2 0x826 JUMP JUMPDEST POP DUP3 PUSH2 0x91D JUMPI PUSH1 0x0 JUMPDEST PUSH1 0x8 DUP6 ADD SLOAD DUP2 LT ISZERO PUSH2 0x91B JUMPI CALLER PUSH1 0x1 PUSH1 0x1 PUSH1 0xA0 SHL SUB AND DUP6 PUSH1 0x8 ADD DUP3 DUP2 SLOAD DUP2 LT PUSH2 0x8DE JUMPI PUSH4 0x4E487B71 PUSH1 0xE0 SHL PUSH1 0x0 MSTORE PUSH1 0x32 PUSH1 0x4 MSTORE PUSH1 0x24 PUSH1 0x0 REVERT JUMPDEST PUSH1 0x0 SWAP2 DUP3 MSTORE PUSH1 0x20 SWAP1 SWAP2 KECCAK256 ADD SLOAD PUSH1 0x1 PUSH1 0x1 PUSH1 0xA0 SHL SUB AND EQ ISZERO PUSH2 0x909 JUMPI PUSH1 0x1 SWAP4 POP PUSH1 0x0 SWAP3 POP DUP1 SWAP2 POP PUSH2 0x91B JUMP JUMPDEST DUP1 PUSH2 0x913 DUP2 PUSH2 0x2B5D JUMP JUMPDEST SWAP2 POP POP PUSH2 0x8A5 JUMP JUMPDEST POP JUMPDEST DUP3 PUSH2 0x943 JUMPI PUSH1 0x40 MLOAD PUSH3 0x461BCD PUSH1 0xE5 SHL DUP2 MSTORE PUSH1 0x4 ADD PUSH2 0x93A SWAP1 PUSH2 0x2834 JUMP JUMPDEST PUSH1 0x40 MLOAD DUP1 SWAP2 SUB SWAP1 REVERT JUMPDEST DUP5 ISZERO PUSH2 0x94E JUMPI PUSH2 0x95B JUMP JUMPDEST PUSH2 0x95B DUP7 DUP4 DUP4 PUSH1 0x1 PUSH2 0x1614 JUMP JUMPDEST POP POP POP POP POP POP JUMP JUMPDEST PUSH1 0x60 PUSH1 0xD PUSH1 0x0 DUP4 DUP2 MSTORE PUSH1 0x20 ADD SWAP1 DUP2 MSTORE PUSH1 0x20 ADD PUSH1 0x0 KECCAK256 PUSH1 0x7 ADD DUP1 SLOAD DUP1 PUSH1 0x20 MUL PUSH1 0x20 ADD PUSH1 0x40 MLOAD SWAP1 DUP2 ADD PUSH1 0x40 MSTORE DUP1 SWAP3 SWAP2 SWAP1 DUP2 DUP2 MSTORE PUSH1 0x20 ADD PUSH1 0x0 SWAP1 JUMPDEST DUP3 DUP3 LT ISZERO PUSH2 0xA47 JUMPI DUP4 DUP3 SWAP1 PUSH1 0x0 MSTORE PUSH1 0x20 PUSH1 0x0 KECCAK256 ADD DUP1 SLOAD PUSH2 0x9BA SWAP1 PUSH2 0x2B22 JUMP JUMPDEST DUP1 PUSH1 0x1F ADD PUSH1 0x20 DUP1 SWAP2 DIV MUL PUSH1 0x20 ADD PUSH1 0x40 MLOAD SWAP1 DUP2 ADD PUSH1 0x40 MSTORE DUP1 SWAP3 SWAP2 SWAP1 DUP2 DUP2 MSTORE PUSH1 0x20 ADD DUP3 DUP1 SLOAD PUSH2 0x9E6 SWAP1 PUSH2 0x2B22 JUMP JUMPDEST DUP1 ISZERO PUSH2 0xA33 JUMPI DUP1 PUSH1 0x1F LT PUSH2 0xA08 JUMPI PUSH2 0x100 DUP1 DUP4 SLOAD DIV MUL DUP4 MSTORE SWAP2 PUSH1 0x20 ADD SWAP2 PUSH2 0xA33 JUMP JUMPDEST DUP3 ADD SWAP2 SWAP1 PUSH1 0x0 MSTORE PUSH1 0x20 PUSH1 0x0 KECCAK256 SWAP1 JUMPDEST DUP2 SLOAD DUP2 MSTORE SWAP1 PUSH1 0x1 ADD SWAP1 PUSH1 0x20 ADD DUP1 DUP4 GT PUSH2 0xA16 JUMPI DUP3 SWAP1 SUB PUSH1 0x1F AND DUP3 ADD SWAP2 JUMPDEST POP POP POP POP POP DUP2 MSTORE PUSH1 0x20 ADD SWAP1 PUSH1 0x1 ADD SWAP1 PUSH2 0x99B JUMP JUMPDEST POP POP POP POP SWAP1 POP JUMPDEST SWAP2 SWAP1 POP JUMP JUMPDEST PUSH1 0x0 SLOAD PUSH1 0x40 MLOAD PUSH4 0x423B9ED1 PUSH1 0xE1 SHL DUP2 MSTORE PUSH1 0x1 PUSH1 0x1 PUSH1 0xA0 SHL SUB SWAP1 SWAP2 AND SWAP1 PUSH4 0x84773DA2 SWAP1 PUSH2 0xA86 SWAP1 CALLER SWAP1 PUSH1 0x2 SWAP1 PUSH1 0x4 ADD PUSH2 0x256C JUMP JUMPDEST PUSH1 0x0 PUSH1 0x40 MLOAD DUP1 DUP4 SUB DUP2 PUSH1 0x0 DUP8 DUP1 EXTCODESIZE ISZERO DUP1 ISZERO PUSH2 0xAA0 JUMPI PUSH1 0x0 DUP1 REVERT JUMPDEST POP GAS CALL ISZERO DUP1 ISZERO PUSH2 0xAB4 JUMPI RETURNDATASIZE PUSH1 0x0 DUP1 RETURNDATACOPY RETURNDATASIZE PUSH1 0x0 REVERT JUMPDEST POP POP POP POP DUP1 ISZERO ISZERO PUSH1 0x1 EQ ISZERO PUSH2 0xB06 JUMPI PUSH1 0xA DUP1 SLOAD PUSH1 0x1 DUP2 ADD DUP3 SSTORE PUSH1 0x0 SWAP2 SWAP1 SWAP2 MSTORE PUSH32 0xC65A7BB8D6351C1CF70C95A316CC6A92839C986682D98BC35F958F4883F9D2A8 ADD DUP1 SLOAD PUSH1 0x1 PUSH1 0x1 PUSH1 0xA0 SHL SUB NOT AND CALLER OR SWAP1 SSTORE JUMPDEST POP JUMP JUMPDEST PUSH1 0xE PUSH1 0x20 MSTORE DUP2 PUSH1 0x0 MSTORE PUSH1 0x40 PUSH1 0x0 KECCAK256 DUP2 DUP2 SLOAD DUP2 LT PUSH2 0xB25 JUMPI PUSH1 0x0 DUP1 REVERT JUMPDEST SWAP1 PUSH1 0x0 MSTORE PUSH1 0x20 PUSH1 0x0 KECCAK256 ADD PUSH1 0x0 SWAP2 POP SWAP2 POP POP SLOAD DUP2 JUMP JUMPDEST PUSH1 0x15 PUSH1 0x20 MSTORE PUSH1 0x0 SWAP1 DUP2 MSTORE PUSH1 0x40 SWAP1 KECCAK256 SLOAD PUSH1 0xFF AND DUP2 JUMP JUMPDEST PUSH1 0x0 DUP4 DUP2 MSTORE PUSH1 0xD PUSH1 0x20 MSTORE PUSH1 0x40 DUP2 KECCAK256 SWAP1 DUP1 JUMPDEST PUSH1 0x5 DUP4 ADD SLOAD DUP2 LT ISZERO PUSH2 0xBCF JUMPI CALLER PUSH1 0x1 PUSH1 0x1 PUSH1 0xA0 SHL SUB AND DUP4 PUSH1 0x5 ADD DUP3 DUP2 SLOAD DUP2 LT PUSH2 0xB99 JUMPI PUSH4 0x4E487B71 PUSH1 0xE0 SHL PUSH1 0x0 MSTORE PUSH1 0x32 PUSH1 0x4 MSTORE PUSH1 0x24 PUSH1 0x0 REVERT JUMPDEST PUSH1 0x0 SWAP2 DUP3 MSTORE PUSH1 0x20 SWAP1 SWAP2 KECCAK256 ADD SLOAD PUSH1 0x1 PUSH1 0x1 PUSH1 0xA0 SHL SUB AND EQ ISZERO PUSH2 0xBBD JUMPI PUSH1 0x1 SWAP2 POP PUSH2 0xBCF JUMP JUMPDEST DUP1 PUSH2 0xBC7 DUP2 PUSH2 0x2B5D JUMP JUMPDEST SWAP2 POP POP PUSH2 0xB60 JUMP JUMPDEST POP DUP1 PUSH2 0xBED JUMPI PUSH1 0x40 MLOAD PUSH3 0x461BCD PUSH1 0xE5 SHL DUP2 MSTORE PUSH1 0x4 ADD PUSH2 0x93A SWAP1 PUSH2 0x2A3B JUMP JUMPDEST PUSH1 0x6 DUP3 ADD DUP1 SLOAD PUSH1 0x1 DUP2 ADD DUP3 SSTORE PUSH1 0x0 SWAP2 DUP3 MSTORE PUSH1 0x20 SWAP2 DUP3 SWAP1 KECCAK256 SWAP2 DUP2 DIV SWAP1 SWAP2 ADD DUP1 SLOAD DUP7 SWAP3 PUSH1 0x1F AND PUSH2 0x100 EXP PUSH1 0xFF DUP2 MUL NOT SWAP1 SWAP2 AND SWAP1 DUP4 PUSH1 0x3 DUP2 GT ISZERO PUSH2 0xC3E JUMPI PUSH4 0x4E487B71 PUSH1 0xE0 SHL PUSH1 0x0 MSTORE PUSH1 0x21 PUSH1 0x4 MSTORE PUSH1 0x24 PUSH1 0x0 REVERT JUMPDEST MUL OR SWAP1 SSTORE POP PUSH1 0x7 DUP3 ADD DUP1 SLOAD PUSH1 0x1 DUP2 ADD DUP3 SSTORE PUSH1 0x0 SWAP2 DUP3 MSTORE PUSH1 0x20 SWAP2 DUP3 SWAP1 KECCAK256 DUP6 MLOAD PUSH2 0xC6E SWAP4 SWAP2 SWAP1 SWAP3 ADD SWAP2 SWAP1 DUP7 ADD SWAP1 PUSH2 0x1FFC JUMP JUMPDEST POP PUSH1 0x1 DUP3 PUSH1 0xC ADD PUSH1 0x0 DUP3 DUP3 SLOAD PUSH2 0xC84 SWAP2 SWAP1 PUSH2 0x2A94 JUMP JUMPDEST SWAP1 SWAP2 SSTORE POP POP POP POP POP POP POP JUMP JUMPDEST PUSH1 0x14 PUSH1 0x20 MSTORE PUSH1 0x0 SWAP1 DUP2 MSTORE PUSH1 0x40 SWAP1 KECCAK256 SLOAD DUP2 JUMP JUMPDEST PUSH1 0x1 DUP2 ISZERO ISZERO EQ ISZERO PUSH2 0xCF4 JUMPI PUSH1 0xA DUP1 SLOAD PUSH1 0x1 DUP2 ADD DUP3 SSTORE PUSH1 0x0 SWAP2 SWAP1 SWAP2 MSTORE PUSH32 0xC65A7BB8D6351C1CF70C95A316CC6A92839C986682D98BC35F958F4883F9D2A8 ADD DUP1 SLOAD PUSH1 0x1 PUSH1 0x1 PUSH1 0xA0 SHL SUB NOT AND CALLER OR SWAP1 SSTORE PUSH2 0xB06 JUMP JUMPDEST PUSH2 0xB06 PUSH1 0xA CALLER PUSH2 0x168D JUMP JUMPDEST PUSH1 0x0 DUP2 DUP2 MSTORE PUSH1 0xD PUSH1 0x20 MSTORE PUSH1 0x40 SWAP1 KECCAK256 PUSH1 0x3 ADD DUP1 SLOAD PUSH1 0x60 SWAP2 SWAP1 PUSH2 0xD1F SWAP1 PUSH2 0x2B22 JUMP JUMPDEST DUP1 PUSH1 0x1F ADD PUSH1 0x20 DUP1 SWAP2 DIV MUL PUSH1 0x20 ADD PUSH1 0x40 MLOAD SWAP1 DUP2 ADD PUSH1 0x40 MSTORE DUP1 SWAP3 SWAP2 SWAP1 DUP2 DUP2 MSTORE PUSH1 0x20 ADD DUP3 DUP1 SLOAD PUSH2 0xD4B SWAP1 PUSH2 0x2B22 JUMP JUMPDEST DUP1 ISZERO PUSH2 0xD98 JUMPI DUP1 PUSH1 0x1F LT PUSH2 0xD6D JUMPI PUSH2 0x100 DUP1 DUP4 SLOAD DIV MUL DUP4 MSTORE SWAP2 PUSH1 0x20 ADD SWAP2 PUSH2 0xD98 JUMP JUMPDEST DUP3 ADD SWAP2 SWAP1 PUSH1 0x0 MSTORE PUSH1 0x20 PUSH1 0x0 KECCAK256 SWAP1 JUMPDEST DUP2 SLOAD DUP2 MSTORE SWAP1 PUSH1 0x1 ADD SWAP1 PUSH1 0x20 ADD DUP1 DUP4 GT PUSH2 0xD7B JUMPI DUP3 SWAP1 SUB PUSH1 0x1F AND DUP3 ADD SWAP2 JUMPDEST POP POP POP POP POP SWAP1 POP SWAP2 SWAP1 POP JUMP JUMPDEST PUSH1 0x9 SLOAD PUSH1 0x1 PUSH1 0x1 PUSH1 0xA0 SHL SUB AND CALLER EQ PUSH2 0xDCE JUMPI PUSH1 0x40 MLOAD PUSH3 0x461BCD PUSH1 0xE5 SHL DUP2 MSTORE PUSH1 0x4 ADD PUSH2 0x93A SWAP1 PUSH2 0x26EC JUMP JUMPDEST PUSH1 0xF DUP1 SLOAD PUSH1 0x1 DUP2 DUP2 ADD SWAP1 SWAP3 SSTORE PUSH32 0x8D1108E10BCB7C27DDDFC02ED9D693A074039D026CF4EA4240B40F7D581AC802 ADD DUP1 SLOAD PUSH1 0x1 PUSH1 0x1 PUSH1 0xA0 SHL SUB SWAP1 SWAP4 AND PUSH1 0x1 PUSH1 0x1 PUSH1 0xA0 SHL SUB NOT SWAP1 SWAP4 AND DUP4 OR SWAP1 SSTORE PUSH1 0x0 SWAP2 DUP3 MSTORE PUSH1 0x10 PUSH1 0x20 MSTORE PUSH1 0x40 SWAP1 SWAP2 KECCAK256 DUP1 SLOAD PUSH1 0xFF NOT AND SWAP1 SWAP2 OR SWAP1 SSTORE JUMP JUMPDEST PUSH1 0x0 DUP4 DUP2 MSTORE PUSH1 0xD PUSH1 0x20 MSTORE PUSH1 0x40 DUP2 KECCAK256 SWAP1 DUP1 JUMPDEST PUSH1 0x8 DUP4 ADD SLOAD DUP2 LT ISZERO PUSH2 0xEB5 JUMPI CALLER PUSH1 0x1 PUSH1 0x1 PUSH1 0xA0 SHL SUB AND DUP4 PUSH1 0x8 ADD DUP3 DUP2 SLOAD DUP2 LT PUSH2 0xE7F JUMPI PUSH4 0x4E487B71 PUSH1 0xE0 SHL PUSH1 0x0 MSTORE PUSH1 0x32 PUSH1 0x4 MSTORE PUSH1 0x24 PUSH1 0x0 REVERT JUMPDEST PUSH1 0x0 SWAP2 DUP3 MSTORE PUSH1 0x20 SWAP1 SWAP2 KECCAK256 ADD SLOAD PUSH1 0x1 PUSH1 0x1 PUSH1 0xA0 SHL SUB AND EQ ISZERO PUSH2 0xEA3 JUMPI PUSH1 0x1 SWAP2 POP PUSH2 0xEB5 JUMP JUMPDEST DUP1 PUSH2 0xEAD DUP2 PUSH2 0x2B5D JUMP JUMPDEST SWAP2 POP POP PUSH2 0xE46 JUMP JUMPDEST POP DUP1 PUSH2 0xED3 JUMPI PUSH1 0x40 MLOAD PUSH3 0x461BCD PUSH1 0xE5 SHL DUP2 MSTORE PUSH1 0x4 ADD PUSH2 0x93A SWAP1 PUSH2 0x2733 JUMP JUMPDEST PUSH1 0x4 SLOAD PUSH1 0x0 DUP7 DUP2 MSTORE PUSH1 0xD PUSH1 0x20 MSTORE PUSH1 0x40 SWAP1 KECCAK256 PUSH1 0xC ADD SLOAD LT ISZERO PUSH2 0xF06 JUMPI PUSH1 0x40 MLOAD PUSH3 0x461BCD PUSH1 0xE5 SHL DUP2 MSTORE PUSH1 0x4 ADD PUSH2 0x93A SWAP1 PUSH2 0x2986 JUMP JUMPDEST PUSH1 0x9 DUP3 ADD DUP1 SLOAD PUSH1 0x1 DUP2 ADD DUP3 SSTORE PUSH1 0x0 SWAP2 DUP3 MSTORE PUSH1 0x20 SWAP2 DUP3 SWAP1 KECCAK256 SWAP2 DUP2 DIV SWAP1 SWAP2 ADD DUP1 SLOAD DUP7 SWAP3 PUSH1 0x1F AND PUSH2 0x100 EXP PUSH1 0xFF DUP2 MUL NOT SWAP1 SWAP2 AND SWAP1 DUP4 PUSH1 0x3 DUP2 GT ISZERO PUSH2 0xF57 JUMPI PUSH4 0x4E487B71 PUSH1 0xE0 SHL PUSH1 0x0 MSTORE PUSH1 0x21 PUSH1 0x4 MSTORE PUSH1 0x24 PUSH1 0x0 REVERT JUMPDEST MUL OR SWAP1 SSTORE POP PUSH1 0xA DUP3 ADD DUP1 SLOAD PUSH1 0x1 DUP2 ADD DUP3 SSTORE PUSH1 0x0 SWAP2 DUP3 MSTORE PUSH1 0x20 SWAP2 DUP3 SWAP1 KECCAK256 DUP6 MLOAD PUSH2 0xF87 SWAP4 SWAP2 SWAP1 SWAP3 ADD SWAP2 SWAP1 DUP7 ADD SWAP1 PUSH2 0x1FFC JUMP JUMPDEST POP PUSH1 0x4 SLOAD PUSH1 0x6 SLOAD PUSH2 0xF98 SWAP2 SWAP1 PUSH2 0x2A94 JUMP JUMPDEST PUSH1 0x0 DUP7 DUP2 MSTORE PUSH1 0xD PUSH1 0x20 MSTORE PUSH1 0x40 SWAP1 KECCAK256 PUSH1 0xC ADD SLOAD EQ ISZERO PUSH2 0x6C7 JUMPI PUSH2 0x6C7 DUP6 PUSH2 0x6CE JUMP JUMPDEST PUSH1 0x13 SLOAD PUSH1 0x4 SLOAD PUSH1 0x12 SLOAD PUSH1 0x0 SWAP3 SWAP2 PUSH2 0xFCF SWAP2 PUSH2 0x2AC0 JUMP JUMPDEST GT PUSH2 0xFEC JUMPI PUSH1 0x40 MLOAD PUSH3 0x461BCD PUSH1 0xE5 SHL DUP2 MSTORE PUSH1 0x4 ADD PUSH2 0x93A SWAP1 PUSH2 0x29CD JUMP JUMPDEST PUSH1 0x1 PUSH1 0x13 PUSH1 0x0 DUP3 DUP3 SLOAD PUSH2 0xFFF SWAP2 SWAP1 PUSH2 0x2A94 JUMP JUMPDEST SWAP1 SWAP2 SSTORE POP POP PUSH1 0x4 SLOAD PUSH1 0x13 SLOAD PUSH1 0x12 SWAP2 PUSH2 0x1016 SWAP2 PUSH2 0x2AAC JUMP JUMPDEST DUP2 SLOAD DUP2 LT PUSH2 0x1034 JUMPI PUSH4 0x4E487B71 PUSH1 0xE0 SHL PUSH1 0x0 MSTORE PUSH1 0x32 PUSH1 0x4 MSTORE PUSH1 0x24 PUSH1 0x0 REVERT JUMPDEST SWAP1 PUSH1 0x0 MSTORE PUSH1 0x20 PUSH1 0x0 KECCAK256 ADD SLOAD SWAP1 POP SWAP1 JUMP JUMPDEST CALLER PUSH1 0x0 SWAP1 DUP2 MSTORE PUSH1 0xE PUSH1 0x20 SWAP1 DUP2 MSTORE PUSH1 0x40 SWAP2 DUP3 SWAP1 KECCAK256 DUP1 SLOAD DUP4 MLOAD DUP2 DUP5 MUL DUP2 ADD DUP5 ADD SWAP1 SWAP5 MSTORE DUP1 DUP5 MSTORE PUSH1 0x60 SWAP4 SWAP3 DUP4 ADD DUP3 DUP3 DUP1 ISZERO PUSH2 0x109B JUMPI PUSH1 0x20 MUL DUP3 ADD SWAP2 SWAP1 PUSH1 0x0 MSTORE PUSH1 0x20 PUSH1 0x0 KECCAK256 SWAP1 JUMPDEST DUP2 SLOAD DUP2 MSTORE PUSH1 0x20 ADD SWAP1 PUSH1 0x1 ADD SWAP1 DUP1 DUP4 GT PUSH2 0x1087 JUMPI JUMPDEST POP POP POP POP POP SWAP1 POP SWAP1 JUMP JUMPDEST PUSH1 0x0 PUSH1 0x3 DUP1 SLOAD PUSH2 0x10B4 SWAP1 PUSH2 0x2B22 JUMP JUMPDEST DUP1 PUSH1 0x1F ADD PUSH1 0x20 DUP1 SWAP2 DIV MUL PUSH1 0x20 ADD PUSH1 0x40 MLOAD SWAP1 DUP2 ADD PUSH1 0x40 MSTORE DUP1 SWAP3 SWAP2 SWAP1 DUP2 DUP2 MSTORE PUSH1 0x20 ADD DUP3 DUP1 SLOAD PUSH2 0x10E0 SWAP1 PUSH2 0x2B22 JUMP JUMPDEST DUP1 ISZERO PUSH2 0x112D JUMPI DUP1 PUSH1 0x1F LT PUSH2 0x1102 JUMPI PUSH2 0x100 DUP1 DUP4 SLOAD DIV MUL DUP4 MSTORE SWAP2 PUSH1 0x20 ADD SWAP2 PUSH2 0x112D JUMP JUMPDEST DUP3 ADD SWAP2 SWAP1 PUSH1 0x0 MSTORE PUSH1 0x20 PUSH1 0x0 KECCAK256 SWAP1 JUMPDEST DUP2 SLOAD DUP2 MSTORE SWAP1 PUSH1 0x1 ADD SWAP1 PUSH1 0x20 ADD DUP1 DUP4 GT PUSH2 0x1110 JUMPI DUP3 SWAP1 SUB PUSH1 0x1F AND DUP3 ADD SWAP2 JUMPDEST POP POP POP POP POP SWAP1 POP DUP4 ISZERO PUSH2 0x11C8 JUMPI PUSH1 0x5 DUP1 SLOAD PUSH2 0x1147 SWAP1 PUSH2 0x2B22 JUMP JUMPDEST DUP1 PUSH1 0x1F ADD PUSH1 0x20 DUP1 SWAP2 DIV MUL PUSH1 0x20 ADD PUSH1 0x40 MLOAD SWAP1 DUP2 ADD PUSH1 0x40 MSTORE DUP1 SWAP3 SWAP2 SWAP1 DUP2 DUP2 MSTORE PUSH1 0x20 ADD DUP3 DUP1 SLOAD PUSH2 0x1173 SWAP1 PUSH2 0x2B22 JUMP JUMPDEST DUP1 ISZERO PUSH2 0x11C0 JUMPI DUP1 PUSH1 0x1F LT PUSH2 0x1195 JUMPI PUSH2 0x100 DUP1 DUP4 SLOAD DIV MUL DUP4 MSTORE SWAP2 PUSH1 0x20 ADD SWAP2 PUSH2 0x11C0 JUMP JUMPDEST DUP3 ADD SWAP2 SWAP1 PUSH1 0x0 MSTORE PUSH1 0x20 PUSH1 0x0 KECCAK256 SWAP1 JUMPDEST DUP2 SLOAD DUP2 MSTORE SWAP1 PUSH1 0x1 ADD SWAP1 PUSH1 0x20 ADD DUP1 DUP4 GT PUSH2 0x11A3 JUMPI DUP3 SWAP1 SUB PUSH1 0x1F AND DUP3 ADD SWAP2 JUMPDEST POP POP POP POP POP SWAP1 POP JUMPDEST PUSH1 0x40 MLOAD PUSH1 0x20 ADD PUSH2 0x11D7 SWAP1 PUSH2 0x24FF JUMP JUMPDEST PUSH1 0x40 MLOAD PUSH1 0x20 DUP2 DUP4 SUB SUB DUP2 MSTORE SWAP1 PUSH1 0x40 MSTORE DUP1 MLOAD SWAP1 PUSH1 0x20 ADD KECCAK256 DUP2 PUSH1 0x40 MLOAD PUSH1 0x20 ADD PUSH2 0x11FE SWAP2 SWAP1 PUSH2 0x24E3 JUMP JUMPDEST PUSH1 0x40 MLOAD PUSH1 0x20 DUP2 DUP4 SUB SUB DUP2 MSTORE SWAP1 PUSH1 0x40 MSTORE DUP1 MLOAD SWAP1 PUSH1 0x20 ADD KECCAK256 EQ ISZERO PUSH2 0x122A JUMPI PUSH2 0x1225 DUP6 DUP5 DUP5 PUSH2 0x17D4 JUMP JUMPDEST PUSH2 0x6C7 JUMP JUMPDEST PUSH1 0x40 MLOAD PUSH1 0x20 ADD PUSH2 0x1239 SWAP1 PUSH2 0x2551 JUMP JUMPDEST PUSH1 0x40 MLOAD PUSH1 0x20 DUP2 DUP4 SUB SUB DUP2 MSTORE SWAP1 PUSH1 0x40 MSTORE DUP1 MLOAD SWAP1 PUSH1 0x20 ADD KECCAK256 DUP2 PUSH1 0x40 MLOAD PUSH1 0x20 ADD PUSH2 0x1260 SWAP2 SWAP1 PUSH2 0x24E3 JUMP JUMPDEST PUSH1 0x40 MLOAD PUSH1 0x20 DUP2 DUP4 SUB SUB DUP2 MSTORE SWAP1 PUSH1 0x40 MSTORE DUP1 MLOAD SWAP1 PUSH1 0x20 ADD KECCAK256 EQ ISZERO PUSH2 0x128D JUMPI PUSH2 0x1287 DUP6 DUP5 DUP5 PUSH2 0x18F5 JUMP JUMPDEST POP PUSH2 0x6C7 JUMP JUMPDEST PUSH1 0x40 MLOAD PUSH1 0x20 ADD PUSH2 0x129C SWAP1 PUSH2 0x2511 JUMP JUMPDEST PUSH1 0x40 MLOAD PUSH1 0x20 DUP2 DUP4 SUB SUB DUP2 MSTORE SWAP1 PUSH1 0x40 MSTORE DUP1 MLOAD SWAP1 PUSH1 0x20 ADD KECCAK256 DUP2 PUSH1 0x40 MLOAD PUSH1 0x20 ADD PUSH2 0x12C3 SWAP2 SWAP1 PUSH2 0x24E3 JUMP JUMPDEST PUSH1 0x40 MLOAD PUSH1 0x20 DUP2 DUP4 SUB SUB DUP2 MSTORE SWAP1 PUSH1 0x40 MSTORE DUP1 MLOAD SWAP1 PUSH1 0x20 ADD KECCAK256 EQ ISZERO PUSH2 0x12E9 JUMPI PUSH2 0x1225 DUP6 DUP4 PUSH2 0x1E8A JUMP JUMPDEST PUSH1 0x40 MLOAD PUSH1 0x20 ADD PUSH2 0x12F8 SWAP1 PUSH2 0x2523 JUMP JUMPDEST PUSH1 0x40 MLOAD PUSH1 0x20 DUP2 DUP4 SUB SUB DUP2 MSTORE SWAP1 PUSH1 0x40 MSTORE DUP1 MLOAD SWAP1 PUSH1 0x20 ADD KECCAK256 DUP2 PUSH1 0x40 MLOAD PUSH1 0x20 ADD PUSH2 0x131F SWAP2 SWAP1 PUSH2 0x24E3 JUMP JUMPDEST PUSH1 0x40 MLOAD PUSH1 0x20 DUP2 DUP4 SUB SUB DUP2 MSTORE SWAP1 PUSH1 0x40 MSTORE DUP1 MLOAD SWAP1 PUSH1 0x20 ADD KECCAK256 EQ ISZERO PUSH2 0x137E JUMPI PUSH2 0x1344 DUP3 PUSH2 0x1F66 JUMP JUMPDEST PUSH32 0x22F448A9D055998F7EFC999AA4081DD835921A7B44F977951F7D001E2E48155B PUSH1 0x40 MLOAD PUSH2 0x1371 SWAP1 PUSH2 0x2782 JUMP JUMPDEST PUSH1 0x40 MLOAD DUP1 SWAP2 SUB SWAP1 LOG1 PUSH2 0x6C7 JUMP JUMPDEST PUSH1 0x40 MLOAD PUSH1 0x20 ADD PUSH2 0x138D SWAP1 PUSH2 0x253A JUMP JUMPDEST PUSH1 0x40 MLOAD PUSH1 0x20 DUP2 DUP4 SUB SUB DUP2 MSTORE SWAP1 PUSH1 0x40 MSTORE DUP1 MLOAD SWAP1 PUSH1 0x20 ADD KECCAK256 DUP2 PUSH1 0x40 MLOAD PUSH1 0x20 ADD PUSH2 0x13B4 SWAP2 SWAP1 PUSH2 0x24E3 JUMP JUMPDEST PUSH1 0x40 MLOAD PUSH1 0x20 DUP2 DUP4 SUB SUB DUP2 MSTORE SWAP1 PUSH1 0x40 MSTORE DUP1 MLOAD SWAP1 PUSH1 0x20 ADD KECCAK256 EQ ISZERO PUSH2 0x6C7 JUMPI DUP4 PUSH2 0x140B JUMPI PUSH2 0x13DE DUP3 PUSH2 0x1F9B JUMP JUMPDEST PUSH32 0x22F448A9D055998F7EFC999AA4081DD835921A7B44F977951F7D001E2E48155B PUSH1 0x40 MLOAD PUSH2 0x1371 SWAP1 PUSH2 0x287E JUMP JUMPDEST PUSH2 0x1414 DUP3 PUSH2 0x1F9B JUMP JUMPDEST PUSH32 0x22F448A9D055998F7EFC999AA4081DD835921A7B44F977951F7D001E2E48155B PUSH1 0x40 MLOAD PUSH2 0x1441 SWAP1 PUSH2 0x27D6 JUMP JUMPDEST PUSH1 0x40 MLOAD DUP1 SWAP2 SUB SWAP1 LOG1 POP POP POP POP POP JUMP JUMPDEST PUSH1 0x0 DUP2 DUP2 MSTORE PUSH1 0xD PUSH1 0x20 MSTORE PUSH1 0x40 DUP1 DUP3 KECCAK256 DUP2 MLOAD PUSH1 0x2 DUP1 DUP3 MSTORE PUSH1 0x60 DUP3 ADD SWAP1 SWAP4 MSTORE SWAP1 SWAP3 SWAP2 DUP2 PUSH1 0x20 ADD PUSH1 0x20 DUP3 MUL DUP1 CALLDATASIZE DUP4 CALLDATACOPY ADD SWAP1 POP POP SWAP1 POP PUSH1 0x0 JUMPDEST PUSH1 0x9 DUP4 ADD SLOAD DUP2 LT ISZERO PUSH2 0x153C JUMPI DUP2 DUP4 PUSH1 0x9 ADD DUP3 DUP2 SLOAD DUP2 LT PUSH2 0x14B5 JUMPI PUSH4 0x4E487B71 PUSH1 0xE0 SHL PUSH1 0x0 MSTORE PUSH1 0x32 PUSH1 0x4 MSTORE PUSH1 0x24 PUSH1 0x0 REVERT JUMPDEST SWAP1 PUSH1 0x0 MSTORE PUSH1 0x20 PUSH1 0x0 KECCAK256 SWAP1 PUSH1 0x20 SWAP2 DUP3 DUP3 DIV ADD SWAP2 SWAP1 MOD SWAP1 SLOAD SWAP1 PUSH2 0x100 EXP SWAP1 DIV PUSH1 0xFF AND PUSH1 0x3 DUP2 GT ISZERO PUSH2 0x14F4 JUMPI PUSH4 0x4E487B71 PUSH1 0xE0 SHL PUSH1 0x0 MSTORE PUSH1 0x21 PUSH1 0x4 MSTORE PUSH1 0x24 PUSH1 0x0 REVERT JUMPDEST DUP2 MLOAD DUP2 LT PUSH2 0x1512 JUMPI PUSH4 0x4E487B71 PUSH1 0xE0 SHL PUSH1 0x0 MSTORE PUSH1 0x32 PUSH1 0x4 MSTORE PUSH1 0x24 PUSH1 0x0 REVERT JUMPDEST PUSH1 0x20 MUL PUSH1 0x20 ADD ADD DUP1 MLOAD DUP1 SWAP2 SWAP1 PUSH2 0x1527 SWAP1 PUSH2 0x2B5D JUMP JUMPDEST SWAP1 MSTORE POP DUP1 PUSH2 0x1534 DUP2 PUSH2 0x2B5D JUMP JUMPDEST SWAP2 POP POP PUSH2 0x1485 JUMP JUMPDEST POP PUSH1 0x0 DUP1 PUSH1 0x0 JUMPDEST DUP4 MLOAD DUP2 LT ISZERO PUSH2 0x15BB JUMPI DUP3 DUP5 DUP3 DUP2 MLOAD DUP2 LT PUSH2 0x156D JUMPI PUSH4 0x4E487B71 PUSH1 0xE0 SHL PUSH1 0x0 MSTORE PUSH1 0x32 PUSH1 0x4 MSTORE PUSH1 0x24 PUSH1 0x0 REVERT JUMPDEST PUSH1 0x20 MUL PUSH1 0x20 ADD ADD MLOAD GT ISZERO PUSH2 0x15A9 JUMPI DUP4 DUP2 DUP2 MLOAD DUP2 LT PUSH2 0x159B JUMPI PUSH4 0x4E487B71 PUSH1 0xE0 SHL PUSH1 0x0 MSTORE PUSH1 0x32 PUSH1 0x4 MSTORE PUSH1 0x24 PUSH1 0x0 REVERT JUMPDEST PUSH1 0x20 MUL PUSH1 0x20 ADD ADD MLOAD SWAP3 POP DUP1 SWAP2 POP JUMPDEST DUP1 PUSH2 0x15B3 DUP2 PUSH2 0x2B5D JUMP JUMPDEST SWAP2 POP POP PUSH2 0x1543 JUMP JUMPDEST POP DUP1 PUSH1 0x3 DUP2 GT ISZERO PUSH2 0x15DC JUMPI PUSH4 0x4E487B71 PUSH1 0xE0 SHL PUSH1 0x0 MSTORE PUSH1 0x21 PUSH1 0x4 MSTORE PUSH1 0x24 PUSH1 0x0 REVERT JUMPDEST PUSH1 0xB DUP6 ADD DUP1 SLOAD PUSH1 0xFF NOT AND PUSH1 0x1 DUP4 PUSH1 0x3 DUP2 GT ISZERO PUSH2 0x1608 JUMPI PUSH4 0x4E487B71 PUSH1 0xE0 SHL PUSH1 0x0 MSTORE PUSH1 0x21 PUSH1 0x4 MSTORE PUSH1 0x24 PUSH1 0x0 REVERT JUMPDEST MUL OR SWAP1 SSTORE POP POP POP POP POP POP JUMP JUMPDEST PUSH1 0x0 DUP5 DUP2 MSTORE PUSH1 0xD PUSH1 0x20 MSTORE PUSH1 0x40 DUP2 KECCAK256 SWAP1 DUP5 PUSH2 0x1631 JUMPI DUP2 PUSH1 0x8 ADD PUSH2 0x1636 JUMP JUMPDEST DUP2 PUSH1 0x5 ADD JUMPDEST SWAP1 POP PUSH2 0x1676 DUP2 DUP3 DUP7 DUP2 SLOAD DUP2 LT PUSH2 0x165C JUMPI PUSH4 0x4E487B71 PUSH1 0xE0 SHL PUSH1 0x0 MSTORE PUSH1 0x32 PUSH1 0x4 MSTORE PUSH1 0x24 PUSH1 0x0 REVERT JUMPDEST PUSH1 0x0 SWAP2 DUP3 MSTORE PUSH1 0x20 SWAP1 SWAP2 KECCAK256 ADD SLOAD PUSH1 0x1 PUSH1 0x1 PUSH1 0xA0 SHL SUB AND PUSH2 0x168D JUMP JUMPDEST DUP5 ISZERO PUSH2 0x1684 DUP3 DUP3 DUP7 DUP11 PUSH2 0x10A5 JUMP JUMPDEST POP POP POP POP POP POP POP JUMP JUMPDEST PUSH1 0x0 JUMPDEST DUP3 SLOAD DUP2 LT ISZERO PUSH2 0x17CF JUMPI DUP2 PUSH1 0x1 PUSH1 0x1 PUSH1 0xA0 SHL SUB AND DUP4 DUP3 DUP2 SLOAD DUP2 LT PUSH2 0x16C3 JUMPI PUSH4 0x4E487B71 PUSH1 0xE0 SHL PUSH1 0x0 MSTORE PUSH1 0x32 PUSH1 0x4 MSTORE PUSH1 0x24 PUSH1 0x0 REVERT JUMPDEST PUSH1 0x0 SWAP2 DUP3 MSTORE PUSH1 0x20 SWAP1 SWAP2 KECCAK256 ADD SLOAD PUSH1 0x1 PUSH1 0x1 PUSH1 0xA0 SHL SUB AND EQ ISZERO PUSH2 0x17BD JUMPI DUP3 SLOAD DUP4 SWAP1 PUSH2 0x16EE SWAP1 PUSH1 0x1 SWAP1 PUSH2 0x2ADF JUMP JUMPDEST DUP2 SLOAD DUP2 LT PUSH2 0x170C JUMPI PUSH4 0x4E487B71 PUSH1 0xE0 SHL PUSH1 0x0 MSTORE PUSH1 0x32 PUSH1 0x4 MSTORE PUSH1 0x24 PUSH1 0x0 REVERT JUMPDEST SWAP1 PUSH1 0x0 MSTORE PUSH1 0x20 PUSH1 0x0 KECCAK256 ADD PUSH1 0x0 SWAP1 SLOAD SWAP1 PUSH2 0x100 EXP SWAP1 DIV PUSH1 0x1 PUSH1 0x1 PUSH1 0xA0 SHL SUB AND DUP4 DUP3 DUP2 SLOAD DUP2 LT PUSH2 0x174A JUMPI PUSH4 0x4E487B71 PUSH1 0xE0 SHL PUSH1 0x0 MSTORE PUSH1 0x32 PUSH1 0x4 MSTORE PUSH1 0x24 PUSH1 0x0 REVERT JUMPDEST SWAP1 PUSH1 0x0 MSTORE PUSH1 0x20 PUSH1 0x0 KECCAK256 ADD PUSH1 0x0 PUSH2 0x100 EXP DUP2 SLOAD DUP2 PUSH1 0x1 PUSH1 0x1 PUSH1 0xA0 SHL SUB MUL NOT AND SWAP1 DUP4 PUSH1 0x1 PUSH1 0x1 PUSH1 0xA0 SHL SUB AND MUL OR SWAP1 SSTORE POP DUP3 DUP1 SLOAD DUP1 PUSH2 0x1796 JUMPI PUSH4 0x4E487B71 PUSH1 0xE0 SHL PUSH1 0x0 MSTORE PUSH1 0x31 PUSH1 0x4 MSTORE PUSH1 0x24 PUSH1 0x0 REVERT JUMPDEST PUSH1 0x0 DUP3 DUP2 MSTORE PUSH1 0x20 SWAP1 KECCAK256 DUP2 ADD PUSH1 0x0 NOT SWAP1 DUP2 ADD DUP1 SLOAD PUSH1 0x1 PUSH1 0x1 PUSH1 0xA0 SHL SUB NOT AND SWAP1 SSTORE ADD SWAP1 SSTORE PUSH2 0x17CF JUMP JUMPDEST DUP1 PUSH2 0x17C7 DUP2 PUSH2 0x2B5D JUMP JUMPDEST SWAP2 POP POP PUSH2 0x1690 JUMP JUMPDEST POP POP POP JUMP JUMPDEST PUSH1 0xA SLOAD DUP3 LT PUSH2 0x17F5 JUMPI PUSH1 0x40 MLOAD PUSH3 0x461BCD PUSH1 0xE5 SHL DUP2 MSTORE PUSH1 0x4 ADD PUSH2 0x93A SWAP1 PUSH2 0x2958 JUMP JUMPDEST PUSH1 0x0 JUMPDEST DUP3 DUP2 LT ISZERO PUSH2 0x18EF JUMPI PUSH1 0xA SLOAD PUSH1 0x40 MLOAD PUSH1 0x0 SWAP2 SWAP1 PUSH2 0x1818 SWAP1 TIMESTAMP SWAP1 PUSH1 0x20 ADD PUSH2 0x2563 JUMP JUMPDEST PUSH1 0x40 MLOAD PUSH1 0x20 DUP2 DUP4 SUB SUB DUP2 MSTORE SWAP1 PUSH1 0x40 MSTORE DUP1 MLOAD SWAP1 PUSH1 0x20 ADD KECCAK256 PUSH1 0x0 SHR PUSH2 0x183B SWAP2 SWAP1 PUSH2 0x2B78 JUMP JUMPDEST SWAP1 POP DUP5 PUSH1 0xA DUP3 DUP2 SLOAD DUP2 LT PUSH2 0x185F JUMPI PUSH4 0x4E487B71 PUSH1 0xE0 SHL PUSH1 0x0 MSTORE PUSH1 0x32 PUSH1 0x4 MSTORE PUSH1 0x24 PUSH1 0x0 REVERT JUMPDEST PUSH1 0x0 SWAP2 DUP3 MSTORE PUSH1 0x20 DUP1 DUP4 KECCAK256 SWAP1 SWAP2 ADD SLOAD DUP4 SLOAD PUSH1 0x1 DUP2 ADD DUP6 SSTORE SWAP4 DUP4 MSTORE SWAP2 KECCAK256 SWAP1 SWAP2 ADD DUP1 SLOAD PUSH1 0x1 PUSH1 0x1 PUSH1 0xA0 SHL SUB NOT AND PUSH1 0x1 PUSH1 0x1 PUSH1 0xA0 SHL SUB SWAP1 SWAP3 AND SWAP2 SWAP1 SWAP2 OR SWAP1 SSTORE PUSH1 0xA DUP1 SLOAD PUSH2 0x18DC SWAP2 SWAP1 DUP4 SWAP1 DUP2 LT PUSH2 0x18C1 JUMPI PUSH4 0x4E487B71 PUSH1 0xE0 SHL PUSH1 0x0 MSTORE PUSH1 0x32 PUSH1 0x4 MSTORE PUSH1 0x24 PUSH1 0x0 REVERT JUMPDEST PUSH1 0x0 SWAP2 DUP3 MSTORE PUSH1 0x20 SWAP1 SWAP2 KECCAK256 ADD SLOAD PUSH1 0x1 PUSH1 0x1 PUSH1 0xA0 SHL SUB AND DUP5 PUSH2 0x1FD0 JUMP JUMPDEST POP DUP1 PUSH2 0x18E7 DUP2 PUSH2 0x2B5D JUMP JUMPDEST SWAP2 POP POP PUSH2 0x17F8 JUMP JUMPDEST POP POP POP POP JUMP JUMPDEST PUSH1 0xA SLOAD PUSH1 0x60 SWAP1 PUSH1 0x0 DUP2 PUSH8 0xFFFFFFFFFFFFFFFF DUP2 GT ISZERO PUSH2 0x1924 JUMPI PUSH4 0x4E487B71 PUSH1 0xE0 SHL PUSH1 0x0 MSTORE PUSH1 0x41 PUSH1 0x4 MSTORE PUSH1 0x24 PUSH1 0x0 REVERT JUMPDEST PUSH1 0x40 MLOAD SWAP1 DUP1 DUP3 MSTORE DUP1 PUSH1 0x20 MUL PUSH1 0x20 ADD DUP3 ADD PUSH1 0x40 MSTORE DUP1 ISZERO PUSH2 0x194D JUMPI DUP2 PUSH1 0x20 ADD PUSH1 0x20 DUP3 MUL DUP1 CALLDATASIZE DUP4 CALLDATACOPY ADD SWAP1 POP JUMPDEST POP SWAP1 POP PUSH1 0x0 JUMPDEST DUP3 DUP2 LT ISZERO PUSH2 0x19E4 JUMPI PUSH1 0xA DUP2 DUP2 SLOAD DUP2 LT PUSH2 0x197C JUMPI PUSH4 0x4E487B71 PUSH1 0xE0 SHL PUSH1 0x0 MSTORE PUSH1 0x32 PUSH1 0x4 MSTORE PUSH1 0x24 PUSH1 0x0 REVERT JUMPDEST SWAP1 PUSH1 0x0 MSTORE PUSH1 0x20 PUSH1 0x0 KECCAK256 ADD PUSH1 0x0 SWAP1 SLOAD SWAP1 PUSH2 0x100 EXP SWAP1 DIV PUSH1 0x1 PUSH1 0x1 PUSH1 0xA0 SHL SUB AND DUP3 DUP3 DUP2 MLOAD DUP2 LT PUSH2 0x19BA JUMPI PUSH4 0x4E487B71 PUSH1 0xE0 SHL PUSH1 0x0 MSTORE PUSH1 0x32 PUSH1 0x4 MSTORE PUSH1 0x24 PUSH1 0x0 REVERT JUMPDEST PUSH1 0x1 PUSH1 0x1 PUSH1 0xA0 SHL SUB SWAP1 SWAP3 AND PUSH1 0x20 SWAP3 DUP4 MUL SWAP2 SWAP1 SWAP2 ADD SWAP1 SWAP2 ADD MSTORE DUP1 PUSH2 0x19DC DUP2 PUSH2 0x2B5D JUMP JUMPDEST SWAP2 POP POP PUSH2 0x1953 JUMP JUMPDEST POP PUSH1 0x0 JUMPDEST DUP3 DUP2 LT DUP1 ISZERO PUSH2 0x19F6 JUMPI POP DUP6 DUP2 LT JUMPDEST ISZERO PUSH2 0x1D98 JUMPI PUSH1 0x0 PUSH1 0x14 PUSH1 0x0 PUSH1 0xA PUSH1 0x0 DUP2 SLOAD DUP2 LT PUSH2 0x1A23 JUMPI PUSH4 0x4E487B71 PUSH1 0xE0 SHL PUSH1 0x0 MSTORE PUSH1 0x32 PUSH1 0x4 MSTORE PUSH1 0x24 PUSH1 0x0 REVERT JUMPDEST PUSH1 0x0 SWAP2 DUP3 MSTORE PUSH1 0x20 DUP1 DUP4 KECCAK256 SWAP1 SWAP2 ADD SLOAD PUSH1 0x1 PUSH1 0x1 PUSH1 0xA0 SHL SUB AND DUP4 MSTORE DUP3 ADD SWAP3 SWAP1 SWAP3 MSTORE PUSH1 0x40 ADD DUP2 KECCAK256 SLOAD PUSH1 0xA DUP1 SLOAD SWAP2 SWAP4 POP SWAP1 DUP3 SWAP1 PUSH2 0x1A6C JUMPI PUSH4 0x4E487B71 PUSH1 0xE0 SHL PUSH1 0x0 MSTORE PUSH1 0x32 PUSH1 0x4 MSTORE PUSH1 0x24 PUSH1 0x0 REVERT JUMPDEST PUSH1 0x0 SWAP2 DUP3 MSTORE PUSH1 0x20 SWAP1 SWAP2 KECCAK256 ADD SLOAD PUSH1 0x1 PUSH1 0x1 PUSH1 0xA0 SHL SUB AND SWAP1 POP PUSH1 0x1 JUMPDEST PUSH1 0xA SLOAD DUP2 LT ISZERO PUSH2 0x1BD0 JUMPI DUP3 PUSH1 0x14 PUSH1 0x0 PUSH1 0xA DUP5 DUP2 SLOAD DUP2 LT PUSH2 0x1AB6 JUMPI PUSH4 0x4E487B71 PUSH1 0xE0 SHL PUSH1 0x0 MSTORE PUSH1 0x32 PUSH1 0x4 MSTORE PUSH1 0x24 PUSH1 0x0 REVERT JUMPDEST PUSH1 0x0 SWAP2 DUP3 MSTORE PUSH1 0x20 DUP1 DUP4 KECCAK256 SWAP1 SWAP2 ADD SLOAD PUSH1 0x1 PUSH1 0x1 PUSH1 0xA0 SHL SUB AND DUP4 MSTORE DUP3 ADD SWAP3 SWAP1 SWAP3 MSTORE PUSH1 0x40 ADD SWAP1 KECCAK256 SLOAD GT DUP1 ISZERO PUSH2 0x1B31 JUMPI POP PUSH1 0x15 PUSH1 0x0 PUSH1 0xA DUP4 DUP2 SLOAD DUP2 LT PUSH2 0x1B08 JUMPI PUSH4 0x4E487B71 PUSH1 0xE0 SHL PUSH1 0x0 MSTORE PUSH1 0x32 PUSH1 0x4 MSTORE PUSH1 0x24 PUSH1 0x0 REVERT JUMPDEST PUSH1 0x0 SWAP2 DUP3 MSTORE PUSH1 0x20 DUP1 DUP4 KECCAK256 SWAP1 SWAP2 ADD SLOAD PUSH1 0x1 PUSH1 0x1 PUSH1 0xA0 SHL SUB AND DUP4 MSTORE DUP3 ADD SWAP3 SWAP1 SWAP3 MSTORE PUSH1 0x40 ADD SWAP1 KECCAK256 SLOAD PUSH1 0xFF AND JUMPDEST ISZERO PUSH2 0x1BBE JUMPI PUSH1 0x14 PUSH1 0x0 PUSH1 0xA DUP4 DUP2 SLOAD DUP2 LT PUSH2 0x1B5B JUMPI PUSH4 0x4E487B71 PUSH1 0xE0 SHL PUSH1 0x0 MSTORE PUSH1 0x32 PUSH1 0x4 MSTORE PUSH1 0x24 PUSH1 0x0 REVERT JUMPDEST PUSH1 0x0 SWAP2 DUP3 MSTORE PUSH1 0x20 DUP1 DUP4 KECCAK256 SWAP1 SWAP2 ADD SLOAD PUSH1 0x1 PUSH1 0x1 PUSH1 0xA0 SHL SUB AND DUP4 MSTORE DUP3 ADD SWAP3 SWAP1 SWAP3 MSTORE PUSH1 0x40 ADD SWAP1 KECCAK256 SLOAD PUSH1 0xA DUP1 SLOAD SWAP2 SWAP5 POP SWAP1 DUP3 SWAP1 DUP2 LT PUSH2 0x1BA6 JUMPI PUSH4 0x4E487B71 PUSH1 0xE0 SHL PUSH1 0x0 MSTORE PUSH1 0x32 PUSH1 0x4 MSTORE PUSH1 0x24 PUSH1 0x0 REVERT JUMPDEST PUSH1 0x0 SWAP2 DUP3 MSTORE PUSH1 0x20 SWAP1 SWAP2 KECCAK256 ADD SLOAD PUSH1 0x1 PUSH1 0x1 PUSH1 0xA0 SHL SUB AND SWAP2 POP JUMPDEST DUP1 PUSH2 0x1BC8 DUP2 PUSH2 0x2B5D JUMP JUMPDEST SWAP2 POP POP PUSH2 0x1A86 JUMP JUMPDEST POP DUP1 DUP10 DUP5 DUP2 SLOAD DUP2 LT PUSH2 0x1BF2 JUMPI PUSH4 0x4E487B71 PUSH1 0xE0 SHL PUSH1 0x0 MSTORE PUSH1 0x32 PUSH1 0x4 MSTORE PUSH1 0x24 PUSH1 0x0 REVERT JUMPDEST SWAP1 PUSH1 0x0 MSTORE PUSH1 0x20 PUSH1 0x0 KECCAK256 ADD PUSH1 0x0 PUSH2 0x100 EXP DUP2 SLOAD DUP2 PUSH1 0x1 PUSH1 0x1 PUSH1 0xA0 SHL SUB MUL NOT AND SWAP1 DUP4 PUSH1 0x1 PUSH1 0x1 PUSH1 0xA0 SHL SUB AND MUL OR SWAP1 SSTORE POP PUSH2 0x1C2A DUP2 DUP9 PUSH2 0x1FD0 JUMP JUMPDEST PUSH1 0x0 JUMPDEST PUSH1 0xA SLOAD DUP2 LT ISZERO PUSH2 0x1D82 JUMPI DUP2 PUSH1 0x1 PUSH1 0x1 PUSH1 0xA0 SHL SUB AND PUSH1 0xA DUP3 DUP2 SLOAD DUP2 LT PUSH2 0x1C62 JUMPI PUSH4 0x4E487B71 PUSH1 0xE0 SHL PUSH1 0x0 MSTORE PUSH1 0x32 PUSH1 0x4 MSTORE PUSH1 0x24 PUSH1 0x0 REVERT JUMPDEST PUSH1 0x0 SWAP2 DUP3 MSTORE PUSH1 0x20 SWAP1 SWAP2 KECCAK256 ADD SLOAD PUSH1 0x1 PUSH1 0x1 PUSH1 0xA0 SHL SUB AND EQ ISZERO PUSH2 0x1D70 JUMPI PUSH1 0xA SLOAD PUSH2 0x1C8C SWAP1 PUSH1 0x1 SWAP1 PUSH2 0x2ADF JUMP JUMPDEST DUP2 LT ISZERO PUSH2 0x1D2A JUMPI PUSH1 0xA DUP1 SLOAD PUSH2 0x1CA3 SWAP1 PUSH1 0x1 SWAP1 PUSH2 0x2ADF JUMP JUMPDEST DUP2 SLOAD DUP2 LT PUSH2 0x1CC1 JUMPI PUSH4 0x4E487B71 PUSH1 0xE0 SHL PUSH1 0x0 MSTORE PUSH1 0x32 PUSH1 0x4 MSTORE PUSH1 0x24 PUSH1 0x0 REVERT JUMPDEST PUSH1 0x0 SWAP2 DUP3 MSTORE PUSH1 0x20 SWAP1 SWAP2 KECCAK256 ADD SLOAD PUSH1 0xA DUP1 SLOAD PUSH1 0x1 PUSH1 0x1 PUSH1 0xA0 SHL SUB SWAP1 SWAP3 AND SWAP2 DUP4 SWAP1 DUP2 LT PUSH2 0x1CFB JUMPI PUSH4 0x4E487B71 PUSH1 0xE0 SHL PUSH1 0x0 MSTORE PUSH1 0x32 PUSH1 0x4 MSTORE PUSH1 0x24 PUSH1 0x0 REVERT JUMPDEST SWAP1 PUSH1 0x0 MSTORE PUSH1 0x20 PUSH1 0x0 KECCAK256 ADD PUSH1 0x0 PUSH2 0x100 EXP DUP2 SLOAD DUP2 PUSH1 0x1 PUSH1 0x1 PUSH1 0xA0 SHL SUB MUL NOT AND SWAP1 DUP4 PUSH1 0x1 PUSH1 0x1 PUSH1 0xA0 SHL SUB AND MUL OR SWAP1 SSTORE POP JUMPDEST PUSH1 0xA DUP1 SLOAD DUP1 PUSH2 0x1D49 JUMPI PUSH4 0x4E487B71 PUSH1 0xE0 SHL PUSH1 0x0 MSTORE PUSH1 0x31 PUSH1 0x4 MSTORE PUSH1 0x24 PUSH1 0x0 REVERT JUMPDEST PUSH1 0x0 DUP3 DUP2 MSTORE PUSH1 0x20 SWAP1 KECCAK256 DUP2 ADD PUSH1 0x0 NOT SWAP1 DUP2 ADD DUP1 SLOAD PUSH1 0x1 PUSH1 0x1 PUSH1 0xA0 SHL SUB NOT AND SWAP1 SSTORE ADD SWAP1 SSTORE PUSH2 0x1D82 JUMP JUMPDEST DUP1 PUSH2 0x1D7A DUP2 PUSH2 0x2B5D JUMP JUMPDEST SWAP2 POP POP PUSH2 0x1C2D JUMP JUMPDEST POP POP POP DUP1 DUP1 PUSH2 0x1D90 SWAP1 PUSH2 0x2B5D JUMP JUMPDEST SWAP2 POP POP PUSH2 0x19E8 JUMP JUMPDEST POP PUSH1 0x0 JUMPDEST DUP3 DUP2 LT ISZERO PUSH2 0x1E28 JUMPI DUP2 DUP2 DUP2 MLOAD DUP2 LT PUSH2 0x1DC4 JUMPI PUSH4 0x4E487B71 PUSH1 0xE0 SHL PUSH1 0x0 MSTORE PUSH1 0x32 PUSH1 0x4 MSTORE PUSH1 0x24 PUSH1 0x0 REVERT JUMPDEST PUSH1 0x20 MUL PUSH1 0x20 ADD ADD MLOAD PUSH1 0xA DUP3 DUP2 SLOAD DUP2 LT PUSH2 0x1DED JUMPI PUSH4 0x4E487B71 PUSH1 0xE0 SHL PUSH1 0x0 MSTORE PUSH1 0x32 PUSH1 0x4 MSTORE PUSH1 0x24 PUSH1 0x0 REVERT JUMPDEST PUSH1 0x0 SWAP2 DUP3 MSTORE PUSH1 0x20 SWAP1 SWAP2 KECCAK256 ADD DUP1 SLOAD PUSH1 0x1 PUSH1 0x1 PUSH1 0xA0 SHL SUB NOT AND PUSH1 0x1 PUSH1 0x1 PUSH1 0xA0 SHL SUB SWAP3 SWAP1 SWAP3 AND SWAP2 SWAP1 SWAP2 OR SWAP1 SSTORE DUP1 PUSH2 0x1E20 DUP2 PUSH2 0x2B5D JUMP JUMPDEST SWAP2 POP POP PUSH2 0x1D9C JUMP JUMPDEST POP DUP6 SLOAD PUSH1 0x40 DUP1 MLOAD PUSH1 0x20 DUP1 DUP5 MUL DUP3 ADD DUP2 ADD SWAP1 SWAP3 MSTORE DUP3 DUP2 MSTORE SWAP2 DUP9 SWAP2 DUP4 ADD DUP3 DUP3 DUP1 ISZERO PUSH2 0x1E7A JUMPI PUSH1 0x20 MUL DUP3 ADD SWAP2 SWAP1 PUSH1 0x0 MSTORE PUSH1 0x20 PUSH1 0x0 KECCAK256 SWAP1 JUMPDEST DUP2 SLOAD PUSH1 0x1 PUSH1 0x1 PUSH1 0xA0 SHL SUB AND DUP2 MSTORE PUSH1 0x1 SWAP1 SWAP2 ADD SWAP1 PUSH1 0x20 ADD DUP1 DUP4 GT PUSH2 0x1E5C JUMPI JUMPDEST POP POP POP POP POP SWAP3 POP POP POP SWAP4 SWAP3 POP POP POP JUMP JUMPDEST PUSH1 0xF SLOAD PUSH1 0x40 MLOAD PUSH1 0x0 SWAP2 SWAP1 PUSH2 0x1EA2 SWAP1 TIMESTAMP SWAP1 PUSH1 0x20 ADD PUSH2 0x2563 JUMP JUMPDEST PUSH1 0x40 MLOAD PUSH1 0x20 DUP2 DUP4 SUB SUB DUP2 MSTORE SWAP1 PUSH1 0x40 MSTORE DUP1 MLOAD SWAP1 PUSH1 0x20 ADD KECCAK256 PUSH1 0x0 SHR PUSH2 0x1EC5 SWAP2 SWAP1 PUSH2 0x2B78 JUMP JUMPDEST SWAP1 POP DUP3 PUSH1 0xF DUP3 DUP2 SLOAD DUP2 LT PUSH2 0x1EE9 JUMPI PUSH4 0x4E487B71 PUSH1 0xE0 SHL PUSH1 0x0 MSTORE PUSH1 0x32 PUSH1 0x4 MSTORE PUSH1 0x24 PUSH1 0x0 REVERT JUMPDEST PUSH1 0x0 SWAP2 DUP3 MSTORE PUSH1 0x20 DUP1 DUP4 KECCAK256 SWAP1 SWAP2 ADD SLOAD DUP4 SLOAD PUSH1 0x1 DUP2 ADD DUP6 SSTORE SWAP4 DUP4 MSTORE SWAP2 KECCAK256 SWAP1 SWAP2 ADD DUP1 SLOAD PUSH1 0x1 PUSH1 0x1 PUSH1 0xA0 SHL SUB NOT AND PUSH1 0x1 PUSH1 0x1 PUSH1 0xA0 SHL SUB SWAP1 SWAP3 AND SWAP2 SWAP1 SWAP2 OR SWAP1 SSTORE PUSH1 0xF DUP1 SLOAD PUSH2 0x17CF SWAP2 SWAP1 DUP4 SWAP1 DUP2 LT PUSH2 0x1F4B JUMPI PUSH4 0x4E487B71 PUSH1 0xE0 SHL PUSH1 0x0 MSTORE PUSH1 0x32 PUSH1 0x4 MSTORE PUSH1 0x24 PUSH1 0x0 REVERT JUMPDEST PUSH1 0x0 SWAP2 DUP3 MSTORE PUSH1 0x20 SWAP1 SWAP2 KECCAK256 ADD SLOAD PUSH1 0x1 PUSH1 0x1 PUSH1 0xA0 SHL SUB AND DUP4 PUSH2 0x1FD0 JUMP JUMPDEST PUSH1 0x11 DUP1 SLOAD PUSH1 0x1 DUP2 ADD DUP3 SSTORE PUSH1 0x0 SWAP2 SWAP1 SWAP2 MSTORE PUSH32 0x31ECC21A745E3968A04E9570E4425BC18FA8019C68028196B546D1669C200C68 ADD SSTORE JUMP JUMPDEST PUSH1 0x12 DUP1 SLOAD PUSH1 0x1 DUP2 ADD DUP3 SSTORE PUSH1 0x0 SWAP2 SWAP1 SWAP2 MSTORE PUSH32 0xBB8A6A4669BA250D26CD7A459ECA9D215F8307E33AEBE50379BC5A3617EC3444 ADD SSTORE JUMP JUMPDEST PUSH1 0x1 PUSH1 0x1 PUSH1 0xA0 SHL SUB SWAP1 SWAP2 AND PUSH1 0x0 SWAP1 DUP2 MSTORE PUSH1 0xE PUSH1 0x20 SWAP1 DUP2 MSTORE PUSH1 0x40 DUP3 KECCAK256 DUP1 SLOAD PUSH1 0x1 DUP2 ADD DUP3 SSTORE SWAP1 DUP4 MSTORE SWAP2 KECCAK256 ADD SSTORE JUMP JUMPDEST DUP3 DUP1 SLOAD PUSH2 0x2008 SWAP1 PUSH2 0x2B22 JUMP JUMPDEST SWAP1 PUSH1 0x0 MSTORE PUSH1 0x20 PUSH1 0x0 KECCAK256 SWAP1 PUSH1 0x1F ADD PUSH1 0x20 SWAP1 DIV DUP2 ADD SWAP3 DUP3 PUSH2 0x202A JUMPI PUSH1 0x0 DUP6 SSTORE PUSH2 0x2070 JUMP JUMPDEST DUP3 PUSH1 0x1F LT PUSH2 0x2043 JUMPI DUP1 MLOAD PUSH1 0xFF NOT AND DUP4 DUP1 ADD OR DUP6 SSTORE PUSH2 0x2070 JUMP JUMPDEST DUP3 DUP1 ADD PUSH1 0x1 ADD DUP6 SSTORE DUP3 ISZERO PUSH2 0x2070 JUMPI SWAP2 DUP3 ADD JUMPDEST DUP3 DUP2 GT ISZERO PUSH2 0x2070 JUMPI DUP3 MLOAD DUP3 SSTORE SWAP2 PUSH1 0x20 ADD SWAP2 SWAP1 PUSH1 0x1 ADD SWAP1 PUSH2 0x2055 JUMP JUMPDEST POP PUSH2 0x207C SWAP3 SWAP2 POP PUSH2 0x21EB JUMP JUMPDEST POP SWAP1 JUMP JUMPDEST DUP3 DUP1 SLOAD DUP3 DUP3 SSTORE SWAP1 PUSH1 0x0 MSTORE PUSH1 0x20 PUSH1 0x0 KECCAK256 SWAP1 DUP2 ADD SWAP3 DUP3 ISZERO PUSH2 0x2070 JUMPI SWAP2 PUSH1 0x20 MUL DUP3 ADD JUMPDEST DUP3 DUP2 GT ISZERO PUSH2 0x2070 JUMPI DUP3 MLOAD DUP3 SLOAD PUSH1 0x1 PUSH1 0x1 PUSH1 0xA0 SHL SUB NOT AND PUSH1 0x1 PUSH1 0x1 PUSH1 0xA0 SHL SUB SWAP1 SWAP2 AND OR DUP3 SSTORE PUSH1 0x20 SWAP1 SWAP3 ADD SWAP2 PUSH1 0x1 SWAP1 SWAP2 ADD SWAP1 PUSH2 0x20A0 JUMP JUMPDEST DUP3 DUP1 SLOAD DUP3 DUP3 SSTORE SWAP1 PUSH1 0x0 MSTORE PUSH1 0x20 PUSH1 0x0 KECCAK256 SWAP1 PUSH1 0x1F ADD PUSH1 0x20 SWAP1 DIV DUP2 ADD SWAP3 DUP3 ISZERO PUSH2 0x2070 JUMPI SWAP2 PUSH1 0x20 MUL DUP3 ADD PUSH1 0x0 JUMPDEST DUP4 DUP3 GT ISZERO PUSH2 0x2158 JUMPI DUP4 MLOAD DUP4 DUP3 PUSH2 0x100 EXP DUP2 SLOAD DUP2 PUSH1 0xFF MUL NOT AND SWAP1 DUP4 PUSH1 0x3 DUP2 GT ISZERO PUSH2 0x2137 JUMPI PUSH4 0x4E487B71 PUSH1 0xE0 SHL PUSH1 0x0 MSTORE PUSH1 0x21 PUSH1 0x4 MSTORE PUSH1 0x24 PUSH1 0x0 REVERT JUMPDEST MUL OR SWAP1 SSTORE POP SWAP3 PUSH1 0x20 ADD SWAP3 PUSH1 0x1 ADD PUSH1 0x20 DUP2 PUSH1 0x0 ADD DIV SWAP3 DUP4 ADD SWAP3 PUSH1 0x1 SUB MUL PUSH2 0x20FE JUMP JUMPDEST DUP1 ISZERO PUSH2 0x2185 JUMPI DUP3 DUP2 PUSH2 0x100 EXP DUP2 SLOAD SWAP1 PUSH1 0xFF MUL NOT AND SWAP1 SSTORE PUSH1 0x1 ADD PUSH1 0x20 DUP2 PUSH1 0x0 ADD DIV SWAP3 DUP4 ADD SWAP3 PUSH1 0x1 SUB MUL PUSH2 0x2158 JUMP JUMPDEST POP POP PUSH2 0x207C SWAP3 SWAP2 POP PUSH2 0x21EB JUMP JUMPDEST DUP3 DUP1 SLOAD DUP3 DUP3 SSTORE SWAP1 PUSH1 0x0 MSTORE PUSH1 0x20 PUSH1 0x0 KECCAK256 SWAP1 DUP2 ADD SWAP3 DUP3 ISZERO PUSH2 0x21DF JUMPI SWAP2 PUSH1 0x20 MUL DUP3 ADD JUMPDEST DUP3 DUP2 GT ISZERO PUSH2 0x21DF JUMPI DUP3 MLOAD DUP1 MLOAD PUSH2 0x21CF SWAP2 DUP5 SWAP2 PUSH1 0x20 SWAP1 SWAP2 ADD SWAP1 PUSH2 0x1FFC JUMP JUMPDEST POP SWAP2 PUSH1 0x20 ADD SWAP2 SWAP1 PUSH1 0x1 ADD SWAP1 PUSH2 0x21B2 JUMP JUMPDEST POP PUSH2 0x207C SWAP3 SWAP2 POP PUSH2 0x2200 JUMP JUMPDEST JUMPDEST DUP1 DUP3 GT ISZERO PUSH2 0x207C JUMPI PUSH1 0x0 DUP2 SSTORE PUSH1 0x1 ADD PUSH2 0x21EC JUMP JUMPDEST DUP1 DUP3 GT ISZERO PUSH2 0x207C JUMPI PUSH1 0x0 PUSH2 0x2214 DUP3 DUP3 PUSH2 0x221D JUMP JUMPDEST POP PUSH1 0x1 ADD PUSH2 0x2200 JUMP JUMPDEST POP DUP1 SLOAD PUSH2 0x2229 SWAP1 PUSH2 0x2B22 JUMP JUMPDEST PUSH1 0x0 DUP3 SSTORE DUP1 PUSH1 0x1F LT PUSH2 0x223B JUMPI POP PUSH2 0xB06 JUMP JUMPDEST PUSH1 0x1F ADD PUSH1 0x20 SWAP1 DIV SWAP1 PUSH1 0x0 MSTORE PUSH1 0x20 PUSH1 0x0 KECCAK256 SWAP1 DUP2 ADD SWAP1 PUSH2 0xB06 SWAP2 SWAP1 PUSH2 0x21EB JUMP JUMPDEST DUP1 CALLDATALOAD PUSH1 0x1 PUSH1 0x1 PUSH1 0xA0 SHL SUB DUP2 AND DUP2 EQ PUSH2 0xA4E JUMPI PUSH1 0x0 DUP1 REVERT JUMPDEST DUP1 CALLDATALOAD DUP1 ISZERO ISZERO DUP2 EQ PUSH2 0xA4E JUMPI PUSH1 0x0 DUP1 REVERT JUMPDEST PUSH1 0x0 DUP3 PUSH1 0x1F DUP4 ADD SLT PUSH2 0x2290 JUMPI DUP1 DUP2 REVERT JUMPDEST DUP2 CALLDATALOAD PUSH8 0xFFFFFFFFFFFFFFFF DUP1 DUP3 GT ISZERO PUSH2 0x22AB JUMPI PUSH2 0x22AB PUSH2 0x2BB8 JUMP JUMPDEST PUSH1 0x40 MLOAD PUSH1 0x1F DUP4 ADD PUSH1 0x1F NOT AND DUP2 ADD PUSH1 0x20 ADD DUP3 DUP2 GT DUP3 DUP3 LT OR ISZERO PUSH2 0x22CF JUMPI PUSH2 0x22CF PUSH2 0x2BB8 JUMP JUMPDEST PUSH1 0x40 MSTORE DUP3 DUP2 MSTORE DUP5 DUP4 ADD PUSH1 0x20 ADD DUP7 LT ISZERO PUSH2 0x22E6 JUMPI DUP4 DUP5 REVERT JUMPDEST DUP3 PUSH1 0x20 DUP7 ADD PUSH1 0x20 DUP4 ADD CALLDATACOPY SWAP2 DUP3 ADD PUSH1 0x20 ADD SWAP3 SWAP1 SWAP3 MSTORE SWAP4 SWAP3 POP POP POP JUMP JUMPDEST PUSH1 0x0 PUSH1 0x20 DUP3 DUP5 SUB SLT ISZERO PUSH2 0x2312 JUMPI DUP1 DUP2 REVERT JUMPDEST PUSH2 0x231B DUP3 PUSH2 0x2259 JUMP JUMPDEST SWAP4 SWAP3 POP POP POP JUMP JUMPDEST PUSH1 0x0 DUP1 PUSH1 0x0 PUSH1 0x60 DUP5 DUP7 SUB SLT ISZERO PUSH2 0x2336 JUMPI DUP2 DUP3 REVERT JUMPDEST PUSH2 0x233F DUP5 PUSH2 0x2259 JUMP JUMPDEST SWAP3 POP PUSH1 0x20 DUP5 ADD CALLDATALOAD PUSH8 0xFFFFFFFFFFFFFFFF DUP1 DUP3 GT ISZERO PUSH2 0x235B JUMPI DUP4 DUP5 REVERT JUMPDEST PUSH2 0x2367 DUP8 DUP4 DUP9 ADD PUSH2 0x2280 JUMP JUMPDEST SWAP4 POP PUSH1 0x40 DUP7 ADD CALLDATALOAD SWAP2 POP DUP1 DUP3 GT ISZERO PUSH2 0x237C JUMPI DUP3 DUP4 REVERT JUMPDEST POP PUSH2 0x2389 DUP7 DUP3 DUP8 ADD PUSH2 0x2280 JUMP JUMPDEST SWAP2 POP POP SWAP3 POP SWAP3 POP SWAP3 JUMP JUMPDEST PUSH1 0x0 DUP1 PUSH1 0x40 DUP4 DUP6 SUB SLT ISZERO PUSH2 0x23A5 JUMPI DUP2 DUP3 REVERT JUMPDEST PUSH2 0x23AE DUP4 PUSH2 0x2259 JUMP JUMPDEST SWAP5 PUSH1 0x20 SWAP4 SWAP1 SWAP4 ADD CALLDATALOAD SWAP4 POP POP POP JUMP JUMPDEST PUSH1 0x0 PUSH1 0x20 DUP3 DUP5 SUB SLT ISZERO PUSH2 0x23CD JUMPI DUP1 DUP2 REVERT JUMPDEST PUSH2 0x231B DUP3 PUSH2 0x2270 JUMP JUMPDEST PUSH1 0x0 PUSH1 0x20 DUP3 DUP5 SUB SLT ISZERO PUSH2 0x23E7 JUMPI DUP1 DUP2 REVERT JUMPDEST POP CALLDATALOAD SWAP2 SWAP1 POP JUMP JUMPDEST PUSH1 0x0 DUP1 PUSH1 0x40 DUP4 DUP6 SUB SLT ISZERO PUSH2 0x2400 JUMPI DUP2 DUP3 REVERT JUMPDEST DUP3 CALLDATALOAD SWAP2 POP PUSH2 0x2410 PUSH1 0x20 DUP5 ADD PUSH2 0x2270 JUMP JUMPDEST SWAP1 POP SWAP3 POP SWAP3 SWAP1 POP JUMP JUMPDEST PUSH1 0x0 DUP1 PUSH1 0x0 PUSH1 0x60 DUP5 DUP7 SUB SLT ISZERO PUSH2 0x242D JUMPI DUP3 DUP4 REVERT JUMPDEST DUP4 CALLDATALOAD SWAP3 POP PUSH1 0x20 DUP5 ADD CALLDATALOAD PUSH1 0x4 DUP2 LT PUSH2 0x2442 JUMPI DUP3 DUP4 REVERT JUMPDEST SWAP2 POP PUSH1 0x40 DUP5 ADD CALLDATALOAD PUSH8 0xFFFFFFFFFFFFFFFF DUP2 GT ISZERO PUSH2 0x245D JUMPI DUP2 DUP3 REVERT JUMPDEST PUSH2 0x2389 DUP7 DUP3 DUP8 ADD PUSH2 0x2280 JUMP JUMPDEST PUSH1 0x0 DUP2 MLOAD DUP1 DUP5 MSTORE PUSH2 0x2481 DUP2 PUSH1 0x20 DUP7 ADD PUSH1 0x20 DUP7 ADD PUSH2 0x2AF6 JUMP JUMPDEST PUSH1 0x1F ADD PUSH1 0x1F NOT AND SWAP3 SWAP1 SWAP3 ADD PUSH1 0x20 ADD SWAP3 SWAP2 POP POP JUMP JUMPDEST PUSH1 0x0 PUSH12 0xFFFFFFFFFFFFFFFFFFFFFFFF NOT DUP6 PUSH1 0x60 SHL AND DUP3 MSTORE DUP4 MLOAD PUSH2 0x24BF DUP2 PUSH1 0x14 DUP6 ADD PUSH1 0x20 DUP9 ADD PUSH2 0x2AF6 JUMP JUMPDEST DUP4 MLOAD SWAP1 DUP4 ADD SWAP1 PUSH2 0x24D6 DUP2 PUSH1 0x14 DUP5 ADD PUSH1 0x20 DUP9 ADD PUSH2 0x2AF6 JUMP JUMPDEST ADD PUSH1 0x14 ADD SWAP6 SWAP5 POP POP POP POP POP JUMP JUMPDEST PUSH1 0x0 DUP3 MLOAD PUSH2 0x24F5 DUP2 DUP5 PUSH1 0x20 DUP8 ADD PUSH2 0x2AF6 JUMP JUMPDEST SWAP2 SWAP1 SWAP2 ADD SWAP3 SWAP2 POP POP JUMP JUMPDEST PUSH6 0x52616E646F6D PUSH1 0xD0 SHL DUP2 MSTORE PUSH1 0x6 ADD SWAP1 JUMP JUMPDEST PUSH6 0x22B234BA37B9 PUSH1 0xD1 SHL DUP2 MSTORE PUSH1 0x6 ADD SWAP1 JUMP JUMPDEST PUSH11 0x2232B9B4B3B730BA34B7B7 PUSH1 0xA9 SHL DUP2 MSTORE PUSH1 0xB ADD SWAP1 JUMP JUMPDEST PUSH11 0x2837B9BA3AB630BA34B7B7 PUSH1 0xA9 SHL DUP2 MSTORE PUSH1 0xB ADD SWAP1 JUMP JUMPDEST PUSH6 0x526174696E67 PUSH1 0xD0 SHL DUP2 MSTORE PUSH1 0x6 ADD SWAP1 JUMP JUMPDEST SWAP1 DUP2 MSTORE PUSH1 0x20 ADD SWAP1 JUMP JUMPDEST PUSH1 0x1 PUSH1 0x1 PUSH1 0xA0 SHL SUB DUP4 AND DUP2 MSTORE PUSH1 0x40 PUSH1 0x20 DUP1 DUP4 ADD SWAP2 SWAP1 SWAP2 MSTORE DUP3 SLOAD PUSH1 0x0 SWAP2 SWAP1 DUP3 SWAP1 PUSH1 0x2 DUP2 DIV PUSH1 0x1 DUP3 DUP2 AND DUP1 PUSH2 0x25A0 JUMPI PUSH1 0x7F DUP4 AND SWAP3 POP JUMPDEST DUP6 DUP4 LT DUP2 EQ ISZERO PUSH2 0x25BE JUMPI PUSH4 0x4E487B71 PUSH1 0xE0 SHL DUP8 MSTORE PUSH1 0x22 PUSH1 0x4 MSTORE PUSH1 0x24 DUP8 REVERT JUMPDEST PUSH2 0x25CB DUP4 PUSH1 0x40 DUP11 ADD PUSH2 0x2563 JUMP JUMPDEST DUP2 DUP1 ISZERO PUSH2 0x25DF JUMPI PUSH1 0x1 DUP2 EQ PUSH2 0x25F0 JUMPI PUSH2 0x261A JUMP JUMPDEST PUSH1 0xFF NOT DUP7 AND DUP3 MSTORE DUP8 DUP3 ADD SWAP7 POP PUSH2 0x261A JUMP JUMPDEST PUSH2 0x25F9 DUP12 PUSH2 0x2A88 JUMP JUMPDEST DUP10 JUMPDEST DUP7 DUP2 LT ISZERO PUSH2 0x2614 JUMPI DUP2 SLOAD DUP5 DUP3 ADD MSTORE SWAP1 DUP6 ADD SWAP1 DUP10 ADD PUSH2 0x25FB JUMP JUMPDEST DUP4 ADD SWAP8 POP POP JUMPDEST POP SWAP5 SWAP11 SWAP10 POP POP POP POP POP POP POP POP POP POP JUMP JUMPDEST PUSH1 0x20 DUP1 DUP3 MSTORE DUP3 MLOAD DUP3 DUP3 ADD DUP2 SWAP1 MSTORE PUSH1 0x0 SWAP2 SWAP1 DUP5 DUP3 ADD SWAP1 PUSH1 0x40 DUP6 ADD SWAP1 DUP5 JUMPDEST DUP2 DUP2 LT ISZERO PUSH2 0x2662 JUMPI DUP4 MLOAD DUP4 MSTORE SWAP3 DUP5 ADD SWAP3 SWAP2 DUP5 ADD SWAP2 PUSH1 0x1 ADD PUSH2 0x2646 JUMP JUMPDEST POP SWAP1 SWAP7 SWAP6 POP POP POP POP POP POP JUMP JUMPDEST PUSH1 0x0 PUSH1 0x20 DUP1 DUP4 ADD DUP2 DUP5 MSTORE DUP1 DUP6 MLOAD DUP1 DUP4 MSTORE PUSH1 0x40 DUP7 ADD SWAP2 POP PUSH1 0x40 DUP5 DUP3 MUL DUP8 ADD ADD SWAP3 POP DUP4 DUP8 ADD DUP6 JUMPDEST DUP3 DUP2 LT ISZERO PUSH2 0x26C1 JUMPI PUSH1 0x3F NOT DUP9 DUP7 SUB ADD DUP5 MSTORE PUSH2 0x26AF DUP6 DUP4 MLOAD PUSH2 0x2469 JUMP JUMPDEST SWAP5 POP SWAP3 DUP6 ADD SWAP3 SWAP1 DUP6 ADD SWAP1 PUSH1 0x1 ADD PUSH2 0x2693 JUMP JUMPDEST POP SWAP3 SWAP8 SWAP7 POP POP POP POP POP POP POP JUMP JUMPDEST SWAP1 ISZERO ISZERO DUP2 MSTORE PUSH1 0x20 ADD SWAP1 JUMP JUMPDEST PUSH1 0x0 PUSH1 0x20 DUP3 MSTORE PUSH2 0x231B PUSH1 0x20 DUP4 ADD DUP5 PUSH2 0x2469 JUMP JUMPDEST PUSH1 0x20 DUP1 DUP3 MSTORE PUSH1 0x27 SWAP1 DUP3 ADD MSTORE PUSH32 0x4F6E6C792074686520636F6E7472616374206F776E65722063616E2061646420 PUSH1 0x40 DUP3 ADD MSTORE PUSH7 0x656469746F7273 PUSH1 0xC8 SHL PUSH1 0x60 DUP3 ADD MSTORE PUSH1 0x80 ADD SWAP1 JUMP JUMPDEST PUSH1 0x20 DUP1 DUP3 MSTORE PUSH1 0x2F SWAP1 DUP3 ADD MSTORE PUSH32 0x596F7520617265206E6F742070617274206F6620746865207365636F6E642067 PUSH1 0x40 DUP3 ADD MSTORE PUSH15 0x3937BAB8103932BB34B2BBB2B93997 PUSH1 0x89 SHL PUSH1 0x60 DUP3 ADD MSTORE PUSH1 0x80 ADD SWAP1 JUMP JUMPDEST PUSH1 0x20 DUP1 DUP3 MSTORE PUSH1 0x34 SWAP1 DUP3 ADD MSTORE PUSH32 0x41206E65772070726F63657373206E65656473206120656469746F7220746F20 PUSH1 0x40 DUP3 ADD MSTORE PUSH20 0x61737369676E2074686520726576696577657273 PUSH1 0x60 SHL PUSH1 0x60 DUP3 ADD MSTORE PUSH1 0x80 ADD SWAP1 JUMP JUMPDEST PUSH1 0x20 DUP1 DUP3 MSTORE PUSH1 0x40 SWAP1 DUP3 ADD DUP2 SWAP1 MSTORE PUSH32 0x41206E65772070726F6365737320697320617661696C61626C6520746F20706F SWAP1 DUP3 ADD MSTORE PUSH32 0x7374756C61746520696E2061205365636F6E64205265766965772047726F7570 PUSH1 0x60 DUP3 ADD MSTORE PUSH1 0x80 ADD SWAP1 JUMP JUMPDEST PUSH1 0x20 DUP1 DUP3 MSTORE PUSH1 0x2A SWAP1 DUP3 ADD MSTORE PUSH32 0x596F7520617265206E6F74206120726576696577657220666F72207468697320 PUSH1 0x40 DUP3 ADD MSTORE PUSH10 0x1B585B9D5CD8DC9A5C1D PUSH1 0xB2 SHL PUSH1 0x60 DUP3 ADD MSTORE PUSH1 0x80 ADD SWAP1 JUMP JUMPDEST PUSH1 0x20 DUP1 DUP3 MSTORE PUSH1 0x3F SWAP1 DUP3 ADD MSTORE PUSH32 0x41206E65772070726F6365737320697320617661696C61626C6520746F20706F PUSH1 0x40 DUP3 ADD MSTORE PUSH32 0x7374756C61746520696E2061204669727374205265766965772047726F757000 PUSH1 0x60 DUP3 ADD MSTORE PUSH1 0x80 ADD SWAP1 JUMP JUMPDEST PUSH1 0x20 DUP1 DUP3 MSTORE PUSH1 0x1C SWAP1 DUP3 ADD MSTORE PUSH32 0x546865206D616E75736372697074207761732061636365707465642E00000000 PUSH1 0x40 DUP3 ADD MSTORE PUSH1 0x60 ADD SWAP1 JUMP JUMPDEST PUSH1 0x20 DUP1 DUP3 MSTORE PUSH1 0x26 SWAP1 DUP3 ADD MSTORE PUSH32 0x546865206D616E757363726970742072657175696572657320736F6D65206368 PUSH1 0x40 DUP3 ADD MSTORE PUSH6 0x30B733B2B997 PUSH1 0xD1 SHL PUSH1 0x60 DUP3 ADD MSTORE PUSH1 0x80 ADD SWAP1 JUMP JUMPDEST PUSH1 0x20 DUP1 DUP3 MSTORE PUSH1 0x14 SWAP1 DUP3 ADD MSTORE PUSH20 0x4E6F7420656E6F75676820726576696577657273 PUSH1 0x60 SHL PUSH1 0x40 DUP3 ADD MSTORE PUSH1 0x60 ADD SWAP1 JUMP JUMPDEST PUSH1 0x20 DUP1 DUP3 MSTORE PUSH1 0x27 SWAP1 DUP3 ADD MSTORE PUSH32 0x54686520317374207265766965772070726F63656573206973206E6F74206F76 PUSH1 0x40 DUP3 ADD MSTORE PUSH7 0x32B9103CB2BA17 PUSH1 0xC9 SHL PUSH1 0x60 DUP3 ADD MSTORE PUSH1 0x80 ADD SWAP1 JUMP JUMPDEST PUSH1 0x20 DUP1 DUP3 MSTORE PUSH1 0x1C SWAP1 DUP3 ADD MSTORE PUSH32 0x4E6F20726576696577206F70656E696E677320617661696C61626C6500000000 PUSH1 0x40 DUP3 ADD MSTORE PUSH1 0x60 ADD SWAP1 JUMP JUMPDEST PUSH1 0x20 DUP1 DUP3 MSTORE PUSH1 0x1C SWAP1 DUP3 ADD MSTORE PUSH32 0x546865206D616E75736372697074207761732072656A65637465642E00000000 PUSH1 0x40 DUP3 ADD MSTORE PUSH1 0x60 ADD SWAP1 JUMP JUMPDEST PUSH1 0x20 DUP1 DUP3 MSTORE PUSH1 0x2D SWAP1 DUP3 ADD MSTORE PUSH32 0x596F7520617265206E6F742070617274206F6620746865206669727374206772 PUSH1 0x40 DUP3 ADD MSTORE PUSH13 0x6F757020726576696577657273 PUSH1 0x98 SHL PUSH1 0x60 DUP3 ADD MSTORE PUSH1 0x80 ADD SWAP1 JUMP JUMPDEST PUSH1 0x0 SWAP1 DUP2 MSTORE PUSH1 0x20 SWAP1 KECCAK256 SWAP1 JUMP JUMPDEST PUSH1 0x0 DUP3 NOT DUP3 GT ISZERO PUSH2 0x2AA7 JUMPI PUSH2 0x2AA7 PUSH2 0x2B8C JUMP JUMPDEST POP ADD SWAP1 JUMP JUMPDEST PUSH1 0x0 DUP3 PUSH2 0x2ABB JUMPI PUSH2 0x2ABB PUSH2 0x2BA2 JUMP JUMPDEST POP DIV SWAP1 JUMP JUMPDEST PUSH1 0x0 DUP2 PUSH1 0x0 NOT DIV DUP4 GT DUP3 ISZERO ISZERO AND ISZERO PUSH2 0x2ADA JUMPI PUSH2 0x2ADA PUSH2 0x2B8C JUMP JUMPDEST POP MUL SWAP1 JUMP JUMPDEST PUSH1 0x0 DUP3 DUP3 LT ISZERO PUSH2 0x2AF1 JUMPI PUSH2 0x2AF1 PUSH2 0x2B8C JUMP JUMPDEST POP SUB SWAP1 JUMP JUMPDEST PUSH1 0x0 JUMPDEST DUP4 DUP2 LT ISZERO PUSH2 0x2B11 JUMPI DUP2 DUP2 ADD MLOAD DUP4 DUP3 ADD MSTORE PUSH1 0x20 ADD PUSH2 0x2AF9 JUMP JUMPDEST DUP4 DUP2 GT ISZERO PUSH2 0x18EF JUMPI POP POP PUSH1 0x0 SWAP2 ADD MSTORE JUMP JUMPDEST PUSH1 0x2 DUP2 DIV PUSH1 0x1 DUP3 AND DUP1 PUSH2 0x2B36 JUMPI PUSH1 0x7F DUP3 AND SWAP2 POP JUMPDEST PUSH1 0x20 DUP3 LT DUP2 EQ ISZERO PUSH2 0x2B57 JUMPI PUSH4 0x4E487B71 PUSH1 0xE0 SHL PUSH1 0x0 MSTORE PUSH1 0x22 PUSH1 0x4 MSTORE PUSH1 0x24 PUSH1 0x0 REVERT JUMPDEST POP SWAP2 SWAP1 POP JUMP JUMPDEST PUSH1 0x0 PUSH1 0x0 NOT DUP3 EQ ISZERO PUSH2 0x2B71 JUMPI PUSH2 0x2B71 PUSH2 0x2B8C JUMP JUMPDEST POP PUSH1 0x1 ADD SWAP1 JUMP JUMPDEST PUSH1 0x0 DUP3 PUSH2 0x2B87 JUMPI PUSH2 0x2B87 PUSH2 0x2BA2 JUMP JUMPDEST POP MOD SWAP1 JUMP JUMPDEST PUSH4 0x4E487B71 PUSH1 0xE0 SHL PUSH1 0x0 MSTORE PUSH1 0x11 PUSH1 0x4 MSTORE PUSH1 0x24 PUSH1 0x0 REVERT JUMPDEST PUSH4 0x4E487B71 PUSH1 0xE0 SHL PUSH1 0x0 MSTORE PUSH1 0x12 PUSH1 0x4 MSTORE PUSH1 0x24 PUSH1 0x0 REVERT JUMPDEST PUSH4 0x4E487B71 PUSH1 0xE0 SHL PUSH1 0x0 MSTORE PUSH1 0x41 PUSH1 0x4 MSTORE PUSH1 0x24 PUSH1 0x0 REVERT INVALID LOG2 PUSH5 0x6970667358 0x22 SLT KECCAK256 0xBA RETURNDATASIZE DIV INVALID OR 0xDC PUSH18 0xA0BBFE17732A3AEA8D4DA8F5F23925738CDC 0xAB 0xC7 SWAP1 DIV 0xB5 0xCB KECCAK256 PUSH5 0x736F6C6343 STOP ADDMOD STOP STOP CALLER LOG2 PUSH5 0x6970667358 0x22 SLT KECCAK256 DUP2 MSIZE RETURN 0xBC SLT PUSH25 0x8E61C78A2105361A25034C1A4066C1ED906E2469B59EA5D02A JUMP PUSH5 0x736F6C6343 STOP ADDMOD STOP STOP CALLER PUSH1 0x80 PUSH1 0x40 MSTORE CALLVALUE DUP1 ISZERO PUSH3 0x11 JUMPI PUSH1 0x0 DUP1 REVERT JUMPDEST POP PUSH1 0x40 MLOAD PUSH3 0xB9A CODESIZE SUB DUP1 PUSH3 0xB9A DUP4 CODECOPY DUP2 ADD PUSH1 0x40 DUP2 SWAP1 MSTORE PUSH3 0x34 SWAP2 PUSH3 0x1B9 JUMP JUMPDEST DUP2 MLOAD PUSH3 0x49 SWAP1 PUSH1 0x3 SWAP1 PUSH1 0x20 DUP6 ADD SWAP1 PUSH3 0x68 JUMP JUMPDEST POP DUP1 MLOAD PUSH3 0x5F SWAP1 PUSH1 0x4 SWAP1 PUSH1 0x20 DUP5 ADD SWAP1 PUSH3 0x68 JUMP JUMPDEST POP POP POP PUSH3 0x273 JUMP JUMPDEST DUP3 DUP1 SLOAD PUSH3 0x76 SWAP1 PUSH3 0x220 JUMP JUMPDEST SWAP1 PUSH1 0x0 MSTORE PUSH1 0x20 PUSH1 0x0 KECCAK256 SWAP1 PUSH1 0x1F ADD PUSH1 0x20 SWAP1 DIV DUP2 ADD SWAP3 DUP3 PUSH3 0x9A JUMPI PUSH1 0x0 DUP6 SSTORE PUSH3 0xE5 JUMP JUMPDEST DUP3 PUSH1 0x1F LT PUSH3 0xB5 JUMPI DUP1 MLOAD PUSH1 0xFF NOT AND DUP4 DUP1 ADD OR DUP6 SSTORE PUSH3 0xE5 JUMP JUMPDEST DUP3 DUP1 ADD PUSH1 0x1 ADD DUP6 SSTORE DUP3 ISZERO PUSH3 0xE5 JUMPI SWAP2 DUP3 ADD JUMPDEST DUP3 DUP2 GT ISZERO PUSH3 0xE5 JUMPI DUP3 MLOAD DUP3 SSTORE SWAP2 PUSH1 0x20 ADD SWAP2 SWAP1 PUSH1 0x1 ADD SWAP1 PUSH3 0xC8 JUMP JUMPDEST POP PUSH3 0xF3 SWAP3 SWAP2 POP PUSH3 0xF7 JUMP JUMPDEST POP SWAP1 JUMP JUMPDEST JUMPDEST DUP1 DUP3 GT ISZERO PUSH3 0xF3 JUMPI PUSH1 0x0 DUP2 SSTORE PUSH1 0x1 ADD PUSH3 0xF8 JUMP JUMPDEST PUSH1 0x0 DUP3 PUSH1 0x1F DUP4 ADD SLT PUSH3 0x11F JUMPI DUP1 DUP2 REVERT JUMPDEST DUP2 MLOAD PUSH1 0x1 PUSH1 0x1 PUSH1 0x40 SHL SUB DUP1 DUP3 GT ISZERO PUSH3 0x13C JUMPI PUSH3 0x13C PUSH3 0x25D JUMP JUMPDEST PUSH1 0x40 MLOAD PUSH1 0x20 PUSH1 0x1F DUP5 ADD PUSH1 0x1F NOT AND DUP3 ADD DUP2 ADD DUP4 DUP2 GT DUP4 DUP3 LT OR ISZERO PUSH3 0x164 JUMPI PUSH3 0x164 PUSH3 0x25D JUMP JUMPDEST PUSH1 0x40 MSTORE DUP4 DUP3 MSTORE DUP6 DUP5 ADD DUP2 ADD DUP8 LT ISZERO PUSH3 0x17B JUMPI DUP5 DUP6 REVERT JUMPDEST DUP5 SWAP3 POP JUMPDEST DUP4 DUP4 LT ISZERO PUSH3 0x19E JUMPI DUP6 DUP4 ADD DUP2 ADD MLOAD DUP3 DUP5 ADD DUP3 ADD MSTORE SWAP2 DUP3 ADD SWAP2 PUSH3 0x17F JUMP JUMPDEST DUP4 DUP4 GT ISZERO PUSH3 0x1AF JUMPI DUP5 DUP2 DUP6 DUP5 ADD ADD MSTORE JUMPDEST POP SWAP6 SWAP5 POP POP POP POP POP JUMP JUMPDEST PUSH1 0x0 DUP1 PUSH1 0x40 DUP4 DUP6 SUB SLT ISZERO PUSH3 0x1CC JUMPI DUP2 DUP3 REVERT JUMPDEST DUP3 MLOAD PUSH1 0x1 PUSH1 0x1 PUSH1 0x40 SHL SUB DUP1 DUP3 GT ISZERO PUSH3 0x1E3 JUMPI DUP4 DUP5 REVERT JUMPDEST PUSH3 0x1F1 DUP7 DUP4 DUP8 ADD PUSH3 0x10E JUMP JUMPDEST SWAP4 POP PUSH1 0x20 DUP6 ADD MLOAD SWAP2 POP DUP1 DUP3 GT ISZERO PUSH3 0x207 JUMPI DUP3 DUP4 REVERT JUMPDEST POP PUSH3 0x216 DUP6 DUP3 DUP7 ADD PUSH3 0x10E JUMP JUMPDEST SWAP2 POP POP SWAP3 POP SWAP3 SWAP1 POP JUMP JUMPDEST PUSH1 0x2 DUP2 DIV PUSH1 0x1 DUP3 AND DUP1 PUSH3 0x235 JUMPI PUSH1 0x7F DUP3 AND SWAP2 POP JUMPDEST PUSH1 0x20 DUP3 LT DUP2 EQ ISZERO PUSH3 0x257 JUMPI PUSH4 0x4E487B71 PUSH1 0xE0 SHL PUSH1 0x0 MSTORE PUSH1 0x22 PUSH1 0x4 MSTORE PUSH1 0x24 PUSH1 0x0 REVERT JUMPDEST POP SWAP2 SWAP1 POP JUMP JUMPDEST PUSH4 0x4E487B71 PUSH1 0xE0 SHL PUSH1 0x0 MSTORE PUSH1 0x41 PUSH1 0x4 MSTORE PUSH1 0x24 PUSH1 0x0 REVERT JUMPDEST PUSH2 0x917 DUP1 PUSH3 0x283 PUSH1 0x0 CODECOPY PUSH1 0x0 RETURN INVALID PUSH1 0x80 PUSH1 0x40 MSTORE CALLVALUE DUP1 ISZERO PUSH2 0x10 JUMPI PUSH1 0x0 DUP1 REVERT JUMPDEST POP PUSH1 0x4 CALLDATASIZE LT PUSH2 0xA9 JUMPI PUSH1 0x0 CALLDATALOAD PUSH1 0xE0 SHR DUP1 PUSH4 0x39509351 GT PUSH2 0x71 JUMPI DUP1 PUSH4 0x39509351 EQ PUSH2 0x129 JUMPI DUP1 PUSH4 0x70A08231 EQ PUSH2 0x13C JUMPI DUP1 PUSH4 0x95D89B41 EQ PUSH2 0x14F JUMPI DUP1 PUSH4 0xA457C2D7 EQ PUSH2 0x157 JUMPI DUP1 PUSH4 0xA9059CBB EQ PUSH2 0x16A JUMPI DUP1 PUSH4 0xDD62ED3E EQ PUSH2 0x17D JUMPI PUSH2 0xA9 JUMP JUMPDEST DUP1 PUSH4 0x6FDDE03 EQ PUSH2 0xAE JUMPI DUP1 PUSH4 0x95EA7B3 EQ PUSH2 0xCC JUMPI DUP1 PUSH4 0x18160DDD EQ PUSH2 0xEC JUMPI DUP1 PUSH4 0x23B872DD EQ PUSH2 0x101 JUMPI DUP1 PUSH4 0x313CE567 EQ PUSH2 0x114 JUMPI JUMPDEST PUSH1 0x0 DUP1 REVERT JUMPDEST PUSH2 0xB6 PUSH2 0x190 JUMP JUMPDEST PUSH1 0x40 MLOAD PUSH2 0xC3 SWAP2 SWAP1 PUSH2 0x648 JUMP JUMPDEST PUSH1 0x40 MLOAD DUP1 SWAP2 SUB SWAP1 RETURN JUMPDEST PUSH2 0xDF PUSH2 0xDA CALLDATASIZE PUSH1 0x4 PUSH2 0x614 JUMP JUMPDEST PUSH2 0x222 JUMP JUMPDEST PUSH1 0x40 MLOAD PUSH2 0xC3 SWAP2 SWAP1 PUSH2 0x63D JUMP JUMPDEST PUSH2 0xF4 PUSH2 0x244 JUMP JUMPDEST PUSH1 0x40 MLOAD PUSH2 0xC3 SWAP2 SWAP1 PUSH2 0x86B JUMP JUMPDEST PUSH2 0xDF PUSH2 0x10F CALLDATASIZE PUSH1 0x4 PUSH2 0x5D9 JUMP JUMPDEST PUSH2 0x24A JUMP JUMPDEST PUSH2 0x11C PUSH2 0x278 JUMP JUMPDEST PUSH1 0x40 MLOAD PUSH2 0xC3 SWAP2 SWAP1 PUSH2 0x874 JUMP JUMPDEST PUSH2 0xDF PUSH2 0x137 CALLDATASIZE PUSH1 0x4 PUSH2 0x614 JUMP JUMPDEST PUSH2 0x27D JUMP JUMPDEST PUSH2 0xF4 PUSH2 0x14A CALLDATASIZE PUSH1 0x4 PUSH2 0x586 JUMP JUMPDEST PUSH2 0x2A9 JUMP JUMPDEST PUSH2 0xB6 PUSH2 0x2C8 JUMP JUMPDEST PUSH2 0xDF PUSH2 0x165 CALLDATASIZE PUSH1 0x4 PUSH2 0x614 JUMP JUMPDEST PUSH2 0x2D7 JUMP JUMPDEST PUSH2 0xDF PUSH2 0x178 CALLDATASIZE PUSH1 0x4 PUSH2 0x614 JUMP JUMPDEST PUSH2 0x328 JUMP JUMPDEST PUSH2 0xF4 PUSH2 0x18B CALLDATASIZE PUSH1 0x4 PUSH2 0x5A7 JUMP JUMPDEST PUSH2 0x340 JUMP JUMPDEST PUSH1 0x60 PUSH1 0x3 DUP1 SLOAD PUSH2 0x19F SWAP1 PUSH2 0x8A6 JUMP JUMPDEST DUP1 PUSH1 0x1F ADD PUSH1 0x20 DUP1 SWAP2 DIV MUL PUSH1 0x20 ADD PUSH1 0x40 MLOAD SWAP1 DUP2 ADD PUSH1 0x40 MSTORE DUP1 SWAP3 SWAP2 SWAP1 DUP2 DUP2 MSTORE PUSH1 0x20 ADD DUP3 DUP1 SLOAD PUSH2 0x1CB SWAP1 PUSH2 0x8A6 JUMP JUMPDEST DUP1 ISZERO PUSH2 0x218 JUMPI DUP1 PUSH1 0x1F LT PUSH2 0x1ED JUMPI PUSH2 0x100 DUP1 DUP4 SLOAD DIV MUL DUP4 MSTORE SWAP2 PUSH1 0x20 ADD SWAP2 PUSH2 0x218 JUMP JUMPDEST DUP3 ADD SWAP2 SWAP1 PUSH1 0x0 MSTORE PUSH1 0x20 PUSH1 0x0 KECCAK256 SWAP1 JUMPDEST DUP2 SLOAD DUP2 MSTORE SWAP1 PUSH1 0x1 ADD SWAP1 PUSH1 0x20 ADD DUP1 DUP4 GT PUSH2 0x1FB JUMPI DUP3 SWAP1 SUB PUSH1 0x1F AND DUP3 ADD SWAP2 JUMPDEST POP POP POP POP POP SWAP1 POP SWAP1 JUMP JUMPDEST PUSH1 0x0 DUP1 PUSH2 0x22D PUSH2 0x36B JUMP JUMPDEST SWAP1 POP PUSH2 0x23A DUP2 DUP6 DUP6 PUSH2 0x36F JUMP JUMPDEST POP PUSH1 0x1 SWAP4 SWAP3 POP POP POP JUMP JUMPDEST PUSH1 0x2 SLOAD SWAP1 JUMP JUMPDEST PUSH1 0x0 DUP1 PUSH2 0x255 PUSH2 0x36B JUMP JUMPDEST SWAP1 POP PUSH2 0x262 DUP6 DUP3 DUP6 PUSH2 0x423 JUMP JUMPDEST PUSH2 0x26D DUP6 DUP6 DUP6 PUSH2 0x46D JUMP JUMPDEST POP PUSH1 0x1 SWAP5 SWAP4 POP POP POP POP JUMP JUMPDEST PUSH1 0x12 SWAP1 JUMP JUMPDEST PUSH1 0x0 DUP1 PUSH2 0x288 PUSH2 0x36B JUMP JUMPDEST SWAP1 POP PUSH2 0x23A DUP2 DUP6 DUP6 PUSH2 0x29A DUP6 DUP10 PUSH2 0x340 JUMP JUMPDEST PUSH2 0x2A4 SWAP2 SWAP1 PUSH2 0x882 JUMP JUMPDEST PUSH2 0x36F JUMP JUMPDEST PUSH1 0x1 PUSH1 0x1 PUSH1 0xA0 SHL SUB DUP2 AND PUSH1 0x0 SWAP1 DUP2 MSTORE PUSH1 0x20 DUP2 SWAP1 MSTORE PUSH1 0x40 SWAP1 KECCAK256 SLOAD JUMPDEST SWAP2 SWAP1 POP JUMP JUMPDEST PUSH1 0x60 PUSH1 0x4 DUP1 SLOAD PUSH2 0x19F SWAP1 PUSH2 0x8A6 JUMP JUMPDEST PUSH1 0x0 DUP1 PUSH2 0x2E2 PUSH2 0x36B JUMP JUMPDEST SWAP1 POP PUSH1 0x0 PUSH2 0x2F0 DUP3 DUP7 PUSH2 0x340 JUMP JUMPDEST SWAP1 POP DUP4 DUP2 LT ISZERO PUSH2 0x31B JUMPI PUSH1 0x40 MLOAD PUSH3 0x461BCD PUSH1 0xE5 SHL DUP2 MSTORE PUSH1 0x4 ADD PUSH2 0x312 SWAP1 PUSH2 0x826 JUMP JUMPDEST PUSH1 0x40 MLOAD DUP1 SWAP2 SUB SWAP1 REVERT JUMPDEST PUSH2 0x26D DUP3 DUP7 DUP7 DUP5 SUB PUSH2 0x36F JUMP JUMPDEST PUSH1 0x0 DUP1 PUSH2 0x333 PUSH2 0x36B JUMP JUMPDEST SWAP1 POP PUSH2 0x23A DUP2 DUP6 DUP6 PUSH2 0x46D JUMP JUMPDEST PUSH1 0x1 PUSH1 0x1 PUSH1 0xA0 SHL SUB SWAP2 DUP3 AND PUSH1 0x0 SWAP1 DUP2 MSTORE PUSH1 0x1 PUSH1 0x20 SWAP1 DUP2 MSTORE PUSH1 0x40 DUP1 DUP4 KECCAK256 SWAP4 SWAP1 SWAP5 AND DUP3 MSTORE SWAP2 SWAP1 SWAP2 MSTORE KECCAK256 SLOAD SWAP1 JUMP JUMPDEST CALLER SWAP1 JUMP JUMPDEST PUSH1 0x1 PUSH1 0x1 PUSH1 0xA0 SHL SUB DUP4 AND PUSH2 0x395 JUMPI PUSH1 0x40 MLOAD PUSH3 0x461BCD PUSH1 0xE5 SHL DUP2 MSTORE PUSH1 0x4 ADD PUSH2 0x312 SWAP1 PUSH2 0x7E2 JUMP JUMPDEST PUSH1 0x1 PUSH1 0x1 PUSH1 0xA0 SHL SUB DUP3 AND PUSH2 0x3BB JUMPI PUSH1 0x40 MLOAD PUSH3 0x461BCD PUSH1 0xE5 SHL DUP2 MSTORE PUSH1 0x4 ADD PUSH2 0x312 SWAP1 PUSH2 0x6DE JUMP JUMPDEST PUSH1 0x1 PUSH1 0x1 PUSH1 0xA0 SHL SUB DUP1 DUP5 AND PUSH1 0x0 DUP2 DUP2 MSTORE PUSH1 0x1 PUSH1 0x20 SWAP1 DUP2 MSTORE PUSH1 0x40 DUP1 DUP4 KECCAK256 SWAP5 DUP8 AND DUP1 DUP5 MSTORE SWAP5 SWAP1 SWAP2 MSTORE SWAP1 DUP2 SWAP1 KECCAK256 DUP5 SWAP1 SSTORE MLOAD PUSH32 0x8C5BE1E5EBEC7D5BD14F71427D1E84F3DD0314C0F7B2291E5B200AC8C7C3B925 SWAP1 PUSH2 0x416 SWAP1 DUP6 SWAP1 PUSH2 0x86B JUMP JUMPDEST PUSH1 0x40 MLOAD DUP1 SWAP2 SUB SWAP1 LOG3 POP POP POP JUMP JUMPDEST PUSH1 0x0 PUSH2 0x42F DUP5 DUP5 PUSH2 0x340 JUMP JUMPDEST SWAP1 POP PUSH1 0x0 NOT DUP2 EQ PUSH2 0x467 JUMPI DUP2 DUP2 LT ISZERO PUSH2 0x45A JUMPI PUSH1 0x40 MLOAD PUSH3 0x461BCD PUSH1 0xE5 SHL DUP2 MSTORE PUSH1 0x4 ADD PUSH2 0x312 SWAP1 PUSH2 0x720 JUMP JUMPDEST PUSH2 0x467 DUP5 DUP5 DUP5 DUP5 SUB PUSH2 0x36F JUMP JUMPDEST POP POP POP POP JUMP JUMPDEST PUSH1 0x1 PUSH1 0x1 PUSH1 0xA0 SHL SUB DUP4 AND PUSH2 0x493 JUMPI PUSH1 0x40 MLOAD PUSH3 0x461BCD PUSH1 0xE5 SHL DUP2 MSTORE PUSH1 0x4 ADD PUSH2 0x312 SWAP1 PUSH2 0x79D JUMP JUMPDEST PUSH1 0x1 PUSH1 0x1 PUSH1 0xA0 SHL SUB DUP3 AND PUSH2 0x4B9 JUMPI PUSH1 0x40 MLOAD PUSH3 0x461BCD PUSH1 0xE5 SHL DUP2 MSTORE PUSH1 0x4 ADD PUSH2 0x312 SWAP1 PUSH2 0x69B JUMP JUMPDEST PUSH2 0x4C4 DUP4 DUP4 DUP4 PUSH2 0x56A JUMP JUMPDEST PUSH1 0x1 PUSH1 0x1 PUSH1 0xA0 SHL SUB DUP4 AND PUSH1 0x0 SWAP1 DUP2 MSTORE PUSH1 0x20 DUP2 SWAP1 MSTORE PUSH1 0x40 SWAP1 KECCAK256 SLOAD DUP2 DUP2 LT ISZERO PUSH2 0x4FD JUMPI PUSH1 0x40 MLOAD PUSH3 0x461BCD PUSH1 0xE5 SHL DUP2 MSTORE PUSH1 0x4 ADD PUSH2 0x312 SWAP1 PUSH2 0x757 JUMP JUMPDEST PUSH1 0x1 PUSH1 0x1 PUSH1 0xA0 SHL SUB DUP1 DUP6 AND PUSH1 0x0 DUP2 DUP2 MSTORE PUSH1 0x20 DUP2 SWAP1 MSTORE PUSH1 0x40 DUP1 DUP3 KECCAK256 DUP7 DUP7 SUB SWAP1 SSTORE SWAP3 DUP7 AND DUP1 DUP3 MSTORE SWAP1 DUP4 SWAP1 KECCAK256 DUP1 SLOAD DUP7 ADD SWAP1 SSTORE SWAP2 MLOAD PUSH32 0xDDF252AD1BE2C89B69C2B068FC378DAA952BA7F163C4A11628F55A4DF523B3EF SWAP1 PUSH2 0x55B SWAP1 DUP7 SWAP1 PUSH2 0x86B JUMP JUMPDEST PUSH1 0x40 MLOAD DUP1 SWAP2 SUB SWAP1 LOG3 PUSH2 0x467 DUP5 DUP5 DUP5 JUMPDEST POP POP POP JUMP JUMPDEST DUP1 CALLDATALOAD PUSH1 0x1 PUSH1 0x1 PUSH1 0xA0 SHL SUB DUP2 AND DUP2 EQ PUSH2 0x2C3 JUMPI PUSH1 0x0 DUP1 REVERT JUMPDEST PUSH1 0x0 PUSH1 0x20 DUP3 DUP5 SUB SLT ISZERO PUSH2 0x597 JUMPI DUP1 DUP2 REVERT JUMPDEST PUSH2 0x5A0 DUP3 PUSH2 0x56F JUMP JUMPDEST SWAP4 SWAP3 POP POP POP JUMP JUMPDEST PUSH1 0x0 DUP1 PUSH1 0x40 DUP4 DUP6 SUB SLT ISZERO PUSH2 0x5B9 JUMPI DUP1 DUP2 REVERT JUMPDEST PUSH2 0x5C2 DUP4 PUSH2 0x56F JUMP JUMPDEST SWAP2 POP PUSH2 0x5D0 PUSH1 0x20 DUP5 ADD PUSH2 0x56F JUMP JUMPDEST SWAP1 POP SWAP3 POP SWAP3 SWAP1 POP JUMP JUMPDEST PUSH1 0x0 DUP1 PUSH1 0x0 PUSH1 0x60 DUP5 DUP7 SUB SLT ISZERO PUSH2 0x5ED JUMPI DUP1 DUP2 REVERT JUMPDEST PUSH2 0x5F6 DUP5 PUSH2 0x56F JUMP JUMPDEST SWAP3 POP PUSH2 0x604 PUSH1 0x20 DUP6 ADD PUSH2 0x56F JUMP JUMPDEST SWAP2 POP PUSH1 0x40 DUP5 ADD CALLDATALOAD SWAP1 POP SWAP3 POP SWAP3 POP SWAP3 JUMP JUMPDEST PUSH1 0x0 DUP1 PUSH1 0x40 DUP4 DUP6 SUB SLT ISZERO PUSH2 0x626 JUMPI DUP2 DUP3 REVERT JUMPDEST PUSH2 0x62F DUP4 PUSH2 0x56F JUMP JUMPDEST SWAP5 PUSH1 0x20 SWAP4 SWAP1 SWAP4 ADD CALLDATALOAD SWAP4 POP POP POP JUMP JUMPDEST SWAP1 ISZERO ISZERO DUP2 MSTORE PUSH1 0x20 ADD SWAP1 JUMP JUMPDEST PUSH1 0x0 PUSH1 0x20 DUP1 DUP4 MSTORE DUP4 MLOAD DUP1 DUP3 DUP6 ADD MSTORE DUP3 JUMPDEST DUP2 DUP2 LT ISZERO PUSH2 0x674 JUMPI DUP6 DUP2 ADD DUP4 ADD MLOAD DUP6 DUP3 ADD PUSH1 0x40 ADD MSTORE DUP3 ADD PUSH2 0x658 JUMP JUMPDEST DUP2 DUP2 GT ISZERO PUSH2 0x685 JUMPI DUP4 PUSH1 0x40 DUP4 DUP8 ADD ADD MSTORE JUMPDEST POP PUSH1 0x1F ADD PUSH1 0x1F NOT AND SWAP3 SWAP1 SWAP3 ADD PUSH1 0x40 ADD SWAP4 SWAP3 POP POP POP JUMP JUMPDEST PUSH1 0x20 DUP1 DUP3 MSTORE PUSH1 0x23 SWAP1 DUP3 ADD MSTORE PUSH32 0x45524332303A207472616E7366657220746F20746865207A65726F2061646472 PUSH1 0x40 DUP3 ADD MSTORE PUSH3 0x657373 PUSH1 0xE8 SHL PUSH1 0x60 DUP3 ADD MSTORE PUSH1 0x80 ADD SWAP1 JUMP JUMPDEST PUSH1 0x20 DUP1 DUP3 MSTORE PUSH1 0x22 SWAP1 DUP3 ADD MSTORE PUSH32 0x45524332303A20617070726F766520746F20746865207A65726F206164647265 PUSH1 0x40 DUP3 ADD MSTORE PUSH2 0x7373 PUSH1 0xF0 SHL PUSH1 0x60 DUP3 ADD MSTORE PUSH1 0x80 ADD SWAP1 JUMP JUMPDEST PUSH1 0x20 DUP1 DUP3 MSTORE PUSH1 0x1D SWAP1 DUP3 ADD MSTORE PUSH32 0x45524332303A20696E73756666696369656E7420616C6C6F77616E6365000000 PUSH1 0x40 DUP3 ADD MSTORE PUSH1 0x60 ADD SWAP1 JUMP JUMPDEST PUSH1 0x20 DUP1 DUP3 MSTORE PUSH1 0x26 SWAP1 DUP3 ADD MSTORE PUSH32 0x45524332303A207472616E7366657220616D6F756E7420657863656564732062 PUSH1 0x40 DUP3 ADD MSTORE PUSH6 0x616C616E6365 PUSH1 0xD0 SHL PUSH1 0x60 DUP3 ADD MSTORE PUSH1 0x80 ADD SWAP1 JUMP JUMPDEST PUSH1 0x20 DUP1 DUP3 MSTORE PUSH1 0x25 SWAP1 DUP3 ADD MSTORE PUSH32 0x45524332303A207472616E736665722066726F6D20746865207A65726F206164 PUSH1 0x40 DUP3 ADD MSTORE PUSH5 0x6472657373 PUSH1 0xD8 SHL PUSH1 0x60 DUP3 ADD MSTORE PUSH1 0x80 ADD SWAP1 JUMP JUMPDEST PUSH1 0x20 DUP1 DUP3 MSTORE PUSH1 0x24 SWAP1 DUP3 ADD MSTORE PUSH32 0x45524332303A20617070726F76652066726F6D20746865207A65726F20616464 PUSH1 0x40 DUP3 ADD MSTORE PUSH4 0x72657373 PUSH1 0xE0 SHL PUSH1 0x60 DUP3 ADD MSTORE PUSH1 0x80 ADD SWAP1 JUMP JUMPDEST PUSH1 0x20 DUP1 DUP3 MSTORE PUSH1 0x25 SWAP1 DUP3 ADD MSTORE PUSH32 0x45524332303A2064656372656173656420616C6C6F77616E63652062656C6F77 PUSH1 0x40 DUP3 ADD MSTORE PUSH5 0x207A65726F PUSH1 0xD8 SHL PUSH1 0x60 DUP3 ADD MSTORE PUSH1 0x80 ADD SWAP1 JUMP JUMPDEST SWAP1 DUP2 MSTORE PUSH1 0x20 ADD SWAP1 JUMP JUMPDEST PUSH1 0xFF SWAP2 SWAP1 SWAP2 AND DUP2 MSTORE PUSH1 0x20 ADD SWAP1 JUMP JUMPDEST PUSH1 0x0 DUP3 NOT DUP3 GT ISZERO PUSH2 0x8A1 JUMPI PUSH4 0x4E487B71 PUSH1 0xE0 SHL DUP2 MSTORE PUSH1 0x11 PUSH1 0x4 MSTORE PUSH1 0x24 DUP2 REVERT JUMPDEST POP ADD SWAP1 JUMP JUMPDEST PUSH1 0x2 DUP2 DIV PUSH1 0x1 DUP3 AND DUP1 PUSH2 0x8BA JUMPI PUSH1 0x7F DUP3 AND SWAP2 POP JUMPDEST PUSH1 0x20 DUP3 LT DUP2 EQ ISZERO PUSH2 0x8DB JUMPI PUSH4 0x4E487B71 PUSH1 0xE0 SHL PUSH1 0x0 MSTORE PUSH1 0x22 PUSH1 0x4 MSTORE PUSH1 0x24 PUSH1 0x0 REVERT JUMPDEST POP SWAP2 SWAP1 POP JUMP INVALID LOG2 PUSH5 0x6970667358 0x22 SLT KECCAK256 CALLDATACOPY 0x4E GASLIMIT LOG4 DUP13 0x2C 0x48 0xAD 0xE 0xCD PUSH29 0x35A6668683ED15F0EF4C0BA4B17ED4E99B25B17CEA64736F6C63430008 STOP STOP CALLER "
		},
		"gasEstimates": {
			"creation": {
				"codeDepositCost": "4364800",
				"executionCost": "infinite",
				"totalCost": "infinite"
			},
			"external": {
				"BuyTokens(uint256)": "infinite",
				"ContractAddress()": "296",
				"CreateJournal(uint256,string,string,uint256,string,uint256,string,uint256)": "infinite",
				"EnrolInternal(address,string)": "infinite",
				"OwnTokens()": "infinite",
				"RequestJournalCreation(string,string)": "infinite",
				"SeeRequestStatus(uint256)": "infinite",
				"TokenAddress()": "1115",
				"TokensAvailable()": "infinite",
				"UpdateData(string,string,bool)": "infinite",
				"UserRegister(string,string,string,bool)": "infinite",
				"VoteRequest(uint256,string)": "infinite",
				"_HasVoted(uint256,address)": "1430",
				"_JournalRequests(uint256)": "infinite",
				"_Journals(address)": "infinite",
				"_Users(address)": "infinite"
			},
			"internal": {
				"SeeRequests()": "infinite",
				"TokenPrice(uint256)": "127"
			}
		},
		"methodIdentifiers": {
			"BuyTokens(uint256)": "89749adb",
			"ContractAddress()": "66d11c1a",
			"CreateJournal(uint256,string,string,uint256,string,uint256,string,uint256)": "cf609734",
			"EnrolInternal(address,string)": "84773da2",
			"OwnTokens()": "5328af43",
			"RequestJournalCreation(string,string)": "eb3c3551",
			"SeeRequestStatus(uint256)": "da75e253",
			"TokenAddress()": "c2cba306",
			"TokensAvailable()": "0317cdd7",
			"UpdateData(string,string,bool)": "45877e29",
			"UserRegister(string,string,string,bool)": "e15764c5",
			"VoteRequest(uint256,string)": "23a98950",
			"_HasVoted(uint256,address)": "41afe459",
			"_JournalRequests(uint256)": "9cbf9318",
			"_Journals(address)": "fb765d36",
			"_Users(address)": "ff4d8efc"
		}
	},
	"abi": [
		{
			"inputs": [],
			"stateMutability": "nonpayable",
			"type": "constructor"
		},
		{
			"anonymous": false,
			"inputs": [
				{
					"indexed": false,
					"internalType": "address",
					"name": "userAddress",
					"type": "address"
				},
				{
					"indexed": false,
					"internalType": "string",
					"name": "fullname",
					"type": "string"
				}
			],
			"name": "JournalCreationRequest",
			"type": "event"
		},
		{
			"anonymous": false,
			"inputs": [
				{
					"indexed": false,
					"internalType": "string",
					"name": "message",
					"type": "string"
				}
			],
			"name": "VotingTimeOver",
			"type": "event"
		},
		{
			"inputs": [
				{
					"internalType": "uint256",
					"name": "_numTokens",
					"type": "uint256"
				}
			],
			"name": "BuyTokens",
			"outputs": [],
			"stateMutability": "payable",
			"type": "function"
		},
		{
			"inputs": [],
			"name": "ContractAddress",
			"outputs": [
				{
					"internalType": "address",
					"name": "",
					"type": "address"
				}
			],
			"stateMutability": "view",
			"type": "function"
		},
		{
			"inputs": [
				{
					"internalType": "uint256",
					"name": "_id",
					"type": "uint256"
				},
				{
					"internalType": "string",
					"name": "_name",
					"type": "string"
				},
				{
					"internalType": "string",
					"name": "_fgsp",
					"type": "string"
				},
				{
					"internalType": "uint256",
					"name": "_n1",
					"type": "uint256"
				},
				{
					"internalType": "string",
					"name": "_sgsp",
					"type": "string"
				},
				{
					"internalType": "uint256",
					"name": "_n2",
					"type": "uint256"
				},
				{
					"internalType": "string",
					"name": "_ip",
					"type": "string"
				},
				{
					"internalType": "uint256",
					"name": "_cost",
					"type": "uint256"
				}
			],
			"name": "CreateJournal",
			"outputs": [
				{
					"internalType": "address",
					"name": "",
					"type": "address"
				}
			],
			"stateMutability": "nonpayable",
			"type": "function"
		},
		{
			"inputs": [
				{
					"internalType": "address",
					"name": "sender",
					"type": "address"
				},
				{
					"internalType": "string",
					"name": "_journal",
					"type": "string"
				}
			],
			"name": "EnrolInternal",
			"outputs": [],
			"stateMutability": "nonpayable",
			"type": "function"
		},
		{
			"inputs": [],
			"name": "OwnTokens",
			"outputs": [
				{
					"internalType": "uint256",
					"name": "",
					"type": "uint256"
				}
			],
			"stateMutability": "view",
			"type": "function"
		},
		{
			"inputs": [
				{
					"internalType": "string",
					"name": "_name",
					"type": "string"
				},
				{
					"internalType": "string",
					"name": "_aboutlink",
					"type": "string"
				}
			],
			"name": "RequestJournalCreation",
			"outputs": [
				{
					"internalType": "uint256",
					"name": "",
					"type": "uint256"
				}
			],
			"stateMutability": "nonpayable",
			"type": "function"
		},
		{
			"inputs": [
				{
					"internalType": "uint256",
					"name": "_id",
					"type": "uint256"
				}
			],
			"name": "SeeRequestStatus",
			"outputs": [
				{
					"internalType": "string",
					"name": "",
					"type": "string"
				}
			],
			"stateMutability": "nonpayable",
			"type": "function"
		},
		{
			"inputs": [],
			"name": "TokenAddress",
			"outputs": [
				{
					"internalType": "address",
					"name": "",
					"type": "address"
				}
			],
			"stateMutability": "view",
			"type": "function"
		},
		{
			"inputs": [],
			"name": "TokensAvailable",
			"outputs": [
				{
					"internalType": "uint256",
					"name": "",
					"type": "uint256"
				}
			],
			"stateMutability": "view",
			"type": "function"
		},
		{
			"inputs": [
				{
					"internalType": "string",
					"name": "_email",
					"type": "string"
				},
				{
					"internalType": "string",
					"name": "_university",
					"type": "string"
				},
				{
					"internalType": "bool",
					"name": "_revisorrol",
					"type": "bool"
				}
			],
			"name": "UpdateData",
			"outputs": [],
			"stateMutability": "nonpayable",
			"type": "function"
		},
		{
			"inputs": [
				{
					"internalType": "string",
					"name": "_fullname",
					"type": "string"
				},
				{
					"internalType": "string",
					"name": "_email",
					"type": "string"
				},
				{
					"internalType": "string",
					"name": "_university",
					"type": "string"
				},
				{
					"internalType": "bool",
					"name": "_revisorrol",
					"type": "bool"
				}
			],
			"name": "UserRegister",
			"outputs": [],
			"stateMutability": "nonpayable",
			"type": "function"
		},
		{
			"inputs": [
				{
					"internalType": "uint256",
					"name": "_id",
					"type": "uint256"
				},
				{
					"internalType": "string",
					"name": "_vote",
					"type": "string"
				}
			],
			"name": "VoteRequest",
			"outputs": [],
			"stateMutability": "nonpayable",
			"type": "function"
		},
		{
			"inputs": [
				{
					"internalType": "uint256",
					"name": "",
					"type": "uint256"
				},
				{
					"internalType": "address",
					"name": "",
					"type": "address"
				}
			],
			"name": "_HasVoted",
			"outputs": [
				{
					"internalType": "bool",
					"name": "",
					"type": "bool"
				}
			],
			"stateMutability": "view",
			"type": "function"
		},
		{
			"inputs": [
				{
					"internalType": "uint256",
					"name": "",
					"type": "uint256"
				}
			],
			"name": "_JournalRequests",
			"outputs": [
				{
					"internalType": "address",
					"name": "_Requester",
					"type": "address"
				},
				{
					"internalType": "string",
					"name": "_Name",
					"type": "string"
				},
				{
					"internalType": "string",
					"name": "_AboutLink",
					"type": "string"
				},
				{
					"internalType": "uint256",
					"name": "_Time",
					"type": "uint256"
				},
				{
					"internalType": "string",
					"name": "_State",
					"type": "string"
				},
				{
					"internalType": "uint256",
					"name": "_UpVotes",
					"type": "uint256"
				},
				{
					"internalType": "uint256",
					"name": "_DownVotes",
					"type": "uint256"
				}
			],
			"stateMutability": "view",
			"type": "function"
		},
		{
			"inputs": [
				{
					"internalType": "address",
					"name": "",
					"type": "address"
				}
			],
			"name": "_Journals",
			"outputs": [
				{
					"internalType": "string",
					"name": "_Name",
					"type": "string"
				},
				{
					"internalType": "string",
					"name": "_FGSP",
					"type": "string"
				},
				{
					"internalType": "uint256",
					"name": "_N1",
					"type": "uint256"
				},
				{
					"internalType": "string",
					"name": "_SGSP",
					"type": "string"
				},
				{
					"internalType": "uint256",
					"name": "_N2",
					"type": "uint256"
				},
				{
					"internalType": "string",
					"name": "_IP",
					"type": "string"
				},
				{
					"internalType": "uint256",
					"name": "_Cost",
					"type": "uint256"
				}
			],
			"stateMutability": "view",
			"type": "function"
		},
		{
			"inputs": [
				{
					"internalType": "address",
					"name": "",
					"type": "address"
				}
			],
			"name": "_Users",
			"outputs": [
				{
					"internalType": "string",
					"name": "_FullName",
					"type": "string"
				},
				{
					"internalType": "string",
					"name": "_Email",
					"type": "string"
				},
				{
					"internalType": "string",
					"name": "_University",
					"type": "string"
				},
				{
					"internalType": "bool",
					"name": "_RevisorRol",
					"type": "bool"
				}
			],
			"stateMutability": "view",
			"type": "function"
		}
	]
}